{
  "contracts/TokenStaking.sol": {
    "TokenStaking": {
      "abi": [
        {
          "inputs": [
            {
              "internalType": "address",
              "name": "token",
              "type": "address"
            },
            {
              "internalType": "uint256",
              "name": "_epochDuration",
              "type": "uint256"
            },
            {
              "components": [
                {
                  "internalType": "uint256",
                  "name": "lockPeriod",
                  "type": "uint256"
                },
                {
                  "internalType": "uint256",
                  "name": "multiplier",
                  "type": "uint256"
                }
              ],
              "internalType": "struct TokenStaking.Tier[]",
              "name": "_tiers",
              "type": "tuple[]"
            }
          ],
          "stateMutability": "nonpayable",
          "type": "constructor"
        },
        {
          "inputs": [],
          "name": "CannotSetRewardForPastEpochs",
          "type": "error"
        },
        {
          "inputs": [],
          "name": "CannotStakeZeroAmount",
          "type": "error"
        },
        {
          "inputs": [
            {
              "internalType": "address",
              "name": "spender",
              "type": "address"
            },
            {
              "internalType": "uint256",
              "name": "allowance",
              "type": "uint256"
            },
            {
              "internalType": "uint256",
              "name": "needed",
              "type": "uint256"
            }
          ],
          "name": "ERC20InsufficientAllowance",
          "type": "error"
        },
        {
          "inputs": [
            {
              "internalType": "address",
              "name": "sender",
              "type": "address"
            },
            {
              "internalType": "uint256",
              "name": "balance",
              "type": "uint256"
            },
            {
              "internalType": "uint256",
              "name": "needed",
              "type": "uint256"
            }
          ],
          "name": "ERC20InsufficientBalance",
          "type": "error"
        },
        {
          "inputs": [
            {
              "internalType": "address",
              "name": "approver",
              "type": "address"
            }
          ],
          "name": "ERC20InvalidApprover",
          "type": "error"
        },
        {
          "inputs": [
            {
              "internalType": "address",
              "name": "receiver",
              "type": "address"
            }
          ],
          "name": "ERC20InvalidReceiver",
          "type": "error"
        },
        {
          "inputs": [
            {
              "internalType": "address",
              "name": "sender",
              "type": "address"
            }
          ],
          "name": "ERC20InvalidSender",
          "type": "error"
        },
        {
          "inputs": [
            {
              "internalType": "address",
              "name": "spender",
              "type": "address"
            }
          ],
          "name": "ERC20InvalidSpender",
          "type": "error"
        },
        {
          "inputs": [],
          "name": "EpochDurationMustBeGreaterThanZero",
          "type": "error"
        },
        {
          "inputs": [],
          "name": "InvalidEpoch",
          "type": "error"
        },
        {
          "inputs": [],
          "name": "InvalidStakeIndex",
          "type": "error"
        },
        {
          "inputs": [],
          "name": "InvalidTierIndex",
          "type": "error"
        },
        {
          "inputs": [],
          "name": "LockPeriodNotEnded",
          "type": "error"
        },
        {
          "inputs": [],
          "name": "MultiplierMustBeGreaterThanZero",
          "type": "error"
        },
        {
          "inputs": [
            {
              "internalType": "address",
              "name": "owner",
              "type": "address"
            }
          ],
          "name": "OwnableInvalidOwner",
          "type": "error"
        },
        {
          "inputs": [
            {
              "internalType": "address",
              "name": "account",
              "type": "address"
            }
          ],
          "name": "OwnableUnauthorizedAccount",
          "type": "error"
        },
        {
          "inputs": [],
          "name": "ReentrancyGuardReentrantCall",
          "type": "error"
        },
        {
          "inputs": [],
          "name": "RewardTransferFailed",
          "type": "error"
        },
        {
          "inputs": [],
          "name": "StakeTransferFailed",
          "type": "error"
        },
        {
          "inputs": [],
          "name": "TransferNotAllowed",
          "type": "error"
        },
        {
          "inputs": [],
          "name": "UnstakeTransferFailed",
          "type": "error"
        },
        {
          "anonymous": false,
          "inputs": [
            {
              "indexed": true,
              "internalType": "address",
              "name": "owner",
              "type": "address"
            },
            {
              "indexed": true,
              "internalType": "address",
              "name": "spender",
              "type": "address"
            },
            {
              "indexed": false,
              "internalType": "uint256",
              "name": "value",
              "type": "uint256"
            }
          ],
          "name": "Approval",
          "type": "event"
        },
        {
          "anonymous": false,
          "inputs": [
            {
              "indexed": true,
              "internalType": "uint256",
              "name": "epoch",
              "type": "uint256"
            },
            {
              "indexed": false,
              "internalType": "bytes32",
              "name": "merkleRoot",
              "type": "bytes32"
            }
          ],
          "name": "MerkleRootSet",
          "type": "event"
        },
        {
          "anonymous": false,
          "inputs": [
            {
              "indexed": true,
              "internalType": "address",
              "name": "previousOwner",
              "type": "address"
            },
            {
              "indexed": true,
              "internalType": "address",
              "name": "newOwner",
              "type": "address"
            }
          ],
          "name": "OwnershipTransferred",
          "type": "event"
        },
        {
          "anonymous": false,
          "inputs": [
            {
              "indexed": true,
              "internalType": "address",
              "name": "user",
              "type": "address"
            },
            {
              "indexed": false,
              "internalType": "uint256",
              "name": "amount",
              "type": "uint256"
            }
          ],
          "name": "RewardClaimed",
          "type": "event"
        },
        {
          "anonymous": false,
          "inputs": [
            {
              "indexed": true,
              "internalType": "uint256",
              "name": "epoch",
              "type": "uint256"
            },
            {
              "indexed": false,
              "internalType": "uint256",
              "name": "amount",
              "type": "uint256"
            }
          ],
          "name": "RewardSet",
          "type": "event"
        },
        {
          "anonymous": false,
          "inputs": [
            {
              "indexed": true,
              "internalType": "address",
              "name": "user",
              "type": "address"
            },
            {
              "indexed": false,
              "internalType": "uint256",
              "name": "amount",
              "type": "uint256"
            },
            {
              "indexed": false,
              "internalType": "uint256",
              "name": "tierIndex",
              "type": "uint256"
            }
          ],
          "name": "Staked",
          "type": "event"
        },
        {
          "anonymous": false,
          "inputs": [
            {
              "indexed": false,
              "internalType": "uint256",
              "name": "lockPeriod",
              "type": "uint256"
            },
            {
              "indexed": false,
              "internalType": "uint256",
              "name": "multiplier",
              "type": "uint256"
            }
          ],
          "name": "TierAdded",
          "type": "event"
        },
        {
          "anonymous": false,
          "inputs": [
            {
              "indexed": false,
              "internalType": "uint256",
              "name": "index",
              "type": "uint256"
            },
            {
              "indexed": false,
              "internalType": "uint256",
              "name": "lockPeriod",
              "type": "uint256"
            },
            {
              "indexed": false,
              "internalType": "uint256",
              "name": "multiplier",
              "type": "uint256"
            }
          ],
          "name": "TierUpdated",
          "type": "event"
        },
        {
          "anonymous": false,
          "inputs": [
            {
              "indexed": true,
              "internalType": "address",
              "name": "from",
              "type": "address"
            },
            {
              "indexed": true,
              "internalType": "address",
              "name": "to",
              "type": "address"
            },
            {
              "indexed": false,
              "internalType": "uint256",
              "name": "value",
              "type": "uint256"
            }
          ],
          "name": "Transfer",
          "type": "event"
        },
        {
          "anonymous": false,
          "inputs": [
            {
              "indexed": true,
              "internalType": "address",
              "name": "user",
              "type": "address"
            },
            {
              "indexed": false,
              "internalType": "uint256",
              "name": "amount",
              "type": "uint256"
            }
          ],
          "name": "Unstaked",
          "type": "event"
        },
        {
          "inputs": [],
          "name": "TOKEN",
          "outputs": [
            {
              "internalType": "contract IERC20",
              "name": "",
              "type": "address"
            }
          ],
          "stateMutability": "view",
          "type": "function"
        },
        {
          "inputs": [
            {
              "internalType": "address",
              "name": "owner",
              "type": "address"
            },
            {
              "internalType": "address",
              "name": "spender",
              "type": "address"
            }
          ],
          "name": "allowance",
          "outputs": [
            {
              "internalType": "uint256",
              "name": "",
              "type": "uint256"
            }
          ],
          "stateMutability": "view",
          "type": "function"
        },
        {
          "inputs": [
            {
              "internalType": "address",
              "name": "spender",
              "type": "address"
            },
            {
              "internalType": "uint256",
              "name": "value",
              "type": "uint256"
            }
          ],
          "name": "approve",
          "outputs": [
            {
              "internalType": "bool",
              "name": "",
              "type": "bool"
            }
          ],
          "stateMutability": "nonpayable",
          "type": "function"
        },
        {
          "inputs": [
            {
              "internalType": "address",
              "name": "account",
              "type": "address"
            }
          ],
          "name": "balanceOf",
          "outputs": [
            {
              "internalType": "uint256",
              "name": "",
              "type": "uint256"
            }
          ],
          "stateMutability": "view",
          "type": "function"
        },
        {
          "inputs": [
            {
              "internalType": "uint256",
              "name": "stakeIndex",
              "type": "uint256"
            },
            {
              "internalType": "uint256[]",
              "name": "epochs",
              "type": "uint256[]"
            },
            {
              "internalType": "bytes32[][]",
              "name": "merkleProofs",
              "type": "bytes32[][]"
            }
          ],
          "name": "calculateRewards",
          "outputs": [
            {
              "internalType": "uint256",
              "name": "",
              "type": "uint256"
            }
          ],
          "stateMutability": "view",
          "type": "function"
        },
        {
          "inputs": [
            {
              "internalType": "uint256",
              "name": "stakeIndex",
              "type": "uint256"
            },
            {
              "internalType": "uint256[]",
              "name": "votedEpochs",
              "type": "uint256[]"
            }
          ],
          "name": "calculateRewardsWithVoting",
          "outputs": [
            {
              "internalType": "uint256",
              "name": "",
              "type": "uint256"
            }
          ],
          "stateMutability": "view",
          "type": "function"
        },
        {
          "inputs": [
            {
              "internalType": "uint256",
              "name": "stakeIndex",
              "type": "uint256"
            },
            {
              "internalType": "uint256[]",
              "name": "epochs",
              "type": "uint256[]"
            },
            {
              "internalType": "bytes32[][]",
              "name": "merkleProofs",
              "type": "bytes32[][]"
            }
          ],
          "name": "claimRewards",
          "outputs": [],
          "stateMutability": "nonpayable",
          "type": "function"
        },
        {
          "inputs": [],
          "name": "decimals",
          "outputs": [
            {
              "internalType": "uint8",
              "name": "",
              "type": "uint8"
            }
          ],
          "stateMutability": "view",
          "type": "function"
        },
        {
          "inputs": [],
          "name": "defaultEpochRewards",
          "outputs": [
            {
              "internalType": "uint256",
              "name": "",
              "type": "uint256"
            }
          ],
          "stateMutability": "view",
          "type": "function"
        },
        {
          "inputs": [],
          "name": "epochDuration",
          "outputs": [
            {
              "internalType": "uint256",
              "name": "",
              "type": "uint256"
            }
          ],
          "stateMutability": "view",
          "type": "function"
        },
        {
          "inputs": [
            {
              "internalType": "uint256",
              "name": "epoch",
              "type": "uint256"
            }
          ],
          "name": "epochMerkleRoots",
          "outputs": [
            {
              "internalType": "bytes32",
              "name": "root",
              "type": "bytes32"
            }
          ],
          "stateMutability": "view",
          "type": "function"
        },
        {
          "inputs": [],
          "name": "getCurrentEpoch",
          "outputs": [
            {
              "internalType": "uint256",
              "name": "",
              "type": "uint256"
            }
          ],
          "stateMutability": "view",
          "type": "function"
        },
        {
          "inputs": [
            {
              "internalType": "uint256",
              "name": "epoch",
              "type": "uint256"
            }
          ],
          "name": "getRewardsForEpoch",
          "outputs": [
            {
              "internalType": "uint256",
              "name": "",
              "type": "uint256"
            }
          ],
          "stateMutability": "view",
          "type": "function"
        },
        {
          "inputs": [
            {
              "internalType": "uint256",
              "name": "epoch",
              "type": "uint256"
            }
          ],
          "name": "getTotalEffectiveSupplyAtEpoch",
          "outputs": [
            {
              "internalType": "uint256",
              "name": "",
              "type": "uint256"
            }
          ],
          "stateMutability": "view",
          "type": "function"
        },
        {
          "inputs": [
            {
              "internalType": "address",
              "name": "user",
              "type": "address"
            }
          ],
          "name": "getUserStakes",
          "outputs": [
            {
              "components": [
                {
                  "internalType": "uint256",
                  "name": "amount",
                  "type": "uint256"
                },
                {
                  "internalType": "uint256",
                  "name": "effectiveAmount",
                  "type": "uint256"
                },
                {
                  "internalType": "uint256",
                  "name": "tierIndex",
                  "type": "uint256"
                },
                {
                  "internalType": "uint256",
                  "name": "startTime",
                  "type": "uint256"
                },
                {
                  "internalType": "uint256",
                  "name": "lastClaimEpoch",
                  "type": "uint256"
                }
              ],
              "internalType": "struct TokenStaking.Stake[]",
              "name": "",
              "type": "tuple[]"
            }
          ],
          "stateMutability": "view",
          "type": "function"
        },
        {
          "inputs": [
            {
              "internalType": "uint256",
              "name": "epoch",
              "type": "uint256"
            },
            {
              "internalType": "address",
              "name": "user",
              "type": "address"
            },
            {
              "internalType": "bytes32[]",
              "name": "merkleProof",
              "type": "bytes32[]"
            }
          ],
          "name": "hasVoted",
          "outputs": [
            {
              "internalType": "bool",
              "name": "",
              "type": "bool"
            }
          ],
          "stateMutability": "view",
          "type": "function"
        },
        {
          "inputs": [],
          "name": "lastTotalEffectiveSupplyChangedAtEpoch",
          "outputs": [
            {
              "internalType": "uint256",
              "name": "",
              "type": "uint256"
            }
          ],
          "stateMutability": "view",
          "type": "function"
        },
        {
          "inputs": [],
          "name": "name",
          "outputs": [
            {
              "internalType": "string",
              "name": "",
              "type": "string"
            }
          ],
          "stateMutability": "view",
          "type": "function"
        },
        {
          "inputs": [],
          "name": "owner",
          "outputs": [
            {
              "internalType": "address",
              "name": "",
              "type": "address"
            }
          ],
          "stateMutability": "view",
          "type": "function"
        },
        {
          "inputs": [],
          "name": "renounceOwnership",
          "outputs": [],
          "stateMutability": "nonpayable",
          "type": "function"
        },
        {
          "inputs": [
            {
              "internalType": "uint256",
              "name": "epoch",
              "type": "uint256"
            }
          ],
          "name": "rewardsPerEpoch",
          "outputs": [
            {
              "internalType": "uint256",
              "name": "reward",
              "type": "uint256"
            }
          ],
          "stateMutability": "view",
          "type": "function"
        },
        {
          "inputs": [
            {
              "internalType": "uint256",
              "name": "_epochDuration",
              "type": "uint256"
            }
          ],
          "name": "setEpochDuration",
          "outputs": [],
          "stateMutability": "nonpayable",
          "type": "function"
        },
        {
          "inputs": [
            {
              "internalType": "uint256",
              "name": "epoch",
              "type": "uint256"
            },
            {
              "internalType": "bytes32",
              "name": "merkleRoot",
              "type": "bytes32"
            }
          ],
          "name": "setMerkleRoot",
          "outputs": [],
          "stateMutability": "nonpayable",
          "type": "function"
        },
        {
          "inputs": [
            {
              "internalType": "uint256",
              "name": "epoch",
              "type": "uint256"
            },
            {
              "internalType": "uint256",
              "name": "reward",
              "type": "uint256"
            }
          ],
          "name": "setRewardForEpoch",
          "outputs": [],
          "stateMutability": "nonpayable",
          "type": "function"
        },
        {
          "inputs": [
            {
              "internalType": "uint256",
              "name": "index",
              "type": "uint256"
            },
            {
              "internalType": "uint256",
              "name": "lockPeriod",
              "type": "uint256"
            },
            {
              "internalType": "uint256",
              "name": "multiplier",
              "type": "uint256"
            }
          ],
          "name": "setTier",
          "outputs": [],
          "stateMutability": "nonpayable",
          "type": "function"
        },
        {
          "inputs": [
            {
              "internalType": "uint256",
              "name": "amount",
              "type": "uint256"
            },
            {
              "internalType": "uint256",
              "name": "tierIndex",
              "type": "uint256"
            }
          ],
          "name": "stake",
          "outputs": [],
          "stateMutability": "nonpayable",
          "type": "function"
        },
        {
          "inputs": [],
          "name": "symbol",
          "outputs": [
            {
              "internalType": "string",
              "name": "",
              "type": "string"
            }
          ],
          "stateMutability": "view",
          "type": "function"
        },
        {
          "inputs": [
            {
              "internalType": "uint256",
              "name": "",
              "type": "uint256"
            }
          ],
          "name": "tiers",
          "outputs": [
            {
              "internalType": "uint256",
              "name": "lockPeriod",
              "type": "uint256"
            },
            {
              "internalType": "uint256",
              "name": "multiplier",
              "type": "uint256"
            }
          ],
          "stateMutability": "view",
          "type": "function"
        },
        {
          "inputs": [],
          "name": "totalEffectiveSupply",
          "outputs": [
            {
              "internalType": "uint256",
              "name": "",
              "type": "uint256"
            }
          ],
          "stateMutability": "view",
          "type": "function"
        },
        {
          "inputs": [
            {
              "internalType": "uint256",
              "name": "epoch",
              "type": "uint256"
            }
          ],
          "name": "totalEffectiveSupplyAtEpoch",
          "outputs": [
            {
              "internalType": "uint256",
              "name": "totalEffectiveSupply",
              "type": "uint256"
            }
          ],
          "stateMutability": "view",
          "type": "function"
        },
        {
          "inputs": [],
          "name": "totalSupply",
          "outputs": [
            {
              "internalType": "uint256",
              "name": "",
              "type": "uint256"
            }
          ],
          "stateMutability": "view",
          "type": "function"
        },
        {
          "inputs": [
            {
              "internalType": "address",
              "name": "to",
              "type": "address"
            },
            {
              "internalType": "uint256",
              "name": "value",
              "type": "uint256"
            }
          ],
          "name": "transfer",
          "outputs": [
            {
              "internalType": "bool",
              "name": "",
              "type": "bool"
            }
          ],
          "stateMutability": "nonpayable",
          "type": "function"
        },
        {
          "inputs": [
            {
              "internalType": "address",
              "name": "from",
              "type": "address"
            },
            {
              "internalType": "address",
              "name": "to",
              "type": "address"
            },
            {
              "internalType": "uint256",
              "name": "value",
              "type": "uint256"
            }
          ],
          "name": "transferFrom",
          "outputs": [
            {
              "internalType": "bool",
              "name": "",
              "type": "bool"
            }
          ],
          "stateMutability": "nonpayable",
          "type": "function"
        },
        {
          "inputs": [
            {
              "internalType": "address",
              "name": "newOwner",
              "type": "address"
            }
          ],
          "name": "transferOwnership",
          "outputs": [],
          "stateMutability": "nonpayable",
          "type": "function"
        },
        {
          "inputs": [
            {
              "internalType": "uint256",
              "name": "stakeIndex",
              "type": "uint256"
            }
          ],
          "name": "unstake",
          "outputs": [],
          "stateMutability": "nonpayable",
          "type": "function"
        },
        {
          "inputs": [
            {
              "internalType": "address",
              "name": "user",
              "type": "address"
            },
            {
              "internalType": "uint256",
              "name": "",
              "type": "uint256"
            }
          ],
          "name": "userStakes",
          "outputs": [
            {
              "internalType": "uint256",
              "name": "amount",
              "type": "uint256"
            },
            {
              "internalType": "uint256",
              "name": "effectiveAmount",
              "type": "uint256"
            },
            {
              "internalType": "uint256",
              "name": "tierIndex",
              "type": "uint256"
            },
            {
              "internalType": "uint256",
              "name": "startTime",
              "type": "uint256"
            },
            {
              "internalType": "uint256",
              "name": "lastClaimEpoch",
              "type": "uint256"
            }
          ],
          "stateMutability": "view",
          "type": "function"
        }
      ],
      "evm": {
        "bytecode": {
          "linkReferences": {},
          "object": "60a060405268056bc75e2d631000006009553480156200001e57600080fd5b506040516200254d3803806200254d833981016040819052620000419162000248565b33806040518060400160405280600b81526020016a14dd185ad959081491505360aa1b815250604051806040016040528060058152602001641cd491505360da1b8152508160039081620000969190620003df565b506004620000a58282620003df565b50506001600555506001600160a01b038116620000dc57604051631e4fbdf760e01b81526000600482015260240160405180910390fd5b620000e78162000182565b50506001600160a01b03831660805260005b81518110156200015e57600b8282815181106200011a576200011a620004ab565b6020908102919091018101518254600181810185556000948552938390208251600290920201908155910151910155806200015581620004c1565b915050620000f9565b506008829055620001708242620004e9565b600a819055600f55506200050c915050565b600680546001600160a01b038381166001600160a01b0319831681179093556040519116919082907f8be0079c531659141344cd1fd0a4f28419497f9722a3daafe3b4186f6b6457e090600090a35050565b634e487b7160e01b600052604160045260246000fd5b604080519081016001600160401b03811182821017156200020f576200020f620001d4565b60405290565b604051601f8201601f191681016001600160401b0381118282101715620002405762000240620001d4565b604052919050565b6000806000606084860312156200025e57600080fd5b83516001600160a01b03811681146200027657600080fd5b60208581015160408088015193965090945090916001600160401b0380821115620002a057600080fd5b818801915088601f830112620002b557600080fd5b815181811115620002ca57620002ca620001d4565b620002da858260051b0162000215565b818152858101925060069190911b83018501908a821115620002fb57600080fd5b928501925b81841015620003405784848c0312156200031a5760008081fd5b62000324620001ea565b8451815286850151878201528352928401929185019162000300565b8096505050505050509250925092565b600181811c908216806200036557607f821691505b6020821081036200038657634e487b7160e01b600052602260045260246000fd5b50919050565b601f821115620003da57600081815260208120601f850160051c81016020861015620003b55750805b601f850160051c820191505b81811015620003d657828155600101620003c1565b5050505b505050565b81516001600160401b03811115620003fb57620003fb620001d4565b62000413816200040c845462000350565b846200038c565b602080601f8311600181146200044b5760008415620004325750858301515b600019600386901b1c1916600185901b178555620003d6565b600085815260208120601f198616915b828110156200047c578886015182559484019460019091019084016200045b565b50858210156200049b5787850151600019600388901b60f8161c191681555b5050505050600190811b01905550565b634e487b7160e01b600052603260045260246000fd5b600060018201620004e257634e487b7160e01b600052601160045260246000fd5b5060010190565b6000826200050757634e487b7160e01b600052601260045260246000fd5b500490565b6080516120106200053d600039600081816103dc015281816108e801528181610e4a015261177301526120106000f3fe608060405234801561001057600080fd5b506004361061021c5760003560e01c8063715018a6116101255780639cd89c88116100ad578063b179f7d91161007c578063b179f7d9146104c4578063b5d5b5fa146104e4578063b97dd9e21461051f578063dd62ed3e14610527578063f2fde38b1461056057600080fd5b80639cd89c8814610482578063a8a7747c14610495578063a9059cbb146104a8578063ad7ea0a9146104bb57600080fd5b8063836a0187116100f4578063836a018714610416578063842e2981146104295780638da5cb5b1461044957806394cee7b31461045a57806395d89b411461047a57600080fd5b8063715018a6146103a95780637b0472f0146103b1578063823998ee146103c457806382bfefc8146103d757600080fd5b80632e17de78116101a857806342dcbd3f1161017757806342dcbd3f1461033e5780634d03d394146103515780634ff0876a146103645780636585e4f21461036d57806370a082311461038057600080fd5b80632e17de78146102f657806330024dfe14610309578063313ce5671461031c578063368400941461032b57600080fd5b806318160ddd116101ef57806318160ddd1461029d57806318712c21146102a557806323b872dd146102ba5780632a52344c146102cd5780632c816a5c146102ed57600080fd5b8063039af9eb1461022157806306fdde031461024e578063095ea7b31461026357806314372a1014610286575b600080fd5b61023461022f366004611b04565b610573565b604080519283526020830191909152015b60405180910390f35b6102566105a1565b6040516102459190611b1d565b610276610271366004611b87565b610633565b6040519015158152602001610245565b61028f60095481565b604051908152602001610245565b60025461028f565b6102b86102b3366004611bb1565b61064d565b005b6102766102c8366004611bd3565b6106a6565b61028f6102db366004611b04565b60106020526000908152604090205481565b61028f600f5481565b6102b8610304366004611b04565b6106ca565b6102b8610317366004611b04565b6109c0565b60405160128152602001610245565b61028f610339366004611b04565b6109cd565b61028f61034c366004611c5b565b610a21565b61028f61035f366004611b04565b610bbb565b61028f60085481565b61027661037b366004611cd5565b610c10565b61028f61038e366004611d2f565b6001600160a01b031660009081526020819052604090205490565b6102b8610cb3565b6102b86103bf366004611bb1565b610cc7565b6102b86103d2366004611c5b565b610f30565b6103fe7f000000000000000000000000000000000000000000000000000000000000000081565b6040516001600160a01b039091168152602001610245565b6102b8610424366004611d4a565b610f5e565b61043c610437366004611d2f565b6110d3565b6040516102459190611d76565b6006546001600160a01b03166103fe565b61028f610468366004611b04565b600d6020526000908152604090205481565b61025661117a565b6102b8610490366004611bb1565b611189565b61028f6104a3366004611de4565b6111fe565b6102766104b6366004611b87565b611367565b61028f600e5481565b61028f6104d2366004611b04565b60076020526000908152604090205481565b6104f76104f2366004611b87565b611375565b604080519586526020860194909452928401919091526060830152608082015260a001610245565b61028f6113c3565b61028f610535366004611e30565b6001600160a01b03918216600090815260016020908152604080832093909416825291909152205490565b6102b861056e366004611d2f565b6113d8565b600b818154811061058357600080fd5b60009182526020909120600290910201805460019091015490915082565b6060600380546105b090611e63565b80601f01602080910402602001604051908101604052809291908181526020018280546105dc90611e63565b80156106295780601f106105fe57610100808354040283529160200191610629565b820191906000526020600020905b81548152906001019060200180831161060c57829003601f168201915b5050505050905090565b600033610641818585611418565b60019150505b92915050565b610655611425565b600082815260076020526040908190208290555182907fb04b7d6145a7588fdcf339a22877d5965f861c171204fc37688058c5f6c06d3b9061069a9084815260200190565b60405180910390a25050565b6000336106b4858285611452565b6106bf8585856114d0565b506001949350505050565b6106d261152f565b336000908152600c602052604090205481106107015760405163cf468e4360e01b815260040160405180910390fd5b336000908152600c6020526040812080548390811061072257610722611e9d565b90600052602060002090600502019050600b81600201548154811061074957610749611e9d565b906000526020600020906002020160000154816003015461076a9190611ec9565b42101561078a576040516387c0f2d560e01b815260040160405180910390fd5b610792611559565b80546001820154600e80546000906107ab908490611edc565b9091555050600e546107bc90611566565b336000908152600c6020526040902080546107d990600190611edc565b815481106107e9576107e9611e9d565b9060005260206000209060050201600c6000336001600160a01b03166001600160a01b03168152602001908152602001600020848154811061082d5761082d611e9d565b6000918252602080832084546005909302019182556001808501549083015560028085015490830155600380850154908301556004938401549390910192909255338152600c9091526040902080548061088957610889611eef565b60008281526020812060056000199390930192830201818155600181018290556002810182905560038101829055600490810191909155915560405163a9059cbb60e01b81523391810191909152602481018290526001600160a01b037f0000000000000000000000000000000000000000000000000000000000000000169063a9059cbb906044016020604051808303816000875af1158015610931573d6000803e3d6000fd5b505050506040513d601f19601f820116820180604052508101906109559190611f05565b61097257604051631b9f013160e11b815260040160405180910390fd5b61097c33826115d5565b60405181815233907f0f5bb82176feb1b5e747e28471aa92156a04d9f3ab9f45f28e2d704232b93f759060200160405180910390a250506109bd6001600555565b50565b6109c8611425565b600855565b600081815260106020526040812054156109f4575060009081526010602052604090205490565b600f5482118015610a0c5750610a086113c3565b8211155b15610a19575050600e5490565b506000919050565b336000908152600c60205260408120548610610a505760405163cf468e4360e01b815260040160405180910390fd5b336000908152600c60205260408120805488908110610a7157610a71611e9d565b90600052602060002090600502016040518060a0016040529081600082015481526020016001820154815260200160028201548152602001600382015481526020016004820154815250509050600080610ac96113c3565b608084015190915060005b88811015610bac5760008a8a83818110610af057610af0611e9d565b9050602002013590508281111580610b085750838110155b15610b265760405163d5b25b6360e01b815260040160405180910390fd5b610b4f81338b8b86818110610b3d57610b3d611e9d565b905060200281019061037b9190611f27565b15610b98576000610b5f82610bbb565b90506000610b6c836109cd565b905080886020015183610b7f9190611f71565b610b899190611f88565b610b939088611ec9565b965050505b915080610ba481611faa565b915050610ad4565b50919998505050505050505050565b6000818152600d602052604081205480158015610bd85750600083115b15610bfe57600d6000610bec600186611edc565b81526020019081526020016000205490505b80600003610647575060095492915050565b604080516001600160a01b038516602082015260009182910160408051601f1981840301815282825280516020918201209083015201604051602081830303815290604052805190602001209050610ca984848080602002602001604051908101604052809392919081815260200183836020028082843760009201829052508b815260076020526040902054925085915061160b9050565b9695505050505050565b610cbb611425565b610cc56000611621565b565b610ccf61152f565b81600003610cf057604051631e254a4360e11b815260040160405180910390fd5b600b548110610d125760405163255b382160e01b815260040160405180910390fd5b610d1a611559565b6000670de0b6b3a7640000600b8381548110610d3857610d38611e9d565b90600052602060002090600202016001015484610d559190611f71565b610d5f9190611f88565b905080600e6000828254610d739190611ec9565b9091555050600e54610d8490611566565b600c6000336001600160a01b03166001600160a01b031681526020019081526020016000206040518060a001604052808581526020018381526020018481526020014281526020016001600a54610ddb9190611edc565b9052815460018082018455600093845260209384902083516005909302019182559282015192810192909255604080820151600284015560608201516003840155608090910151600492830155516323b872dd60e01b81523391810191909152306024820152604481018490527f00000000000000000000000000000000000000000000000000000000000000006001600160a01b0316906323b872dd906064016020604051808303816000875af1158015610e9b573d6000803e3d6000fd5b505050506040513d601f19601f82011682018060405250810190610ebf9190611f05565b610edc57604051631231ec2f60e21b815260040160405180910390fd5b610ee63384611673565b604080518481526020810184905233917f1449c6dd7851abc30abf37f57715f492010519147cc2652fbc38202c18a6ee90910160405180910390a250610f2c6001600555565b5050565b610f3861152f565b610f40611559565b610f4d85858585856116a9565b610f576001600555565b5050505050565b610f66611425565b80600003610f8757604051632ca7e70960e11b815260040160405180910390fd5b600b5483101561102257604051806040016040528083815260200182815250600b8481548110610fb957610fb9611e9d565b6000918252602091829020835160029290920201908155918101516001909201919091556040805185815291820184905281018290527f2702951ec468d8fb7c1501e01af87b4bd50cda65a20463fc38ee59b954a777b0906060015b60405180910390a1505050565b6040805180820182528381526020808201848152600b805460018101825560009190915292517f0175b7a638427703f0dbe7bb9bbf987a2551717b34e79f33b5b1008d1fa01db9600290940293840155517f0175b7a638427703f0dbe7bb9bbf987a2551717b34e79f33b5b1008d1fa01dba9092019190915581518481529081018390527fcfc4d8961c232632c6b09bddf66bc413cb73448057d761d8e9131102f8fb3f999101611015565b505050565b6001600160a01b0381166000908152600c60209081526040808320805482518185028101850190935280835260609492939192909184015b8282101561116f57838290600052602060002090600502016040518060a0016040529081600082015481526020016001820154815260200160028201548152602001600382015481526020016004820154815250508152602001906001019061110b565b505050509050919050565b6060600480546105b090611e63565b611191611425565b6111996113c3565b8210156111b95760405163b30fe86560e01b815260040160405180910390fd5b6000828152600d6020526040908190208290555182907fb1364803920b7aa08b58c240c989062d8ebd96ab4bd352792350afbab26c82399061069a9084815260200190565b336000908152600c6020526040812054841061122d5760405163cf468e4360e01b815260040160405180910390fd5b336000908152600c6020526040812080548690811061124e5761124e611e9d565b90600052602060002090600502016040518060a00160405290816000820154815260200160018201548152602001600282015481526020016003820154815260200160048201548152505090506000806112a66113c3565b60808401519091505b8181101561135b576000805b878110156112fd57828989838181106112d6576112d6611e9d565b90506020020135036112eb57600191506112fd565b806112f581611faa565b9150506112bb565b50801561134857600061130f83610bbb565b9050600061131c846109cd565b90508087602001518361132f9190611f71565b6113399190611f88565b6113439087611ec9565b955050505b508061135381611faa565b9150506112af565b50909695505050505050565b6000336106418185856114d0565b600c602052816000526040600020818154811061139157600080fd5b600091825260209091206005909102018054600182015460028301546003840154600490940154929550909350919085565b6000600854426113d39190611f88565b905090565b6113e0611425565b6001600160a01b03811661140f57604051631e4fbdf760e01b8152600060048201526024015b60405180910390fd5b6109bd81611621565b6110ce838383600161183d565b6006546001600160a01b03163314610cc55760405163118cdaa760e01b8152336004820152602401611406565b6001600160a01b0383811660009081526001602090815260408083209386168352929052205460001981146114ca57818110156114bb57604051637dc7a0d960e11b81526001600160a01b03841660048201526024810182905260448101839052606401611406565b6114ca8484848403600061183d565b50505050565b6001600160a01b0383166114fa57604051634b637e8f60e11b815260006004820152602401611406565b6001600160a01b0382166115245760405163ec442f0560e01b815260006004820152602401611406565b6110ce838383611912565b60026005540361155257604051633ee5aeb560e01b815260040160405180910390fd5b6002600555565b6115616113c3565b600a55565b600a54156115b95760006001600a5461157f9190611edc565b90505b600f548111156115b757600f5460009081526010602052604080822054838352912055806115af81611fc3565b915050611582565b505b600a805460009081526010602052604090209190915554600f55565b6001600160a01b0382166115ff57604051634b637e8f60e11b815260006004820152602401611406565b610f2c82600083611912565b600082611618858461195b565b14949350505050565b600680546001600160a01b038381166001600160a01b0319831681179093556040519116919082907f8be0079c531659141344cd1fd0a4f28419497f9722a3daafe3b4186f6b6457e090600090a35050565b6001600160a01b03821661169d5760405163ec442f0560e01b815260006004820152602401611406565b610f2c60008383611912565b336000908152600c602052604090205485106116d85760405163cf468e4360e01b815260040160405180910390fd5b336000908152600c602052604081208054879081106116f9576116f9611e9d565b9060005260206000209060050201905060006117188787878787610a21565b9050801561183457858561172d600182611edc565b81811061173c5761173c611e9d565b602002919091013560048085019190915560405163a9059cbb60e01b81523391810191909152602481018390526001600160a01b037f000000000000000000000000000000000000000000000000000000000000000016915063a9059cbb906044016020604051808303816000875af11580156117bd573d6000803e3d6000fd5b505050506040513d601f19601f820116820180604052508101906117e19190611f05565b6117fe5760405163078ecf4160e41b815260040160405180910390fd5b60405181815233907f106f923f993c2149d49b4255ff723acafa1f2d94393f561d3eda32ae348f72419060200160405180910390a25b50505050505050565b6001600160a01b0384166118675760405163e602df0560e01b815260006004820152602401611406565b6001600160a01b03831661189157604051634a1406b160e11b815260006004820152602401611406565b6001600160a01b03808516600090815260016020908152604080832093871683529290522082905580156114ca57826001600160a01b0316846001600160a01b03167f8c5be1e5ebec7d5bd14f71427d1e84f3dd0314c0f7b2291e5b200ac8c7c3b9258460405161190491815260200190565b60405180910390a350505050565b6001600160a01b0383161580159061193257506001600160a01b03821615155b1561195057604051638cd22d1960e01b815260040160405180910390fd5b6110ce8383836119a8565b600081815b84518110156119a05761198c8286838151811061197f5761197f611e9d565b6020026020010151611ad2565b91508061199881611faa565b915050611960565b509392505050565b6001600160a01b0383166119d35780600260008282546119c89190611ec9565b90915550611a459050565b6001600160a01b03831660009081526020819052604090205481811015611a265760405163391434e360e21b81526001600160a01b03851660048201526024810182905260448101839052606401611406565b6001600160a01b03841660009081526020819052604090209082900390555b6001600160a01b038216611a6157600280548290039055611a80565b6001600160a01b03821660009081526020819052604090208054820190555b816001600160a01b0316836001600160a01b03167fddf252ad1be2c89b69c2b068fc378daa952ba7f163c4a11628f55a4df523b3ef83604051611ac591815260200190565b60405180910390a3505050565b6000818310611aee576000828152602084905260409020611afd565b60008381526020839052604090205b9392505050565b600060208284031215611b1657600080fd5b5035919050565b600060208083528351808285015260005b81811015611b4a57858101830151858201604001528201611b2e565b506000604082860101526040601f19601f8301168501019250505092915050565b80356001600160a01b0381168114611b8257600080fd5b919050565b60008060408385031215611b9a57600080fd5b611ba383611b6b565b946020939093013593505050565b60008060408385031215611bc457600080fd5b50508035926020909101359150565b600080600060608486031215611be857600080fd5b611bf184611b6b565b9250611bff60208501611b6b565b9150604084013590509250925092565b60008083601f840112611c2157600080fd5b50813567ffffffffffffffff811115611c3957600080fd5b6020830191508360208260051b8501011115611c5457600080fd5b9250929050565b600080600080600060608688031215611c7357600080fd5b85359450602086013567ffffffffffffffff80821115611c9257600080fd5b611c9e89838a01611c0f565b90965094506040880135915080821115611cb757600080fd5b50611cc488828901611c0f565b969995985093965092949392505050565b60008060008060608587031215611ceb57600080fd5b84359350611cfb60208601611b6b565b9250604085013567ffffffffffffffff811115611d1757600080fd5b611d2387828801611c0f565b95989497509550505050565b600060208284031215611d4157600080fd5b611afd82611b6b565b600080600060608486031215611d5f57600080fd5b505081359360208301359350604090920135919050565b602080825282518282018190526000919060409081850190868401855b82811015611dd75781518051855286810151878601528581015186860152606080820151908601526080908101519085015260a09093019290850190600101611d93565b5091979650505050505050565b600080600060408486031215611df957600080fd5b83359250602084013567ffffffffffffffff811115611e1757600080fd5b611e2386828701611c0f565b9497909650939450505050565b60008060408385031215611e4357600080fd5b611e4c83611b6b565b9150611e5a60208401611b6b565b90509250929050565b600181811c90821680611e7757607f821691505b602082108103611e9757634e487b7160e01b600052602260045260246000fd5b50919050565b634e487b7160e01b600052603260045260246000fd5b634e487b7160e01b600052601160045260246000fd5b8082018082111561064757610647611eb3565b8181038181111561064757610647611eb3565b634e487b7160e01b600052603160045260246000fd5b600060208284031215611f1757600080fd5b81518015158114611afd57600080fd5b6000808335601e19843603018112611f3e57600080fd5b83018035915067ffffffffffffffff821115611f5957600080fd5b6020019150600581901b3603821315611c5457600080fd5b808202811582820484141761064757610647611eb3565b600082611fa557634e487b7160e01b600052601260045260246000fd5b500490565b600060018201611fbc57611fbc611eb3565b5060010190565b600081611fd257611fd2611eb3565b50600019019056fea264697066735822122046dde6e71adbb126cae224b0634def40e6d85c411d0789042f43b6626f3b615d64736f6c63430008140033",
          "opcodes": "PUSH1 0xA0 PUSH1 0x40 MSTORE PUSH9 0x56BC75E2D63100000 PUSH1 0x9 SSTORE CALLVALUE DUP1 ISZERO PUSH3 0x1E JUMPI PUSH1 0x0 DUP1 REVERT JUMPDEST POP PUSH1 0x40 MLOAD PUSH3 0x254D CODESIZE SUB DUP1 PUSH3 0x254D DUP4 CODECOPY DUP2 ADD PUSH1 0x40 DUP2 SWAP1 MSTORE PUSH3 0x41 SWAP2 PUSH3 0x248 JUMP JUMPDEST CALLER DUP1 PUSH1 0x40 MLOAD DUP1 PUSH1 0x40 ADD PUSH1 0x40 MSTORE DUP1 PUSH1 0xB DUP2 MSTORE PUSH1 0x20 ADD PUSH11 0x14DD185AD9590814915053 PUSH1 0xAA SHL DUP2 MSTORE POP PUSH1 0x40 MLOAD DUP1 PUSH1 0x40 ADD PUSH1 0x40 MSTORE DUP1 PUSH1 0x5 DUP2 MSTORE PUSH1 0x20 ADD PUSH5 0x1CD4915053 PUSH1 0xDA SHL DUP2 MSTORE POP DUP2 PUSH1 0x3 SWAP1 DUP2 PUSH3 0x96 SWAP2 SWAP1 PUSH3 0x3DF JUMP JUMPDEST POP PUSH1 0x4 PUSH3 0xA5 DUP3 DUP3 PUSH3 0x3DF JUMP JUMPDEST POP POP PUSH1 0x1 PUSH1 0x5 SSTORE POP PUSH1 0x1 PUSH1 0x1 PUSH1 0xA0 SHL SUB DUP2 AND PUSH3 0xDC JUMPI PUSH1 0x40 MLOAD PUSH4 0x1E4FBDF7 PUSH1 0xE0 SHL DUP2 MSTORE PUSH1 0x0 PUSH1 0x4 DUP3 ADD MSTORE PUSH1 0x24 ADD PUSH1 0x40 MLOAD DUP1 SWAP2 SUB SWAP1 REVERT JUMPDEST PUSH3 0xE7 DUP2 PUSH3 0x182 JUMP JUMPDEST POP POP PUSH1 0x1 PUSH1 0x1 PUSH1 0xA0 SHL SUB DUP4 AND PUSH1 0x80 MSTORE PUSH1 0x0 JUMPDEST DUP2 MLOAD DUP2 LT ISZERO PUSH3 0x15E JUMPI PUSH1 0xB DUP3 DUP3 DUP2 MLOAD DUP2 LT PUSH3 0x11A JUMPI PUSH3 0x11A PUSH3 0x4AB JUMP JUMPDEST PUSH1 0x20 SWAP1 DUP2 MUL SWAP2 SWAP1 SWAP2 ADD DUP2 ADD MLOAD DUP3 SLOAD PUSH1 0x1 DUP2 DUP2 ADD DUP6 SSTORE PUSH1 0x0 SWAP5 DUP6 MSTORE SWAP4 DUP4 SWAP1 KECCAK256 DUP3 MLOAD PUSH1 0x2 SWAP1 SWAP3 MUL ADD SWAP1 DUP2 SSTORE SWAP2 ADD MLOAD SWAP2 ADD SSTORE DUP1 PUSH3 0x155 DUP2 PUSH3 0x4C1 JUMP JUMPDEST SWAP2 POP POP PUSH3 0xF9 JUMP JUMPDEST POP PUSH1 0x8 DUP3 SWAP1 SSTORE PUSH3 0x170 DUP3 TIMESTAMP PUSH3 0x4E9 JUMP JUMPDEST PUSH1 0xA DUP2 SWAP1 SSTORE PUSH1 0xF SSTORE POP PUSH3 0x50C SWAP2 POP POP JUMP JUMPDEST PUSH1 0x6 DUP1 SLOAD PUSH1 0x1 PUSH1 0x1 PUSH1 0xA0 SHL SUB DUP4 DUP2 AND PUSH1 0x1 PUSH1 0x1 PUSH1 0xA0 SHL SUB NOT DUP4 AND DUP2 OR SWAP1 SWAP4 SSTORE PUSH1 0x40 MLOAD SWAP2 AND SWAP2 SWAP1 DUP3 SWAP1 PUSH32 0x8BE0079C531659141344CD1FD0A4F28419497F9722A3DAAFE3B4186F6B6457E0 SWAP1 PUSH1 0x0 SWAP1 LOG3 POP POP JUMP JUMPDEST PUSH4 0x4E487B71 PUSH1 0xE0 SHL PUSH1 0x0 MSTORE PUSH1 0x41 PUSH1 0x4 MSTORE PUSH1 0x24 PUSH1 0x0 REVERT JUMPDEST PUSH1 0x40 DUP1 MLOAD SWAP1 DUP2 ADD PUSH1 0x1 PUSH1 0x1 PUSH1 0x40 SHL SUB DUP2 GT DUP3 DUP3 LT OR ISZERO PUSH3 0x20F JUMPI PUSH3 0x20F PUSH3 0x1D4 JUMP JUMPDEST PUSH1 0x40 MSTORE SWAP1 JUMP JUMPDEST PUSH1 0x40 MLOAD PUSH1 0x1F DUP3 ADD PUSH1 0x1F NOT AND DUP2 ADD PUSH1 0x1 PUSH1 0x1 PUSH1 0x40 SHL SUB DUP2 GT DUP3 DUP3 LT OR ISZERO PUSH3 0x240 JUMPI PUSH3 0x240 PUSH3 0x1D4 JUMP JUMPDEST PUSH1 0x40 MSTORE SWAP2 SWAP1 POP JUMP JUMPDEST PUSH1 0x0 DUP1 PUSH1 0x0 PUSH1 0x60 DUP5 DUP7 SUB SLT ISZERO PUSH3 0x25E JUMPI PUSH1 0x0 DUP1 REVERT JUMPDEST DUP4 MLOAD PUSH1 0x1 PUSH1 0x1 PUSH1 0xA0 SHL SUB DUP2 AND DUP2 EQ PUSH3 0x276 JUMPI PUSH1 0x0 DUP1 REVERT JUMPDEST PUSH1 0x20 DUP6 DUP2 ADD MLOAD PUSH1 0x40 DUP1 DUP9 ADD MLOAD SWAP4 SWAP7 POP SWAP1 SWAP5 POP SWAP1 SWAP2 PUSH1 0x1 PUSH1 0x1 PUSH1 0x40 SHL SUB DUP1 DUP3 GT ISZERO PUSH3 0x2A0 JUMPI PUSH1 0x0 DUP1 REVERT JUMPDEST DUP2 DUP9 ADD SWAP2 POP DUP9 PUSH1 0x1F DUP4 ADD SLT PUSH3 0x2B5 JUMPI PUSH1 0x0 DUP1 REVERT JUMPDEST DUP2 MLOAD DUP2 DUP2 GT ISZERO PUSH3 0x2CA JUMPI PUSH3 0x2CA PUSH3 0x1D4 JUMP JUMPDEST PUSH3 0x2DA DUP6 DUP3 PUSH1 0x5 SHL ADD PUSH3 0x215 JUMP JUMPDEST DUP2 DUP2 MSTORE DUP6 DUP2 ADD SWAP3 POP PUSH1 0x6 SWAP2 SWAP1 SWAP2 SHL DUP4 ADD DUP6 ADD SWAP1 DUP11 DUP3 GT ISZERO PUSH3 0x2FB JUMPI PUSH1 0x0 DUP1 REVERT JUMPDEST SWAP3 DUP6 ADD SWAP3 JUMPDEST DUP2 DUP5 LT ISZERO PUSH3 0x340 JUMPI DUP5 DUP5 DUP13 SUB SLT ISZERO PUSH3 0x31A JUMPI PUSH1 0x0 DUP1 DUP2 REVERT JUMPDEST PUSH3 0x324 PUSH3 0x1EA JUMP JUMPDEST DUP5 MLOAD DUP2 MSTORE DUP7 DUP6 ADD MLOAD DUP8 DUP3 ADD MSTORE DUP4 MSTORE SWAP3 DUP5 ADD SWAP3 SWAP2 DUP6 ADD SWAP2 PUSH3 0x300 JUMP JUMPDEST DUP1 SWAP7 POP POP POP POP POP POP POP SWAP3 POP SWAP3 POP SWAP3 JUMP JUMPDEST PUSH1 0x1 DUP2 DUP2 SHR SWAP1 DUP3 AND DUP1 PUSH3 0x365 JUMPI PUSH1 0x7F DUP3 AND SWAP2 POP JUMPDEST PUSH1 0x20 DUP3 LT DUP2 SUB PUSH3 0x386 JUMPI PUSH4 0x4E487B71 PUSH1 0xE0 SHL PUSH1 0x0 MSTORE PUSH1 0x22 PUSH1 0x4 MSTORE PUSH1 0x24 PUSH1 0x0 REVERT JUMPDEST POP SWAP2 SWAP1 POP JUMP JUMPDEST PUSH1 0x1F DUP3 GT ISZERO PUSH3 0x3DA JUMPI PUSH1 0x0 DUP2 DUP2 MSTORE PUSH1 0x20 DUP2 KECCAK256 PUSH1 0x1F DUP6 ADD PUSH1 0x5 SHR DUP2 ADD PUSH1 0x20 DUP7 LT ISZERO PUSH3 0x3B5 JUMPI POP DUP1 JUMPDEST PUSH1 0x1F DUP6 ADD PUSH1 0x5 SHR DUP3 ADD SWAP2 POP JUMPDEST DUP2 DUP2 LT ISZERO PUSH3 0x3D6 JUMPI DUP3 DUP2 SSTORE PUSH1 0x1 ADD PUSH3 0x3C1 JUMP JUMPDEST POP POP POP JUMPDEST POP POP POP JUMP JUMPDEST DUP2 MLOAD PUSH1 0x1 PUSH1 0x1 PUSH1 0x40 SHL SUB DUP2 GT ISZERO PUSH3 0x3FB JUMPI PUSH3 0x3FB PUSH3 0x1D4 JUMP JUMPDEST PUSH3 0x413 DUP2 PUSH3 0x40C DUP5 SLOAD PUSH3 0x350 JUMP JUMPDEST DUP5 PUSH3 0x38C JUMP JUMPDEST PUSH1 0x20 DUP1 PUSH1 0x1F DUP4 GT PUSH1 0x1 DUP2 EQ PUSH3 0x44B JUMPI PUSH1 0x0 DUP5 ISZERO PUSH3 0x432 JUMPI POP DUP6 DUP4 ADD MLOAD JUMPDEST PUSH1 0x0 NOT PUSH1 0x3 DUP7 SWAP1 SHL SHR NOT AND PUSH1 0x1 DUP6 SWAP1 SHL OR DUP6 SSTORE PUSH3 0x3D6 JUMP JUMPDEST PUSH1 0x0 DUP6 DUP2 MSTORE PUSH1 0x20 DUP2 KECCAK256 PUSH1 0x1F NOT DUP7 AND SWAP2 JUMPDEST DUP3 DUP2 LT ISZERO PUSH3 0x47C JUMPI DUP9 DUP7 ADD MLOAD DUP3 SSTORE SWAP5 DUP5 ADD SWAP5 PUSH1 0x1 SWAP1 SWAP2 ADD SWAP1 DUP5 ADD PUSH3 0x45B JUMP JUMPDEST POP DUP6 DUP3 LT ISZERO PUSH3 0x49B JUMPI DUP8 DUP6 ADD MLOAD PUSH1 0x0 NOT PUSH1 0x3 DUP9 SWAP1 SHL PUSH1 0xF8 AND SHR NOT AND DUP2 SSTORE JUMPDEST POP POP POP POP POP PUSH1 0x1 SWAP1 DUP2 SHL ADD SWAP1 SSTORE POP JUMP JUMPDEST PUSH4 0x4E487B71 PUSH1 0xE0 SHL PUSH1 0x0 MSTORE PUSH1 0x32 PUSH1 0x4 MSTORE PUSH1 0x24 PUSH1 0x0 REVERT JUMPDEST PUSH1 0x0 PUSH1 0x1 DUP3 ADD PUSH3 0x4E2 JUMPI PUSH4 0x4E487B71 PUSH1 0xE0 SHL PUSH1 0x0 MSTORE PUSH1 0x11 PUSH1 0x4 MSTORE PUSH1 0x24 PUSH1 0x0 REVERT JUMPDEST POP PUSH1 0x1 ADD SWAP1 JUMP JUMPDEST PUSH1 0x0 DUP3 PUSH3 0x507 JUMPI PUSH4 0x4E487B71 PUSH1 0xE0 SHL PUSH1 0x0 MSTORE PUSH1 0x12 PUSH1 0x4 MSTORE PUSH1 0x24 PUSH1 0x0 REVERT JUMPDEST POP DIV SWAP1 JUMP JUMPDEST PUSH1 0x80 MLOAD PUSH2 0x2010 PUSH3 0x53D PUSH1 0x0 CODECOPY PUSH1 0x0 DUP2 DUP2 PUSH2 0x3DC ADD MSTORE DUP2 DUP2 PUSH2 0x8E8 ADD MSTORE DUP2 DUP2 PUSH2 0xE4A ADD MSTORE PUSH2 0x1773 ADD MSTORE PUSH2 0x2010 PUSH1 0x0 RETURN INVALID PUSH1 0x80 PUSH1 0x40 MSTORE CALLVALUE DUP1 ISZERO PUSH2 0x10 JUMPI PUSH1 0x0 DUP1 REVERT JUMPDEST POP PUSH1 0x4 CALLDATASIZE LT PUSH2 0x21C JUMPI PUSH1 0x0 CALLDATALOAD PUSH1 0xE0 SHR DUP1 PUSH4 0x715018A6 GT PUSH2 0x125 JUMPI DUP1 PUSH4 0x9CD89C88 GT PUSH2 0xAD JUMPI DUP1 PUSH4 0xB179F7D9 GT PUSH2 0x7C JUMPI DUP1 PUSH4 0xB179F7D9 EQ PUSH2 0x4C4 JUMPI DUP1 PUSH4 0xB5D5B5FA EQ PUSH2 0x4E4 JUMPI DUP1 PUSH4 0xB97DD9E2 EQ PUSH2 0x51F JUMPI DUP1 PUSH4 0xDD62ED3E EQ PUSH2 0x527 JUMPI DUP1 PUSH4 0xF2FDE38B EQ PUSH2 0x560 JUMPI PUSH1 0x0 DUP1 REVERT JUMPDEST DUP1 PUSH4 0x9CD89C88 EQ PUSH2 0x482 JUMPI DUP1 PUSH4 0xA8A7747C EQ PUSH2 0x495 JUMPI DUP1 PUSH4 0xA9059CBB EQ PUSH2 0x4A8 JUMPI DUP1 PUSH4 0xAD7EA0A9 EQ PUSH2 0x4BB JUMPI PUSH1 0x0 DUP1 REVERT JUMPDEST DUP1 PUSH4 0x836A0187 GT PUSH2 0xF4 JUMPI DUP1 PUSH4 0x836A0187 EQ PUSH2 0x416 JUMPI DUP1 PUSH4 0x842E2981 EQ PUSH2 0x429 JUMPI DUP1 PUSH4 0x8DA5CB5B EQ PUSH2 0x449 JUMPI DUP1 PUSH4 0x94CEE7B3 EQ PUSH2 0x45A JUMPI DUP1 PUSH4 0x95D89B41 EQ PUSH2 0x47A JUMPI PUSH1 0x0 DUP1 REVERT JUMPDEST DUP1 PUSH4 0x715018A6 EQ PUSH2 0x3A9 JUMPI DUP1 PUSH4 0x7B0472F0 EQ PUSH2 0x3B1 JUMPI DUP1 PUSH4 0x823998EE EQ PUSH2 0x3C4 JUMPI DUP1 PUSH4 0x82BFEFC8 EQ PUSH2 0x3D7 JUMPI PUSH1 0x0 DUP1 REVERT JUMPDEST DUP1 PUSH4 0x2E17DE78 GT PUSH2 0x1A8 JUMPI DUP1 PUSH4 0x42DCBD3F GT PUSH2 0x177 JUMPI DUP1 PUSH4 0x42DCBD3F EQ PUSH2 0x33E JUMPI DUP1 PUSH4 0x4D03D394 EQ PUSH2 0x351 JUMPI DUP1 PUSH4 0x4FF0876A EQ PUSH2 0x364 JUMPI DUP1 PUSH4 0x6585E4F2 EQ PUSH2 0x36D JUMPI DUP1 PUSH4 0x70A08231 EQ PUSH2 0x380 JUMPI PUSH1 0x0 DUP1 REVERT JUMPDEST DUP1 PUSH4 0x2E17DE78 EQ PUSH2 0x2F6 JUMPI DUP1 PUSH4 0x30024DFE EQ PUSH2 0x309 JUMPI DUP1 PUSH4 0x313CE567 EQ PUSH2 0x31C JUMPI DUP1 PUSH4 0x36840094 EQ PUSH2 0x32B JUMPI PUSH1 0x0 DUP1 REVERT JUMPDEST DUP1 PUSH4 0x18160DDD GT PUSH2 0x1EF JUMPI DUP1 PUSH4 0x18160DDD EQ PUSH2 0x29D JUMPI DUP1 PUSH4 0x18712C21 EQ PUSH2 0x2A5 JUMPI DUP1 PUSH4 0x23B872DD EQ PUSH2 0x2BA JUMPI DUP1 PUSH4 0x2A52344C EQ PUSH2 0x2CD JUMPI DUP1 PUSH4 0x2C816A5C EQ PUSH2 0x2ED JUMPI PUSH1 0x0 DUP1 REVERT JUMPDEST DUP1 PUSH4 0x39AF9EB EQ PUSH2 0x221 JUMPI DUP1 PUSH4 0x6FDDE03 EQ PUSH2 0x24E JUMPI DUP1 PUSH4 0x95EA7B3 EQ PUSH2 0x263 JUMPI DUP1 PUSH4 0x14372A10 EQ PUSH2 0x286 JUMPI JUMPDEST PUSH1 0x0 DUP1 REVERT JUMPDEST PUSH2 0x234 PUSH2 0x22F CALLDATASIZE PUSH1 0x4 PUSH2 0x1B04 JUMP JUMPDEST PUSH2 0x573 JUMP JUMPDEST PUSH1 0x40 DUP1 MLOAD SWAP3 DUP4 MSTORE PUSH1 0x20 DUP4 ADD SWAP2 SWAP1 SWAP2 MSTORE ADD JUMPDEST PUSH1 0x40 MLOAD DUP1 SWAP2 SUB SWAP1 RETURN JUMPDEST PUSH2 0x256 PUSH2 0x5A1 JUMP JUMPDEST PUSH1 0x40 MLOAD PUSH2 0x245 SWAP2 SWAP1 PUSH2 0x1B1D JUMP JUMPDEST PUSH2 0x276 PUSH2 0x271 CALLDATASIZE PUSH1 0x4 PUSH2 0x1B87 JUMP JUMPDEST PUSH2 0x633 JUMP JUMPDEST PUSH1 0x40 MLOAD SWAP1 ISZERO ISZERO DUP2 MSTORE PUSH1 0x20 ADD PUSH2 0x245 JUMP JUMPDEST PUSH2 0x28F PUSH1 0x9 SLOAD DUP2 JUMP JUMPDEST PUSH1 0x40 MLOAD SWAP1 DUP2 MSTORE PUSH1 0x20 ADD PUSH2 0x245 JUMP JUMPDEST PUSH1 0x2 SLOAD PUSH2 0x28F JUMP JUMPDEST PUSH2 0x2B8 PUSH2 0x2B3 CALLDATASIZE PUSH1 0x4 PUSH2 0x1BB1 JUMP JUMPDEST PUSH2 0x64D JUMP JUMPDEST STOP JUMPDEST PUSH2 0x276 PUSH2 0x2C8 CALLDATASIZE PUSH1 0x4 PUSH2 0x1BD3 JUMP JUMPDEST PUSH2 0x6A6 JUMP JUMPDEST PUSH2 0x28F PUSH2 0x2DB CALLDATASIZE PUSH1 0x4 PUSH2 0x1B04 JUMP JUMPDEST PUSH1 0x10 PUSH1 0x20 MSTORE PUSH1 0x0 SWAP1 DUP2 MSTORE PUSH1 0x40 SWAP1 KECCAK256 SLOAD DUP2 JUMP JUMPDEST PUSH2 0x28F PUSH1 0xF SLOAD DUP2 JUMP JUMPDEST PUSH2 0x2B8 PUSH2 0x304 CALLDATASIZE PUSH1 0x4 PUSH2 0x1B04 JUMP JUMPDEST PUSH2 0x6CA JUMP JUMPDEST PUSH2 0x2B8 PUSH2 0x317 CALLDATASIZE PUSH1 0x4 PUSH2 0x1B04 JUMP JUMPDEST PUSH2 0x9C0 JUMP JUMPDEST PUSH1 0x40 MLOAD PUSH1 0x12 DUP2 MSTORE PUSH1 0x20 ADD PUSH2 0x245 JUMP JUMPDEST PUSH2 0x28F PUSH2 0x339 CALLDATASIZE PUSH1 0x4 PUSH2 0x1B04 JUMP JUMPDEST PUSH2 0x9CD JUMP JUMPDEST PUSH2 0x28F PUSH2 0x34C CALLDATASIZE PUSH1 0x4 PUSH2 0x1C5B JUMP JUMPDEST PUSH2 0xA21 JUMP JUMPDEST PUSH2 0x28F PUSH2 0x35F CALLDATASIZE PUSH1 0x4 PUSH2 0x1B04 JUMP JUMPDEST PUSH2 0xBBB JUMP JUMPDEST PUSH2 0x28F PUSH1 0x8 SLOAD DUP2 JUMP JUMPDEST PUSH2 0x276 PUSH2 0x37B CALLDATASIZE PUSH1 0x4 PUSH2 0x1CD5 JUMP JUMPDEST PUSH2 0xC10 JUMP JUMPDEST PUSH2 0x28F PUSH2 0x38E CALLDATASIZE PUSH1 0x4 PUSH2 0x1D2F JUMP JUMPDEST PUSH1 0x1 PUSH1 0x1 PUSH1 0xA0 SHL SUB AND PUSH1 0x0 SWAP1 DUP2 MSTORE PUSH1 0x20 DUP2 SWAP1 MSTORE PUSH1 0x40 SWAP1 KECCAK256 SLOAD SWAP1 JUMP JUMPDEST PUSH2 0x2B8 PUSH2 0xCB3 JUMP JUMPDEST PUSH2 0x2B8 PUSH2 0x3BF CALLDATASIZE PUSH1 0x4 PUSH2 0x1BB1 JUMP JUMPDEST PUSH2 0xCC7 JUMP JUMPDEST PUSH2 0x2B8 PUSH2 0x3D2 CALLDATASIZE PUSH1 0x4 PUSH2 0x1C5B JUMP JUMPDEST PUSH2 0xF30 JUMP JUMPDEST PUSH2 0x3FE PUSH32 0x0 DUP2 JUMP JUMPDEST PUSH1 0x40 MLOAD PUSH1 0x1 PUSH1 0x1 PUSH1 0xA0 SHL SUB SWAP1 SWAP2 AND DUP2 MSTORE PUSH1 0x20 ADD PUSH2 0x245 JUMP JUMPDEST PUSH2 0x2B8 PUSH2 0x424 CALLDATASIZE PUSH1 0x4 PUSH2 0x1D4A JUMP JUMPDEST PUSH2 0xF5E JUMP JUMPDEST PUSH2 0x43C PUSH2 0x437 CALLDATASIZE PUSH1 0x4 PUSH2 0x1D2F JUMP JUMPDEST PUSH2 0x10D3 JUMP JUMPDEST PUSH1 0x40 MLOAD PUSH2 0x245 SWAP2 SWAP1 PUSH2 0x1D76 JUMP JUMPDEST PUSH1 0x6 SLOAD PUSH1 0x1 PUSH1 0x1 PUSH1 0xA0 SHL SUB AND PUSH2 0x3FE JUMP JUMPDEST PUSH2 0x28F PUSH2 0x468 CALLDATASIZE PUSH1 0x4 PUSH2 0x1B04 JUMP JUMPDEST PUSH1 0xD PUSH1 0x20 MSTORE PUSH1 0x0 SWAP1 DUP2 MSTORE PUSH1 0x40 SWAP1 KECCAK256 SLOAD DUP2 JUMP JUMPDEST PUSH2 0x256 PUSH2 0x117A JUMP JUMPDEST PUSH2 0x2B8 PUSH2 0x490 CALLDATASIZE PUSH1 0x4 PUSH2 0x1BB1 JUMP JUMPDEST PUSH2 0x1189 JUMP JUMPDEST PUSH2 0x28F PUSH2 0x4A3 CALLDATASIZE PUSH1 0x4 PUSH2 0x1DE4 JUMP JUMPDEST PUSH2 0x11FE JUMP JUMPDEST PUSH2 0x276 PUSH2 0x4B6 CALLDATASIZE PUSH1 0x4 PUSH2 0x1B87 JUMP JUMPDEST PUSH2 0x1367 JUMP JUMPDEST PUSH2 0x28F PUSH1 0xE SLOAD DUP2 JUMP JUMPDEST PUSH2 0x28F PUSH2 0x4D2 CALLDATASIZE PUSH1 0x4 PUSH2 0x1B04 JUMP JUMPDEST PUSH1 0x7 PUSH1 0x20 MSTORE PUSH1 0x0 SWAP1 DUP2 MSTORE PUSH1 0x40 SWAP1 KECCAK256 SLOAD DUP2 JUMP JUMPDEST PUSH2 0x4F7 PUSH2 0x4F2 CALLDATASIZE PUSH1 0x4 PUSH2 0x1B87 JUMP JUMPDEST PUSH2 0x1375 JUMP JUMPDEST PUSH1 0x40 DUP1 MLOAD SWAP6 DUP7 MSTORE PUSH1 0x20 DUP7 ADD SWAP5 SWAP1 SWAP5 MSTORE SWAP3 DUP5 ADD SWAP2 SWAP1 SWAP2 MSTORE PUSH1 0x60 DUP4 ADD MSTORE PUSH1 0x80 DUP3 ADD MSTORE PUSH1 0xA0 ADD PUSH2 0x245 JUMP JUMPDEST PUSH2 0x28F PUSH2 0x13C3 JUMP JUMPDEST PUSH2 0x28F PUSH2 0x535 CALLDATASIZE PUSH1 0x4 PUSH2 0x1E30 JUMP JUMPDEST PUSH1 0x1 PUSH1 0x1 PUSH1 0xA0 SHL SUB SWAP2 DUP3 AND PUSH1 0x0 SWAP1 DUP2 MSTORE PUSH1 0x1 PUSH1 0x20 SWAP1 DUP2 MSTORE PUSH1 0x40 DUP1 DUP4 KECCAK256 SWAP4 SWAP1 SWAP5 AND DUP3 MSTORE SWAP2 SWAP1 SWAP2 MSTORE KECCAK256 SLOAD SWAP1 JUMP JUMPDEST PUSH2 0x2B8 PUSH2 0x56E CALLDATASIZE PUSH1 0x4 PUSH2 0x1D2F JUMP JUMPDEST PUSH2 0x13D8 JUMP JUMPDEST PUSH1 0xB DUP2 DUP2 SLOAD DUP2 LT PUSH2 0x583 JUMPI PUSH1 0x0 DUP1 REVERT JUMPDEST PUSH1 0x0 SWAP2 DUP3 MSTORE PUSH1 0x20 SWAP1 SWAP2 KECCAK256 PUSH1 0x2 SWAP1 SWAP2 MUL ADD DUP1 SLOAD PUSH1 0x1 SWAP1 SWAP2 ADD SLOAD SWAP1 SWAP2 POP DUP3 JUMP JUMPDEST PUSH1 0x60 PUSH1 0x3 DUP1 SLOAD PUSH2 0x5B0 SWAP1 PUSH2 0x1E63 JUMP JUMPDEST DUP1 PUSH1 0x1F ADD PUSH1 0x20 DUP1 SWAP2 DIV MUL PUSH1 0x20 ADD PUSH1 0x40 MLOAD SWAP1 DUP2 ADD PUSH1 0x40 MSTORE DUP1 SWAP3 SWAP2 SWAP1 DUP2 DUP2 MSTORE PUSH1 0x20 ADD DUP3 DUP1 SLOAD PUSH2 0x5DC SWAP1 PUSH2 0x1E63 JUMP JUMPDEST DUP1 ISZERO PUSH2 0x629 JUMPI DUP1 PUSH1 0x1F LT PUSH2 0x5FE JUMPI PUSH2 0x100 DUP1 DUP4 SLOAD DIV MUL DUP4 MSTORE SWAP2 PUSH1 0x20 ADD SWAP2 PUSH2 0x629 JUMP JUMPDEST DUP3 ADD SWAP2 SWAP1 PUSH1 0x0 MSTORE PUSH1 0x20 PUSH1 0x0 KECCAK256 SWAP1 JUMPDEST DUP2 SLOAD DUP2 MSTORE SWAP1 PUSH1 0x1 ADD SWAP1 PUSH1 0x20 ADD DUP1 DUP4 GT PUSH2 0x60C JUMPI DUP3 SWAP1 SUB PUSH1 0x1F AND DUP3 ADD SWAP2 JUMPDEST POP POP POP POP POP SWAP1 POP SWAP1 JUMP JUMPDEST PUSH1 0x0 CALLER PUSH2 0x641 DUP2 DUP6 DUP6 PUSH2 0x1418 JUMP JUMPDEST PUSH1 0x1 SWAP2 POP POP JUMPDEST SWAP3 SWAP2 POP POP JUMP JUMPDEST PUSH2 0x655 PUSH2 0x1425 JUMP JUMPDEST PUSH1 0x0 DUP3 DUP2 MSTORE PUSH1 0x7 PUSH1 0x20 MSTORE PUSH1 0x40 SWAP1 DUP2 SWAP1 KECCAK256 DUP3 SWAP1 SSTORE MLOAD DUP3 SWAP1 PUSH32 0xB04B7D6145A7588FDCF339A22877D5965F861C171204FC37688058C5F6C06D3B SWAP1 PUSH2 0x69A SWAP1 DUP5 DUP2 MSTORE PUSH1 0x20 ADD SWAP1 JUMP JUMPDEST PUSH1 0x40 MLOAD DUP1 SWAP2 SUB SWAP1 LOG2 POP POP JUMP JUMPDEST PUSH1 0x0 CALLER PUSH2 0x6B4 DUP6 DUP3 DUP6 PUSH2 0x1452 JUMP JUMPDEST PUSH2 0x6BF DUP6 DUP6 DUP6 PUSH2 0x14D0 JUMP JUMPDEST POP PUSH1 0x1 SWAP5 SWAP4 POP POP POP POP JUMP JUMPDEST PUSH2 0x6D2 PUSH2 0x152F JUMP JUMPDEST CALLER PUSH1 0x0 SWAP1 DUP2 MSTORE PUSH1 0xC PUSH1 0x20 MSTORE PUSH1 0x40 SWAP1 KECCAK256 SLOAD DUP2 LT PUSH2 0x701 JUMPI PUSH1 0x40 MLOAD PUSH4 0xCF468E43 PUSH1 0xE0 SHL DUP2 MSTORE PUSH1 0x4 ADD PUSH1 0x40 MLOAD DUP1 SWAP2 SUB SWAP1 REVERT JUMPDEST CALLER PUSH1 0x0 SWAP1 DUP2 MSTORE PUSH1 0xC PUSH1 0x20 MSTORE PUSH1 0x40 DUP2 KECCAK256 DUP1 SLOAD DUP4 SWAP1 DUP2 LT PUSH2 0x722 JUMPI PUSH2 0x722 PUSH2 0x1E9D JUMP JUMPDEST SWAP1 PUSH1 0x0 MSTORE PUSH1 0x20 PUSH1 0x0 KECCAK256 SWAP1 PUSH1 0x5 MUL ADD SWAP1 POP PUSH1 0xB DUP2 PUSH1 0x2 ADD SLOAD DUP2 SLOAD DUP2 LT PUSH2 0x749 JUMPI PUSH2 0x749 PUSH2 0x1E9D JUMP JUMPDEST SWAP1 PUSH1 0x0 MSTORE PUSH1 0x20 PUSH1 0x0 KECCAK256 SWAP1 PUSH1 0x2 MUL ADD PUSH1 0x0 ADD SLOAD DUP2 PUSH1 0x3 ADD SLOAD PUSH2 0x76A SWAP2 SWAP1 PUSH2 0x1EC9 JUMP JUMPDEST TIMESTAMP LT ISZERO PUSH2 0x78A JUMPI PUSH1 0x40 MLOAD PUSH4 0x87C0F2D5 PUSH1 0xE0 SHL DUP2 MSTORE PUSH1 0x4 ADD PUSH1 0x40 MLOAD DUP1 SWAP2 SUB SWAP1 REVERT JUMPDEST PUSH2 0x792 PUSH2 0x1559 JUMP JUMPDEST DUP1 SLOAD PUSH1 0x1 DUP3 ADD SLOAD PUSH1 0xE DUP1 SLOAD PUSH1 0x0 SWAP1 PUSH2 0x7AB SWAP1 DUP5 SWAP1 PUSH2 0x1EDC JUMP JUMPDEST SWAP1 SWAP2 SSTORE POP POP PUSH1 0xE SLOAD PUSH2 0x7BC SWAP1 PUSH2 0x1566 JUMP JUMPDEST CALLER PUSH1 0x0 SWAP1 DUP2 MSTORE PUSH1 0xC PUSH1 0x20 MSTORE PUSH1 0x40 SWAP1 KECCAK256 DUP1 SLOAD PUSH2 0x7D9 SWAP1 PUSH1 0x1 SWAP1 PUSH2 0x1EDC JUMP JUMPDEST DUP2 SLOAD DUP2 LT PUSH2 0x7E9 JUMPI PUSH2 0x7E9 PUSH2 0x1E9D JUMP JUMPDEST SWAP1 PUSH1 0x0 MSTORE PUSH1 0x20 PUSH1 0x0 KECCAK256 SWAP1 PUSH1 0x5 MUL ADD PUSH1 0xC PUSH1 0x0 CALLER PUSH1 0x1 PUSH1 0x1 PUSH1 0xA0 SHL SUB AND PUSH1 0x1 PUSH1 0x1 PUSH1 0xA0 SHL SUB AND DUP2 MSTORE PUSH1 0x20 ADD SWAP1 DUP2 MSTORE PUSH1 0x20 ADD PUSH1 0x0 KECCAK256 DUP5 DUP2 SLOAD DUP2 LT PUSH2 0x82D JUMPI PUSH2 0x82D PUSH2 0x1E9D JUMP JUMPDEST PUSH1 0x0 SWAP2 DUP3 MSTORE PUSH1 0x20 DUP1 DUP4 KECCAK256 DUP5 SLOAD PUSH1 0x5 SWAP1 SWAP4 MUL ADD SWAP2 DUP3 SSTORE PUSH1 0x1 DUP1 DUP6 ADD SLOAD SWAP1 DUP4 ADD SSTORE PUSH1 0x2 DUP1 DUP6 ADD SLOAD SWAP1 DUP4 ADD SSTORE PUSH1 0x3 DUP1 DUP6 ADD SLOAD SWAP1 DUP4 ADD SSTORE PUSH1 0x4 SWAP4 DUP5 ADD SLOAD SWAP4 SWAP1 SWAP2 ADD SWAP3 SWAP1 SWAP3 SSTORE CALLER DUP2 MSTORE PUSH1 0xC SWAP1 SWAP2 MSTORE PUSH1 0x40 SWAP1 KECCAK256 DUP1 SLOAD DUP1 PUSH2 0x889 JUMPI PUSH2 0x889 PUSH2 0x1EEF JUMP JUMPDEST PUSH1 0x0 DUP3 DUP2 MSTORE PUSH1 0x20 DUP2 KECCAK256 PUSH1 0x5 PUSH1 0x0 NOT SWAP4 SWAP1 SWAP4 ADD SWAP3 DUP4 MUL ADD DUP2 DUP2 SSTORE PUSH1 0x1 DUP2 ADD DUP3 SWAP1 SSTORE PUSH1 0x2 DUP2 ADD DUP3 SWAP1 SSTORE PUSH1 0x3 DUP2 ADD DUP3 SWAP1 SSTORE PUSH1 0x4 SWAP1 DUP2 ADD SWAP2 SWAP1 SWAP2 SSTORE SWAP2 SSTORE PUSH1 0x40 MLOAD PUSH4 0xA9059CBB PUSH1 0xE0 SHL DUP2 MSTORE CALLER SWAP2 DUP2 ADD SWAP2 SWAP1 SWAP2 MSTORE PUSH1 0x24 DUP2 ADD DUP3 SWAP1 MSTORE PUSH1 0x1 PUSH1 0x1 PUSH1 0xA0 SHL SUB PUSH32 0x0 AND SWAP1 PUSH4 0xA9059CBB SWAP1 PUSH1 0x44 ADD PUSH1 0x20 PUSH1 0x40 MLOAD DUP1 DUP4 SUB DUP2 PUSH1 0x0 DUP8 GAS CALL ISZERO DUP1 ISZERO PUSH2 0x931 JUMPI RETURNDATASIZE PUSH1 0x0 DUP1 RETURNDATACOPY RETURNDATASIZE PUSH1 0x0 REVERT JUMPDEST POP POP POP POP PUSH1 0x40 MLOAD RETURNDATASIZE PUSH1 0x1F NOT PUSH1 0x1F DUP3 ADD AND DUP3 ADD DUP1 PUSH1 0x40 MSTORE POP DUP2 ADD SWAP1 PUSH2 0x955 SWAP2 SWAP1 PUSH2 0x1F05 JUMP JUMPDEST PUSH2 0x972 JUMPI PUSH1 0x40 MLOAD PUSH4 0x1B9F0131 PUSH1 0xE1 SHL DUP2 MSTORE PUSH1 0x4 ADD PUSH1 0x40 MLOAD DUP1 SWAP2 SUB SWAP1 REVERT JUMPDEST PUSH2 0x97C CALLER DUP3 PUSH2 0x15D5 JUMP JUMPDEST PUSH1 0x40 MLOAD DUP2 DUP2 MSTORE CALLER SWAP1 PUSH32 0xF5BB82176FEB1B5E747E28471AA92156A04D9F3AB9F45F28E2D704232B93F75 SWAP1 PUSH1 0x20 ADD PUSH1 0x40 MLOAD DUP1 SWAP2 SUB SWAP1 LOG2 POP POP PUSH2 0x9BD PUSH1 0x1 PUSH1 0x5 SSTORE JUMP JUMPDEST POP JUMP JUMPDEST PUSH2 0x9C8 PUSH2 0x1425 JUMP JUMPDEST PUSH1 0x8 SSTORE JUMP JUMPDEST PUSH1 0x0 DUP2 DUP2 MSTORE PUSH1 0x10 PUSH1 0x20 MSTORE PUSH1 0x40 DUP2 KECCAK256 SLOAD ISZERO PUSH2 0x9F4 JUMPI POP PUSH1 0x0 SWAP1 DUP2 MSTORE PUSH1 0x10 PUSH1 0x20 MSTORE PUSH1 0x40 SWAP1 KECCAK256 SLOAD SWAP1 JUMP JUMPDEST PUSH1 0xF SLOAD DUP3 GT DUP1 ISZERO PUSH2 0xA0C JUMPI POP PUSH2 0xA08 PUSH2 0x13C3 JUMP JUMPDEST DUP3 GT ISZERO JUMPDEST ISZERO PUSH2 0xA19 JUMPI POP POP PUSH1 0xE SLOAD SWAP1 JUMP JUMPDEST POP PUSH1 0x0 SWAP2 SWAP1 POP JUMP JUMPDEST CALLER PUSH1 0x0 SWAP1 DUP2 MSTORE PUSH1 0xC PUSH1 0x20 MSTORE PUSH1 0x40 DUP2 KECCAK256 SLOAD DUP7 LT PUSH2 0xA50 JUMPI PUSH1 0x40 MLOAD PUSH4 0xCF468E43 PUSH1 0xE0 SHL DUP2 MSTORE PUSH1 0x4 ADD PUSH1 0x40 MLOAD DUP1 SWAP2 SUB SWAP1 REVERT JUMPDEST CALLER PUSH1 0x0 SWAP1 DUP2 MSTORE PUSH1 0xC PUSH1 0x20 MSTORE PUSH1 0x40 DUP2 KECCAK256 DUP1 SLOAD DUP9 SWAP1 DUP2 LT PUSH2 0xA71 JUMPI PUSH2 0xA71 PUSH2 0x1E9D JUMP JUMPDEST SWAP1 PUSH1 0x0 MSTORE PUSH1 0x20 PUSH1 0x0 KECCAK256 SWAP1 PUSH1 0x5 MUL ADD PUSH1 0x40 MLOAD DUP1 PUSH1 0xA0 ADD PUSH1 0x40 MSTORE SWAP1 DUP2 PUSH1 0x0 DUP3 ADD SLOAD DUP2 MSTORE PUSH1 0x20 ADD PUSH1 0x1 DUP3 ADD SLOAD DUP2 MSTORE PUSH1 0x20 ADD PUSH1 0x2 DUP3 ADD SLOAD DUP2 MSTORE PUSH1 0x20 ADD PUSH1 0x3 DUP3 ADD SLOAD DUP2 MSTORE PUSH1 0x20 ADD PUSH1 0x4 DUP3 ADD SLOAD DUP2 MSTORE POP POP SWAP1 POP PUSH1 0x0 DUP1 PUSH2 0xAC9 PUSH2 0x13C3 JUMP JUMPDEST PUSH1 0x80 DUP5 ADD MLOAD SWAP1 SWAP2 POP PUSH1 0x0 JUMPDEST DUP9 DUP2 LT ISZERO PUSH2 0xBAC JUMPI PUSH1 0x0 DUP11 DUP11 DUP4 DUP2 DUP2 LT PUSH2 0xAF0 JUMPI PUSH2 0xAF0 PUSH2 0x1E9D JUMP JUMPDEST SWAP1 POP PUSH1 0x20 MUL ADD CALLDATALOAD SWAP1 POP DUP3 DUP2 GT ISZERO DUP1 PUSH2 0xB08 JUMPI POP DUP4 DUP2 LT ISZERO JUMPDEST ISZERO PUSH2 0xB26 JUMPI PUSH1 0x40 MLOAD PUSH4 0xD5B25B63 PUSH1 0xE0 SHL DUP2 MSTORE PUSH1 0x4 ADD PUSH1 0x40 MLOAD DUP1 SWAP2 SUB SWAP1 REVERT JUMPDEST PUSH2 0xB4F DUP2 CALLER DUP12 DUP12 DUP7 DUP2 DUP2 LT PUSH2 0xB3D JUMPI PUSH2 0xB3D PUSH2 0x1E9D JUMP JUMPDEST SWAP1 POP PUSH1 0x20 MUL DUP2 ADD SWAP1 PUSH2 0x37B SWAP2 SWAP1 PUSH2 0x1F27 JUMP JUMPDEST ISZERO PUSH2 0xB98 JUMPI PUSH1 0x0 PUSH2 0xB5F DUP3 PUSH2 0xBBB JUMP JUMPDEST SWAP1 POP PUSH1 0x0 PUSH2 0xB6C DUP4 PUSH2 0x9CD JUMP JUMPDEST SWAP1 POP DUP1 DUP9 PUSH1 0x20 ADD MLOAD DUP4 PUSH2 0xB7F SWAP2 SWAP1 PUSH2 0x1F71 JUMP JUMPDEST PUSH2 0xB89 SWAP2 SWAP1 PUSH2 0x1F88 JUMP JUMPDEST PUSH2 0xB93 SWAP1 DUP9 PUSH2 0x1EC9 JUMP JUMPDEST SWAP7 POP POP POP JUMPDEST SWAP2 POP DUP1 PUSH2 0xBA4 DUP2 PUSH2 0x1FAA JUMP JUMPDEST SWAP2 POP POP PUSH2 0xAD4 JUMP JUMPDEST POP SWAP2 SWAP10 SWAP9 POP POP POP POP POP POP POP POP POP JUMP JUMPDEST PUSH1 0x0 DUP2 DUP2 MSTORE PUSH1 0xD PUSH1 0x20 MSTORE PUSH1 0x40 DUP2 KECCAK256 SLOAD DUP1 ISZERO DUP1 ISZERO PUSH2 0xBD8 JUMPI POP PUSH1 0x0 DUP4 GT JUMPDEST ISZERO PUSH2 0xBFE JUMPI PUSH1 0xD PUSH1 0x0 PUSH2 0xBEC PUSH1 0x1 DUP7 PUSH2 0x1EDC JUMP JUMPDEST DUP2 MSTORE PUSH1 0x20 ADD SWAP1 DUP2 MSTORE PUSH1 0x20 ADD PUSH1 0x0 KECCAK256 SLOAD SWAP1 POP JUMPDEST DUP1 PUSH1 0x0 SUB PUSH2 0x647 JUMPI POP PUSH1 0x9 SLOAD SWAP3 SWAP2 POP POP JUMP JUMPDEST PUSH1 0x40 DUP1 MLOAD PUSH1 0x1 PUSH1 0x1 PUSH1 0xA0 SHL SUB DUP6 AND PUSH1 0x20 DUP3 ADD MSTORE PUSH1 0x0 SWAP2 DUP3 SWAP2 ADD PUSH1 0x40 DUP1 MLOAD PUSH1 0x1F NOT DUP2 DUP5 SUB ADD DUP2 MSTORE DUP3 DUP3 MSTORE DUP1 MLOAD PUSH1 0x20 SWAP2 DUP3 ADD KECCAK256 SWAP1 DUP4 ADD MSTORE ADD PUSH1 0x40 MLOAD PUSH1 0x20 DUP2 DUP4 SUB SUB DUP2 MSTORE SWAP1 PUSH1 0x40 MSTORE DUP1 MLOAD SWAP1 PUSH1 0x20 ADD KECCAK256 SWAP1 POP PUSH2 0xCA9 DUP5 DUP5 DUP1 DUP1 PUSH1 0x20 MUL PUSH1 0x20 ADD PUSH1 0x40 MLOAD SWAP1 DUP2 ADD PUSH1 0x40 MSTORE DUP1 SWAP4 SWAP3 SWAP2 SWAP1 DUP2 DUP2 MSTORE PUSH1 0x20 ADD DUP4 DUP4 PUSH1 0x20 MUL DUP1 DUP3 DUP5 CALLDATACOPY PUSH1 0x0 SWAP3 ADD DUP3 SWAP1 MSTORE POP DUP12 DUP2 MSTORE PUSH1 0x7 PUSH1 0x20 MSTORE PUSH1 0x40 SWAP1 KECCAK256 SLOAD SWAP3 POP DUP6 SWAP2 POP PUSH2 0x160B SWAP1 POP JUMP JUMPDEST SWAP7 SWAP6 POP POP POP POP POP POP JUMP JUMPDEST PUSH2 0xCBB PUSH2 0x1425 JUMP JUMPDEST PUSH2 0xCC5 PUSH1 0x0 PUSH2 0x1621 JUMP JUMPDEST JUMP JUMPDEST PUSH2 0xCCF PUSH2 0x152F JUMP JUMPDEST DUP2 PUSH1 0x0 SUB PUSH2 0xCF0 JUMPI PUSH1 0x40 MLOAD PUSH4 0x1E254A43 PUSH1 0xE1 SHL DUP2 MSTORE PUSH1 0x4 ADD PUSH1 0x40 MLOAD DUP1 SWAP2 SUB SWAP1 REVERT JUMPDEST PUSH1 0xB SLOAD DUP2 LT PUSH2 0xD12 JUMPI PUSH1 0x40 MLOAD PUSH4 0x255B3821 PUSH1 0xE0 SHL DUP2 MSTORE PUSH1 0x4 ADD PUSH1 0x40 MLOAD DUP1 SWAP2 SUB SWAP1 REVERT JUMPDEST PUSH2 0xD1A PUSH2 0x1559 JUMP JUMPDEST PUSH1 0x0 PUSH8 0xDE0B6B3A7640000 PUSH1 0xB DUP4 DUP2 SLOAD DUP2 LT PUSH2 0xD38 JUMPI PUSH2 0xD38 PUSH2 0x1E9D JUMP JUMPDEST SWAP1 PUSH1 0x0 MSTORE PUSH1 0x20 PUSH1 0x0 KECCAK256 SWAP1 PUSH1 0x2 MUL ADD PUSH1 0x1 ADD SLOAD DUP5 PUSH2 0xD55 SWAP2 SWAP1 PUSH2 0x1F71 JUMP JUMPDEST PUSH2 0xD5F SWAP2 SWAP1 PUSH2 0x1F88 JUMP JUMPDEST SWAP1 POP DUP1 PUSH1 0xE PUSH1 0x0 DUP3 DUP3 SLOAD PUSH2 0xD73 SWAP2 SWAP1 PUSH2 0x1EC9 JUMP JUMPDEST SWAP1 SWAP2 SSTORE POP POP PUSH1 0xE SLOAD PUSH2 0xD84 SWAP1 PUSH2 0x1566 JUMP JUMPDEST PUSH1 0xC PUSH1 0x0 CALLER PUSH1 0x1 PUSH1 0x1 PUSH1 0xA0 SHL SUB AND PUSH1 0x1 PUSH1 0x1 PUSH1 0xA0 SHL SUB AND DUP2 MSTORE PUSH1 0x20 ADD SWAP1 DUP2 MSTORE PUSH1 0x20 ADD PUSH1 0x0 KECCAK256 PUSH1 0x40 MLOAD DUP1 PUSH1 0xA0 ADD PUSH1 0x40 MSTORE DUP1 DUP6 DUP2 MSTORE PUSH1 0x20 ADD DUP4 DUP2 MSTORE PUSH1 0x20 ADD DUP5 DUP2 MSTORE PUSH1 0x20 ADD TIMESTAMP DUP2 MSTORE PUSH1 0x20 ADD PUSH1 0x1 PUSH1 0xA SLOAD PUSH2 0xDDB SWAP2 SWAP1 PUSH2 0x1EDC JUMP JUMPDEST SWAP1 MSTORE DUP2 SLOAD PUSH1 0x1 DUP1 DUP3 ADD DUP5 SSTORE PUSH1 0x0 SWAP4 DUP5 MSTORE PUSH1 0x20 SWAP4 DUP5 SWAP1 KECCAK256 DUP4 MLOAD PUSH1 0x5 SWAP1 SWAP4 MUL ADD SWAP2 DUP3 SSTORE SWAP3 DUP3 ADD MLOAD SWAP3 DUP2 ADD SWAP3 SWAP1 SWAP3 SSTORE PUSH1 0x40 DUP1 DUP3 ADD MLOAD PUSH1 0x2 DUP5 ADD SSTORE PUSH1 0x60 DUP3 ADD MLOAD PUSH1 0x3 DUP5 ADD SSTORE PUSH1 0x80 SWAP1 SWAP2 ADD MLOAD PUSH1 0x4 SWAP3 DUP4 ADD SSTORE MLOAD PUSH4 0x23B872DD PUSH1 0xE0 SHL DUP2 MSTORE CALLER SWAP2 DUP2 ADD SWAP2 SWAP1 SWAP2 MSTORE ADDRESS PUSH1 0x24 DUP3 ADD MSTORE PUSH1 0x44 DUP2 ADD DUP5 SWAP1 MSTORE PUSH32 0x0 PUSH1 0x1 PUSH1 0x1 PUSH1 0xA0 SHL SUB AND SWAP1 PUSH4 0x23B872DD SWAP1 PUSH1 0x64 ADD PUSH1 0x20 PUSH1 0x40 MLOAD DUP1 DUP4 SUB DUP2 PUSH1 0x0 DUP8 GAS CALL ISZERO DUP1 ISZERO PUSH2 0xE9B JUMPI RETURNDATASIZE PUSH1 0x0 DUP1 RETURNDATACOPY RETURNDATASIZE PUSH1 0x0 REVERT JUMPDEST POP POP POP POP PUSH1 0x40 MLOAD RETURNDATASIZE PUSH1 0x1F NOT PUSH1 0x1F DUP3 ADD AND DUP3 ADD DUP1 PUSH1 0x40 MSTORE POP DUP2 ADD SWAP1 PUSH2 0xEBF SWAP2 SWAP1 PUSH2 0x1F05 JUMP JUMPDEST PUSH2 0xEDC JUMPI PUSH1 0x40 MLOAD PUSH4 0x1231EC2F PUSH1 0xE2 SHL DUP2 MSTORE PUSH1 0x4 ADD PUSH1 0x40 MLOAD DUP1 SWAP2 SUB SWAP1 REVERT JUMPDEST PUSH2 0xEE6 CALLER DUP5 PUSH2 0x1673 JUMP JUMPDEST PUSH1 0x40 DUP1 MLOAD DUP5 DUP2 MSTORE PUSH1 0x20 DUP2 ADD DUP5 SWAP1 MSTORE CALLER SWAP2 PUSH32 0x1449C6DD7851ABC30ABF37F57715F492010519147CC2652FBC38202C18A6EE90 SWAP2 ADD PUSH1 0x40 MLOAD DUP1 SWAP2 SUB SWAP1 LOG2 POP PUSH2 0xF2C PUSH1 0x1 PUSH1 0x5 SSTORE JUMP JUMPDEST POP POP JUMP JUMPDEST PUSH2 0xF38 PUSH2 0x152F JUMP JUMPDEST PUSH2 0xF40 PUSH2 0x1559 JUMP JUMPDEST PUSH2 0xF4D DUP6 DUP6 DUP6 DUP6 DUP6 PUSH2 0x16A9 JUMP JUMPDEST PUSH2 0xF57 PUSH1 0x1 PUSH1 0x5 SSTORE JUMP JUMPDEST POP POP POP POP POP JUMP JUMPDEST PUSH2 0xF66 PUSH2 0x1425 JUMP JUMPDEST DUP1 PUSH1 0x0 SUB PUSH2 0xF87 JUMPI PUSH1 0x40 MLOAD PUSH4 0x2CA7E709 PUSH1 0xE1 SHL DUP2 MSTORE PUSH1 0x4 ADD PUSH1 0x40 MLOAD DUP1 SWAP2 SUB SWAP1 REVERT JUMPDEST PUSH1 0xB SLOAD DUP4 LT ISZERO PUSH2 0x1022 JUMPI PUSH1 0x40 MLOAD DUP1 PUSH1 0x40 ADD PUSH1 0x40 MSTORE DUP1 DUP4 DUP2 MSTORE PUSH1 0x20 ADD DUP3 DUP2 MSTORE POP PUSH1 0xB DUP5 DUP2 SLOAD DUP2 LT PUSH2 0xFB9 JUMPI PUSH2 0xFB9 PUSH2 0x1E9D JUMP JUMPDEST PUSH1 0x0 SWAP2 DUP3 MSTORE PUSH1 0x20 SWAP2 DUP3 SWAP1 KECCAK256 DUP4 MLOAD PUSH1 0x2 SWAP3 SWAP1 SWAP3 MUL ADD SWAP1 DUP2 SSTORE SWAP2 DUP2 ADD MLOAD PUSH1 0x1 SWAP1 SWAP3 ADD SWAP2 SWAP1 SWAP2 SSTORE PUSH1 0x40 DUP1 MLOAD DUP6 DUP2 MSTORE SWAP2 DUP3 ADD DUP5 SWAP1 MSTORE DUP2 ADD DUP3 SWAP1 MSTORE PUSH32 0x2702951EC468D8FB7C1501E01AF87B4BD50CDA65A20463FC38EE59B954A777B0 SWAP1 PUSH1 0x60 ADD JUMPDEST PUSH1 0x40 MLOAD DUP1 SWAP2 SUB SWAP1 LOG1 POP POP POP JUMP JUMPDEST PUSH1 0x40 DUP1 MLOAD DUP1 DUP3 ADD DUP3 MSTORE DUP4 DUP2 MSTORE PUSH1 0x20 DUP1 DUP3 ADD DUP5 DUP2 MSTORE PUSH1 0xB DUP1 SLOAD PUSH1 0x1 DUP2 ADD DUP3 SSTORE PUSH1 0x0 SWAP2 SWAP1 SWAP2 MSTORE SWAP3 MLOAD PUSH32 0x175B7A638427703F0DBE7BB9BBF987A2551717B34E79F33B5B1008D1FA01DB9 PUSH1 0x2 SWAP1 SWAP5 MUL SWAP4 DUP5 ADD SSTORE MLOAD PUSH32 0x175B7A638427703F0DBE7BB9BBF987A2551717B34E79F33B5B1008D1FA01DBA SWAP1 SWAP3 ADD SWAP2 SWAP1 SWAP2 SSTORE DUP2 MLOAD DUP5 DUP2 MSTORE SWAP1 DUP2 ADD DUP4 SWAP1 MSTORE PUSH32 0xCFC4D8961C232632C6B09BDDF66BC413CB73448057D761D8E9131102F8FB3F99 SWAP2 ADD PUSH2 0x1015 JUMP JUMPDEST POP POP POP JUMP JUMPDEST PUSH1 0x1 PUSH1 0x1 PUSH1 0xA0 SHL SUB DUP2 AND PUSH1 0x0 SWAP1 DUP2 MSTORE PUSH1 0xC PUSH1 0x20 SWAP1 DUP2 MSTORE PUSH1 0x40 DUP1 DUP4 KECCAK256 DUP1 SLOAD DUP3 MLOAD DUP2 DUP6 MUL DUP2 ADD DUP6 ADD SWAP1 SWAP4 MSTORE DUP1 DUP4 MSTORE PUSH1 0x60 SWAP5 SWAP3 SWAP4 SWAP2 SWAP3 SWAP1 SWAP2 DUP5 ADD JUMPDEST DUP3 DUP3 LT ISZERO PUSH2 0x116F JUMPI DUP4 DUP3 SWAP1 PUSH1 0x0 MSTORE PUSH1 0x20 PUSH1 0x0 KECCAK256 SWAP1 PUSH1 0x5 MUL ADD PUSH1 0x40 MLOAD DUP1 PUSH1 0xA0 ADD PUSH1 0x40 MSTORE SWAP1 DUP2 PUSH1 0x0 DUP3 ADD SLOAD DUP2 MSTORE PUSH1 0x20 ADD PUSH1 0x1 DUP3 ADD SLOAD DUP2 MSTORE PUSH1 0x20 ADD PUSH1 0x2 DUP3 ADD SLOAD DUP2 MSTORE PUSH1 0x20 ADD PUSH1 0x3 DUP3 ADD SLOAD DUP2 MSTORE PUSH1 0x20 ADD PUSH1 0x4 DUP3 ADD SLOAD DUP2 MSTORE POP POP DUP2 MSTORE PUSH1 0x20 ADD SWAP1 PUSH1 0x1 ADD SWAP1 PUSH2 0x110B JUMP JUMPDEST POP POP POP POP SWAP1 POP SWAP2 SWAP1 POP JUMP JUMPDEST PUSH1 0x60 PUSH1 0x4 DUP1 SLOAD PUSH2 0x5B0 SWAP1 PUSH2 0x1E63 JUMP JUMPDEST PUSH2 0x1191 PUSH2 0x1425 JUMP JUMPDEST PUSH2 0x1199 PUSH2 0x13C3 JUMP JUMPDEST DUP3 LT ISZERO PUSH2 0x11B9 JUMPI PUSH1 0x40 MLOAD PUSH4 0xB30FE865 PUSH1 0xE0 SHL DUP2 MSTORE PUSH1 0x4 ADD PUSH1 0x40 MLOAD DUP1 SWAP2 SUB SWAP1 REVERT JUMPDEST PUSH1 0x0 DUP3 DUP2 MSTORE PUSH1 0xD PUSH1 0x20 MSTORE PUSH1 0x40 SWAP1 DUP2 SWAP1 KECCAK256 DUP3 SWAP1 SSTORE MLOAD DUP3 SWAP1 PUSH32 0xB1364803920B7AA08B58C240C989062D8EBD96AB4BD352792350AFBAB26C8239 SWAP1 PUSH2 0x69A SWAP1 DUP5 DUP2 MSTORE PUSH1 0x20 ADD SWAP1 JUMP JUMPDEST CALLER PUSH1 0x0 SWAP1 DUP2 MSTORE PUSH1 0xC PUSH1 0x20 MSTORE PUSH1 0x40 DUP2 KECCAK256 SLOAD DUP5 LT PUSH2 0x122D JUMPI PUSH1 0x40 MLOAD PUSH4 0xCF468E43 PUSH1 0xE0 SHL DUP2 MSTORE PUSH1 0x4 ADD PUSH1 0x40 MLOAD DUP1 SWAP2 SUB SWAP1 REVERT JUMPDEST CALLER PUSH1 0x0 SWAP1 DUP2 MSTORE PUSH1 0xC PUSH1 0x20 MSTORE PUSH1 0x40 DUP2 KECCAK256 DUP1 SLOAD DUP7 SWAP1 DUP2 LT PUSH2 0x124E JUMPI PUSH2 0x124E PUSH2 0x1E9D JUMP JUMPDEST SWAP1 PUSH1 0x0 MSTORE PUSH1 0x20 PUSH1 0x0 KECCAK256 SWAP1 PUSH1 0x5 MUL ADD PUSH1 0x40 MLOAD DUP1 PUSH1 0xA0 ADD PUSH1 0x40 MSTORE SWAP1 DUP2 PUSH1 0x0 DUP3 ADD SLOAD DUP2 MSTORE PUSH1 0x20 ADD PUSH1 0x1 DUP3 ADD SLOAD DUP2 MSTORE PUSH1 0x20 ADD PUSH1 0x2 DUP3 ADD SLOAD DUP2 MSTORE PUSH1 0x20 ADD PUSH1 0x3 DUP3 ADD SLOAD DUP2 MSTORE PUSH1 0x20 ADD PUSH1 0x4 DUP3 ADD SLOAD DUP2 MSTORE POP POP SWAP1 POP PUSH1 0x0 DUP1 PUSH2 0x12A6 PUSH2 0x13C3 JUMP JUMPDEST PUSH1 0x80 DUP5 ADD MLOAD SWAP1 SWAP2 POP JUMPDEST DUP2 DUP2 LT ISZERO PUSH2 0x135B JUMPI PUSH1 0x0 DUP1 JUMPDEST DUP8 DUP2 LT ISZERO PUSH2 0x12FD JUMPI DUP3 DUP10 DUP10 DUP4 DUP2 DUP2 LT PUSH2 0x12D6 JUMPI PUSH2 0x12D6 PUSH2 0x1E9D JUMP JUMPDEST SWAP1 POP PUSH1 0x20 MUL ADD CALLDATALOAD SUB PUSH2 0x12EB JUMPI PUSH1 0x1 SWAP2 POP PUSH2 0x12FD JUMP JUMPDEST DUP1 PUSH2 0x12F5 DUP2 PUSH2 0x1FAA JUMP JUMPDEST SWAP2 POP POP PUSH2 0x12BB JUMP JUMPDEST POP DUP1 ISZERO PUSH2 0x1348 JUMPI PUSH1 0x0 PUSH2 0x130F DUP4 PUSH2 0xBBB JUMP JUMPDEST SWAP1 POP PUSH1 0x0 PUSH2 0x131C DUP5 PUSH2 0x9CD JUMP JUMPDEST SWAP1 POP DUP1 DUP8 PUSH1 0x20 ADD MLOAD DUP4 PUSH2 0x132F SWAP2 SWAP1 PUSH2 0x1F71 JUMP JUMPDEST PUSH2 0x1339 SWAP2 SWAP1 PUSH2 0x1F88 JUMP JUMPDEST PUSH2 0x1343 SWAP1 DUP8 PUSH2 0x1EC9 JUMP JUMPDEST SWAP6 POP POP POP JUMPDEST POP DUP1 PUSH2 0x1353 DUP2 PUSH2 0x1FAA JUMP JUMPDEST SWAP2 POP POP PUSH2 0x12AF JUMP JUMPDEST POP SWAP1 SWAP7 SWAP6 POP POP POP POP POP POP JUMP JUMPDEST PUSH1 0x0 CALLER PUSH2 0x641 DUP2 DUP6 DUP6 PUSH2 0x14D0 JUMP JUMPDEST PUSH1 0xC PUSH1 0x20 MSTORE DUP2 PUSH1 0x0 MSTORE PUSH1 0x40 PUSH1 0x0 KECCAK256 DUP2 DUP2 SLOAD DUP2 LT PUSH2 0x1391 JUMPI PUSH1 0x0 DUP1 REVERT JUMPDEST PUSH1 0x0 SWAP2 DUP3 MSTORE PUSH1 0x20 SWAP1 SWAP2 KECCAK256 PUSH1 0x5 SWAP1 SWAP2 MUL ADD DUP1 SLOAD PUSH1 0x1 DUP3 ADD SLOAD PUSH1 0x2 DUP4 ADD SLOAD PUSH1 0x3 DUP5 ADD SLOAD PUSH1 0x4 SWAP1 SWAP5 ADD SLOAD SWAP3 SWAP6 POP SWAP1 SWAP4 POP SWAP2 SWAP1 DUP6 JUMP JUMPDEST PUSH1 0x0 PUSH1 0x8 SLOAD TIMESTAMP PUSH2 0x13D3 SWAP2 SWAP1 PUSH2 0x1F88 JUMP JUMPDEST SWAP1 POP SWAP1 JUMP JUMPDEST PUSH2 0x13E0 PUSH2 0x1425 JUMP JUMPDEST PUSH1 0x1 PUSH1 0x1 PUSH1 0xA0 SHL SUB DUP2 AND PUSH2 0x140F JUMPI PUSH1 0x40 MLOAD PUSH4 0x1E4FBDF7 PUSH1 0xE0 SHL DUP2 MSTORE PUSH1 0x0 PUSH1 0x4 DUP3 ADD MSTORE PUSH1 0x24 ADD JUMPDEST PUSH1 0x40 MLOAD DUP1 SWAP2 SUB SWAP1 REVERT JUMPDEST PUSH2 0x9BD DUP2 PUSH2 0x1621 JUMP JUMPDEST PUSH2 0x10CE DUP4 DUP4 DUP4 PUSH1 0x1 PUSH2 0x183D JUMP JUMPDEST PUSH1 0x6 SLOAD PUSH1 0x1 PUSH1 0x1 PUSH1 0xA0 SHL SUB AND CALLER EQ PUSH2 0xCC5 JUMPI PUSH1 0x40 MLOAD PUSH4 0x118CDAA7 PUSH1 0xE0 SHL DUP2 MSTORE CALLER PUSH1 0x4 DUP3 ADD MSTORE PUSH1 0x24 ADD PUSH2 0x1406 JUMP JUMPDEST PUSH1 0x1 PUSH1 0x1 PUSH1 0xA0 SHL SUB DUP4 DUP2 AND PUSH1 0x0 SWAP1 DUP2 MSTORE PUSH1 0x1 PUSH1 0x20 SWAP1 DUP2 MSTORE PUSH1 0x40 DUP1 DUP4 KECCAK256 SWAP4 DUP7 AND DUP4 MSTORE SWAP3 SWAP1 MSTORE KECCAK256 SLOAD PUSH1 0x0 NOT DUP2 EQ PUSH2 0x14CA JUMPI DUP2 DUP2 LT ISZERO PUSH2 0x14BB JUMPI PUSH1 0x40 MLOAD PUSH4 0x7DC7A0D9 PUSH1 0xE1 SHL DUP2 MSTORE PUSH1 0x1 PUSH1 0x1 PUSH1 0xA0 SHL SUB DUP5 AND PUSH1 0x4 DUP3 ADD MSTORE PUSH1 0x24 DUP2 ADD DUP3 SWAP1 MSTORE PUSH1 0x44 DUP2 ADD DUP4 SWAP1 MSTORE PUSH1 0x64 ADD PUSH2 0x1406 JUMP JUMPDEST PUSH2 0x14CA DUP5 DUP5 DUP5 DUP5 SUB PUSH1 0x0 PUSH2 0x183D JUMP JUMPDEST POP POP POP POP JUMP JUMPDEST PUSH1 0x1 PUSH1 0x1 PUSH1 0xA0 SHL SUB DUP4 AND PUSH2 0x14FA JUMPI PUSH1 0x40 MLOAD PUSH4 0x4B637E8F PUSH1 0xE1 SHL DUP2 MSTORE PUSH1 0x0 PUSH1 0x4 DUP3 ADD MSTORE PUSH1 0x24 ADD PUSH2 0x1406 JUMP JUMPDEST PUSH1 0x1 PUSH1 0x1 PUSH1 0xA0 SHL SUB DUP3 AND PUSH2 0x1524 JUMPI PUSH1 0x40 MLOAD PUSH4 0xEC442F05 PUSH1 0xE0 SHL DUP2 MSTORE PUSH1 0x0 PUSH1 0x4 DUP3 ADD MSTORE PUSH1 0x24 ADD PUSH2 0x1406 JUMP JUMPDEST PUSH2 0x10CE DUP4 DUP4 DUP4 PUSH2 0x1912 JUMP JUMPDEST PUSH1 0x2 PUSH1 0x5 SLOAD SUB PUSH2 0x1552 JUMPI PUSH1 0x40 MLOAD PUSH4 0x3EE5AEB5 PUSH1 0xE0 SHL DUP2 MSTORE PUSH1 0x4 ADD PUSH1 0x40 MLOAD DUP1 SWAP2 SUB SWAP1 REVERT JUMPDEST PUSH1 0x2 PUSH1 0x5 SSTORE JUMP JUMPDEST PUSH2 0x1561 PUSH2 0x13C3 JUMP JUMPDEST PUSH1 0xA SSTORE JUMP JUMPDEST PUSH1 0xA SLOAD ISZERO PUSH2 0x15B9 JUMPI PUSH1 0x0 PUSH1 0x1 PUSH1 0xA SLOAD PUSH2 0x157F SWAP2 SWAP1 PUSH2 0x1EDC JUMP JUMPDEST SWAP1 POP JUMPDEST PUSH1 0xF SLOAD DUP2 GT ISZERO PUSH2 0x15B7 JUMPI PUSH1 0xF SLOAD PUSH1 0x0 SWAP1 DUP2 MSTORE PUSH1 0x10 PUSH1 0x20 MSTORE PUSH1 0x40 DUP1 DUP3 KECCAK256 SLOAD DUP4 DUP4 MSTORE SWAP2 KECCAK256 SSTORE DUP1 PUSH2 0x15AF DUP2 PUSH2 0x1FC3 JUMP JUMPDEST SWAP2 POP POP PUSH2 0x1582 JUMP JUMPDEST POP JUMPDEST PUSH1 0xA DUP1 SLOAD PUSH1 0x0 SWAP1 DUP2 MSTORE PUSH1 0x10 PUSH1 0x20 MSTORE PUSH1 0x40 SWAP1 KECCAK256 SWAP2 SWAP1 SWAP2 SSTORE SLOAD PUSH1 0xF SSTORE JUMP JUMPDEST PUSH1 0x1 PUSH1 0x1 PUSH1 0xA0 SHL SUB DUP3 AND PUSH2 0x15FF JUMPI PUSH1 0x40 MLOAD PUSH4 0x4B637E8F PUSH1 0xE1 SHL DUP2 MSTORE PUSH1 0x0 PUSH1 0x4 DUP3 ADD MSTORE PUSH1 0x24 ADD PUSH2 0x1406 JUMP JUMPDEST PUSH2 0xF2C DUP3 PUSH1 0x0 DUP4 PUSH2 0x1912 JUMP JUMPDEST PUSH1 0x0 DUP3 PUSH2 0x1618 DUP6 DUP5 PUSH2 0x195B JUMP JUMPDEST EQ SWAP5 SWAP4 POP POP POP POP JUMP JUMPDEST PUSH1 0x6 DUP1 SLOAD PUSH1 0x1 PUSH1 0x1 PUSH1 0xA0 SHL SUB DUP4 DUP2 AND PUSH1 0x1 PUSH1 0x1 PUSH1 0xA0 SHL SUB NOT DUP4 AND DUP2 OR SWAP1 SWAP4 SSTORE PUSH1 0x40 MLOAD SWAP2 AND SWAP2 SWAP1 DUP3 SWAP1 PUSH32 0x8BE0079C531659141344CD1FD0A4F28419497F9722A3DAAFE3B4186F6B6457E0 SWAP1 PUSH1 0x0 SWAP1 LOG3 POP POP JUMP JUMPDEST PUSH1 0x1 PUSH1 0x1 PUSH1 0xA0 SHL SUB DUP3 AND PUSH2 0x169D JUMPI PUSH1 0x40 MLOAD PUSH4 0xEC442F05 PUSH1 0xE0 SHL DUP2 MSTORE PUSH1 0x0 PUSH1 0x4 DUP3 ADD MSTORE PUSH1 0x24 ADD PUSH2 0x1406 JUMP JUMPDEST PUSH2 0xF2C PUSH1 0x0 DUP4 DUP4 PUSH2 0x1912 JUMP JUMPDEST CALLER PUSH1 0x0 SWAP1 DUP2 MSTORE PUSH1 0xC PUSH1 0x20 MSTORE PUSH1 0x40 SWAP1 KECCAK256 SLOAD DUP6 LT PUSH2 0x16D8 JUMPI PUSH1 0x40 MLOAD PUSH4 0xCF468E43 PUSH1 0xE0 SHL DUP2 MSTORE PUSH1 0x4 ADD PUSH1 0x40 MLOAD DUP1 SWAP2 SUB SWAP1 REVERT JUMPDEST CALLER PUSH1 0x0 SWAP1 DUP2 MSTORE PUSH1 0xC PUSH1 0x20 MSTORE PUSH1 0x40 DUP2 KECCAK256 DUP1 SLOAD DUP8 SWAP1 DUP2 LT PUSH2 0x16F9 JUMPI PUSH2 0x16F9 PUSH2 0x1E9D JUMP JUMPDEST SWAP1 PUSH1 0x0 MSTORE PUSH1 0x20 PUSH1 0x0 KECCAK256 SWAP1 PUSH1 0x5 MUL ADD SWAP1 POP PUSH1 0x0 PUSH2 0x1718 DUP8 DUP8 DUP8 DUP8 DUP8 PUSH2 0xA21 JUMP JUMPDEST SWAP1 POP DUP1 ISZERO PUSH2 0x1834 JUMPI DUP6 DUP6 PUSH2 0x172D PUSH1 0x1 DUP3 PUSH2 0x1EDC JUMP JUMPDEST DUP2 DUP2 LT PUSH2 0x173C JUMPI PUSH2 0x173C PUSH2 0x1E9D JUMP JUMPDEST PUSH1 0x20 MUL SWAP2 SWAP1 SWAP2 ADD CALLDATALOAD PUSH1 0x4 DUP1 DUP6 ADD SWAP2 SWAP1 SWAP2 SSTORE PUSH1 0x40 MLOAD PUSH4 0xA9059CBB PUSH1 0xE0 SHL DUP2 MSTORE CALLER SWAP2 DUP2 ADD SWAP2 SWAP1 SWAP2 MSTORE PUSH1 0x24 DUP2 ADD DUP4 SWAP1 MSTORE PUSH1 0x1 PUSH1 0x1 PUSH1 0xA0 SHL SUB PUSH32 0x0 AND SWAP2 POP PUSH4 0xA9059CBB SWAP1 PUSH1 0x44 ADD PUSH1 0x20 PUSH1 0x40 MLOAD DUP1 DUP4 SUB DUP2 PUSH1 0x0 DUP8 GAS CALL ISZERO DUP1 ISZERO PUSH2 0x17BD JUMPI RETURNDATASIZE PUSH1 0x0 DUP1 RETURNDATACOPY RETURNDATASIZE PUSH1 0x0 REVERT JUMPDEST POP POP POP POP PUSH1 0x40 MLOAD RETURNDATASIZE PUSH1 0x1F NOT PUSH1 0x1F DUP3 ADD AND DUP3 ADD DUP1 PUSH1 0x40 MSTORE POP DUP2 ADD SWAP1 PUSH2 0x17E1 SWAP2 SWAP1 PUSH2 0x1F05 JUMP JUMPDEST PUSH2 0x17FE JUMPI PUSH1 0x40 MLOAD PUSH4 0x78ECF41 PUSH1 0xE4 SHL DUP2 MSTORE PUSH1 0x4 ADD PUSH1 0x40 MLOAD DUP1 SWAP2 SUB SWAP1 REVERT JUMPDEST PUSH1 0x40 MLOAD DUP2 DUP2 MSTORE CALLER SWAP1 PUSH32 0x106F923F993C2149D49B4255FF723ACAFA1F2D94393F561D3EDA32AE348F7241 SWAP1 PUSH1 0x20 ADD PUSH1 0x40 MLOAD DUP1 SWAP2 SUB SWAP1 LOG2 JUMPDEST POP POP POP POP POP POP POP JUMP JUMPDEST PUSH1 0x1 PUSH1 0x1 PUSH1 0xA0 SHL SUB DUP5 AND PUSH2 0x1867 JUMPI PUSH1 0x40 MLOAD PUSH4 0xE602DF05 PUSH1 0xE0 SHL DUP2 MSTORE PUSH1 0x0 PUSH1 0x4 DUP3 ADD MSTORE PUSH1 0x24 ADD PUSH2 0x1406 JUMP JUMPDEST PUSH1 0x1 PUSH1 0x1 PUSH1 0xA0 SHL SUB DUP4 AND PUSH2 0x1891 JUMPI PUSH1 0x40 MLOAD PUSH4 0x4A1406B1 PUSH1 0xE1 SHL DUP2 MSTORE PUSH1 0x0 PUSH1 0x4 DUP3 ADD MSTORE PUSH1 0x24 ADD PUSH2 0x1406 JUMP JUMPDEST PUSH1 0x1 PUSH1 0x1 PUSH1 0xA0 SHL SUB DUP1 DUP6 AND PUSH1 0x0 SWAP1 DUP2 MSTORE PUSH1 0x1 PUSH1 0x20 SWAP1 DUP2 MSTORE PUSH1 0x40 DUP1 DUP4 KECCAK256 SWAP4 DUP8 AND DUP4 MSTORE SWAP3 SWAP1 MSTORE KECCAK256 DUP3 SWAP1 SSTORE DUP1 ISZERO PUSH2 0x14CA JUMPI DUP3 PUSH1 0x1 PUSH1 0x1 PUSH1 0xA0 SHL SUB AND DUP5 PUSH1 0x1 PUSH1 0x1 PUSH1 0xA0 SHL SUB AND PUSH32 0x8C5BE1E5EBEC7D5BD14F71427D1E84F3DD0314C0F7B2291E5B200AC8C7C3B925 DUP5 PUSH1 0x40 MLOAD PUSH2 0x1904 SWAP2 DUP2 MSTORE PUSH1 0x20 ADD SWAP1 JUMP JUMPDEST PUSH1 0x40 MLOAD DUP1 SWAP2 SUB SWAP1 LOG3 POP POP POP POP JUMP JUMPDEST PUSH1 0x1 PUSH1 0x1 PUSH1 0xA0 SHL SUB DUP4 AND ISZERO DUP1 ISZERO SWAP1 PUSH2 0x1932 JUMPI POP PUSH1 0x1 PUSH1 0x1 PUSH1 0xA0 SHL SUB DUP3 AND ISZERO ISZERO JUMPDEST ISZERO PUSH2 0x1950 JUMPI PUSH1 0x40 MLOAD PUSH4 0x8CD22D19 PUSH1 0xE0 SHL DUP2 MSTORE PUSH1 0x4 ADD PUSH1 0x40 MLOAD DUP1 SWAP2 SUB SWAP1 REVERT JUMPDEST PUSH2 0x10CE DUP4 DUP4 DUP4 PUSH2 0x19A8 JUMP JUMPDEST PUSH1 0x0 DUP2 DUP2 JUMPDEST DUP5 MLOAD DUP2 LT ISZERO PUSH2 0x19A0 JUMPI PUSH2 0x198C DUP3 DUP7 DUP4 DUP2 MLOAD DUP2 LT PUSH2 0x197F JUMPI PUSH2 0x197F PUSH2 0x1E9D JUMP JUMPDEST PUSH1 0x20 MUL PUSH1 0x20 ADD ADD MLOAD PUSH2 0x1AD2 JUMP JUMPDEST SWAP2 POP DUP1 PUSH2 0x1998 DUP2 PUSH2 0x1FAA JUMP JUMPDEST SWAP2 POP POP PUSH2 0x1960 JUMP JUMPDEST POP SWAP4 SWAP3 POP POP POP JUMP JUMPDEST PUSH1 0x1 PUSH1 0x1 PUSH1 0xA0 SHL SUB DUP4 AND PUSH2 0x19D3 JUMPI DUP1 PUSH1 0x2 PUSH1 0x0 DUP3 DUP3 SLOAD PUSH2 0x19C8 SWAP2 SWAP1 PUSH2 0x1EC9 JUMP JUMPDEST SWAP1 SWAP2 SSTORE POP PUSH2 0x1A45 SWAP1 POP JUMP JUMPDEST PUSH1 0x1 PUSH1 0x1 PUSH1 0xA0 SHL SUB DUP4 AND PUSH1 0x0 SWAP1 DUP2 MSTORE PUSH1 0x20 DUP2 SWAP1 MSTORE PUSH1 0x40 SWAP1 KECCAK256 SLOAD DUP2 DUP2 LT ISZERO PUSH2 0x1A26 JUMPI PUSH1 0x40 MLOAD PUSH4 0x391434E3 PUSH1 0xE2 SHL DUP2 MSTORE PUSH1 0x1 PUSH1 0x1 PUSH1 0xA0 SHL SUB DUP6 AND PUSH1 0x4 DUP3 ADD MSTORE PUSH1 0x24 DUP2 ADD DUP3 SWAP1 MSTORE PUSH1 0x44 DUP2 ADD DUP4 SWAP1 MSTORE PUSH1 0x64 ADD PUSH2 0x1406 JUMP JUMPDEST PUSH1 0x1 PUSH1 0x1 PUSH1 0xA0 SHL SUB DUP5 AND PUSH1 0x0 SWAP1 DUP2 MSTORE PUSH1 0x20 DUP2 SWAP1 MSTORE PUSH1 0x40 SWAP1 KECCAK256 SWAP1 DUP3 SWAP1 SUB SWAP1 SSTORE JUMPDEST PUSH1 0x1 PUSH1 0x1 PUSH1 0xA0 SHL SUB DUP3 AND PUSH2 0x1A61 JUMPI PUSH1 0x2 DUP1 SLOAD DUP3 SWAP1 SUB SWAP1 SSTORE PUSH2 0x1A80 JUMP JUMPDEST PUSH1 0x1 PUSH1 0x1 PUSH1 0xA0 SHL SUB DUP3 AND PUSH1 0x0 SWAP1 DUP2 MSTORE PUSH1 0x20 DUP2 SWAP1 MSTORE PUSH1 0x40 SWAP1 KECCAK256 DUP1 SLOAD DUP3 ADD SWAP1 SSTORE JUMPDEST DUP2 PUSH1 0x1 PUSH1 0x1 PUSH1 0xA0 SHL SUB AND DUP4 PUSH1 0x1 PUSH1 0x1 PUSH1 0xA0 SHL SUB AND PUSH32 0xDDF252AD1BE2C89B69C2B068FC378DAA952BA7F163C4A11628F55A4DF523B3EF DUP4 PUSH1 0x40 MLOAD PUSH2 0x1AC5 SWAP2 DUP2 MSTORE PUSH1 0x20 ADD SWAP1 JUMP JUMPDEST PUSH1 0x40 MLOAD DUP1 SWAP2 SUB SWAP1 LOG3 POP POP POP JUMP JUMPDEST PUSH1 0x0 DUP2 DUP4 LT PUSH2 0x1AEE JUMPI PUSH1 0x0 DUP3 DUP2 MSTORE PUSH1 0x20 DUP5 SWAP1 MSTORE PUSH1 0x40 SWAP1 KECCAK256 PUSH2 0x1AFD JUMP JUMPDEST PUSH1 0x0 DUP4 DUP2 MSTORE PUSH1 0x20 DUP4 SWAP1 MSTORE PUSH1 0x40 SWAP1 KECCAK256 JUMPDEST SWAP4 SWAP3 POP POP POP JUMP JUMPDEST PUSH1 0x0 PUSH1 0x20 DUP3 DUP5 SUB SLT ISZERO PUSH2 0x1B16 JUMPI PUSH1 0x0 DUP1 REVERT JUMPDEST POP CALLDATALOAD SWAP2 SWAP1 POP JUMP JUMPDEST PUSH1 0x0 PUSH1 0x20 DUP1 DUP4 MSTORE DUP4 MLOAD DUP1 DUP3 DUP6 ADD MSTORE PUSH1 0x0 JUMPDEST DUP2 DUP2 LT ISZERO PUSH2 0x1B4A JUMPI DUP6 DUP2 ADD DUP4 ADD MLOAD DUP6 DUP3 ADD PUSH1 0x40 ADD MSTORE DUP3 ADD PUSH2 0x1B2E JUMP JUMPDEST POP PUSH1 0x0 PUSH1 0x40 DUP3 DUP7 ADD ADD MSTORE PUSH1 0x40 PUSH1 0x1F NOT PUSH1 0x1F DUP4 ADD AND DUP6 ADD ADD SWAP3 POP POP POP SWAP3 SWAP2 POP POP JUMP JUMPDEST DUP1 CALLDATALOAD PUSH1 0x1 PUSH1 0x1 PUSH1 0xA0 SHL SUB DUP2 AND DUP2 EQ PUSH2 0x1B82 JUMPI PUSH1 0x0 DUP1 REVERT JUMPDEST SWAP2 SWAP1 POP JUMP JUMPDEST PUSH1 0x0 DUP1 PUSH1 0x40 DUP4 DUP6 SUB SLT ISZERO PUSH2 0x1B9A JUMPI PUSH1 0x0 DUP1 REVERT JUMPDEST PUSH2 0x1BA3 DUP4 PUSH2 0x1B6B JUMP JUMPDEST SWAP5 PUSH1 0x20 SWAP4 SWAP1 SWAP4 ADD CALLDATALOAD SWAP4 POP POP POP JUMP JUMPDEST PUSH1 0x0 DUP1 PUSH1 0x40 DUP4 DUP6 SUB SLT ISZERO PUSH2 0x1BC4 JUMPI PUSH1 0x0 DUP1 REVERT JUMPDEST POP POP DUP1 CALLDATALOAD SWAP3 PUSH1 0x20 SWAP1 SWAP2 ADD CALLDATALOAD SWAP2 POP JUMP JUMPDEST PUSH1 0x0 DUP1 PUSH1 0x0 PUSH1 0x60 DUP5 DUP7 SUB SLT ISZERO PUSH2 0x1BE8 JUMPI PUSH1 0x0 DUP1 REVERT JUMPDEST PUSH2 0x1BF1 DUP5 PUSH2 0x1B6B JUMP JUMPDEST SWAP3 POP PUSH2 0x1BFF PUSH1 0x20 DUP6 ADD PUSH2 0x1B6B JUMP JUMPDEST SWAP2 POP PUSH1 0x40 DUP5 ADD CALLDATALOAD SWAP1 POP SWAP3 POP SWAP3 POP SWAP3 JUMP JUMPDEST PUSH1 0x0 DUP1 DUP4 PUSH1 0x1F DUP5 ADD SLT PUSH2 0x1C21 JUMPI PUSH1 0x0 DUP1 REVERT JUMPDEST POP DUP2 CALLDATALOAD PUSH8 0xFFFFFFFFFFFFFFFF DUP2 GT ISZERO PUSH2 0x1C39 JUMPI PUSH1 0x0 DUP1 REVERT JUMPDEST PUSH1 0x20 DUP4 ADD SWAP2 POP DUP4 PUSH1 0x20 DUP3 PUSH1 0x5 SHL DUP6 ADD ADD GT ISZERO PUSH2 0x1C54 JUMPI PUSH1 0x0 DUP1 REVERT JUMPDEST SWAP3 POP SWAP3 SWAP1 POP JUMP JUMPDEST PUSH1 0x0 DUP1 PUSH1 0x0 DUP1 PUSH1 0x0 PUSH1 0x60 DUP7 DUP9 SUB SLT ISZERO PUSH2 0x1C73 JUMPI PUSH1 0x0 DUP1 REVERT JUMPDEST DUP6 CALLDATALOAD SWAP5 POP PUSH1 0x20 DUP7 ADD CALLDATALOAD PUSH8 0xFFFFFFFFFFFFFFFF DUP1 DUP3 GT ISZERO PUSH2 0x1C92 JUMPI PUSH1 0x0 DUP1 REVERT JUMPDEST PUSH2 0x1C9E DUP10 DUP4 DUP11 ADD PUSH2 0x1C0F JUMP JUMPDEST SWAP1 SWAP7 POP SWAP5 POP PUSH1 0x40 DUP9 ADD CALLDATALOAD SWAP2 POP DUP1 DUP3 GT ISZERO PUSH2 0x1CB7 JUMPI PUSH1 0x0 DUP1 REVERT JUMPDEST POP PUSH2 0x1CC4 DUP9 DUP3 DUP10 ADD PUSH2 0x1C0F JUMP JUMPDEST SWAP7 SWAP10 SWAP6 SWAP9 POP SWAP4 SWAP7 POP SWAP3 SWAP5 SWAP4 SWAP3 POP POP POP JUMP JUMPDEST PUSH1 0x0 DUP1 PUSH1 0x0 DUP1 PUSH1 0x60 DUP6 DUP8 SUB SLT ISZERO PUSH2 0x1CEB JUMPI PUSH1 0x0 DUP1 REVERT JUMPDEST DUP5 CALLDATALOAD SWAP4 POP PUSH2 0x1CFB PUSH1 0x20 DUP7 ADD PUSH2 0x1B6B JUMP JUMPDEST SWAP3 POP PUSH1 0x40 DUP6 ADD CALLDATALOAD PUSH8 0xFFFFFFFFFFFFFFFF DUP2 GT ISZERO PUSH2 0x1D17 JUMPI PUSH1 0x0 DUP1 REVERT JUMPDEST PUSH2 0x1D23 DUP8 DUP3 DUP9 ADD PUSH2 0x1C0F JUMP JUMPDEST SWAP6 SWAP9 SWAP5 SWAP8 POP SWAP6 POP POP POP POP JUMP JUMPDEST PUSH1 0x0 PUSH1 0x20 DUP3 DUP5 SUB SLT ISZERO PUSH2 0x1D41 JUMPI PUSH1 0x0 DUP1 REVERT JUMPDEST PUSH2 0x1AFD DUP3 PUSH2 0x1B6B JUMP JUMPDEST PUSH1 0x0 DUP1 PUSH1 0x0 PUSH1 0x60 DUP5 DUP7 SUB SLT ISZERO PUSH2 0x1D5F JUMPI PUSH1 0x0 DUP1 REVERT JUMPDEST POP POP DUP2 CALLDATALOAD SWAP4 PUSH1 0x20 DUP4 ADD CALLDATALOAD SWAP4 POP PUSH1 0x40 SWAP1 SWAP3 ADD CALLDATALOAD SWAP2 SWAP1 POP JUMP JUMPDEST PUSH1 0x20 DUP1 DUP3 MSTORE DUP3 MLOAD DUP3 DUP3 ADD DUP2 SWAP1 MSTORE PUSH1 0x0 SWAP2 SWAP1 PUSH1 0x40 SWAP1 DUP2 DUP6 ADD SWAP1 DUP7 DUP5 ADD DUP6 JUMPDEST DUP3 DUP2 LT ISZERO PUSH2 0x1DD7 JUMPI DUP2 MLOAD DUP1 MLOAD DUP6 MSTORE DUP7 DUP2 ADD MLOAD DUP8 DUP7 ADD MSTORE DUP6 DUP2 ADD MLOAD DUP7 DUP7 ADD MSTORE PUSH1 0x60 DUP1 DUP3 ADD MLOAD SWAP1 DUP7 ADD MSTORE PUSH1 0x80 SWAP1 DUP2 ADD MLOAD SWAP1 DUP6 ADD MSTORE PUSH1 0xA0 SWAP1 SWAP4 ADD SWAP3 SWAP1 DUP6 ADD SWAP1 PUSH1 0x1 ADD PUSH2 0x1D93 JUMP JUMPDEST POP SWAP2 SWAP8 SWAP7 POP POP POP POP POP POP POP JUMP JUMPDEST PUSH1 0x0 DUP1 PUSH1 0x0 PUSH1 0x40 DUP5 DUP7 SUB SLT ISZERO PUSH2 0x1DF9 JUMPI PUSH1 0x0 DUP1 REVERT JUMPDEST DUP4 CALLDATALOAD SWAP3 POP PUSH1 0x20 DUP5 ADD CALLDATALOAD PUSH8 0xFFFFFFFFFFFFFFFF DUP2 GT ISZERO PUSH2 0x1E17 JUMPI PUSH1 0x0 DUP1 REVERT JUMPDEST PUSH2 0x1E23 DUP7 DUP3 DUP8 ADD PUSH2 0x1C0F JUMP JUMPDEST SWAP5 SWAP8 SWAP1 SWAP7 POP SWAP4 SWAP5 POP POP POP POP JUMP JUMPDEST PUSH1 0x0 DUP1 PUSH1 0x40 DUP4 DUP6 SUB SLT ISZERO PUSH2 0x1E43 JUMPI PUSH1 0x0 DUP1 REVERT JUMPDEST PUSH2 0x1E4C DUP4 PUSH2 0x1B6B JUMP JUMPDEST SWAP2 POP PUSH2 0x1E5A PUSH1 0x20 DUP5 ADD PUSH2 0x1B6B JUMP JUMPDEST SWAP1 POP SWAP3 POP SWAP3 SWAP1 POP JUMP JUMPDEST PUSH1 0x1 DUP2 DUP2 SHR SWAP1 DUP3 AND DUP1 PUSH2 0x1E77 JUMPI PUSH1 0x7F DUP3 AND SWAP2 POP JUMPDEST PUSH1 0x20 DUP3 LT DUP2 SUB PUSH2 0x1E97 JUMPI PUSH4 0x4E487B71 PUSH1 0xE0 SHL PUSH1 0x0 MSTORE PUSH1 0x22 PUSH1 0x4 MSTORE PUSH1 0x24 PUSH1 0x0 REVERT JUMPDEST POP SWAP2 SWAP1 POP JUMP JUMPDEST PUSH4 0x4E487B71 PUSH1 0xE0 SHL PUSH1 0x0 MSTORE PUSH1 0x32 PUSH1 0x4 MSTORE PUSH1 0x24 PUSH1 0x0 REVERT JUMPDEST PUSH4 0x4E487B71 PUSH1 0xE0 SHL PUSH1 0x0 MSTORE PUSH1 0x11 PUSH1 0x4 MSTORE PUSH1 0x24 PUSH1 0x0 REVERT JUMPDEST DUP1 DUP3 ADD DUP1 DUP3 GT ISZERO PUSH2 0x647 JUMPI PUSH2 0x647 PUSH2 0x1EB3 JUMP JUMPDEST DUP2 DUP2 SUB DUP2 DUP2 GT ISZERO PUSH2 0x647 JUMPI PUSH2 0x647 PUSH2 0x1EB3 JUMP JUMPDEST PUSH4 0x4E487B71 PUSH1 0xE0 SHL PUSH1 0x0 MSTORE PUSH1 0x31 PUSH1 0x4 MSTORE PUSH1 0x24 PUSH1 0x0 REVERT JUMPDEST PUSH1 0x0 PUSH1 0x20 DUP3 DUP5 SUB SLT ISZERO PUSH2 0x1F17 JUMPI PUSH1 0x0 DUP1 REVERT JUMPDEST DUP2 MLOAD DUP1 ISZERO ISZERO DUP2 EQ PUSH2 0x1AFD JUMPI PUSH1 0x0 DUP1 REVERT JUMPDEST PUSH1 0x0 DUP1 DUP4 CALLDATALOAD PUSH1 0x1E NOT DUP5 CALLDATASIZE SUB ADD DUP2 SLT PUSH2 0x1F3E JUMPI PUSH1 0x0 DUP1 REVERT JUMPDEST DUP4 ADD DUP1 CALLDATALOAD SWAP2 POP PUSH8 0xFFFFFFFFFFFFFFFF DUP3 GT ISZERO PUSH2 0x1F59 JUMPI PUSH1 0x0 DUP1 REVERT JUMPDEST PUSH1 0x20 ADD SWAP2 POP PUSH1 0x5 DUP2 SWAP1 SHL CALLDATASIZE SUB DUP3 SGT ISZERO PUSH2 0x1C54 JUMPI PUSH1 0x0 DUP1 REVERT JUMPDEST DUP1 DUP3 MUL DUP2 ISZERO DUP3 DUP3 DIV DUP5 EQ OR PUSH2 0x647 JUMPI PUSH2 0x647 PUSH2 0x1EB3 JUMP JUMPDEST PUSH1 0x0 DUP3 PUSH2 0x1FA5 JUMPI PUSH4 0x4E487B71 PUSH1 0xE0 SHL PUSH1 0x0 MSTORE PUSH1 0x12 PUSH1 0x4 MSTORE PUSH1 0x24 PUSH1 0x0 REVERT JUMPDEST POP DIV SWAP1 JUMP JUMPDEST PUSH1 0x0 PUSH1 0x1 DUP3 ADD PUSH2 0x1FBC JUMPI PUSH2 0x1FBC PUSH2 0x1EB3 JUMP JUMPDEST POP PUSH1 0x1 ADD SWAP1 JUMP JUMPDEST PUSH1 0x0 DUP2 PUSH2 0x1FD2 JUMPI PUSH2 0x1FD2 PUSH2 0x1EB3 JUMP JUMPDEST POP PUSH1 0x0 NOT ADD SWAP1 JUMP INVALID LOG2 PUSH5 0x6970667358 0x22 SLT KECCAK256 CHAINID 0xDD 0xE6 0xE7 BYTE 0xDB 0xB1 0x26 0xCA 0xE2 0x24 0xB0 PUSH4 0x4DEF40E6 0xD8 0x5C COINBASE SAR SMOD DUP10 DIV 0x2F NUMBER 0xB6 PUSH3 0x6F3B61 0x5D PUSH5 0x736F6C6343 STOP ADDMOD EQ STOP CALLER "
        },
        "methodIdentifiers": {
          "TOKEN()": "82bfefc8",
          "allowance(address,address)": "dd62ed3e",
          "approve(address,uint256)": "095ea7b3",
          "balanceOf(address)": "70a08231",
          "calculateRewards(uint256,uint256[],bytes32[][])": "42dcbd3f",
          "calculateRewardsWithVoting(uint256,uint256[])": "a8a7747c",
          "claimRewards(uint256,uint256[],bytes32[][])": "823998ee",
          "decimals()": "313ce567",
          "defaultEpochRewards()": "14372a10",
          "epochDuration()": "4ff0876a",
          "epochMerkleRoots(uint256)": "b179f7d9",
          "getCurrentEpoch()": "b97dd9e2",
          "getRewardsForEpoch(uint256)": "4d03d394",
          "getTotalEffectiveSupplyAtEpoch(uint256)": "36840094",
          "getUserStakes(address)": "842e2981",
          "hasVoted(uint256,address,bytes32[])": "6585e4f2",
          "lastTotalEffectiveSupplyChangedAtEpoch()": "2c816a5c",
          "name()": "06fdde03",
          "owner()": "8da5cb5b",
          "renounceOwnership()": "715018a6",
          "rewardsPerEpoch(uint256)": "94cee7b3",
          "setEpochDuration(uint256)": "30024dfe",
          "setMerkleRoot(uint256,bytes32)": "18712c21",
          "setRewardForEpoch(uint256,uint256)": "9cd89c88",
          "setTier(uint256,uint256,uint256)": "836a0187",
          "stake(uint256,uint256)": "7b0472f0",
          "symbol()": "95d89b41",
          "tiers(uint256)": "039af9eb",
          "totalEffectiveSupply()": "ad7ea0a9",
          "totalEffectiveSupplyAtEpoch(uint256)": "2a52344c",
          "totalSupply()": "18160ddd",
          "transfer(address,uint256)": "a9059cbb",
          "transferFrom(address,address,uint256)": "23b872dd",
          "transferOwnership(address)": "f2fde38b",
          "unstake(uint256)": "2e17de78",
          "userStakes(address,uint256)": "b5d5b5fa"
        }
      }
    }
  }
}