{
  "_format": "hh-sol-artifact-1",
  "contractName": "TokenStaking",
  "sourceName": "contracts/TokenStaking.sol",
  "abi": [
    {
      "inputs": [
        {
          "internalType": "address",
          "name": "token",
          "type": "address"
        },
        {
          "internalType": "uint256",
          "name": "_defaultEpochRewards",
          "type": "uint256"
        },
        {
          "internalType": "uint256",
          "name": "_epochDuration",
          "type": "uint256"
        },
        {
          "internalType": "uint256",
          "name": "_epochStartTime",
          "type": "uint256"
        },
        {
          "components": [
            {
              "internalType": "uint256",
              "name": "lockPeriod",
              "type": "uint256"
            },
            {
              "internalType": "uint256",
              "name": "multiplier",
              "type": "uint256"
            }
          ],
          "internalType": "struct TokenStaking.Tier[]",
          "name": "_tiers",
          "type": "tuple[]"
        }
      ],
      "stateMutability": "nonpayable",
      "type": "constructor"
    },
    {
      "inputs": [],
      "name": "AccessControlBadConfirmation",
      "type": "error"
    },
    {
      "inputs": [
        {
          "internalType": "address",
          "name": "account",
          "type": "address"
        },
        {
          "internalType": "bytes32",
          "name": "neededRole",
          "type": "bytes32"
        }
      ],
      "name": "AccessControlUnauthorizedAccount",
      "type": "error"
    },
    {
      "inputs": [],
      "name": "CannotSetRewardForPastEpochs",
      "type": "error"
    },
    {
      "inputs": [],
      "name": "CannotStakeZeroAmount",
      "type": "error"
    },
    {
      "inputs": [
        {
          "internalType": "address",
          "name": "spender",
          "type": "address"
        },
        {
          "internalType": "uint256",
          "name": "allowance",
          "type": "uint256"
        },
        {
          "internalType": "uint256",
          "name": "needed",
          "type": "uint256"
        }
      ],
      "name": "ERC20InsufficientAllowance",
      "type": "error"
    },
    {
      "inputs": [
        {
          "internalType": "address",
          "name": "sender",
          "type": "address"
        },
        {
          "internalType": "uint256",
          "name": "balance",
          "type": "uint256"
        },
        {
          "internalType": "uint256",
          "name": "needed",
          "type": "uint256"
        }
      ],
      "name": "ERC20InsufficientBalance",
      "type": "error"
    },
    {
      "inputs": [
        {
          "internalType": "address",
          "name": "approver",
          "type": "address"
        }
      ],
      "name": "ERC20InvalidApprover",
      "type": "error"
    },
    {
      "inputs": [
        {
          "internalType": "address",
          "name": "receiver",
          "type": "address"
        }
      ],
      "name": "ERC20InvalidReceiver",
      "type": "error"
    },
    {
      "inputs": [
        {
          "internalType": "address",
          "name": "sender",
          "type": "address"
        }
      ],
      "name": "ERC20InvalidSender",
      "type": "error"
    },
    {
      "inputs": [
        {
          "internalType": "address",
          "name": "spender",
          "type": "address"
        }
      ],
      "name": "ERC20InvalidSpender",
      "type": "error"
    },
    {
      "inputs": [],
      "name": "EpochDurationMustBeGreaterThanZero",
      "type": "error"
    },
    {
      "inputs": [],
      "name": "InvalidEpoch",
      "type": "error"
    },
    {
      "inputs": [],
      "name": "InvalidStakeIndex",
      "type": "error"
    },
    {
      "inputs": [],
      "name": "InvalidTierIndex",
      "type": "error"
    },
    {
      "inputs": [],
      "name": "LockPeriodNotEnded",
      "type": "error"
    },
    {
      "inputs": [],
      "name": "MultiplierMustBeGreaterThanZero",
      "type": "error"
    },
    {
      "inputs": [],
      "name": "ReentrancyGuardReentrantCall",
      "type": "error"
    },
    {
      "inputs": [],
      "name": "RewardTransferFailed",
      "type": "error"
    },
    {
      "inputs": [
        {
          "internalType": "address",
          "name": "token",
          "type": "address"
        }
      ],
      "name": "SafeERC20FailedOperation",
      "type": "error"
    },
    {
      "inputs": [],
      "name": "StakeTransferFailed",
      "type": "error"
    },
    {
      "inputs": [],
      "name": "TransferNotAllowed",
      "type": "error"
    },
    {
      "inputs": [],
      "name": "UnstakeTransferFailed",
      "type": "error"
    },
    {
      "anonymous": false,
      "inputs": [
        {
          "indexed": true,
          "internalType": "address",
          "name": "owner",
          "type": "address"
        },
        {
          "indexed": true,
          "internalType": "address",
          "name": "spender",
          "type": "address"
        },
        {
          "indexed": false,
          "internalType": "uint256",
          "name": "value",
          "type": "uint256"
        }
      ],
      "name": "Approval",
      "type": "event"
    },
    {
      "anonymous": false,
      "inputs": [
        {
          "indexed": true,
          "internalType": "uint256",
          "name": "epoch",
          "type": "uint256"
        },
        {
          "indexed": false,
          "internalType": "bytes32",
          "name": "merkleRoot",
          "type": "bytes32"
        }
      ],
      "name": "MerkleRootSet",
      "type": "event"
    },
    {
      "anonymous": false,
      "inputs": [
        {
          "indexed": true,
          "internalType": "address",
          "name": "user",
          "type": "address"
        },
        {
          "indexed": false,
          "internalType": "uint256",
          "name": "amount",
          "type": "uint256"
        }
      ],
      "name": "RewardClaimed",
      "type": "event"
    },
    {
      "anonymous": false,
      "inputs": [
        {
          "indexed": true,
          "internalType": "uint256",
          "name": "epoch",
          "type": "uint256"
        },
        {
          "indexed": false,
          "internalType": "uint256",
          "name": "amount",
          "type": "uint256"
        }
      ],
      "name": "RewardSet",
      "type": "event"
    },
    {
      "anonymous": false,
      "inputs": [
        {
          "indexed": true,
          "internalType": "bytes32",
          "name": "role",
          "type": "bytes32"
        },
        {
          "indexed": true,
          "internalType": "bytes32",
          "name": "previousAdminRole",
          "type": "bytes32"
        },
        {
          "indexed": true,
          "internalType": "bytes32",
          "name": "newAdminRole",
          "type": "bytes32"
        }
      ],
      "name": "RoleAdminChanged",
      "type": "event"
    },
    {
      "anonymous": false,
      "inputs": [
        {
          "indexed": true,
          "internalType": "bytes32",
          "name": "role",
          "type": "bytes32"
        },
        {
          "indexed": true,
          "internalType": "address",
          "name": "account",
          "type": "address"
        },
        {
          "indexed": true,
          "internalType": "address",
          "name": "sender",
          "type": "address"
        }
      ],
      "name": "RoleGranted",
      "type": "event"
    },
    {
      "anonymous": false,
      "inputs": [
        {
          "indexed": true,
          "internalType": "bytes32",
          "name": "role",
          "type": "bytes32"
        },
        {
          "indexed": true,
          "internalType": "address",
          "name": "account",
          "type": "address"
        },
        {
          "indexed": true,
          "internalType": "address",
          "name": "sender",
          "type": "address"
        }
      ],
      "name": "RoleRevoked",
      "type": "event"
    },
    {
      "anonymous": false,
      "inputs": [
        {
          "indexed": true,
          "internalType": "address",
          "name": "user",
          "type": "address"
        },
        {
          "indexed": false,
          "internalType": "uint256",
          "name": "amount",
          "type": "uint256"
        },
        {
          "indexed": true,
          "internalType": "uint256",
          "name": "tierIndex",
          "type": "uint256"
        }
      ],
      "name": "Staked",
      "type": "event"
    },
    {
      "anonymous": false,
      "inputs": [
        {
          "indexed": false,
          "internalType": "uint256",
          "name": "lockPeriod",
          "type": "uint256"
        },
        {
          "indexed": false,
          "internalType": "uint256",
          "name": "multiplier",
          "type": "uint256"
        }
      ],
      "name": "TierAdded",
      "type": "event"
    },
    {
      "anonymous": false,
      "inputs": [
        {
          "indexed": false,
          "internalType": "uint256",
          "name": "index",
          "type": "uint256"
        },
        {
          "indexed": false,
          "internalType": "uint256",
          "name": "lockPeriod",
          "type": "uint256"
        },
        {
          "indexed": false,
          "internalType": "uint256",
          "name": "multiplier",
          "type": "uint256"
        }
      ],
      "name": "TierUpdated",
      "type": "event"
    },
    {
      "anonymous": false,
      "inputs": [
        {
          "indexed": true,
          "internalType": "address",
          "name": "from",
          "type": "address"
        },
        {
          "indexed": true,
          "internalType": "address",
          "name": "to",
          "type": "address"
        },
        {
          "indexed": false,
          "internalType": "uint256",
          "name": "value",
          "type": "uint256"
        }
      ],
      "name": "Transfer",
      "type": "event"
    },
    {
      "anonymous": false,
      "inputs": [
        {
          "indexed": true,
          "internalType": "address",
          "name": "user",
          "type": "address"
        },
        {
          "indexed": false,
          "internalType": "uint256",
          "name": "amount",
          "type": "uint256"
        }
      ],
      "name": "Unstaked",
      "type": "event"
    },
    {
      "inputs": [],
      "name": "DEFAULT_ADMIN_ROLE",
      "outputs": [
        {
          "internalType": "bytes32",
          "name": "",
          "type": "bytes32"
        }
      ],
      "stateMutability": "view",
      "type": "function"
    },
    {
      "inputs": [],
      "name": "EPOCH_MANAGER_ROLE",
      "outputs": [
        {
          "internalType": "bytes32",
          "name": "",
          "type": "bytes32"
        }
      ],
      "stateMutability": "view",
      "type": "function"
    },
    {
      "inputs": [],
      "name": "TOKEN",
      "outputs": [
        {
          "internalType": "contract IERC20",
          "name": "",
          "type": "address"
        }
      ],
      "stateMutability": "view",
      "type": "function"
    },
    {
      "inputs": [
        {
          "internalType": "address",
          "name": "owner",
          "type": "address"
        },
        {
          "internalType": "address",
          "name": "spender",
          "type": "address"
        }
      ],
      "name": "allowance",
      "outputs": [
        {
          "internalType": "uint256",
          "name": "",
          "type": "uint256"
        }
      ],
      "stateMutability": "view",
      "type": "function"
    },
    {
      "inputs": [
        {
          "internalType": "address",
          "name": "spender",
          "type": "address"
        },
        {
          "internalType": "uint256",
          "name": "value",
          "type": "uint256"
        }
      ],
      "name": "approve",
      "outputs": [
        {
          "internalType": "bool",
          "name": "",
          "type": "bool"
        }
      ],
      "stateMutability": "nonpayable",
      "type": "function"
    },
    {
      "inputs": [
        {
          "internalType": "address",
          "name": "account",
          "type": "address"
        }
      ],
      "name": "balanceOf",
      "outputs": [
        {
          "internalType": "uint256",
          "name": "",
          "type": "uint256"
        }
      ],
      "stateMutability": "view",
      "type": "function"
    },
    {
      "inputs": [
        {
          "internalType": "uint256",
          "name": "stakeIndex",
          "type": "uint256"
        },
        {
          "internalType": "uint32[]",
          "name": "epochs",
          "type": "uint32[]"
        },
        {
          "internalType": "bytes32[][]",
          "name": "merkleProofs",
          "type": "bytes32[][]"
        }
      ],
      "name": "calculateRewards",
      "outputs": [
        {
          "internalType": "uint256",
          "name": "",
          "type": "uint256"
        }
      ],
      "stateMutability": "view",
      "type": "function"
    },
    {
      "inputs": [
        {
          "internalType": "uint256",
          "name": "stakeIndex",
          "type": "uint256"
        },
        {
          "internalType": "uint256[]",
          "name": "votedEpochs",
          "type": "uint256[]"
        }
      ],
      "name": "calculateRewardsWithVoting",
      "outputs": [
        {
          "internalType": "uint256",
          "name": "",
          "type": "uint256"
        }
      ],
      "stateMutability": "view",
      "type": "function"
    },
    {
      "inputs": [
        {
          "internalType": "uint256",
          "name": "stakeIndex",
          "type": "uint256"
        },
        {
          "internalType": "uint32[]",
          "name": "epochs",
          "type": "uint32[]"
        },
        {
          "internalType": "bytes32[][]",
          "name": "merkleProofs",
          "type": "bytes32[][]"
        }
      ],
      "name": "claimRewards",
      "outputs": [],
      "stateMutability": "nonpayable",
      "type": "function"
    },
    {
      "inputs": [],
      "name": "decimals",
      "outputs": [
        {
          "internalType": "uint8",
          "name": "",
          "type": "uint8"
        }
      ],
      "stateMutability": "view",
      "type": "function"
    },
    {
      "inputs": [],
      "name": "defaultEpochRewards",
      "outputs": [
        {
          "internalType": "uint256",
          "name": "",
          "type": "uint256"
        }
      ],
      "stateMutability": "view",
      "type": "function"
    },
    {
      "inputs": [],
      "name": "epochDuration",
      "outputs": [
        {
          "internalType": "uint256",
          "name": "",
          "type": "uint256"
        }
      ],
      "stateMutability": "view",
      "type": "function"
    },
    {
      "inputs": [
        {
          "internalType": "uint256",
          "name": "epoch",
          "type": "uint256"
        }
      ],
      "name": "epochMerkleRoots",
      "outputs": [
        {
          "internalType": "bytes32",
          "name": "root",
          "type": "bytes32"
        }
      ],
      "stateMutability": "view",
      "type": "function"
    },
    {
      "inputs": [],
      "name": "epochStartTime",
      "outputs": [
        {
          "internalType": "uint256",
          "name": "",
          "type": "uint256"
        }
      ],
      "stateMutability": "view",
      "type": "function"
    },
    {
      "inputs": [],
      "name": "getCurrentEpoch",
      "outputs": [
        {
          "internalType": "uint256",
          "name": "",
          "type": "uint256"
        }
      ],
      "stateMutability": "view",
      "type": "function"
    },
    {
      "inputs": [
        {
          "internalType": "uint256",
          "name": "epoch",
          "type": "uint256"
        }
      ],
      "name": "getRewardsForEpoch",
      "outputs": [
        {
          "internalType": "uint256",
          "name": "",
          "type": "uint256"
        }
      ],
      "stateMutability": "view",
      "type": "function"
    },
    {
      "inputs": [
        {
          "internalType": "bytes32",
          "name": "role",
          "type": "bytes32"
        }
      ],
      "name": "getRoleAdmin",
      "outputs": [
        {
          "internalType": "bytes32",
          "name": "",
          "type": "bytes32"
        }
      ],
      "stateMutability": "view",
      "type": "function"
    },
    {
      "inputs": [],
      "name": "getTiers",
      "outputs": [
        {
          "components": [
            {
              "internalType": "uint256",
              "name": "lockPeriod",
              "type": "uint256"
            },
            {
              "internalType": "uint256",
              "name": "multiplier",
              "type": "uint256"
            }
          ],
          "internalType": "struct TokenStaking.Tier[]",
          "name": "",
          "type": "tuple[]"
        }
      ],
      "stateMutability": "view",
      "type": "function"
    },
    {
      "inputs": [
        {
          "internalType": "uint256",
          "name": "epoch",
          "type": "uint256"
        }
      ],
      "name": "getTotalEffectiveSupplyAtEpoch",
      "outputs": [
        {
          "internalType": "uint256",
          "name": "",
          "type": "uint256"
        }
      ],
      "stateMutability": "view",
      "type": "function"
    },
    {
      "inputs": [
        {
          "internalType": "address",
          "name": "user",
          "type": "address"
        }
      ],
      "name": "getUserStakes",
      "outputs": [
        {
          "components": [
            {
              "internalType": "uint256",
              "name": "amount",
              "type": "uint256"
            },
            {
              "internalType": "uint256",
              "name": "effectiveAmount",
              "type": "uint256"
            },
            {
              "internalType": "uint32",
              "name": "tierIndex",
              "type": "uint32"
            },
            {
              "internalType": "uint32",
              "name": "startTime",
              "type": "uint32"
            },
            {
              "internalType": "uint32",
              "name": "lastClaimEpoch",
              "type": "uint32"
            }
          ],
          "internalType": "struct TokenStaking.Stake[]",
          "name": "",
          "type": "tuple[]"
        }
      ],
      "stateMutability": "view",
      "type": "function"
    },
    {
      "inputs": [
        {
          "internalType": "bytes32",
          "name": "role",
          "type": "bytes32"
        },
        {
          "internalType": "address",
          "name": "account",
          "type": "address"
        }
      ],
      "name": "grantRole",
      "outputs": [],
      "stateMutability": "nonpayable",
      "type": "function"
    },
    {
      "inputs": [
        {
          "internalType": "bytes32",
          "name": "role",
          "type": "bytes32"
        },
        {
          "internalType": "address",
          "name": "account",
          "type": "address"
        }
      ],
      "name": "hasRole",
      "outputs": [
        {
          "internalType": "bool",
          "name": "",
          "type": "bool"
        }
      ],
      "stateMutability": "view",
      "type": "function"
    },
    {
      "inputs": [
        {
          "internalType": "uint256",
          "name": "epoch",
          "type": "uint256"
        },
        {
          "internalType": "address",
          "name": "user",
          "type": "address"
        },
        {
          "internalType": "bytes32[]",
          "name": "merkleProof",
          "type": "bytes32[]"
        }
      ],
      "name": "hasVoted",
      "outputs": [
        {
          "internalType": "bool",
          "name": "",
          "type": "bool"
        }
      ],
      "stateMutability": "view",
      "type": "function"
    },
    {
      "inputs": [
        {
          "internalType": "uint256",
          "name": "stakeIndex",
          "type": "uint256"
        }
      ],
      "name": "isLocked",
      "outputs": [
        {
          "internalType": "bool",
          "name": "",
          "type": "bool"
        }
      ],
      "stateMutability": "view",
      "type": "function"
    },
    {
      "inputs": [],
      "name": "lastTotalEffectiveSupplyChangedAtEpoch",
      "outputs": [
        {
          "internalType": "uint256",
          "name": "",
          "type": "uint256"
        }
      ],
      "stateMutability": "view",
      "type": "function"
    },
    {
      "inputs": [],
      "name": "name",
      "outputs": [
        {
          "internalType": "string",
          "name": "",
          "type": "string"
        }
      ],
      "stateMutability": "view",
      "type": "function"
    },
    {
      "inputs": [
        {
          "internalType": "bytes32",
          "name": "role",
          "type": "bytes32"
        },
        {
          "internalType": "address",
          "name": "callerConfirmation",
          "type": "address"
        }
      ],
      "name": "renounceRole",
      "outputs": [],
      "stateMutability": "nonpayable",
      "type": "function"
    },
    {
      "inputs": [
        {
          "internalType": "bytes32",
          "name": "role",
          "type": "bytes32"
        },
        {
          "internalType": "address",
          "name": "account",
          "type": "address"
        }
      ],
      "name": "revokeRole",
      "outputs": [],
      "stateMutability": "nonpayable",
      "type": "function"
    },
    {
      "inputs": [
        {
          "internalType": "uint256",
          "name": "epoch",
          "type": "uint256"
        }
      ],
      "name": "rewardsPerEpoch",
      "outputs": [
        {
          "internalType": "uint256",
          "name": "reward",
          "type": "uint256"
        }
      ],
      "stateMutability": "view",
      "type": "function"
    },
    {
      "inputs": [
        {
          "internalType": "uint256",
          "name": "_defaultEpochRewards",
          "type": "uint256"
        }
      ],
      "name": "setDefaultEpochRewards",
      "outputs": [],
      "stateMutability": "nonpayable",
      "type": "function"
    },
    {
      "inputs": [
        {
          "internalType": "uint256",
          "name": "_epochDuration",
          "type": "uint256"
        }
      ],
      "name": "setEpochDuration",
      "outputs": [],
      "stateMutability": "nonpayable",
      "type": "function"
    },
    {
      "inputs": [
        {
          "internalType": "uint256",
          "name": "epoch",
          "type": "uint256"
        },
        {
          "internalType": "bytes32",
          "name": "merkleRoot",
          "type": "bytes32"
        }
      ],
      "name": "setMerkleRoot",
      "outputs": [],
      "stateMutability": "nonpayable",
      "type": "function"
    },
    {
      "inputs": [
        {
          "internalType": "uint256",
          "name": "epoch",
          "type": "uint256"
        },
        {
          "internalType": "uint256",
          "name": "reward",
          "type": "uint256"
        }
      ],
      "name": "setRewardForEpoch",
      "outputs": [],
      "stateMutability": "nonpayable",
      "type": "function"
    },
    {
      "inputs": [
        {
          "internalType": "uint256",
          "name": "index",
          "type": "uint256"
        },
        {
          "internalType": "uint256",
          "name": "lockPeriod",
          "type": "uint256"
        },
        {
          "internalType": "uint256",
          "name": "multiplier",
          "type": "uint256"
        }
      ],
      "name": "setTier",
      "outputs": [],
      "stateMutability": "nonpayable",
      "type": "function"
    },
    {
      "inputs": [
        {
          "internalType": "uint256",
          "name": "amount",
          "type": "uint256"
        },
        {
          "internalType": "uint32",
          "name": "tierIndex",
          "type": "uint32"
        }
      ],
      "name": "stake",
      "outputs": [],
      "stateMutability": "nonpayable",
      "type": "function"
    },
    {
      "inputs": [
        {
          "internalType": "bytes4",
          "name": "interfaceId",
          "type": "bytes4"
        }
      ],
      "name": "supportsInterface",
      "outputs": [
        {
          "internalType": "bool",
          "name": "",
          "type": "bool"
        }
      ],
      "stateMutability": "view",
      "type": "function"
    },
    {
      "inputs": [],
      "name": "symbol",
      "outputs": [
        {
          "internalType": "string",
          "name": "",
          "type": "string"
        }
      ],
      "stateMutability": "view",
      "type": "function"
    },
    {
      "inputs": [
        {
          "internalType": "uint256",
          "name": "",
          "type": "uint256"
        }
      ],
      "name": "tiers",
      "outputs": [
        {
          "internalType": "uint256",
          "name": "lockPeriod",
          "type": "uint256"
        },
        {
          "internalType": "uint256",
          "name": "multiplier",
          "type": "uint256"
        }
      ],
      "stateMutability": "view",
      "type": "function"
    },
    {
      "inputs": [],
      "name": "totalEffectiveSupply",
      "outputs": [
        {
          "internalType": "uint256",
          "name": "",
          "type": "uint256"
        }
      ],
      "stateMutability": "view",
      "type": "function"
    },
    {
      "inputs": [
        {
          "internalType": "uint256",
          "name": "epoch",
          "type": "uint256"
        }
      ],
      "name": "totalEffectiveSupplyAtEpoch",
      "outputs": [
        {
          "internalType": "uint256",
          "name": "totalEffectiveSupply",
          "type": "uint256"
        }
      ],
      "stateMutability": "view",
      "type": "function"
    },
    {
      "inputs": [],
      "name": "totalSupply",
      "outputs": [
        {
          "internalType": "uint256",
          "name": "",
          "type": "uint256"
        }
      ],
      "stateMutability": "view",
      "type": "function"
    },
    {
      "inputs": [
        {
          "internalType": "address",
          "name": "to",
          "type": "address"
        },
        {
          "internalType": "uint256",
          "name": "value",
          "type": "uint256"
        }
      ],
      "name": "transfer",
      "outputs": [
        {
          "internalType": "bool",
          "name": "",
          "type": "bool"
        }
      ],
      "stateMutability": "nonpayable",
      "type": "function"
    },
    {
      "inputs": [
        {
          "internalType": "address",
          "name": "from",
          "type": "address"
        },
        {
          "internalType": "address",
          "name": "to",
          "type": "address"
        },
        {
          "internalType": "uint256",
          "name": "value",
          "type": "uint256"
        }
      ],
      "name": "transferFrom",
      "outputs": [
        {
          "internalType": "bool",
          "name": "",
          "type": "bool"
        }
      ],
      "stateMutability": "nonpayable",
      "type": "function"
    },
    {
      "inputs": [
        {
          "internalType": "uint256",
          "name": "stakeIndex",
          "type": "uint256"
        }
      ],
      "name": "unstake",
      "outputs": [],
      "stateMutability": "nonpayable",
      "type": "function"
    },
    {
      "inputs": [
        {
          "internalType": "address",
          "name": "user",
          "type": "address"
        },
        {
          "internalType": "uint256",
          "name": "",
          "type": "uint256"
        }
      ],
      "name": "userStakes",
      "outputs": [
        {
          "internalType": "uint256",
          "name": "amount",
          "type": "uint256"
        },
        {
          "internalType": "uint256",
          "name": "effectiveAmount",
          "type": "uint256"
        },
        {
          "internalType": "uint32",
          "name": "tierIndex",
          "type": "uint32"
        },
        {
          "internalType": "uint32",
          "name": "startTime",
          "type": "uint32"
        },
        {
          "internalType": "uint32",
          "name": "lastClaimEpoch",
          "type": "uint32"
        }
      ],
      "stateMutability": "view",
      "type": "function"
    }
  ],
  "bytecode": "0x60a06040523480156200001157600080fd5b5060405162002bc538038062002bc58339810160408190526200003491620002bc565b336040518060400160405280600b81526020016a14dd185ad959081491505360aa1b815250604051806040016040528060058152602001641cd491505360da1b815250816003908162000088919062000468565b50600462000097828262000468565b5050600160055550620000ac6000826200016f565b50506001600160a01b038516608052620000e77fd1f93295386678925e314b1bb3a85f78a9c16dbca2ec12fec819c401273ca384336200016f565b5060005b81518110156200014357600b8282815181106200010c576200010c62000534565b60209081029190910181015182546001818101855560009485529383902082516002909202019081559101519082015501620000eb565b5060088390556009829055600a84905560006200015f62000222565b600f55506200058f945050505050565b60008281526006602090815260408083206001600160a01b038516845290915281205460ff16620002185760008381526006602090815260408083206001600160a01b03861684529091529020805460ff19166001179055620001cf3390565b6001600160a01b0316826001600160a01b0316847f2f8788117e7eff1d82e926ec794901d17c78024a50270940304540a733656f0d60405160405180910390a45060016200021c565b5060005b92915050565b6000600854600954426200023791906200054a565b6200024391906200056c565b905090565b634e487b7160e01b600052604160045260246000fd5b604080519081016001600160401b038111828210171562000283576200028362000248565b60405290565b604051601f8201601f191681016001600160401b0381118282101715620002b457620002b462000248565b604052919050565b600080600080600060a08688031215620002d557600080fd5b85516001600160a01b0381168114620002ed57600080fd5b6020878101516040808a015160608b015160808c0151959a50929850965090945090916001600160401b03808211156200032657600080fd5b818a0191508a601f8301126200033b57600080fd5b81518181111562000350576200035062000248565b62000360858260051b0162000289565b818152858101925060069190911b83018501908c8211156200038157600080fd5b928501925b81841015620003c65784848e031215620003a05760008081fd5b620003aa6200025e565b8451815286850151878201528352928401929185019162000386565b8096505050505050509295509295909350565b600181811c90821680620003ee57607f821691505b6020821081036200040f57634e487b7160e01b600052602260045260246000fd5b50919050565b601f8211156200046357600081815260208120601f850160051c810160208610156200043e5750805b601f850160051c820191505b818110156200045f578281556001016200044a565b5050505b505050565b81516001600160401b0381111562000484576200048462000248565b6200049c81620004958454620003d9565b8462000415565b602080601f831160018114620004d45760008415620004bb5750858301515b600019600386901b1c1916600185901b1785556200045f565b600085815260208120601f198616915b828110156200050557888601518255948401946001909101908401620004e4565b5085821015620005245787850151600019600388901b60f8161c191681555b5050505050600190811b01905550565b634e487b7160e01b600052603260045260246000fd5b818103818111156200021c57634e487b7160e01b600052601160045260246000fd5b6000826200058a57634e487b7160e01b600052601260045260246000fd5b500490565b608051612605620005c06000396000818161049301528181610c7d015281816110700152611c3f01526126056000f3fe608060405234801561001057600080fd5b506004361061027f5760003560e01c806378a96cc01161015c578063a8a7747c116100ce578063d547741f11610087578063d547741f14610606578063dd62ed3e14610619578063de17057014610652578063f60ca64114610667578063f6aacfb114610670578063fc2e05c51461068357600080fd5b8063a8a7747c14610569578063a9059cbb1461057c578063ad7ea0a91461058f578063b179f7d914610598578063b5d5b5fa146105b8578063b97dd9e2146105fe57600080fd5b806386c8a2fa1161012057806386c8a2fa1461050057806391d148541461051357806394cee7b31461052657806395d89b41146105465780639cd89c881461054e578063a217fddf1461056157600080fd5b806378a96cc0146104685780637dc2b0ab1461047b57806382bfefc81461048e578063836a0187146104cd578063842e2981146104e057600080fd5b80632c816a5c116101f557806336568abe116101b957806336568abe146103ea57806336840094146103fd5780634d03d394146104105780634ff0876a146104235780636585e4f21461042c57806370a082311461043f57600080fd5b80632c816a5c146103995780632e17de78146103a25780632f2ff15d146103b557806330024dfe146103c8578063313ce567146103db57600080fd5b806314372a101161024757806314372a101461031d57806318160ddd1461032657806318712c211461032e57806323b872dd14610343578063248a9ca3146103565780632a52344c1461037957600080fd5b806301ffc9a714610284578063039af9eb146102ac578063055c2b95146102d457806306fdde03146102f5578063095ea7b31461030a575b600080fd5b610297610292366004612022565b6106aa565b60405190151581526020015b60405180910390f35b6102bf6102ba36600461204c565b6106e1565b604080519283526020830191909152016102a3565b6102e76102e23660046120b1565b61070f565b6040519081526020016102a3565b6102fd6108d2565b6040516102a3919061212b565b610297610318366004612195565b610964565b6102e7600a5481565b6002546102e7565b61034161033c3660046121bf565b61097c565b005b6102976103513660046121e1565b6109f8565b6102e761036436600461204c565b60009081526006602052604090206001015490565b6102e761038736600461204c565b60106020526000908152604090205481565b6102e7600f5481565b6103416103b036600461204c565b610a1c565b6103416103c336600461221d565b610cf2565b6103416103d636600461204c565b610d1d565b604051601281526020016102a3565b6103416103f836600461221d565b610d2e565b6102e761040b36600461204c565b610d66565b6102e761041e36600461204c565b610dba565b6102e760085481565b61029761043a366004612249565b610e0f565b6102e761044d3660046122a3565b6001600160a01b031660009081526020819052604090205490565b6103416104763660046122d2565b610eb2565b61034161048936600461204c565b6110f5565b6104b57f000000000000000000000000000000000000000000000000000000000000000081565b6040516001600160a01b0390911681526020016102a3565b6103416104db3660046122f5565b611106565b6104f36104ee3660046122a3565b611281565b6040516102a39190612321565b61034161050e3660046120b1565b611335565b61029761052136600461221d565b61135b565b6102e761053436600461204c565b600d6020526000908152604090205481565b6102fd611386565b61034161055c3660046121bf565b611395565b6102e7600081565b6102e761057736600461239a565b61142c565b61029761058a366004612195565b6115c0565b6102e7600e5481565b6102e76105a636600461204c565b60076020526000908152604090205481565b6105cb6105c6366004612195565b6115ce565b60408051958652602086019490945263ffffffff928316938501939093528116606084015216608082015260a0016102a3565b6102e761162c565b61034161061436600461221d565b61164e565b6102e76106273660046123e6565b6001600160a01b03918216600090815260016020908152604080832093909416825291909152205490565b61065a611673565b6040516102a39190612410565b6102e760095481565b61029761067e36600461204c565b6116e6565b6102e77fd1f93295386678925e314b1bb3a85f78a9c16dbca2ec12fec819c401273ca38481565b60006001600160e01b03198216637965db0b60e01b14806106db57506301ffc9a760e01b6001600160e01b03198316145b92915050565b600b81815481106106f157600080fd5b60009182526020909120600290910201805460019091015490915082565b336000908152600c6020526040812054861061073e5760405163cf468e4360e01b815260040160405180910390fd5b336000908152600c6020526040812080548890811061075f5761075f612452565b600091825260208083206040805160a08101825260039094029091018054845260018101549284019290925260029091015463ffffffff80821692840192909252600160201b810482166060840152600160401b90041660808201529150806107c661162c565b608084015190915063ffffffff1660005b888110156108c35760008a8a838181106107f3576107f3612452565b90506020020160208101906108089190612468565b63ffffffff169050828111158061081f5750838110155b1561083d5760405163d5b25b6360e01b815260040160405180910390fd5b61086681338b8b8681811061085457610854612452565b905060200281019061043a9190612483565b156108af57600061087682610dba565b9050600061088383610d66565b90508088602001518361089691906124e3565b6108a091906124fa565b6108aa908861251c565b965050505b9150806108bb8161252f565b9150506107d7565b50919998505050505050505050565b6060600380546108e190612548565b80601f016020809104026020016040519081016040528092919081815260200182805461090d90612548565b801561095a5780601f1061092f5761010080835404028352916020019161095a565b820191906000526020600020905b81548152906001019060200180831161093d57829003601f168201915b5050505050905090565b6000336109728185856117db565b5060019392505050565b7fd1f93295386678925e314b1bb3a85f78a9c16dbca2ec12fec819c401273ca3846109a6816117e8565b600083815260076020526040908190208390555183907fb04b7d6145a7588fdcf339a22877d5965f861c171204fc37688058c5f6c06d3b906109eb9085815260200190565b60405180910390a2505050565b600033610a068582856117f2565b610a1185858561186f565b506001949350505050565b610a246118ce565b336000908152600c60205260409020548110610a535760405163cf468e4360e01b815260040160405180910390fd5b336000908152600c60205260408120805483908110610a7457610a74612452565b90600052602060002090600302019050600b8160020160009054906101000a900463ffffffff1663ffffffff1681548110610ab157610ab1612452565b600091825260209091206002918202015490820154610add9190600160201b900463ffffffff1661251c565b421015610afd576040516387c0f2d560e01b815260040160405180910390fd5b80546001820154600e8054600090610b16908490612582565b9091555050600e54610b27906118f8565b336000908152600c602052604090208054610b4490600190612582565b81548110610b5457610b54612452565b9060005260206000209060030201600c6000336001600160a01b03166001600160a01b031681526020019081526020016000208481548110610b9857610b98612452565b600091825260208083208454600390930201918255600180850154908301556002938401805494909201805463ffffffff19811663ffffffff96871690811783558454600160201b9081900488160267ffffffffffffffff1990921617178082559254600160401b9081900490951690940263ffffffff60401b1990921691909117909255338152600c90915260409020805480610c3857610c38612595565b600082815260208120600360001990930192830201818155600181019190915560020180546bffffffffffffffffffffffff191690559055610ca46001600160a01b037f0000000000000000000000000000000000000000000000000000000000000000163383611955565b610cae33826119b4565b60405181815233907f0f5bb82176feb1b5e747e28471aa92156a04d9f3ab9f45f28e2d704232b93f759060200160405180910390a25050610cef6001600555565b50565b600082815260066020526040902060010154610d0d816117e8565b610d1783836119ea565b50505050565b6000610d28816117e8565b50600855565b6001600160a01b0381163314610d575760405163334bd91960e11b815260040160405180910390fd5b610d618282611a7e565b505050565b60008181526010602052604081205415610d8d575060009081526010602052604090205490565b600f5482118015610da55750610da161162c565b8211155b15610db2575050600e5490565b506000919050565b6000818152600d602052604081205480158015610dd75750600083115b15610dfd57600d6000610deb600186612582565b81526020019081526020016000205490505b806000036106db5750600a5492915050565b604080516001600160a01b038516602082015260009182910160408051601f1981840301815282825280516020918201209083015201604051602081830303815290604052805190602001209050610ea884848080602002602001604051908101604052809392919081815260200183836020028082843760009201829052508b8152600760205260409020549250859150611aeb9050565b9695505050505050565b610eba6118ce565b81600003610edb57604051631e254a4360e11b815260040160405180910390fd5b600b5463ffffffff821610610f035760405163255b382160e01b815260040160405180910390fd5b6000610f0d61162c565b90506000670de0b6b3a7640000600b8463ffffffff1681548110610f3357610f33612452565b90600052602060002090600202016001015485610f5091906124e3565b610f5a91906124fa565b9050600081600e54610f6c919061251c565b600e8190559050610f7c816118f8565b600c6000336001600160a01b03166001600160a01b031681526020019081526020016000206040518060a001604052808781526020018481526020018663ffffffff1681526020014263ffffffff168152602001600186610fdd9190612582565b63ffffffff90811690915282546001818101855560009485526020948590208451600390930201918255938301519381019390935560408201516002909301805460608401516080909401518316600160401b0263ffffffff60401b19948416600160201b0267ffffffffffffffff1990921695841695909517179290921692909217905561109d906001600160a01b037f00000000000000000000000000000000000000000000000000000000000000001690339030908990611b0116565b6110a73386611b3a565b60405185815263ffffffff85169033907f1449c6dd7851abc30abf37f57715f492010519147cc2652fbc38202c18a6ee909060200160405180910390a35050506110f16001600555565b5050565b6000611100816117e8565b50600a55565b6000611111816117e8565b8160000361113257604051632ca7e70960e11b815260040160405180910390fd5b600b548410156111cc57604051806040016040528084815260200183815250600b858154811061116457611164612452565b6000918252602091829020835160029290920201908155918101516001909201919091556040805186815291820185905281018390527f2702951ec468d8fb7c1501e01af87b4bd50cda65a20463fc38ee59b954a777b09060600160405180910390a1610d17565b6040805180820182528481526020808201858152600b805460018101825560009190915292517f0175b7a638427703f0dbe7bb9bbf987a2551717b34e79f33b5b1008d1fa01db9600290940293840155517f0175b7a638427703f0dbe7bb9bbf987a2551717b34e79f33b5b1008d1fa01dba9092019190915581518581529081018490527fcfc4d8961c232632c6b09bddf66bc413cb73448057d761d8e9131102f8fb3f99910160405180910390a150505050565b6001600160a01b0381166000908152600c60209081526040808320805482518185028101850190935280835260609492939192909184015b8282101561132a5760008481526020908190206040805160a08101825260038602909201805483526001808201548486015260029091015463ffffffff80821693850193909352600160201b810483166060850152600160401b9004909116608083015290835290920191016112b9565b505050509050919050565b61133d6118ce565b61134a8585858585611b70565b6113546001600555565b5050505050565b60009182526006602090815260408084206001600160a01b0393909316845291905290205460ff1690565b6060600480546108e190612548565b7fd1f93295386678925e314b1bb3a85f78a9c16dbca2ec12fec819c401273ca3846113bf816117e8565b6113c761162c565b8310156113e75760405163b30fe86560e01b815260040160405180910390fd5b6000838152600d6020526040908190208390555183907fb1364803920b7aa08b58c240c989062d8ebd96ab4bd352792350afbab26c8239906109eb9085815260200190565b336000908152600c6020526040812054841061145b5760405163cf468e4360e01b815260040160405180910390fd5b336000908152600c6020526040812080548690811061147c5761147c612452565b600091825260208083206040805160a08101825260039094029091018054845260018101549284019290925260029091015463ffffffff80821692840192909252600160201b810482166060840152600160401b90041660808201529150806114e361162c565b90506000836080015160016114f891906125ab565b63ffffffff1690505b818110156115b4576000805b8781101561154f578289898381811061152857611528612452565b905060200201350361153d576001915061154f565b806115478161252f565b91505061150d565b5080156115a157600061156183610dba565b9050600061156e84610d66565b9050801561159e578087602001518361158791906124e3565b61159191906124fa565b61159b908761251c565b95505b50505b50806115ac8161252f565b915050611501565b50909695505050505050565b60003361097281858561186f565b600c60205281600052604060002081815481106115ea57600080fd5b600091825260209091206003909102018054600182015460029092015490935090915063ffffffff80821691600160201b8104821691600160401b9091041685565b60006008546009544261163f9190612582565b61164991906124fa565b905090565b600082815260066020526040902060010154611669816117e8565b610d178383611a7e565b6060600b805480602002602001604051908101604052809291908181526020016000905b828210156116dd57838290600052602060002090600202016040518060400160405290816000820154815260200160018201548152505081526020019060010190611697565b50505050905090565b336000908152600c602052604081205482106117155760405163cf468e4360e01b815260040160405180910390fd5b336000908152600c6020526040812080548490811061173657611736612452565b60009182526020918290206040805160a08101825260039093029091018054835260018101549383019390935260029092015463ffffffff808216938301849052600160201b820481166060840152600160401b909104166080820152600b80549193504292909181106117ac576117ac612452565b906000526020600020906002020160000154826060015163ffffffff166117d3919061251c565b119392505050565b610d618383836001611cb1565b610cef8133611d86565b6001600160a01b038381166000908152600160209081526040808320938616835292905220546000198114610d17578181101561186057604051637dc7a0d960e11b81526001600160a01b038416600482015260248101829052604481018390526064015b60405180910390fd5b610d1784848484036000611cb1565b6001600160a01b03831661189957604051634b637e8f60e11b815260006004820152602401611857565b6001600160a01b0382166118c35760405163ec442f0560e01b815260006004820152602401611857565b610d61838383611dbf565b6002600554036118f157604051633ee5aeb560e01b815260040160405180910390fd5b6002600555565b600061190261162c565b9050801561193e5760001981015b600f5481111561193c57600f546000908152601060205260408082205483835291205560001901611910565b505b600081815260106020526040902091909155600f55565b6040516001600160a01b03838116602483015260448201839052610d6191859182169063a9059cbb906064015b604051602081830303815290604052915060e01b6020820180516001600160e01b038381831617835250505050611e08565b6001600160a01b0382166119de57604051634b637e8f60e11b815260006004820152602401611857565b6110f182600083611dbf565b60006119f6838361135b565b611a765760008381526006602090815260408083206001600160a01b03861684529091529020805460ff19166001179055611a2e3390565b6001600160a01b0316826001600160a01b0316847f2f8788117e7eff1d82e926ec794901d17c78024a50270940304540a733656f0d60405160405180910390a45060016106db565b5060006106db565b6000611a8a838361135b565b15611a765760008381526006602090815260408083206001600160a01b0386168085529252808320805460ff1916905551339286917ff6391f5c32d9c69d2a47ea670b442974b53935d1edc7fd64eb21e047a839171b9190a45060016106db565b600082611af88584611e79565b14949350505050565b6040516001600160a01b038481166024830152838116604483015260648201839052610d179186918216906323b872dd90608401611982565b6001600160a01b038216611b645760405163ec442f0560e01b815260006004820152602401611857565b6110f160008383611dbf565b336000908152600c60205260409020548510611b9f5760405163cf468e4360e01b815260040160405180910390fd5b336000908152600c60205260408120805487908110611bc057611bc0612452565b906000526020600020906003020190506000611bdf878787878761070f565b90508015611ca8578585611bf4600182612582565b818110611c0357611c03612452565b9050602002016020810190611c189190612468565b60028301805463ffffffff60401b1916600160401b63ffffffff93841602179055611c72907f00000000000000000000000000000000000000000000000000000000000000006001600160a01b0316903390849061195516565b60405181815233907f106f923f993c2149d49b4255ff723acafa1f2d94393f561d3eda32ae348f72419060200160405180910390a25b50505050505050565b6001600160a01b038416611cdb5760405163e602df0560e01b815260006004820152602401611857565b6001600160a01b038316611d0557604051634a1406b160e11b815260006004820152602401611857565b6001600160a01b0380851660009081526001602090815260408083209387168352929052208290558015610d1757826001600160a01b0316846001600160a01b03167f8c5be1e5ebec7d5bd14f71427d1e84f3dd0314c0f7b2291e5b200ac8c7c3b92584604051611d7891815260200190565b60405180910390a350505050565b611d90828261135b565b6110f15760405163e2517d3f60e01b81526001600160a01b038216600482015260248101839052604401611857565b6001600160a01b03831615801590611ddf57506001600160a01b03821615155b15611dfd57604051638cd22d1960e01b815260040160405180910390fd5b610d61838383611ec6565b600080602060008451602086016000885af180611e2b576040513d6000823e3d81fd5b50506000513d91508115611e43578060011415611e50565b6001600160a01b0384163b155b15610d1757604051635274afe760e01b81526001600160a01b0385166004820152602401611857565b600081815b8451811015611ebe57611eaa82868381518110611e9d57611e9d612452565b6020026020010151611ff0565b915080611eb68161252f565b915050611e7e565b509392505050565b6001600160a01b038316611ef1578060026000828254611ee6919061251c565b90915550611f639050565b6001600160a01b03831660009081526020819052604090205481811015611f445760405163391434e360e21b81526001600160a01b03851660048201526024810182905260448101839052606401611857565b6001600160a01b03841660009081526020819052604090209082900390555b6001600160a01b038216611f7f57600280548290039055611f9e565b6001600160a01b03821660009081526020819052604090208054820190555b816001600160a01b0316836001600160a01b03167fddf252ad1be2c89b69c2b068fc378daa952ba7f163c4a11628f55a4df523b3ef83604051611fe391815260200190565b60405180910390a3505050565b600081831061200c57600082815260208490526040902061201b565b60008381526020839052604090205b9392505050565b60006020828403121561203457600080fd5b81356001600160e01b03198116811461201b57600080fd5b60006020828403121561205e57600080fd5b5035919050565b60008083601f84011261207757600080fd5b50813567ffffffffffffffff81111561208f57600080fd5b6020830191508360208260051b85010111156120aa57600080fd5b9250929050565b6000806000806000606086880312156120c957600080fd5b85359450602086013567ffffffffffffffff808211156120e857600080fd5b6120f489838a01612065565b9096509450604088013591508082111561210d57600080fd5b5061211a88828901612065565b969995985093965092949392505050565b600060208083528351808285015260005b818110156121585785810183015185820160400152820161213c565b506000604082860101526040601f19601f8301168501019250505092915050565b80356001600160a01b038116811461219057600080fd5b919050565b600080604083850312156121a857600080fd5b6121b183612179565b946020939093013593505050565b600080604083850312156121d257600080fd5b50508035926020909101359150565b6000806000606084860312156121f657600080fd5b6121ff84612179565b925061220d60208501612179565b9150604084013590509250925092565b6000806040838503121561223057600080fd5b8235915061224060208401612179565b90509250929050565b6000806000806060858703121561225f57600080fd5b8435935061226f60208601612179565b9250604085013567ffffffffffffffff81111561228b57600080fd5b61229787828801612065565b95989497509550505050565b6000602082840312156122b557600080fd5b61201b82612179565b803563ffffffff8116811461219057600080fd5b600080604083850312156122e557600080fd5b82359150612240602084016122be565b60008060006060848603121561230a57600080fd5b505081359360208301359350604090920135919050565b602080825282518282018190526000919060409081850190868401855b8281101561238d5781518051855286810151878601528581015163ffffffff90811687870152606080830151821690870152608091820151169085015260a0909301929085019060010161233e565b5091979650505050505050565b6000806000604084860312156123af57600080fd5b83359250602084013567ffffffffffffffff8111156123cd57600080fd5b6123d986828701612065565b9497909650939450505050565b600080604083850312156123f957600080fd5b61240283612179565b915061224060208401612179565b602080825282518282018190526000919060409081850190868401855b8281101561238d5781518051855286015186850152928401929085019060010161242d565b634e487b7160e01b600052603260045260246000fd5b60006020828403121561247a57600080fd5b61201b826122be565b6000808335601e1984360301811261249a57600080fd5b83018035915067ffffffffffffffff8211156124b557600080fd5b6020019150600581901b36038213156120aa57600080fd5b634e487b7160e01b600052601160045260246000fd5b80820281158282048414176106db576106db6124cd565b60008261251757634e487b7160e01b600052601260045260246000fd5b500490565b808201808211156106db576106db6124cd565b600060018201612541576125416124cd565b5060010190565b600181811c9082168061255c57607f821691505b60208210810361257c57634e487b7160e01b600052602260045260246000fd5b50919050565b818103818111156106db576106db6124cd565b634e487b7160e01b600052603160045260246000fd5b63ffffffff8181168382160190808211156125c8576125c86124cd565b509291505056fea2646970667358221220da2fa921b69c83cb77c4c81e887dc5a63a6fe537394d4134fdea8fb0586b357d64736f6c63430008140033",
  "linkReferences": {},
  "deployedLinkReferences": {}
}