{
  "_format": "hh-sol-artifact-1",
  "contractName": "TokenStaking",
  "sourceName": "contracts/TokenStaking.sol",
  "abi": [
    {
      "inputs": [
        {
          "internalType": "address",
          "name": "token",
          "type": "address"
        },
        {
          "internalType": "uint256",
          "name": "_defaultEpochRewards",
          "type": "uint256"
        },
        {
          "internalType": "uint256",
          "name": "_epochDuration",
          "type": "uint256"
        },
        {
          "internalType": "uint256",
          "name": "_epochStartTime",
          "type": "uint256"
        },
        {
          "components": [
            {
              "internalType": "uint256",
              "name": "lockPeriod",
              "type": "uint256"
            },
            {
              "internalType": "uint256",
              "name": "multiplier",
              "type": "uint256"
            }
          ],
          "internalType": "struct TokenStaking.Tier[]",
          "name": "_tiers",
          "type": "tuple[]"
        }
      ],
      "stateMutability": "nonpayable",
      "type": "constructor"
    },
    {
      "inputs": [],
      "name": "AccessControlBadConfirmation",
      "type": "error"
    },
    {
      "inputs": [
        {
          "internalType": "address",
          "name": "account",
          "type": "address"
        },
        {
          "internalType": "bytes32",
          "name": "neededRole",
          "type": "bytes32"
        }
      ],
      "name": "AccessControlUnauthorizedAccount",
      "type": "error"
    },
    {
      "inputs": [],
      "name": "CannotSetRewardForPastEpochs",
      "type": "error"
    },
    {
      "inputs": [],
      "name": "CannotStakeZeroAmount",
      "type": "error"
    },
    {
      "inputs": [
        {
          "internalType": "address",
          "name": "spender",
          "type": "address"
        },
        {
          "internalType": "uint256",
          "name": "allowance",
          "type": "uint256"
        },
        {
          "internalType": "uint256",
          "name": "needed",
          "type": "uint256"
        }
      ],
      "name": "ERC20InsufficientAllowance",
      "type": "error"
    },
    {
      "inputs": [
        {
          "internalType": "address",
          "name": "sender",
          "type": "address"
        },
        {
          "internalType": "uint256",
          "name": "balance",
          "type": "uint256"
        },
        {
          "internalType": "uint256",
          "name": "needed",
          "type": "uint256"
        }
      ],
      "name": "ERC20InsufficientBalance",
      "type": "error"
    },
    {
      "inputs": [
        {
          "internalType": "address",
          "name": "approver",
          "type": "address"
        }
      ],
      "name": "ERC20InvalidApprover",
      "type": "error"
    },
    {
      "inputs": [
        {
          "internalType": "address",
          "name": "receiver",
          "type": "address"
        }
      ],
      "name": "ERC20InvalidReceiver",
      "type": "error"
    },
    {
      "inputs": [
        {
          "internalType": "address",
          "name": "sender",
          "type": "address"
        }
      ],
      "name": "ERC20InvalidSender",
      "type": "error"
    },
    {
      "inputs": [
        {
          "internalType": "address",
          "name": "spender",
          "type": "address"
        }
      ],
      "name": "ERC20InvalidSpender",
      "type": "error"
    },
    {
      "inputs": [],
      "name": "EnforcedPause",
      "type": "error"
    },
    {
      "inputs": [],
      "name": "EpochDurationMustBeGreaterThanZero",
      "type": "error"
    },
    {
      "inputs": [],
      "name": "ExpectedPause",
      "type": "error"
    },
    {
      "inputs": [],
      "name": "InvalidEpoch",
      "type": "error"
    },
    {
      "inputs": [],
      "name": "InvalidStakeIndex",
      "type": "error"
    },
    {
      "inputs": [],
      "name": "InvalidTierIndex",
      "type": "error"
    },
    {
      "inputs": [],
      "name": "LockPeriodNotEnded",
      "type": "error"
    },
    {
      "inputs": [],
      "name": "MultiplierMustBeGreaterThanZero",
      "type": "error"
    },
    {
      "inputs": [],
      "name": "NotEnoughBalance",
      "type": "error"
    },
    {
      "inputs": [],
      "name": "ReentrancyGuardReentrantCall",
      "type": "error"
    },
    {
      "inputs": [],
      "name": "RewardTransferFailed",
      "type": "error"
    },
    {
      "inputs": [
        {
          "internalType": "address",
          "name": "token",
          "type": "address"
        }
      ],
      "name": "SafeERC20FailedOperation",
      "type": "error"
    },
    {
      "inputs": [],
      "name": "StakeTransferFailed",
      "type": "error"
    },
    {
      "inputs": [],
      "name": "TransferNotAllowed",
      "type": "error"
    },
    {
      "inputs": [],
      "name": "UnclaimedRewardsRemain",
      "type": "error"
    },
    {
      "inputs": [],
      "name": "UnstakeTransferFailed",
      "type": "error"
    },
    {
      "anonymous": false,
      "inputs": [
        {
          "indexed": true,
          "internalType": "address",
          "name": "owner",
          "type": "address"
        },
        {
          "indexed": true,
          "internalType": "address",
          "name": "spender",
          "type": "address"
        },
        {
          "indexed": false,
          "internalType": "uint256",
          "name": "value",
          "type": "uint256"
        }
      ],
      "name": "Approval",
      "type": "event"
    },
    {
      "anonymous": false,
      "inputs": [
        {
          "indexed": false,
          "internalType": "uint256",
          "name": "defaultEpochRewards",
          "type": "uint256"
        }
      ],
      "name": "DefaultEpochRewardsSet",
      "type": "event"
    },
    {
      "anonymous": false,
      "inputs": [
        {
          "indexed": true,
          "internalType": "uint256",
          "name": "epoch",
          "type": "uint256"
        },
        {
          "indexed": false,
          "internalType": "bytes32",
          "name": "merkleRoot",
          "type": "bytes32"
        }
      ],
      "name": "MerkleRootSet",
      "type": "event"
    },
    {
      "anonymous": false,
      "inputs": [
        {
          "indexed": false,
          "internalType": "address",
          "name": "account",
          "type": "address"
        }
      ],
      "name": "Paused",
      "type": "event"
    },
    {
      "anonymous": false,
      "inputs": [
        {
          "indexed": true,
          "internalType": "address",
          "name": "user",
          "type": "address"
        },
        {
          "indexed": false,
          "internalType": "uint256",
          "name": "amount",
          "type": "uint256"
        }
      ],
      "name": "RewardClaimed",
      "type": "event"
    },
    {
      "anonymous": false,
      "inputs": [
        {
          "indexed": true,
          "internalType": "uint256",
          "name": "epoch",
          "type": "uint256"
        },
        {
          "indexed": false,
          "internalType": "uint256",
          "name": "amount",
          "type": "uint256"
        }
      ],
      "name": "RewardSet",
      "type": "event"
    },
    {
      "anonymous": false,
      "inputs": [
        {
          "indexed": true,
          "internalType": "bytes32",
          "name": "role",
          "type": "bytes32"
        },
        {
          "indexed": true,
          "internalType": "bytes32",
          "name": "previousAdminRole",
          "type": "bytes32"
        },
        {
          "indexed": true,
          "internalType": "bytes32",
          "name": "newAdminRole",
          "type": "bytes32"
        }
      ],
      "name": "RoleAdminChanged",
      "type": "event"
    },
    {
      "anonymous": false,
      "inputs": [
        {
          "indexed": true,
          "internalType": "bytes32",
          "name": "role",
          "type": "bytes32"
        },
        {
          "indexed": true,
          "internalType": "address",
          "name": "account",
          "type": "address"
        },
        {
          "indexed": true,
          "internalType": "address",
          "name": "sender",
          "type": "address"
        }
      ],
      "name": "RoleGranted",
      "type": "event"
    },
    {
      "anonymous": false,
      "inputs": [
        {
          "indexed": true,
          "internalType": "bytes32",
          "name": "role",
          "type": "bytes32"
        },
        {
          "indexed": true,
          "internalType": "address",
          "name": "account",
          "type": "address"
        },
        {
          "indexed": true,
          "internalType": "address",
          "name": "sender",
          "type": "address"
        }
      ],
      "name": "RoleRevoked",
      "type": "event"
    },
    {
      "anonymous": false,
      "inputs": [
        {
          "indexed": true,
          "internalType": "address",
          "name": "user",
          "type": "address"
        },
        {
          "indexed": false,
          "internalType": "uint256",
          "name": "amount",
          "type": "uint256"
        },
        {
          "indexed": true,
          "internalType": "uint256",
          "name": "tierIndex",
          "type": "uint256"
        }
      ],
      "name": "Staked",
      "type": "event"
    },
    {
      "anonymous": false,
      "inputs": [
        {
          "indexed": false,
          "internalType": "uint256",
          "name": "lockPeriod",
          "type": "uint256"
        },
        {
          "indexed": false,
          "internalType": "uint256",
          "name": "multiplier",
          "type": "uint256"
        }
      ],
      "name": "TierAdded",
      "type": "event"
    },
    {
      "anonymous": false,
      "inputs": [
        {
          "indexed": true,
          "internalType": "address",
          "name": "from",
          "type": "address"
        },
        {
          "indexed": true,
          "internalType": "address",
          "name": "to",
          "type": "address"
        },
        {
          "indexed": false,
          "internalType": "uint256",
          "name": "value",
          "type": "uint256"
        }
      ],
      "name": "Transfer",
      "type": "event"
    },
    {
      "anonymous": false,
      "inputs": [
        {
          "indexed": false,
          "internalType": "address",
          "name": "account",
          "type": "address"
        }
      ],
      "name": "Unpaused",
      "type": "event"
    },
    {
      "anonymous": false,
      "inputs": [
        {
          "indexed": true,
          "internalType": "address",
          "name": "user",
          "type": "address"
        },
        {
          "indexed": false,
          "internalType": "uint256",
          "name": "amount",
          "type": "uint256"
        }
      ],
      "name": "Unstaked",
      "type": "event"
    },
    {
      "inputs": [],
      "name": "DEFAULT_ADMIN_ROLE",
      "outputs": [
        {
          "internalType": "bytes32",
          "name": "",
          "type": "bytes32"
        }
      ],
      "stateMutability": "view",
      "type": "function"
    },
    {
      "inputs": [],
      "name": "EPOCH_MANAGER_ROLE",
      "outputs": [
        {
          "internalType": "bytes32",
          "name": "",
          "type": "bytes32"
        }
      ],
      "stateMutability": "view",
      "type": "function"
    },
    {
      "inputs": [],
      "name": "TOKEN",
      "outputs": [
        {
          "internalType": "contract IERC20",
          "name": "",
          "type": "address"
        }
      ],
      "stateMutability": "view",
      "type": "function"
    },
    {
      "inputs": [
        {
          "internalType": "address",
          "name": "owner",
          "type": "address"
        },
        {
          "internalType": "address",
          "name": "spender",
          "type": "address"
        }
      ],
      "name": "allowance",
      "outputs": [
        {
          "internalType": "uint256",
          "name": "",
          "type": "uint256"
        }
      ],
      "stateMutability": "view",
      "type": "function"
    },
    {
      "inputs": [
        {
          "internalType": "address",
          "name": "spender",
          "type": "address"
        },
        {
          "internalType": "uint256",
          "name": "value",
          "type": "uint256"
        }
      ],
      "name": "approve",
      "outputs": [
        {
          "internalType": "bool",
          "name": "",
          "type": "bool"
        }
      ],
      "stateMutability": "nonpayable",
      "type": "function"
    },
    {
      "inputs": [
        {
          "internalType": "address",
          "name": "account",
          "type": "address"
        }
      ],
      "name": "balanceOf",
      "outputs": [
        {
          "internalType": "uint256",
          "name": "",
          "type": "uint256"
        }
      ],
      "stateMutability": "view",
      "type": "function"
    },
    {
      "inputs": [
        {
          "internalType": "uint256",
          "name": "stakeIndex",
          "type": "uint256"
        },
        {
          "internalType": "uint32[]",
          "name": "epochs",
          "type": "uint32[]"
        },
        {
          "internalType": "bytes32[][]",
          "name": "merkleProofs",
          "type": "bytes32[][]"
        }
      ],
      "name": "calculateRewards",
      "outputs": [
        {
          "internalType": "uint256",
          "name": "",
          "type": "uint256"
        }
      ],
      "stateMutability": "view",
      "type": "function"
    },
    {
      "inputs": [
        {
          "internalType": "uint256",
          "name": "stakeIndex",
          "type": "uint256"
        },
        {
          "internalType": "uint256[]",
          "name": "votedEpochs",
          "type": "uint256[]"
        }
      ],
      "name": "calculateRewardsWithVoting",
      "outputs": [
        {
          "internalType": "uint256",
          "name": "",
          "type": "uint256"
        }
      ],
      "stateMutability": "view",
      "type": "function"
    },
    {
      "inputs": [
        {
          "internalType": "uint256",
          "name": "stakeIndex",
          "type": "uint256"
        },
        {
          "internalType": "uint32[]",
          "name": "epochs",
          "type": "uint32[]"
        },
        {
          "internalType": "bytes32[][]",
          "name": "merkleProofs",
          "type": "bytes32[][]"
        }
      ],
      "name": "claimRewards",
      "outputs": [],
      "stateMutability": "nonpayable",
      "type": "function"
    },
    {
      "inputs": [],
      "name": "decimals",
      "outputs": [
        {
          "internalType": "uint8",
          "name": "",
          "type": "uint8"
        }
      ],
      "stateMutability": "view",
      "type": "function"
    },
    {
      "inputs": [],
      "name": "defaultEpochRewards",
      "outputs": [
        {
          "internalType": "uint256",
          "name": "",
          "type": "uint256"
        }
      ],
      "stateMutability": "view",
      "type": "function"
    },
    {
      "inputs": [],
      "name": "epochDuration",
      "outputs": [
        {
          "internalType": "uint256",
          "name": "",
          "type": "uint256"
        }
      ],
      "stateMutability": "view",
      "type": "function"
    },
    {
      "inputs": [
        {
          "internalType": "uint256",
          "name": "epoch",
          "type": "uint256"
        }
      ],
      "name": "epochMerkleRoots",
      "outputs": [
        {
          "internalType": "bytes32",
          "name": "root",
          "type": "bytes32"
        }
      ],
      "stateMutability": "view",
      "type": "function"
    },
    {
      "inputs": [],
      "name": "epochStartTime",
      "outputs": [
        {
          "internalType": "uint256",
          "name": "",
          "type": "uint256"
        }
      ],
      "stateMutability": "view",
      "type": "function"
    },
    {
      "inputs": [],
      "name": "getCurrentEpoch",
      "outputs": [
        {
          "internalType": "uint256",
          "name": "",
          "type": "uint256"
        }
      ],
      "stateMutability": "view",
      "type": "function"
    },
    {
      "inputs": [
        {
          "internalType": "uint256",
          "name": "epoch",
          "type": "uint256"
        }
      ],
      "name": "getRewardsForEpoch",
      "outputs": [
        {
          "internalType": "uint256",
          "name": "",
          "type": "uint256"
        }
      ],
      "stateMutability": "view",
      "type": "function"
    },
    {
      "inputs": [
        {
          "internalType": "bytes32",
          "name": "role",
          "type": "bytes32"
        }
      ],
      "name": "getRoleAdmin",
      "outputs": [
        {
          "internalType": "bytes32",
          "name": "",
          "type": "bytes32"
        }
      ],
      "stateMutability": "view",
      "type": "function"
    },
    {
      "inputs": [],
      "name": "getTiers",
      "outputs": [
        {
          "components": [
            {
              "internalType": "uint256",
              "name": "lockPeriod",
              "type": "uint256"
            },
            {
              "internalType": "uint256",
              "name": "multiplier",
              "type": "uint256"
            }
          ],
          "internalType": "struct TokenStaking.Tier[]",
          "name": "",
          "type": "tuple[]"
        }
      ],
      "stateMutability": "view",
      "type": "function"
    },
    {
      "inputs": [
        {
          "internalType": "uint256",
          "name": "epoch",
          "type": "uint256"
        }
      ],
      "name": "getTotalEffectiveSupplyAtEpoch",
      "outputs": [
        {
          "internalType": "uint256",
          "name": "",
          "type": "uint256"
        }
      ],
      "stateMutability": "view",
      "type": "function"
    },
    {
      "inputs": [
        {
          "internalType": "address",
          "name": "user",
          "type": "address"
        }
      ],
      "name": "getUserStakes",
      "outputs": [
        {
          "components": [
            {
              "internalType": "uint256",
              "name": "amount",
              "type": "uint256"
            },
            {
              "internalType": "uint256",
              "name": "effectiveAmount",
              "type": "uint256"
            },
            {
              "internalType": "uint32",
              "name": "tierIndex",
              "type": "uint32"
            },
            {
              "internalType": "uint32",
              "name": "startTime",
              "type": "uint32"
            },
            {
              "internalType": "uint32",
              "name": "lastClaimEpoch",
              "type": "uint32"
            }
          ],
          "internalType": "struct TokenStaking.Stake[]",
          "name": "",
          "type": "tuple[]"
        }
      ],
      "stateMutability": "view",
      "type": "function"
    },
    {
      "inputs": [
        {
          "internalType": "bytes32",
          "name": "role",
          "type": "bytes32"
        },
        {
          "internalType": "address",
          "name": "account",
          "type": "address"
        }
      ],
      "name": "grantRole",
      "outputs": [],
      "stateMutability": "nonpayable",
      "type": "function"
    },
    {
      "inputs": [
        {
          "internalType": "bytes32",
          "name": "role",
          "type": "bytes32"
        },
        {
          "internalType": "address",
          "name": "account",
          "type": "address"
        }
      ],
      "name": "hasRole",
      "outputs": [
        {
          "internalType": "bool",
          "name": "",
          "type": "bool"
        }
      ],
      "stateMutability": "view",
      "type": "function"
    },
    {
      "inputs": [
        {
          "internalType": "uint256",
          "name": "epoch",
          "type": "uint256"
        },
        {
          "internalType": "address",
          "name": "user",
          "type": "address"
        },
        {
          "internalType": "bytes32[]",
          "name": "merkleProof",
          "type": "bytes32[]"
        }
      ],
      "name": "hasVoted",
      "outputs": [
        {
          "internalType": "bool",
          "name": "",
          "type": "bool"
        }
      ],
      "stateMutability": "view",
      "type": "function"
    },
    {
      "inputs": [
        {
          "internalType": "uint256",
          "name": "stakeIndex",
          "type": "uint256"
        }
      ],
      "name": "isLocked",
      "outputs": [
        {
          "internalType": "bool",
          "name": "",
          "type": "bool"
        }
      ],
      "stateMutability": "view",
      "type": "function"
    },
    {
      "inputs": [],
      "name": "lastTotalEffectiveSupplyChangedAtEpoch",
      "outputs": [
        {
          "internalType": "uint256",
          "name": "",
          "type": "uint256"
        }
      ],
      "stateMutability": "view",
      "type": "function"
    },
    {
      "inputs": [],
      "name": "name",
      "outputs": [
        {
          "internalType": "string",
          "name": "",
          "type": "string"
        }
      ],
      "stateMutability": "view",
      "type": "function"
    },
    {
      "inputs": [],
      "name": "pause",
      "outputs": [],
      "stateMutability": "nonpayable",
      "type": "function"
    },
    {
      "inputs": [],
      "name": "paused",
      "outputs": [
        {
          "internalType": "bool",
          "name": "",
          "type": "bool"
        }
      ],
      "stateMutability": "view",
      "type": "function"
    },
    {
      "inputs": [
        {
          "internalType": "bytes32",
          "name": "role",
          "type": "bytes32"
        },
        {
          "internalType": "address",
          "name": "callerConfirmation",
          "type": "address"
        }
      ],
      "name": "renounceRole",
      "outputs": [],
      "stateMutability": "nonpayable",
      "type": "function"
    },
    {
      "inputs": [
        {
          "internalType": "bytes32",
          "name": "role",
          "type": "bytes32"
        },
        {
          "internalType": "address",
          "name": "account",
          "type": "address"
        }
      ],
      "name": "revokeRole",
      "outputs": [],
      "stateMutability": "nonpayable",
      "type": "function"
    },
    {
      "inputs": [
        {
          "internalType": "uint256",
          "name": "epoch",
          "type": "uint256"
        }
      ],
      "name": "rewardsPerEpoch",
      "outputs": [
        {
          "internalType": "uint256",
          "name": "reward",
          "type": "uint256"
        }
      ],
      "stateMutability": "view",
      "type": "function"
    },
    {
      "inputs": [
        {
          "internalType": "uint256",
          "name": "_defaultEpochRewards",
          "type": "uint256"
        }
      ],
      "name": "setDefaultEpochRewards",
      "outputs": [],
      "stateMutability": "nonpayable",
      "type": "function"
    },
    {
      "inputs": [
        {
          "internalType": "uint256",
          "name": "epoch",
          "type": "uint256"
        },
        {
          "internalType": "bytes32",
          "name": "merkleRoot",
          "type": "bytes32"
        }
      ],
      "name": "setMerkleRoot",
      "outputs": [],
      "stateMutability": "nonpayable",
      "type": "function"
    },
    {
      "inputs": [
        {
          "internalType": "uint256",
          "name": "epoch",
          "type": "uint256"
        },
        {
          "internalType": "uint256",
          "name": "reward",
          "type": "uint256"
        }
      ],
      "name": "setRewardForEpoch",
      "outputs": [],
      "stateMutability": "nonpayable",
      "type": "function"
    },
    {
      "inputs": [
        {
          "internalType": "uint256",
          "name": "index",
          "type": "uint256"
        },
        {
          "internalType": "uint256",
          "name": "lockPeriod",
          "type": "uint256"
        },
        {
          "internalType": "uint256",
          "name": "multiplier",
          "type": "uint256"
        }
      ],
      "name": "setTier",
      "outputs": [],
      "stateMutability": "nonpayable",
      "type": "function"
    },
    {
      "inputs": [
        {
          "internalType": "uint256",
          "name": "amount",
          "type": "uint256"
        },
        {
          "internalType": "uint32",
          "name": "tierIndex",
          "type": "uint32"
        }
      ],
      "name": "stake",
      "outputs": [],
      "stateMutability": "nonpayable",
      "type": "function"
    },
    {
      "inputs": [
        {
          "internalType": "bytes4",
          "name": "interfaceId",
          "type": "bytes4"
        }
      ],
      "name": "supportsInterface",
      "outputs": [
        {
          "internalType": "bool",
          "name": "",
          "type": "bool"
        }
      ],
      "stateMutability": "view",
      "type": "function"
    },
    {
      "inputs": [],
      "name": "symbol",
      "outputs": [
        {
          "internalType": "string",
          "name": "",
          "type": "string"
        }
      ],
      "stateMutability": "view",
      "type": "function"
    },
    {
      "inputs": [
        {
          "internalType": "uint256",
          "name": "",
          "type": "uint256"
        }
      ],
      "name": "tiers",
      "outputs": [
        {
          "internalType": "uint256",
          "name": "lockPeriod",
          "type": "uint256"
        },
        {
          "internalType": "uint256",
          "name": "multiplier",
          "type": "uint256"
        }
      ],
      "stateMutability": "view",
      "type": "function"
    },
    {
      "inputs": [],
      "name": "totalEffectiveSupply",
      "outputs": [
        {
          "internalType": "uint256",
          "name": "",
          "type": "uint256"
        }
      ],
      "stateMutability": "view",
      "type": "function"
    },
    {
      "inputs": [
        {
          "internalType": "uint256",
          "name": "epoch",
          "type": "uint256"
        }
      ],
      "name": "totalEffectiveSupplyAtEpoch",
      "outputs": [
        {
          "internalType": "uint256",
          "name": "totalEffectiveSupply",
          "type": "uint256"
        }
      ],
      "stateMutability": "view",
      "type": "function"
    },
    {
      "inputs": [],
      "name": "totalSupply",
      "outputs": [
        {
          "internalType": "uint256",
          "name": "",
          "type": "uint256"
        }
      ],
      "stateMutability": "view",
      "type": "function"
    },
    {
      "inputs": [
        {
          "internalType": "address",
          "name": "to",
          "type": "address"
        },
        {
          "internalType": "uint256",
          "name": "value",
          "type": "uint256"
        }
      ],
      "name": "transfer",
      "outputs": [
        {
          "internalType": "bool",
          "name": "",
          "type": "bool"
        }
      ],
      "stateMutability": "nonpayable",
      "type": "function"
    },
    {
      "inputs": [
        {
          "internalType": "address",
          "name": "from",
          "type": "address"
        },
        {
          "internalType": "address",
          "name": "to",
          "type": "address"
        },
        {
          "internalType": "uint256",
          "name": "value",
          "type": "uint256"
        }
      ],
      "name": "transferFrom",
      "outputs": [
        {
          "internalType": "bool",
          "name": "",
          "type": "bool"
        }
      ],
      "stateMutability": "nonpayable",
      "type": "function"
    },
    {
      "inputs": [],
      "name": "unpause",
      "outputs": [],
      "stateMutability": "nonpayable",
      "type": "function"
    },
    {
      "inputs": [
        {
          "internalType": "uint256",
          "name": "stakeIndex",
          "type": "uint256"
        }
      ],
      "name": "unstake",
      "outputs": [],
      "stateMutability": "nonpayable",
      "type": "function"
    },
    {
      "inputs": [
        {
          "internalType": "address",
          "name": "user",
          "type": "address"
        },
        {
          "internalType": "uint256",
          "name": "",
          "type": "uint256"
        }
      ],
      "name": "userStakes",
      "outputs": [
        {
          "internalType": "uint256",
          "name": "amount",
          "type": "uint256"
        },
        {
          "internalType": "uint256",
          "name": "effectiveAmount",
          "type": "uint256"
        },
        {
          "internalType": "uint32",
          "name": "tierIndex",
          "type": "uint32"
        },
        {
          "internalType": "uint32",
          "name": "startTime",
          "type": "uint32"
        },
        {
          "internalType": "uint32",
          "name": "lastClaimEpoch",
          "type": "uint32"
        }
      ],
      "stateMutability": "view",
      "type": "function"
    },
    {
      "inputs": [
        {
          "internalType": "uint256",
          "name": "amount",
          "type": "uint256"
        }
      ],
      "name": "withdraw",
      "outputs": [],
      "stateMutability": "nonpayable",
      "type": "function"
    }
  ],
  "bytecode": "0x60a06040523480156200001157600080fd5b5060405162002e2438038062002e248339810160408190526200003491620002d3565b336040518060400160405280600b81526020016a14dd185ad959081491505360aa1b815250604051806040016040528060058152602001641cd491505360da1b81525081600390816200008891906200047f565b5060046200009782826200047f565b5050600160055550620000ac60008262000179565b50506008805460ff191690556001600160a01b038516608052620000f17fd1f93295386678925e314b1bb3a85f78a9c16dbca2ec12fec819c401273ca3843362000179565b5060005b81518110156200014d57600c8282815181106200011657620001166200054b565b60209081029190910181015182546001818101855560009485529383902082516002909202019081559101519082015501620000f5565b506009839055600a829055600b8490556000620001696200022c565b60105550620005c6945050505050565b60008281526006602090815260408083206001600160a01b038516845290915281205460ff16620002225760008381526006602090815260408083206001600160a01b03861684529091529020805460ff19166001179055620001d93390565b6001600160a01b0316826001600160a01b0316847f2f8788117e7eff1d82e926ec794901d17c78024a50270940304540a733656f0d60405160405180910390a450600162000226565b5060005b92915050565b6000600954600a544262000241919062000577565b6200024d91906200058d565b6200025a906001620005b0565b905090565b634e487b7160e01b600052604160045260246000fd5b604080519081016001600160401b03811182821017156200029a576200029a6200025f565b60405290565b604051601f8201601f191681016001600160401b0381118282101715620002cb57620002cb6200025f565b604052919050565b600080600080600060a08688031215620002ec57600080fd5b85516001600160a01b03811681146200030457600080fd5b6020878101516040808a015160608b015160808c0151959a50929850965090945090916001600160401b03808211156200033d57600080fd5b818a0191508a601f8301126200035257600080fd5b8151818111156200036757620003676200025f565b62000377858260051b01620002a0565b818152858101925060069190911b83018501908c8211156200039857600080fd5b928501925b81841015620003dd5784848e031215620003b75760008081fd5b620003c162000275565b845181528685015187820152835292840192918501916200039d565b8096505050505050509295509295909350565b600181811c908216806200040557607f821691505b6020821081036200042657634e487b7160e01b600052602260045260246000fd5b50919050565b601f8211156200047a57600081815260208120601f850160051c81016020861015620004555750805b601f850160051c820191505b81811015620004765782815560010162000461565b5050505b505050565b81516001600160401b038111156200049b576200049b6200025f565b620004b381620004ac8454620003f0565b846200042c565b602080601f831160018114620004eb5760008415620004d25750858301515b600019600386901b1c1916600185901b17855562000476565b600085815260208120601f198616915b828110156200051c57888601518255948401946001909101908401620004fb565b50858210156200053b5787850151600019600388901b60f8161c191681555b5050505050600190811b01905550565b634e487b7160e01b600052603260045260246000fd5b634e487b7160e01b600052601160045260246000fd5b8181038181111562000226576200022662000561565b600082620005ab57634e487b7160e01b600052601260045260246000fd5b500490565b8082018082111562000226576200022662000561565b60805161281f62000605600039600081816104c701528181610cb701528181610d5001528181610df3015281816111a20152611dff015261281f6000f3fe608060405234801561001057600080fd5b50600436106102a05760003560e01c806378a96cc011610167578063a8a7747c116100ce578063d547741f11610087578063d547741f14610642578063dd62ed3e14610655578063de1705701461068e578063f60ca641146106a3578063f6aacfb1146106ac578063fc2e05c5146106bf57600080fd5b8063a8a7747c146105a5578063a9059cbb146105b8578063ad7ea0a9146105cb578063b179f7d9146105d4578063b5d5b5fa146105f4578063b97dd9e21461063a57600080fd5b806386c8a2fa1161012057806386c8a2fa1461053c57806391d148541461054f57806394cee7b31461056257806395d89b41146105825780639cd89c881461058a578063a217fddf1461059d57600080fd5b806378a96cc01461049c5780637dc2b0ab146104af57806382bfefc8146104c2578063836a018714610501578063842e2981146105145780638456cb591461053457600080fd5b80632e17de781161020b5780633f4ba83a116101c45780633f4ba83a146104315780634d03d394146104395780634ff0876a1461044c5780635c975abb146104555780636585e4f21461046057806370a082311461047357600080fd5b80632e17de78146103c35780632e1a7d4d146103d65780632f2ff15d146103e9578063313ce567146103fc57806336568abe1461040b578063368400941461041e57600080fd5b806318160ddd1161025d57806318160ddd1461034757806318712c211461034f57806323b872dd14610364578063248a9ca3146103775780632a52344c1461039a5780632c816a5c146103ba57600080fd5b806301ffc9a7146102a5578063039af9eb146102cd578063055c2b95146102f557806306fdde0314610316578063095ea7b31461032b57806314372a101461033e575b600080fd5b6102b86102b3366004612223565b6106e6565b60405190151581526020015b60405180910390f35b6102e06102db36600461224d565b61071d565b604080519283526020830191909152016102c4565b6103086103033660046122b2565b61074b565b6040519081526020016102c4565b61031e61090e565b6040516102c4919061232c565b6102b8610339366004612396565b6109a0565b610308600b5481565b600254610308565b61036261035d3660046123c0565b6109b8565b005b6102b86103723660046123e2565b610a34565b61030861038536600461224d565b60009081526006602052604090206001015490565b6103086103a836600461224d565b60116020526000908152604090205481565b61030860105481565b6103626103d136600461224d565b610a58565b6103626103e436600461224d565b610d2d565b6103626103f736600461241e565b610e1f565b604051601281526020016102c4565b61036261041936600461241e565b610e4a565b61030861042c36600461224d565b610e7d565b610362610ed1565b61030861044736600461224d565b610ee4565b61030860095481565b60085460ff166102b8565b6102b861046e36600461244a565b610f39565b6103086104813660046124a4565b6001600160a01b031660009081526020819052604090205490565b6103626104aa3660046124d3565b610fdc565b6103626104bd36600461224d565b611227565b6104e97f000000000000000000000000000000000000000000000000000000000000000081565b6040516001600160a01b0390911681526020016102c4565b61036261050f3660046124f6565b61126e565b6105276105223660046124a4565b611358565b6040516102c49190612522565b61036261140c565b61036261054a3660046122b2565b61141f565b6102b861055d36600461241e565b61144d565b61030861057036600461224d565b600e6020526000908152604090205481565b61031e611478565b6103626105983660046123c0565b611487565b610308600081565b6103086105b336600461259b565b61151e565b6102b86105c6366004612396565b6116b2565b610308600f5481565b6103086105e236600461224d565b60076020526000908152604090205481565b610607610602366004612396565b6116c0565b60408051958652602086019490945263ffffffff928316938501939093528116606084015216608082015260a0016102c4565b61030861171e565b61036261065036600461241e565b61174b565b6103086106633660046125e7565b6001600160a01b03918216600090815260016020908152604080832093909416825291909152205490565b610696611770565b6040516102c49190612611565b610308600a5481565b6102b86106ba36600461224d565b6117e3565b6103087fd1f93295386678925e314b1bb3a85f78a9c16dbca2ec12fec819c401273ca38481565b60006001600160e01b03198216637965db0b60e01b148061071757506301ffc9a760e01b6001600160e01b03198316145b92915050565b600c818154811061072d57600080fd5b60009182526020909120600290910201805460019091015490915082565b336000908152600d6020526040812054861061077a5760405163cf468e4360e01b815260040160405180910390fd5b336000908152600d6020526040812080548890811061079b5761079b612653565b600091825260208083206040805160a08101825260039094029091018054845260018101549284019290925260029091015463ffffffff80821692840192909252600160201b810482166060840152600160401b900416608082015291508061080261171e565b608084015190915063ffffffff1660005b888110156108ff5760008a8a8381811061082f5761082f612653565b90506020020160208101906108449190612669565b63ffffffff169050828111158061085b5750838110155b156108795760405163d5b25b6360e01b815260040160405180910390fd5b6108a281338b8b8681811061089057610890612653565b905060200281019061046e9190612684565b156108eb5760006108b282610ee4565b905060006108bf83610e7d565b9050808860200151836108d291906126e4565b6108dc91906126fb565b6108e6908861271d565b965050505b9150806108f781612730565b915050610813565b50919998505050505050505050565b60606003805461091d90612749565b80601f016020809104026020016040519081016040528092919081815260200182805461094990612749565b80156109965780601f1061096b57610100808354040283529160200191610996565b820191906000526020600020905b81548152906001019060200180831161097957829003601f168201915b5050505050905090565b6000336109ae8185856118d8565b5060019392505050565b7fd1f93295386678925e314b1bb3a85f78a9c16dbca2ec12fec819c401273ca3846109e2816118e5565b600083815260076020526040908190208390555183907fb04b7d6145a7588fdcf339a22877d5965f861c171204fc37688058c5f6c06d3b90610a279085815260200190565b60405180910390a2505050565b600033610a428582856118ef565b610a4d85858561196d565b506001949350505050565b610a606119cc565b610a686119f6565b336000908152600d60205260409020548110610a975760405163cf468e4360e01b815260040160405180910390fd5b336000908152600d60205260408120805483908110610ab857610ab8612653565b90600052602060002090600302019050610ad1826117e3565b15610aef576040516387c0f2d560e01b815260040160405180910390fd5b6000610af961171e565b9050610b06600182612783565b6002830154600160401b900463ffffffff161015610b3757604051636b6dcacb60e11b815260040160405180910390fd5b81546001830154600f8054600090610b50908490612783565b9091555050600f54610b6190611a1c565b336000908152600d602052604090208054610b7e90600190612783565b81548110610b8e57610b8e612653565b9060005260206000209060030201600d6000336001600160a01b03166001600160a01b031681526020019081526020016000208581548110610bd257610bd2612653565b600091825260208083208454600390930201918255600180850154908301556002938401805494909201805463ffffffff19811663ffffffff96871690811783558454600160201b9081900488160267ffffffffffffffff1990921617178082559254600160401b9081900490951690940263ffffffff60401b1990921691909117909255338152600d90915260409020805480610c7257610c72612796565b600082815260208120600360001990930192830201818155600181019190915560020180546bffffffffffffffffffffffff191690559055610cde6001600160a01b037f0000000000000000000000000000000000000000000000000000000000000000163383611a79565b610ce83382611ad8565b60405181815233907f0f5bb82176feb1b5e747e28471aa92156a04d9f3ab9f45f28e2d704232b93f759060200160405180910390a2505050610d2a6001600555565b50565b6000610d38816118e5565b6040516370a0823160e01b81523060048201526000907f00000000000000000000000000000000000000000000000000000000000000006001600160a01b0316906370a0823190602401602060405180830381865afa158015610d9f573d6000803e3d6000fd5b505050506040513d601f19601f82011682018060405250810190610dc391906127ac565b905082811015610de65760405163569d45cf60e11b815260040160405180910390fd5b610e1a6001600160a01b037f0000000000000000000000000000000000000000000000000000000000000000163385611a79565b505050565b600082815260066020526040902060010154610e3a816118e5565b610e448383611b0e565b50505050565b6001600160a01b0381163314610e735760405163334bd91960e11b815260040160405180910390fd5b610e1a8282611ba2565b60008181526011602052604081205415610ea4575060009081526011602052604090205490565b60105482118015610ebc5750610eb861171e565b8211155b15610ec9575050600f5490565b506000919050565b6000610edc816118e5565b610d2a611c0f565b6000818152600e602052604081205480158015610f015750600083115b15610f2757600e6000610f15600186612783565b81526020019081526020016000205490505b806000036107175750600b5492915050565b604080516001600160a01b038516602082015260009182910160408051601f1981840301815282825280516020918201209083015201604051602081830303815290604052805190602001209050610fd284848080602002602001604051908101604052809392919081815260200183836020028082843760009201829052508b8152600760205260409020549250859150611c619050565b9695505050505050565b610fe46119cc565b610fec6119f6565b8160000361100d57604051631e254a4360e11b815260040160405180910390fd5b600c5463ffffffff8216106110355760405163255b382160e01b815260040160405180910390fd5b600061103f61171e565b90506000670de0b6b3a7640000600c8463ffffffff168154811061106557611065612653565b9060005260206000209060020201600101548561108291906126e4565b61108c91906126fb565b9050600081600f5461109e919061271d565b600f81905590506110ae81611a1c565b600d6000336001600160a01b03166001600160a01b031681526020019081526020016000206040518060a001604052808781526020018481526020018663ffffffff1681526020014263ffffffff16815260200160018661110f9190612783565b63ffffffff90811690915282546001818101855560009485526020948590208451600390930201918255938301519381019390935560408201516002909301805460608401516080909401518316600160401b0263ffffffff60401b19948416600160201b0267ffffffffffffffff199092169584169590951717929092169290921790556111cf906001600160a01b037f00000000000000000000000000000000000000000000000000000000000000001690339030908990611c7716565b6111d93386611cb0565b60405185815263ffffffff85169033907f1449c6dd7851abc30abf37f57715f492010519147cc2652fbc38202c18a6ee909060200160405180910390a35050506112236001600555565b5050565b6000611232816118e5565b600b8290556040518281527fec0425bd06d72a2ba50e181c023289475aeaf9ae321827d2f31c0cd60a8557219060200160405180910390a15050565b6000611279816118e5565b8160000361129a57604051632ca7e70960e11b815260040160405180910390fd5b600c548410610e44576040805180820182528481526020808201858152600c805460018101825560009190915292517fdf6966c971051c3d54ec59162606531493a51404a002842f56009d7e5cf4a8c7600290940293840155517fdf6966c971051c3d54ec59162606531493a51404a002842f56009d7e5cf4a8c89092019190915581518581529081018490527fcfc4d8961c232632c6b09bddf66bc413cb73448057d761d8e9131102f8fb3f99910160405180910390a150505050565b6001600160a01b0381166000908152600d60209081526040808320805482518185028101850190935280835260609492939192909184015b828210156114015760008481526020908190206040805160a08101825260038602909201805483526001808201548486015260029091015463ffffffff80821693850193909352600160201b810483166060850152600160401b900490911660808301529083529092019101611390565b505050509050919050565b6000611417816118e5565b610d2a611ce6565b6114276119cc565b61142f6119f6565b61143c8585858585611d23565b6114466001600555565b5050505050565b60009182526006602090815260408084206001600160a01b0393909316845291905290205460ff1690565b60606004805461091d90612749565b7fd1f93295386678925e314b1bb3a85f78a9c16dbca2ec12fec819c401273ca3846114b1816118e5565b6114b961171e565b8310156114d95760405163b30fe86560e01b815260040160405180910390fd5b6000838152600e6020526040908190208390555183907fb1364803920b7aa08b58c240c989062d8ebd96ab4bd352792350afbab26c823990610a279085815260200190565b336000908152600d6020526040812054841061154d5760405163cf468e4360e01b815260040160405180910390fd5b336000908152600d6020526040812080548690811061156e5761156e612653565b600091825260208083206040805160a08101825260039094029091018054845260018101549284019290925260029091015463ffffffff80821692840192909252600160201b810482166060840152600160401b90041660808201529150806115d561171e565b90506000836080015160016115ea91906127c5565b63ffffffff1690505b818110156116a6576000805b87811015611641578289898381811061161a5761161a612653565b905060200201350361162f5760019150611641565b8061163981612730565b9150506115ff565b50801561169357600061165383610ee4565b9050600061166084610e7d565b90508015611690578087602001518361167991906126e4565b61168391906126fb565b61168d908761271d565b95505b50505b508061169e81612730565b9150506115f3565b50909695505050505050565b6000336109ae81858561196d565b600d60205281600052604060002081815481106116dc57600080fd5b600091825260209091206003909102018054600182015460029092015490935090915063ffffffff80821691600160201b8104821691600160401b9091041685565b6000600954600a54426117319190612783565b61173b91906126fb565b61174690600161271d565b905090565b600082815260066020526040902060010154611766816118e5565b610e448383611ba2565b6060600c805480602002602001604051908101604052809291908181526020016000905b828210156117da57838290600052602060002090600202016040518060400160405290816000820154815260200160018201548152505081526020019060010190611794565b50505050905090565b336000908152600d602052604081205482106118125760405163cf468e4360e01b815260040160405180910390fd5b336000908152600d6020526040812080548490811061183357611833612653565b60009182526020918290206040805160a08101825260039093029091018054835260018101549383019390935260029092015463ffffffff808216938301849052600160201b820481166060840152600160401b909104166080820152600c80549193504292909181106118a9576118a9612653565b906000526020600020906002020160000154826060015163ffffffff166118d0919061271d565b119392505050565b610e1a8383836001611e65565b610d2a8133611f3a565b6001600160a01b03838116600090815260016020908152604080832093861683529290522054600019811015610e44578181101561195e57604051637dc7a0d960e11b81526001600160a01b038416600482015260248101829052604481018390526064015b60405180910390fd5b610e4484848484036000611e65565b6001600160a01b03831661199757604051634b637e8f60e11b815260006004820152602401611955565b6001600160a01b0382166119c15760405163ec442f0560e01b815260006004820152602401611955565b610e1a838383611f73565b6002600554036119ef57604051633ee5aeb560e01b815260040160405180910390fd5b6002600555565b60085460ff1615611a1a5760405163d93c066560e01b815260040160405180910390fd5b565b6000611a2661171e565b90508015611a625760001981015b601054811115611a60576010546000908152601160205260408082205483835291205560001901611a34565b505b600081815260116020526040902091909155601055565b6040516001600160a01b03838116602483015260448201839052610e1a91859182169063a9059cbb906064015b604051602081830303815290604052915060e01b6020820180516001600160e01b038381831617835250505050611fe6565b6001600160a01b038216611b0257604051634b637e8f60e11b815260006004820152602401611955565b61122382600083611f73565b6000611b1a838361144d565b611b9a5760008381526006602090815260408083206001600160a01b03861684529091529020805460ff19166001179055611b523390565b6001600160a01b0316826001600160a01b0316847f2f8788117e7eff1d82e926ec794901d17c78024a50270940304540a733656f0d60405160405180910390a4506001610717565b506000610717565b6000611bae838361144d565b15611b9a5760008381526006602090815260408083206001600160a01b0386168085529252808320805460ff1916905551339286917ff6391f5c32d9c69d2a47ea670b442974b53935d1edc7fd64eb21e047a839171b9190a4506001610717565b611c17612057565b6008805460ff191690557f5db9ee0a495bf2e6ff9c91a7834c1ba4fdd244a5e8aa4e537bd38aeae4b073aa335b6040516001600160a01b03909116815260200160405180910390a1565b600082611c6e858461207a565b14949350505050565b6040516001600160a01b038481166024830152838116604483015260648201839052610e449186918216906323b872dd90608401611aa6565b6001600160a01b038216611cda5760405163ec442f0560e01b815260006004820152602401611955565b61122360008383611f73565b611cee6119f6565b6008805460ff191660011790557f62e78cea01bee320cd4e420270b5ea74000d11b0c9f74754ebdbfc544b05a258611c443390565b336000908152600d60205260409020548510611d525760405163cf468e4360e01b815260040160405180910390fd5b336000908152600d60205260408120805487908110611d7357611d73612653565b906000526020600020906003020190506000611d92878787878761074b565b90508585611da1600182612783565b818110611db057611db0612653565b9050602002016020810190611dc59190612669565b60028301805463ffffffff92909216600160401b0263ffffffff60401b199092169190911790558015611e5c57611e266001600160a01b037f0000000000000000000000000000000000000000000000000000000000000000163383611a79565b60405181815233907f106f923f993c2149d49b4255ff723acafa1f2d94393f561d3eda32ae348f72419060200160405180910390a25b50505050505050565b6001600160a01b038416611e8f5760405163e602df0560e01b815260006004820152602401611955565b6001600160a01b038316611eb957604051634a1406b160e11b815260006004820152602401611955565b6001600160a01b0380851660009081526001602090815260408083209387168352929052208290558015610e4457826001600160a01b0316846001600160a01b03167f8c5be1e5ebec7d5bd14f71427d1e84f3dd0314c0f7b2291e5b200ac8c7c3b92584604051611f2c91815260200190565b60405180910390a350505050565b611f44828261144d565b6112235760405163e2517d3f60e01b81526001600160a01b038216600482015260248101839052604401611955565b6001600160a01b03831615801590611f9457506001600160a01b0383163014155b8015611fa957506001600160a01b0382163014155b8015611fbd57506001600160a01b03821615155b15611fdb57604051638cd22d1960e01b815260040160405180910390fd5b610e1a8383836120c7565b600080602060008451602086016000885af180612009576040513d6000823e3d81fd5b50506000513d9150811561202157806001141561202e565b6001600160a01b0384163b155b15610e4457604051635274afe760e01b81526001600160a01b0385166004820152602401611955565b60085460ff16611a1a57604051638dfc202b60e01b815260040160405180910390fd5b600081815b84518110156120bf576120ab8286838151811061209e5761209e612653565b60200260200101516121f1565b9150806120b781612730565b91505061207f565b509392505050565b6001600160a01b0383166120f25780600260008282546120e7919061271d565b909155506121649050565b6001600160a01b038316600090815260208190526040902054818110156121455760405163391434e360e21b81526001600160a01b03851660048201526024810182905260448101839052606401611955565b6001600160a01b03841660009081526020819052604090209082900390555b6001600160a01b0382166121805760028054829003905561219f565b6001600160a01b03821660009081526020819052604090208054820190555b816001600160a01b0316836001600160a01b03167fddf252ad1be2c89b69c2b068fc378daa952ba7f163c4a11628f55a4df523b3ef836040516121e491815260200190565b60405180910390a3505050565b600081831061220d57600082815260208490526040902061221c565b60008381526020839052604090205b9392505050565b60006020828403121561223557600080fd5b81356001600160e01b03198116811461221c57600080fd5b60006020828403121561225f57600080fd5b5035919050565b60008083601f84011261227857600080fd5b50813567ffffffffffffffff81111561229057600080fd5b6020830191508360208260051b85010111156122ab57600080fd5b9250929050565b6000806000806000606086880312156122ca57600080fd5b85359450602086013567ffffffffffffffff808211156122e957600080fd5b6122f589838a01612266565b9096509450604088013591508082111561230e57600080fd5b5061231b88828901612266565b969995985093965092949392505050565b600060208083528351808285015260005b818110156123595785810183015185820160400152820161233d565b506000604082860101526040601f19601f8301168501019250505092915050565b80356001600160a01b038116811461239157600080fd5b919050565b600080604083850312156123a957600080fd5b6123b28361237a565b946020939093013593505050565b600080604083850312156123d357600080fd5b50508035926020909101359150565b6000806000606084860312156123f757600080fd5b6124008461237a565b925061240e6020850161237a565b9150604084013590509250925092565b6000806040838503121561243157600080fd5b823591506124416020840161237a565b90509250929050565b6000806000806060858703121561246057600080fd5b843593506124706020860161237a565b9250604085013567ffffffffffffffff81111561248c57600080fd5b61249887828801612266565b95989497509550505050565b6000602082840312156124b657600080fd5b61221c8261237a565b803563ffffffff8116811461239157600080fd5b600080604083850312156124e657600080fd5b82359150612441602084016124bf565b60008060006060848603121561250b57600080fd5b505081359360208301359350604090920135919050565b602080825282518282018190526000919060409081850190868401855b8281101561258e5781518051855286810151878601528581015163ffffffff90811687870152606080830151821690870152608091820151169085015260a0909301929085019060010161253f565b5091979650505050505050565b6000806000604084860312156125b057600080fd5b83359250602084013567ffffffffffffffff8111156125ce57600080fd5b6125da86828701612266565b9497909650939450505050565b600080604083850312156125fa57600080fd5b6126038361237a565b91506124416020840161237a565b602080825282518282018190526000919060409081850190868401855b8281101561258e5781518051855286015186850152928401929085019060010161262e565b634e487b7160e01b600052603260045260246000fd5b60006020828403121561267b57600080fd5b61221c826124bf565b6000808335601e1984360301811261269b57600080fd5b83018035915067ffffffffffffffff8211156126b657600080fd5b6020019150600581901b36038213156122ab57600080fd5b634e487b7160e01b600052601160045260246000fd5b8082028115828204841417610717576107176126ce565b60008261271857634e487b7160e01b600052601260045260246000fd5b500490565b80820180821115610717576107176126ce565b600060018201612742576127426126ce565b5060010190565b600181811c9082168061275d57607f821691505b60208210810361277d57634e487b7160e01b600052602260045260246000fd5b50919050565b81810381811115610717576107176126ce565b634e487b7160e01b600052603160045260246000fd5b6000602082840312156127be57600080fd5b5051919050565b63ffffffff8181168382160190808211156127e2576127e26126ce565b509291505056fea264697066735822122084b540d9c2c2b745fb0d303a86270deeb27ae7b2fd2dc99a035f43701d1592c264736f6c63430008140033",
  "linkReferences": {},
  "deployedLinkReferences": {}
}