{
  "_format": "hh-sol-artifact-1",
  "contractName": "StakingVault",
  "sourceName": "contracts/StakingVault.sol",
  "abi": [
    {
      "inputs": [
        {
          "internalType": "address",
          "name": "tokenAddress",
          "type": "address"
        }
      ],
      "stateMutability": "nonpayable",
      "type": "constructor"
    },
    {
      "inputs": [],
      "name": "AmountRequired",
      "type": "error"
    },
    {
      "inputs": [
        {
          "internalType": "address",
          "name": "from",
          "type": "address"
        },
        {
          "internalType": "uint256",
          "name": "available",
          "type": "uint256"
        },
        {
          "internalType": "uint256",
          "name": "required",
          "type": "uint256"
        }
      ],
      "name": "ERC20InsufficientBalance",
      "type": "error"
    },
    {
      "inputs": [],
      "name": "InsufficientBalance",
      "type": "error"
    },
    {
      "inputs": [],
      "name": "InvalidAddress",
      "type": "error"
    },
    {
      "inputs": [],
      "name": "InvalidTier",
      "type": "error"
    },
    {
      "inputs": [],
      "name": "LockupTimeMustBeGreaterThanZero",
      "type": "error"
    },
    {
      "inputs": [
        {
          "internalType": "address",
          "name": "owner",
          "type": "address"
        }
      ],
      "name": "OwnableInvalidOwner",
      "type": "error"
    },
    {
      "inputs": [
        {
          "internalType": "address",
          "name": "account",
          "type": "address"
        }
      ],
      "name": "OwnableUnauthorizedAccount",
      "type": "error"
    },
    {
      "inputs": [],
      "name": "TransferFailed",
      "type": "error"
    },
    {
      "anonymous": false,
      "inputs": [
        {
          "indexed": true,
          "internalType": "address",
          "name": "user",
          "type": "address"
        },
        {
          "indexed": false,
          "internalType": "uint256",
          "name": "amount",
          "type": "uint256"
        },
        {
          "indexed": true,
          "internalType": "uint64",
          "name": "timestamp",
          "type": "uint64"
        }
      ],
      "name": "AccountDeposit",
      "type": "event"
    },
    {
      "anonymous": false,
      "inputs": [
        {
          "indexed": true,
          "internalType": "address",
          "name": "user",
          "type": "address"
        },
        {
          "indexed": false,
          "internalType": "uint256",
          "name": "amount",
          "type": "uint256"
        },
        {
          "indexed": true,
          "internalType": "uint64",
          "name": "timestamp",
          "type": "uint64"
        }
      ],
      "name": "AccountWithdrawal",
      "type": "event"
    },
    {
      "anonymous": false,
      "inputs": [
        {
          "indexed": true,
          "internalType": "address",
          "name": "previousOwner",
          "type": "address"
        },
        {
          "indexed": true,
          "internalType": "address",
          "name": "newOwner",
          "type": "address"
        }
      ],
      "name": "OwnershipTransferStarted",
      "type": "event"
    },
    {
      "anonymous": false,
      "inputs": [
        {
          "indexed": true,
          "internalType": "address",
          "name": "previousOwner",
          "type": "address"
        },
        {
          "indexed": true,
          "internalType": "address",
          "name": "newOwner",
          "type": "address"
        }
      ],
      "name": "OwnershipTransferred",
      "type": "event"
    },
    {
      "inputs": [],
      "name": "TOKEN",
      "outputs": [
        {
          "internalType": "contract IERC20",
          "name": "",
          "type": "address"
        }
      ],
      "stateMutability": "view",
      "type": "function"
    },
    {
      "inputs": [],
      "name": "acceptOwnership",
      "outputs": [],
      "stateMutability": "nonpayable",
      "type": "function"
    },
    {
      "inputs": [
        {
          "internalType": "address",
          "name": "user",
          "type": "address"
        }
      ],
      "name": "claimableEarnings",
      "outputs": [
        {
          "internalType": "uint256",
          "name": "claimable",
          "type": "uint256"
        }
      ],
      "stateMutability": "view",
      "type": "function"
    },
    {
      "inputs": [
        {
          "internalType": "uint256",
          "name": "_amount",
          "type": "uint256"
        },
        {
          "internalType": "uint256",
          "name": "tier",
          "type": "uint256"
        }
      ],
      "name": "deposit",
      "outputs": [],
      "stateMutability": "nonpayable",
      "type": "function"
    },
    {
      "inputs": [
        {
          "internalType": "address",
          "name": "user",
          "type": "address"
        },
        {
          "internalType": "uint256",
          "name": "",
          "type": "uint256"
        }
      ],
      "name": "deposits",
      "outputs": [
        {
          "internalType": "uint256",
          "name": "amount",
          "type": "uint256"
        },
        {
          "internalType": "uint64",
          "name": "timestamp",
          "type": "uint64"
        },
        {
          "internalType": "uint64",
          "name": "unlockTime",
          "type": "uint64"
        },
        {
          "components": [
            {
              "internalType": "uint64",
              "name": "lockupTime",
              "type": "uint64"
            },
            {
              "internalType": "uint32",
              "name": "multiplier",
              "type": "uint32"
            },
            {
              "internalType": "uint8",
              "name": "multiplierDecimals",
              "type": "uint8"
            }
          ],
          "internalType": "struct StakingVault.Tier",
          "name": "tier",
          "type": "tuple"
        }
      ],
      "stateMutability": "view",
      "type": "function"
    },
    {
      "inputs": [
        {
          "internalType": "address",
          "name": "account",
          "type": "address"
        }
      ],
      "name": "getDeposits",
      "outputs": [
        {
          "components": [
            {
              "internalType": "uint256",
              "name": "amount",
              "type": "uint256"
            },
            {
              "internalType": "uint64",
              "name": "timestamp",
              "type": "uint64"
            },
            {
              "internalType": "uint64",
              "name": "unlockTime",
              "type": "uint64"
            },
            {
              "components": [
                {
                  "internalType": "uint64",
                  "name": "lockupTime",
                  "type": "uint64"
                },
                {
                  "internalType": "uint32",
                  "name": "multiplier",
                  "type": "uint32"
                },
                {
                  "internalType": "uint8",
                  "name": "multiplierDecimals",
                  "type": "uint8"
                }
              ],
              "internalType": "struct StakingVault.Tier",
              "name": "tier",
              "type": "tuple"
            }
          ],
          "internalType": "struct StakingVault.Deposit[]",
          "name": "",
          "type": "tuple[]"
        }
      ],
      "stateMutability": "view",
      "type": "function"
    },
    {
      "inputs": [],
      "name": "getTiers",
      "outputs": [
        {
          "components": [
            {
              "internalType": "uint64",
              "name": "lockupTime",
              "type": "uint64"
            },
            {
              "internalType": "uint32",
              "name": "multiplier",
              "type": "uint32"
            },
            {
              "internalType": "uint8",
              "name": "multiplierDecimals",
              "type": "uint8"
            }
          ],
          "internalType": "struct StakingVault.Tier[]",
          "name": "",
          "type": "tuple[]"
        }
      ],
      "stateMutability": "view",
      "type": "function"
    },
    {
      "inputs": [],
      "name": "getTotalShares",
      "outputs": [
        {
          "internalType": "uint256",
          "name": "_totalShares",
          "type": "uint256"
        }
      ],
      "stateMutability": "view",
      "type": "function"
    },
    {
      "inputs": [],
      "name": "owner",
      "outputs": [
        {
          "internalType": "address",
          "name": "",
          "type": "address"
        }
      ],
      "stateMutability": "view",
      "type": "function"
    },
    {
      "inputs": [],
      "name": "pendingOwner",
      "outputs": [
        {
          "internalType": "address",
          "name": "",
          "type": "address"
        }
      ],
      "stateMutability": "view",
      "type": "function"
    },
    {
      "inputs": [],
      "name": "renounceOwnership",
      "outputs": [],
      "stateMutability": "nonpayable",
      "type": "function"
    },
    {
      "inputs": [
        {
          "internalType": "uint256",
          "name": "_tierId",
          "type": "uint256"
        },
        {
          "internalType": "uint64",
          "name": "lockupTime",
          "type": "uint64"
        },
        {
          "internalType": "uint32",
          "name": "multiplier",
          "type": "uint32"
        },
        {
          "internalType": "uint8",
          "name": "multiplierDecimals",
          "type": "uint8"
        }
      ],
      "name": "setTier",
      "outputs": [],
      "stateMutability": "nonpayable",
      "type": "function"
    },
    {
      "inputs": [
        {
          "internalType": "address",
          "name": "account",
          "type": "address"
        }
      ],
      "name": "shares",
      "outputs": [
        {
          "internalType": "uint256",
          "name": "totalShares",
          "type": "uint256"
        }
      ],
      "stateMutability": "view",
      "type": "function"
    },
    {
      "inputs": [],
      "name": "sharesPerUser",
      "outputs": [
        {
          "internalType": "address[]",
          "name": "",
          "type": "address[]"
        },
        {
          "internalType": "uint256[]",
          "name": "",
          "type": "uint256[]"
        }
      ],
      "stateMutability": "view",
      "type": "function"
    },
    {
      "inputs": [
        {
          "internalType": "uint256",
          "name": "",
          "type": "uint256"
        }
      ],
      "name": "tiers",
      "outputs": [
        {
          "internalType": "uint64",
          "name": "lockupTime",
          "type": "uint64"
        },
        {
          "internalType": "uint32",
          "name": "multiplier",
          "type": "uint32"
        },
        {
          "internalType": "uint8",
          "name": "multiplierDecimals",
          "type": "uint8"
        }
      ],
      "stateMutability": "view",
      "type": "function"
    },
    {
      "inputs": [
        {
          "internalType": "uint256",
          "name": "",
          "type": "uint256"
        }
      ],
      "name": "totalUsers",
      "outputs": [
        {
          "internalType": "address",
          "name": "",
          "type": "address"
        }
      ],
      "stateMutability": "view",
      "type": "function"
    },
    {
      "inputs": [
        {
          "internalType": "address",
          "name": "newOwner",
          "type": "address"
        }
      ],
      "name": "transferOwnership",
      "outputs": [],
      "stateMutability": "nonpayable",
      "type": "function"
    },
    {
      "inputs": [
        {
          "internalType": "uint256",
          "name": "amount",
          "type": "uint256"
        },
        {
          "internalType": "address",
          "name": "to",
          "type": "address"
        }
      ],
      "name": "withdraw",
      "outputs": [],
      "stateMutability": "nonpayable",
      "type": "function"
    }
  ],
  "bytecode": "0x60a06040523480156200001157600080fd5b5060405162002ccd38038062002ccd833981810160405281019062000037919062000687565b33600073ffffffffffffffffffffffffffffffffffffffff168173ffffffffffffffffffffffffffffffffffffffff1603620000ad5760006040517f1e4fbdf7000000000000000000000000000000000000000000000000000000008152600401620000a49190620006ca565b60405180910390fd5b620000be816200052060201b60201c565b508073ffffffffffffffffffffffffffffffffffffffff1660808173ffffffffffffffffffffffffffffffffffffffff1681525050600360405180606001604052806276a70067ffffffffffffffff168152602001606463ffffffff168152602001600360ff168152509080600181540180825580915050600190039060005260206000200160009091909190915060008201518160000160006101000a81548167ffffffffffffffff021916908367ffffffffffffffff16021790555060208201518160000160086101000a81548163ffffffff021916908363ffffffff160217905550604082015181600001600c6101000a81548160ff021916908360ff16021790555050506003604051806060016040528062ed4e0067ffffffffffffffff1681526020016101f463ffffffff168152602001600360ff168152509080600181540180825580915050600190039060005260206000200160009091909190915060008201518160000160006101000a81548167ffffffffffffffff021916908367ffffffffffffffff16021790555060208201518160000160086101000a81548163ffffffff021916908363ffffffff160217905550604082015181600001600c6101000a81548160ff021916908360ff1602179055505050600360405180606001604052806301e1338067ffffffffffffffff16815260200161044c63ffffffff168152602001600360ff168152509080600181540180825580915050600190039060005260206000200160009091909190915060008201518160000160006101000a81548167ffffffffffffffff021916908367ffffffffffffffff16021790555060208201518160000160086101000a81548163ffffffff021916908363ffffffff160217905550604082015181600001600c6101000a81548160ff021916908360ff1602179055505050600360405180606001604052806303c2670067ffffffffffffffff1681526020016105dc63ffffffff168152602001600360ff168152509080600181540180825580915050600190039060005260206000200160009091909190915060008201518160000160006101000a81548167ffffffffffffffff021916908367ffffffffffffffff16021790555060208201518160000160086101000a81548163ffffffff021916908363ffffffff160217905550604082015181600001600c6101000a81548160ff021916908360ff160217905550505060036040518060600160405280630784ce0067ffffffffffffffff16815260200161083463ffffffff168152602001600360ff168152509080600181540180825580915050600190039060005260206000200160009091909190915060008201518160000160006101000a81548167ffffffffffffffff021916908367ffffffffffffffff16021790555060208201518160000160086101000a81548163ffffffff021916908363ffffffff160217905550604082015181600001600c6101000a81548160ff021916908360ff160217905550505050620006e7565b600160006101000a81549073ffffffffffffffffffffffffffffffffffffffff021916905562000556816200055960201b60201c565b50565b60008060009054906101000a900473ffffffffffffffffffffffffffffffffffffffff169050816000806101000a81548173ffffffffffffffffffffffffffffffffffffffff021916908373ffffffffffffffffffffffffffffffffffffffff1602179055508173ffffffffffffffffffffffffffffffffffffffff168173ffffffffffffffffffffffffffffffffffffffff167f8be0079c531659141344cd1fd0a4f28419497f9722a3daafe3b4186f6b6457e060405160405180910390a35050565b600080fd5b600073ffffffffffffffffffffffffffffffffffffffff82169050919050565b60006200064f8262000622565b9050919050565b620006618162000642565b81146200066d57600080fd5b50565b600081519050620006818162000656565b92915050565b600060208284031215620006a0576200069f6200061d565b5b6000620006b08482850162000670565b91505092915050565b620006c48162000642565b82525050565b6000602082019050620006e16000830184620006b9565b92915050565b6080516125bc620007116000396000818161055a015281816108ee015261141901526125bc6000f3fe608060405234801561001057600080fd5b50600436106101155760003560e01c8063b9c2c527116100a2578063de17057011610071578063de170570146102d4578063e2bbb158146102f2578063e30c39781461030e578063ebf4094c1461032c578063f2fde38b1461035c57610115565b8063b9c2c52714610234578063ce7c2ac214610253578063d5002f2e14610283578063d6d68177146102a157610115565b806379ba5097116100e957806379ba50971461018e57806382bfefc8146101985780638da5cb5b146101b657806394f649dd146101d4578063a4f67b8b1461020457610115565b8062f714ce1461011a578063039af9eb146101365780631eab87da14610168578063715018a614610184575b600080fd5b610134600480360381019061012f919061195c565b610378565b005b610150600480360381019061014b919061199c565b61068a565b60405161015f93929190611a27565b60405180910390f35b610182600480360381019061017d9190611ae2565b6106f1565b005b61018c610849565b005b61019661085d565b005b6101a06108ec565b6040516101ad9190611ba8565b60405180910390f35b6101be610910565b6040516101cb9190611bd2565b60405180910390f35b6101ee60048036038101906101e99190611bed565b610939565b6040516101fb9190611d9c565b60405180910390f35b61021e6004803603810190610219919061199c565b610ace565b60405161022b9190611bd2565b60405180910390f35b61023c610b0d565b60405161024a929190611f2b565b60405180910390f35b61026d60048036038101906102689190611bed565b610c98565b60405161027a9190611f71565b60405180910390f35b61028b610ead565b6040516102989190611f71565b60405180910390f35b6102bb60048036038101906102b69190611f8c565b610f27565b6040516102cb949392919061200e565b60405180910390f35b6102dc61101b565b6040516102e99190612102565b60405180910390f35b61030c60048036038101906103079190612124565b6110eb565b005b61031661154a565b6040516103239190611bd2565b60405180910390f35b61034660048036038101906103419190611bed565b611574565b6040516103539190611f71565b60405180910390f35b61037660048036038101906103719190611bed565b61158c565b005b600073ffffffffffffffffffffffffffffffffffffffff168173ffffffffffffffffffffffffffffffffffffffff16036103de576040517fe6c4247b00000000000000000000000000000000000000000000000000000000815260040160405180910390fd5b600082905060005b600260003373ffffffffffffffffffffffffffffffffffffffff1673ffffffffffffffffffffffffffffffffffffffff16815260200190815260200160002080549050811080156104375750600084115b1561051c576000600260003373ffffffffffffffffffffffffffffffffffffffff1673ffffffffffffffffffffffffffffffffffffffff168152602001908152602001600020828154811061048f5761048e612164565b5b906000526020600020906003020190508060010160089054906101000a900467ffffffffffffffff1667ffffffffffffffff16421061050857600081600001549050858111156104dd578590505b808260000160008282546104f191906121c2565b92505081905550808661050491906121c2565b9550505b508080610514906121f6565b9150506103e6565b506000831115610558576040517ff4d678b800000000000000000000000000000000000000000000000000000000815260040160405180910390fd5b7f000000000000000000000000000000000000000000000000000000000000000073ffffffffffffffffffffffffffffffffffffffff1663a9059cbb83836040518363ffffffff1660e01b81526004016105b392919061223e565b6020604051808303816000875af11580156105d2573d6000803e3d6000fd5b505050506040513d601f19601f820116820180604052508101906105f6919061229f565b61062c576040517f90b8ec1800000000000000000000000000000000000000000000000000000000815260040160405180910390fd5b4267ffffffffffffffff163373ffffffffffffffffffffffffffffffffffffffff167f11d1f80d37d40c07c8712918abf1db7649f559dbbc04e7d0779edf78ab8119d58360405161067d9190611f71565b60405180910390a3505050565b6003818154811061069a57600080fd5b906000526020600020016000915090508060000160009054906101000a900467ffffffffffffffff16908060000160089054906101000a900463ffffffff169080600001600c9054906101000a900460ff16905083565b6106f9611639565b60008263ffffffff1603610739576040517fe142361700000000000000000000000000000000000000000000000000000000815260040160405180910390fd5b60008367ffffffffffffffff160361077d576040517f63deae2700000000000000000000000000000000000000000000000000000000815260040160405180910390fd5b60405180606001604052808467ffffffffffffffff1681526020018363ffffffff1681526020018260ff16815250600385815481106107bf576107be612164565b5b9060005260206000200160008201518160000160006101000a81548167ffffffffffffffff021916908367ffffffffffffffff16021790555060208201518160000160086101000a81548163ffffffff021916908363ffffffff160217905550604082015181600001600c6101000a81548160ff021916908360ff16021790555090505050505050565b610851611639565b61085b60006116c0565b565b60006108676116f1565b90508073ffffffffffffffffffffffffffffffffffffffff1661088861154a565b73ffffffffffffffffffffffffffffffffffffffff16146108e057806040517f118cdaa70000000000000000000000000000000000000000000000000000000081526004016108d79190611bd2565b60405180910390fd5b6108e9816116c0565b50565b7f000000000000000000000000000000000000000000000000000000000000000081565b60008060009054906101000a900473ffffffffffffffffffffffffffffffffffffffff16905090565b6060600260008373ffffffffffffffffffffffffffffffffffffffff1673ffffffffffffffffffffffffffffffffffffffff168152602001908152602001600020805480602002602001604051908101604052809291908181526020016000905b82821015610ac35783829060005260206000209060030201604051806080016040529081600082015481526020016001820160009054906101000a900467ffffffffffffffff1667ffffffffffffffff1667ffffffffffffffff1681526020016001820160089054906101000a900467ffffffffffffffff1667ffffffffffffffff1667ffffffffffffffff168152602001600282016040518060600160405290816000820160009054906101000a900467ffffffffffffffff1667ffffffffffffffff1667ffffffffffffffff1681526020016000820160089054906101000a900463ffffffff1663ffffffff1663ffffffff16815260200160008201600c9054906101000a900460ff1660ff1660ff1681525050815250508152602001906001019061099a565b505050509050919050565b60058181548110610ade57600080fd5b906000526020600020016000915054906101000a900473ffffffffffffffffffffffffffffffffffffffff1681565b606080600060058054905067ffffffffffffffff811115610b3157610b306122cc565b5b604051908082528060200260200182016040528015610b5f5781602001602082028036833780820191505090505b509050600060058054905067ffffffffffffffff811115610b8357610b826122cc565b5b604051908082528060200260200182016040528015610bb15781602001602082028036833780820191505090505b50905060005b600580549050811015610c8b57600060058281548110610bda57610bd9612164565b5b9060005260206000200160009054906101000a900473ffffffffffffffffffffffffffffffffffffffff16905080848381518110610c1b57610c1a612164565b5b602002602001019073ffffffffffffffffffffffffffffffffffffffff16908173ffffffffffffffffffffffffffffffffffffffff1681525050610c5e81610c98565b838381518110610c7157610c70612164565b5b602002602001018181525050508080600101915050610bb7565b5081819350935050509091565b600080600090505b600260008473ffffffffffffffffffffffffffffffffffffffff1673ffffffffffffffffffffffffffffffffffffffff16815260200190815260200160002080549050811015610ea7576000600260008573ffffffffffffffffffffffffffffffffffffffff1673ffffffffffffffffffffffffffffffffffffffff1681526020019081526020016000208281548110610d3d57610d3c612164565b5b9060005260206000209060030201604051806080016040529081600082015481526020016001820160009054906101000a900467ffffffffffffffff1667ffffffffffffffff1667ffffffffffffffff1681526020016001820160089054906101000a900467ffffffffffffffff1667ffffffffffffffff1667ffffffffffffffff168152602001600282016040518060600160405290816000820160009054906101000a900467ffffffffffffffff1667ffffffffffffffff1667ffffffffffffffff1681526020016000820160089054906101000a900463ffffffff1663ffffffff1663ffffffff16815260200160008201600c9054906101000a900460ff1660ff1660ff1681525050815250509050806060015160400151600a610e64919061242e565b81606001516020015163ffffffff168260000151610e829190612479565b610e8c91906124ea565b83610e97919061251b565b9250508080600101915050610ca0565b50919050565b600080600090505b600580549050811015610f2357610f0960058281548110610ed957610ed8612164565b5b9060005260206000200160009054906101000a900473ffffffffffffffffffffffffffffffffffffffff16610c98565b82610f14919061251b565b91508080600101915050610eb5565b5090565b60026020528160005260406000208181548110610f4357600080fd5b9060005260206000209060030201600091509150508060000154908060010160009054906101000a900467ffffffffffffffff16908060010160089054906101000a900467ffffffffffffffff1690806002016040518060600160405290816000820160009054906101000a900467ffffffffffffffff1667ffffffffffffffff1667ffffffffffffffff1681526020016000820160089054906101000a900463ffffffff1663ffffffff1663ffffffff16815260200160008201600c9054906101000a900460ff1660ff1660ff1681525050905084565b60606003805480602002602001604051908101604052809291908181526020016000905b828210156110e2578382906000526020600020016040518060600160405290816000820160009054906101000a900467ffffffffffffffff1667ffffffffffffffff1667ffffffffffffffff1681526020016000820160089054906101000a900463ffffffff1663ffffffff1663ffffffff16815260200160008201600c9054906101000a900460ff1660ff1660ff16815250508152602001906001019061103f565b50505050905090565b60006003828154811061110157611100612164565b5b9060005260206000200160000160009054906101000a900467ffffffffffffffff1667ffffffffffffffff1603611164576040517fe142361700000000000000000000000000000000000000000000000000000000815260040160405180910390fd5b6000820361119e576040517fd43e607500000000000000000000000000000000000000000000000000000000815260040160405180910390fd5b600260003373ffffffffffffffffffffffffffffffffffffffff1673ffffffffffffffffffffffffffffffffffffffff16815260200190815260200160002060405180608001604052808481526020014267ffffffffffffffff1681526020016003848154811061121257611211612164565b5b9060005260206000200160000160009054906101000a900467ffffffffffffffff1667ffffffffffffffff1642611249919061251b565b67ffffffffffffffff1681526020016003848154811061126c5761126b612164565b5b906000526020600020016040518060600160405290816000820160009054906101000a900467ffffffffffffffff1667ffffffffffffffff1667ffffffffffffffff1681526020016000820160089054906101000a900463ffffffff1663ffffffff1663ffffffff16815260200160008201600c9054906101000a900460ff1660ff1660ff168152505081525090806001815401808255809150506001900390600052602060002090600302016000909190919091506000820151816000015560208201518160010160006101000a81548167ffffffffffffffff021916908367ffffffffffffffff16021790555060408201518160010160086101000a81548167ffffffffffffffff021916908367ffffffffffffffff16021790555060608201518160020160008201518160000160006101000a81548167ffffffffffffffff021916908367ffffffffffffffff16021790555060208201518160000160086101000a81548163ffffffff021916908363ffffffff160217905550604082015181600001600c6101000a81548160ff021916908360ff16021790555050505050611417336116f9565b7f000000000000000000000000000000000000000000000000000000000000000073ffffffffffffffffffffffffffffffffffffffff166323b872dd3330856040518463ffffffff1660e01b81526004016114749392919061254f565b6020604051808303816000875af1158015611493573d6000803e3d6000fd5b505050506040513d601f19601f820116820180604052508101906114b7919061229f565b6114ed576040517f90b8ec1800000000000000000000000000000000000000000000000000000000815260040160405180910390fd5b4267ffffffffffffffff163373ffffffffffffffffffffffffffffffffffffffff167fe0e336280e86d3798156762fe123d18d7065419f482b8a0a1a5286d828e469d38460405161153e9190611f71565b60405180910390a35050565b6000600160009054906101000a900473ffffffffffffffffffffffffffffffffffffffff16905090565b60046020528060005260406000206000915090505481565b611594611639565b80600160006101000a81548173ffffffffffffffffffffffffffffffffffffffff021916908373ffffffffffffffffffffffffffffffffffffffff1602179055508073ffffffffffffffffffffffffffffffffffffffff166115f4610910565b73ffffffffffffffffffffffffffffffffffffffff167f38d16b8cac22d99fc7c124b9cd0de2d3fa1faef420bfe791d8c362d765e2270060405160405180910390a350565b6116416116f1565b73ffffffffffffffffffffffffffffffffffffffff1661165f610910565b73ffffffffffffffffffffffffffffffffffffffff16146116be576116826116f1565b6040517f118cdaa70000000000000000000000000000000000000000000000000000000081526004016116b59190611bd2565b60405180910390fd5b565b600160006101000a81549073ffffffffffffffffffffffffffffffffffffffff02191690556116ee816117ff565b50565b600033905090565b6000805b600580549050811015611791578273ffffffffffffffffffffffffffffffffffffffff166005828154811061173557611734612164565b5b9060005260206000200160009054906101000a900473ffffffffffffffffffffffffffffffffffffffff1673ffffffffffffffffffffffffffffffffffffffff16036117845760019150611791565b80806001019150506116fd565b50806117fb576005829080600181540180825580915050600190039060005260206000200160009091909190916101000a81548173ffffffffffffffffffffffffffffffffffffffff021916908373ffffffffffffffffffffffffffffffffffffffff1602179055505b5050565b60008060009054906101000a900473ffffffffffffffffffffffffffffffffffffffff169050816000806101000a81548173ffffffffffffffffffffffffffffffffffffffff021916908373ffffffffffffffffffffffffffffffffffffffff1602179055508173ffffffffffffffffffffffffffffffffffffffff168173ffffffffffffffffffffffffffffffffffffffff167f8be0079c531659141344cd1fd0a4f28419497f9722a3daafe3b4186f6b6457e060405160405180910390a35050565b600080fd5b6000819050919050565b6118db816118c8565b81146118e657600080fd5b50565b6000813590506118f8816118d2565b92915050565b600073ffffffffffffffffffffffffffffffffffffffff82169050919050565b6000611929826118fe565b9050919050565b6119398161191e565b811461194457600080fd5b50565b60008135905061195681611930565b92915050565b60008060408385031215611973576119726118c3565b5b6000611981858286016118e9565b925050602061199285828601611947565b9150509250929050565b6000602082840312156119b2576119b16118c3565b5b60006119c0848285016118e9565b91505092915050565b600067ffffffffffffffff82169050919050565b6119e6816119c9565b82525050565b600063ffffffff82169050919050565b611a05816119ec565b82525050565b600060ff82169050919050565b611a2181611a0b565b82525050565b6000606082019050611a3c60008301866119dd565b611a4960208301856119fc565b611a566040830184611a18565b949350505050565b611a67816119c9565b8114611a7257600080fd5b50565b600081359050611a8481611a5e565b92915050565b611a93816119ec565b8114611a9e57600080fd5b50565b600081359050611ab081611a8a565b92915050565b611abf81611a0b565b8114611aca57600080fd5b50565b600081359050611adc81611ab6565b92915050565b60008060008060808587031215611afc57611afb6118c3565b5b6000611b0a878288016118e9565b9450506020611b1b87828801611a75565b9350506040611b2c87828801611aa1565b9250506060611b3d87828801611acd565b91505092959194509250565b6000819050919050565b6000611b6e611b69611b64846118fe565b611b49565b6118fe565b9050919050565b6000611b8082611b53565b9050919050565b6000611b9282611b75565b9050919050565b611ba281611b87565b82525050565b6000602082019050611bbd6000830184611b99565b92915050565b611bcc8161191e565b82525050565b6000602082019050611be76000830184611bc3565b92915050565b600060208284031215611c0357611c026118c3565b5b6000611c1184828501611947565b91505092915050565b600081519050919050565b600082825260208201905092915050565b6000819050602082019050919050565b611c4f816118c8565b82525050565b611c5e816119c9565b82525050565b611c6d816119ec565b82525050565b611c7c81611a0b565b82525050565b606082016000820151611c986000850182611c55565b506020820151611cab6020850182611c64565b506040820151611cbe6040850182611c73565b50505050565b60c082016000820151611cda6000850182611c46565b506020820151611ced6020850182611c55565b506040820151611d006040850182611c55565b506060820151611d136060850182611c82565b50505050565b6000611d258383611cc4565b60c08301905092915050565b6000602082019050919050565b6000611d4982611c1a565b611d538185611c25565b9350611d5e83611c36565b8060005b83811015611d8f578151611d768882611d19565b9750611d8183611d31565b925050600181019050611d62565b5085935050505092915050565b60006020820190508181036000830152611db68184611d3e565b905092915050565b600081519050919050565b600082825260208201905092915050565b6000819050602082019050919050565b611df38161191e565b82525050565b6000611e058383611dea565b60208301905092915050565b6000602082019050919050565b6000611e2982611dbe565b611e338185611dc9565b9350611e3e83611dda565b8060005b83811015611e6f578151611e568882611df9565b9750611e6183611e11565b925050600181019050611e42565b5085935050505092915050565b600081519050919050565b600082825260208201905092915050565b6000819050602082019050919050565b6000611eb48383611c46565b60208301905092915050565b6000602082019050919050565b6000611ed882611e7c565b611ee28185611e87565b9350611eed83611e98565b8060005b83811015611f1e578151611f058882611ea8565b9750611f1083611ec0565b925050600181019050611ef1565b5085935050505092915050565b60006040820190508181036000830152611f458185611e1e565b90508181036020830152611f598184611ecd565b90509392505050565b611f6b816118c8565b82525050565b6000602082019050611f866000830184611f62565b92915050565b60008060408385031215611fa357611fa26118c3565b5b6000611fb185828601611947565b9250506020611fc2858286016118e9565b9150509250929050565b606082016000820151611fe26000850182611c55565b506020820151611ff56020850182611c64565b5060408201516120086040850182611c73565b50505050565b600060c0820190506120236000830187611f62565b61203060208301866119dd565b61203d60408301856119dd565b61204a6060830184611fcc565b95945050505050565b600081519050919050565b600082825260208201905092915050565b6000819050602082019050919050565b600061208b8383611c82565b60608301905092915050565b6000602082019050919050565b60006120af82612053565b6120b9818561205e565b93506120c48361206f565b8060005b838110156120f55781516120dc888261207f565b97506120e783612097565b9250506001810190506120c8565b5085935050505092915050565b6000602082019050818103600083015261211c81846120a4565b905092915050565b6000806040838503121561213b5761213a6118c3565b5b6000612149858286016118e9565b925050602061215a858286016118e9565b9150509250929050565b7f4e487b7100000000000000000000000000000000000000000000000000000000600052603260045260246000fd5b7f4e487b7100000000000000000000000000000000000000000000000000000000600052601160045260246000fd5b60006121cd826118c8565b91506121d8836118c8565b92508282039050818111156121f0576121ef612193565b5b92915050565b6000612201826118c8565b91507fffffffffffffffffffffffffffffffffffffffffffffffffffffffffffffffff820361223357612232612193565b5b600182019050919050565b60006040820190506122536000830185611bc3565b6122606020830184611f62565b9392505050565b60008115159050919050565b61227c81612267565b811461228757600080fd5b50565b60008151905061229981612273565b92915050565b6000602082840312156122b5576122b46118c3565b5b60006122c38482850161228a565b91505092915050565b7f4e487b7100000000000000000000000000000000000000000000000000000000600052604160045260246000fd5b60008160011c9050919050565b6000808291508390505b60018511156123525780860481111561232e5761232d612193565b5b600185161561233d5780820291505b808102905061234b856122fb565b9450612312565b94509492505050565b60008261236b5760019050612427565b816123795760009050612427565b816001811461238f5760028114612399576123c8565b6001915050612427565b60ff8411156123ab576123aa612193565b5b8360020a9150848211156123c2576123c1612193565b5b50612427565b5060208310610133831016604e8410600b84101617156123fd5782820a9050838111156123f8576123f7612193565b5b612427565b61240a8484846001612308565b9250905081840481111561242157612420612193565b5b81810290505b9392505050565b6000612439826118c8565b915061244483611a0b565b92506124717fffffffffffffffffffffffffffffffffffffffffffffffffffffffffffffffff848461235b565b905092915050565b6000612484826118c8565b915061248f836118c8565b925082820261249d816118c8565b915082820484148315176124b4576124b3612193565b5b5092915050565b7f4e487b7100000000000000000000000000000000000000000000000000000000600052601260045260246000fd5b60006124f5826118c8565b9150612500836118c8565b9250826125105761250f6124bb565b5b828204905092915050565b6000612526826118c8565b9150612531836118c8565b925082820190508082111561254957612548612193565b5b92915050565b60006060820190506125646000830186611bc3565b6125716020830185611bc3565b61257e6040830184611f62565b94935050505056fea2646970667358221220b4b747fcf868d50340ad1a706627b4868a594b55c074a2ff2f35db17bc0bfe9664736f6c63430008180033",
  "linkReferences": {},
  "deployedLinkReferences": {}
}