{
  "_format": "hh-sol-artifact-1",
  "contractName": "StakingVault",
  "sourceName": "contracts/StakingVault.sol",
  "abi": [
    {
      "inputs": [
        {
          "internalType": "address",
          "name": "tokenAddress",
          "type": "address"
        }
      ],
      "stateMutability": "nonpayable",
      "type": "constructor"
    },
    {
      "inputs": [],
      "name": "AmountRequired",
      "type": "error"
    },
    {
      "inputs": [
        {
          "internalType": "address",
          "name": "from",
          "type": "address"
        },
        {
          "internalType": "uint256",
          "name": "available",
          "type": "uint256"
        },
        {
          "internalType": "uint256",
          "name": "required",
          "type": "uint256"
        }
      ],
      "name": "ERC20InsufficientBalance",
      "type": "error"
    },
    {
      "inputs": [],
      "name": "InsufficientBalance",
      "type": "error"
    },
    {
      "inputs": [],
      "name": "InvalidAddress",
      "type": "error"
    },
    {
      "inputs": [],
      "name": "InvalidTier",
      "type": "error"
    },
    {
      "inputs": [],
      "name": "LockupTimeMustBeGreaterThanZero",
      "type": "error"
    },
    {
      "inputs": [
        {
          "internalType": "address",
          "name": "owner",
          "type": "address"
        }
      ],
      "name": "OwnableInvalidOwner",
      "type": "error"
    },
    {
      "inputs": [
        {
          "internalType": "address",
          "name": "account",
          "type": "address"
        }
      ],
      "name": "OwnableUnauthorizedAccount",
      "type": "error"
    },
    {
      "inputs": [],
      "name": "TransferFailed",
      "type": "error"
    },
    {
      "anonymous": false,
      "inputs": [
        {
          "indexed": true,
          "internalType": "address",
          "name": "previousOwner",
          "type": "address"
        },
        {
          "indexed": true,
          "internalType": "address",
          "name": "newOwner",
          "type": "address"
        }
      ],
      "name": "OwnershipTransferStarted",
      "type": "event"
    },
    {
      "anonymous": false,
      "inputs": [
        {
          "indexed": true,
          "internalType": "address",
          "name": "previousOwner",
          "type": "address"
        },
        {
          "indexed": true,
          "internalType": "address",
          "name": "newOwner",
          "type": "address"
        }
      ],
      "name": "OwnershipTransferred",
      "type": "event"
    },
    {
      "inputs": [],
      "name": "acceptOwnership",
      "outputs": [],
      "stateMutability": "nonpayable",
      "type": "function"
    },
    {
      "inputs": [
        {
          "internalType": "address",
          "name": "user",
          "type": "address"
        }
      ],
      "name": "claimableEarnings",
      "outputs": [
        {
          "internalType": "uint256",
          "name": "claimable",
          "type": "uint256"
        }
      ],
      "stateMutability": "view",
      "type": "function"
    },
    {
      "inputs": [
        {
          "internalType": "uint256",
          "name": "_amount",
          "type": "uint256"
        },
        {
          "internalType": "uint256",
          "name": "tier",
          "type": "uint256"
        }
      ],
      "name": "deposit",
      "outputs": [],
      "stateMutability": "nonpayable",
      "type": "function"
    },
    {
      "inputs": [
        {
          "internalType": "address",
          "name": "user",
          "type": "address"
        },
        {
          "internalType": "uint256",
          "name": "",
          "type": "uint256"
        }
      ],
      "name": "deposits",
      "outputs": [
        {
          "internalType": "uint256",
          "name": "amount",
          "type": "uint256"
        },
        {
          "internalType": "uint64",
          "name": "timestamp",
          "type": "uint64"
        },
        {
          "internalType": "uint64",
          "name": "unlockTime",
          "type": "uint64"
        },
        {
          "components": [
            {
              "internalType": "uint64",
              "name": "lockupTime",
              "type": "uint64"
            },
            {
              "internalType": "uint32",
              "name": "multiplier",
              "type": "uint32"
            },
            {
              "internalType": "uint8",
              "name": "multiplierDecimals",
              "type": "uint8"
            }
          ],
          "internalType": "struct StakingVault.Tier",
          "name": "tier",
          "type": "tuple"
        }
      ],
      "stateMutability": "view",
      "type": "function"
    },
    {
      "inputs": [
        {
          "internalType": "address",
          "name": "account",
          "type": "address"
        }
      ],
      "name": "getDeposits",
      "outputs": [
        {
          "components": [
            {
              "internalType": "uint256",
              "name": "amount",
              "type": "uint256"
            },
            {
              "internalType": "uint64",
              "name": "timestamp",
              "type": "uint64"
            },
            {
              "internalType": "uint64",
              "name": "unlockTime",
              "type": "uint64"
            },
            {
              "components": [
                {
                  "internalType": "uint64",
                  "name": "lockupTime",
                  "type": "uint64"
                },
                {
                  "internalType": "uint32",
                  "name": "multiplier",
                  "type": "uint32"
                },
                {
                  "internalType": "uint8",
                  "name": "multiplierDecimals",
                  "type": "uint8"
                }
              ],
              "internalType": "struct StakingVault.Tier",
              "name": "tier",
              "type": "tuple"
            }
          ],
          "internalType": "struct StakingVault.Deposit[]",
          "name": "",
          "type": "tuple[]"
        }
      ],
      "stateMutability": "view",
      "type": "function"
    },
    {
      "inputs": [],
      "name": "getTiers",
      "outputs": [
        {
          "components": [
            {
              "internalType": "uint64",
              "name": "lockupTime",
              "type": "uint64"
            },
            {
              "internalType": "uint32",
              "name": "multiplier",
              "type": "uint32"
            },
            {
              "internalType": "uint8",
              "name": "multiplierDecimals",
              "type": "uint8"
            }
          ],
          "internalType": "struct StakingVault.Tier[]",
          "name": "",
          "type": "tuple[]"
        }
      ],
      "stateMutability": "view",
      "type": "function"
    },
    {
      "inputs": [],
      "name": "getTotalShares",
      "outputs": [
        {
          "internalType": "uint256",
          "name": "_totalShares",
          "type": "uint256"
        }
      ],
      "stateMutability": "view",
      "type": "function"
    },
    {
      "inputs": [],
      "name": "owner",
      "outputs": [
        {
          "internalType": "address",
          "name": "",
          "type": "address"
        }
      ],
      "stateMutability": "view",
      "type": "function"
    },
    {
      "inputs": [],
      "name": "pendingOwner",
      "outputs": [
        {
          "internalType": "address",
          "name": "",
          "type": "address"
        }
      ],
      "stateMutability": "view",
      "type": "function"
    },
    {
      "inputs": [],
      "name": "renounceOwnership",
      "outputs": [],
      "stateMutability": "nonpayable",
      "type": "function"
    },
    {
      "inputs": [
        {
          "internalType": "uint256",
          "name": "_tierId",
          "type": "uint256"
        },
        {
          "internalType": "uint64",
          "name": "lockupTime",
          "type": "uint64"
        },
        {
          "internalType": "uint32",
          "name": "multiplier",
          "type": "uint32"
        },
        {
          "internalType": "uint8",
          "name": "multiplierDecimals",
          "type": "uint8"
        }
      ],
      "name": "setTier",
      "outputs": [],
      "stateMutability": "nonpayable",
      "type": "function"
    },
    {
      "inputs": [
        {
          "internalType": "address",
          "name": "account",
          "type": "address"
        }
      ],
      "name": "shares",
      "outputs": [
        {
          "internalType": "uint256",
          "name": "totalShares",
          "type": "uint256"
        }
      ],
      "stateMutability": "view",
      "type": "function"
    },
    {
      "inputs": [],
      "name": "sharesPerUser",
      "outputs": [
        {
          "internalType": "address[]",
          "name": "",
          "type": "address[]"
        },
        {
          "internalType": "uint256[]",
          "name": "",
          "type": "uint256[]"
        }
      ],
      "stateMutability": "view",
      "type": "function"
    },
    {
      "inputs": [
        {
          "internalType": "uint256",
          "name": "",
          "type": "uint256"
        }
      ],
      "name": "tiers",
      "outputs": [
        {
          "internalType": "uint64",
          "name": "lockupTime",
          "type": "uint64"
        },
        {
          "internalType": "uint32",
          "name": "multiplier",
          "type": "uint32"
        },
        {
          "internalType": "uint8",
          "name": "multiplierDecimals",
          "type": "uint8"
        }
      ],
      "stateMutability": "view",
      "type": "function"
    },
    {
      "inputs": [],
      "name": "token",
      "outputs": [
        {
          "internalType": "contract IERC20",
          "name": "",
          "type": "address"
        }
      ],
      "stateMutability": "view",
      "type": "function"
    },
    {
      "inputs": [
        {
          "internalType": "uint256",
          "name": "",
          "type": "uint256"
        }
      ],
      "name": "totalUsers",
      "outputs": [
        {
          "internalType": "address",
          "name": "",
          "type": "address"
        }
      ],
      "stateMutability": "view",
      "type": "function"
    },
    {
      "inputs": [
        {
          "internalType": "address",
          "name": "newOwner",
          "type": "address"
        }
      ],
      "name": "transferOwnership",
      "outputs": [],
      "stateMutability": "nonpayable",
      "type": "function"
    },
    {
      "inputs": [
        {
          "internalType": "uint256",
          "name": "amount",
          "type": "uint256"
        },
        {
          "internalType": "address",
          "name": "to",
          "type": "address"
        }
      ],
      "name": "withdraw",
      "outputs": [],
      "stateMutability": "nonpayable",
      "type": "function"
    }
  ],
  "bytecode": "0x60806040523480156200001157600080fd5b5060405162002c1438038062002c14833981810160405281019062000037919062000694565b33600073ffffffffffffffffffffffffffffffffffffffff168173ffffffffffffffffffffffffffffffffffffffff1603620000ad5760006040517f1e4fbdf7000000000000000000000000000000000000000000000000000000008152600401620000a49190620006d7565b60405180910390fd5b620000be816200052d60201b60201c565b5080600260006101000a81548173ffffffffffffffffffffffffffffffffffffffff021916908373ffffffffffffffffffffffffffffffffffffffff1602179055506004604051806060016040528062278d0067ffffffffffffffff168152602001606463ffffffff168152602001600360ff168152509080600181540180825580915050600190039060005260206000200160009091909190915060008201518160000160006101000a81548167ffffffffffffffff021916908367ffffffffffffffff16021790555060208201518160000160086101000a81548163ffffffff021916908363ffffffff160217905550604082015181600001600c6101000a81548160ff021916908360ff160217905550505060046040518060600160405280624f1a0067ffffffffffffffff1681526020016101f463ffffffff168152602001600360ff168152509080600181540180825580915050600190039060005260206000200160009091909190915060008201518160000160006101000a81548167ffffffffffffffff021916908367ffffffffffffffff16021790555060208201518160000160086101000a81548163ffffffff021916908363ffffffff160217905550604082015181600001600c6101000a81548160ff021916908360ff1602179055505050600460405180606001604052806301e1338067ffffffffffffffff16815260200161044c63ffffffff168152602001600360ff168152509080600181540180825580915050600190039060005260206000200160009091909190915060008201518160000160006101000a81548167ffffffffffffffff021916908367ffffffffffffffff16021790555060208201518160000160086101000a81548163ffffffff021916908363ffffffff160217905550604082015181600001600c6101000a81548160ff021916908360ff1602179055505050600460405180606001604052806303c2670067ffffffffffffffff1681526020016105dc63ffffffff168152602001600360ff168152509080600181540180825580915050600190039060005260206000200160009091909190915060008201518160000160006101000a81548167ffffffffffffffff021916908367ffffffffffffffff16021790555060208201518160000160086101000a81548163ffffffff021916908363ffffffff160217905550604082015181600001600c6101000a81548160ff021916908360ff160217905550505060046040518060600160405280630784ce0067ffffffffffffffff16815260200161083463ffffffff168152602001600360ff168152509080600181540180825580915050600190039060005260206000200160009091909190915060008201518160000160006101000a81548167ffffffffffffffff021916908367ffffffffffffffff16021790555060208201518160000160086101000a81548163ffffffff021916908363ffffffff160217905550604082015181600001600c6101000a81548160ff021916908360ff160217905550505050620006f4565b600160006101000a81549073ffffffffffffffffffffffffffffffffffffffff021916905562000563816200056660201b60201c565b50565b60008060009054906101000a900473ffffffffffffffffffffffffffffffffffffffff169050816000806101000a81548173ffffffffffffffffffffffffffffffffffffffff021916908373ffffffffffffffffffffffffffffffffffffffff1602179055508173ffffffffffffffffffffffffffffffffffffffff168173ffffffffffffffffffffffffffffffffffffffff167f8be0079c531659141344cd1fd0a4f28419497f9722a3daafe3b4186f6b6457e060405160405180910390a35050565b600080fd5b600073ffffffffffffffffffffffffffffffffffffffff82169050919050565b60006200065c826200062f565b9050919050565b6200066e816200064f565b81146200067a57600080fd5b50565b6000815190506200068e8162000663565b92915050565b600060208284031215620006ad57620006ac6200062a565b5b6000620006bd848285016200067d565b91505092915050565b620006d1816200064f565b82525050565b6000602082019050620006ee6000830184620006c6565b92915050565b61251080620007046000396000f3fe608060405234801561001057600080fd5b50600436106101155760003560e01c8063ce7c2ac2116100a2578063e2bbb15811610071578063e2bbb158146102d4578063e30c3978146102f0578063ebf4094c1461030e578063f2fde38b1461033e578063fc0c546a1461035a57610115565b8063ce7c2ac214610235578063d5002f2e14610265578063d6d6817714610283578063de170570146102b657610115565b806379ba5097116100e957806379ba50971461018e5780638da5cb5b1461019857806394f649dd146101b6578063a4f67b8b146101e6578063b9c2c5271461021657610115565b8062f714ce1461011a578063039af9eb146101365780631eab87da14610168578063715018a614610184575b600080fd5b610134600480360381019061012f91906118b0565b610378565b005b610150600480360381019061014b91906118f0565b610633565b60405161015f9392919061197b565b60405180910390f35b610182600480360381019061017d9190611a36565b61069a565b005b61018c6107f2565b005b610196610806565b005b6101a0610895565b6040516101ad9190611aac565b60405180910390f35b6101d060048036038101906101cb9190611ac7565b6108be565b6040516101dd9190611c76565b60405180910390f35b61020060048036038101906101fb91906118f0565b610a53565b60405161020d9190611aac565b60405180910390f35b61021e610a92565b60405161022c929190611e05565b60405180910390f35b61024f600480360381019061024a9190611ac7565b610c1d565b60405161025c9190611e4b565b60405180910390f35b61026d610e32565b60405161027a9190611e4b565b60405180910390f35b61029d60048036038101906102989190611e66565b610eac565b6040516102ad9493929190611ee8565b60405180910390f35b6102be610fa0565b6040516102cb9190611fdc565b60405180910390f35b6102ee60048036038101906102e99190611ffe565b611070565b005b6102f8611478565b6040516103059190611aac565b60405180910390f35b61032860048036038101906103239190611ac7565b6114a2565b6040516103359190611e4b565b60405180910390f35b61035860048036038101906103539190611ac7565b6114ba565b005b610362611567565b60405161036f919061209d565b60405180910390f35b600073ffffffffffffffffffffffffffffffffffffffff168173ffffffffffffffffffffffffffffffffffffffff16036103de576040517fe6c4247b00000000000000000000000000000000000000000000000000000000815260040160405180910390fd5b600082905060005b600360003373ffffffffffffffffffffffffffffffffffffffff1673ffffffffffffffffffffffffffffffffffffffff16815260200190815260200160002080549050811080156104375750600084115b1561051c576000600360003373ffffffffffffffffffffffffffffffffffffffff1673ffffffffffffffffffffffffffffffffffffffff168152602001908152602001600020828154811061048f5761048e6120b8565b5b906000526020600020906003020190508060010160089054906101000a900467ffffffffffffffff1667ffffffffffffffff16421061050857600081600001549050858111156104dd578590505b808260000160008282546104f19190612116565b9250508190555080866105049190612116565b9550505b5080806105149061214a565b9150506103e6565b506000831115610558576040517ff4d678b800000000000000000000000000000000000000000000000000000000815260040160405180910390fd5b600260009054906101000a900473ffffffffffffffffffffffffffffffffffffffff1673ffffffffffffffffffffffffffffffffffffffff1663a9059cbb83836040518363ffffffff1660e01b81526004016105b5929190612192565b6020604051808303816000875af11580156105d4573d6000803e3d6000fd5b505050506040513d601f19601f820116820180604052508101906105f891906121f3565b61062e576040517f90b8ec1800000000000000000000000000000000000000000000000000000000815260040160405180910390fd5b505050565b6004818154811061064357600080fd5b906000526020600020016000915090508060000160009054906101000a900467ffffffffffffffff16908060000160089054906101000a900463ffffffff169080600001600c9054906101000a900460ff16905083565b6106a261158d565b60008263ffffffff16036106e2576040517fe142361700000000000000000000000000000000000000000000000000000000815260040160405180910390fd5b60008367ffffffffffffffff1603610726576040517f63deae2700000000000000000000000000000000000000000000000000000000815260040160405180910390fd5b60405180606001604052808467ffffffffffffffff1681526020018363ffffffff1681526020018260ff1681525060048581548110610768576107676120b8565b5b9060005260206000200160008201518160000160006101000a81548167ffffffffffffffff021916908367ffffffffffffffff16021790555060208201518160000160086101000a81548163ffffffff021916908363ffffffff160217905550604082015181600001600c6101000a81548160ff021916908360ff16021790555090505050505050565b6107fa61158d565b6108046000611614565b565b6000610810611645565b90508073ffffffffffffffffffffffffffffffffffffffff16610831611478565b73ffffffffffffffffffffffffffffffffffffffff161461088957806040517f118cdaa70000000000000000000000000000000000000000000000000000000081526004016108809190611aac565b60405180910390fd5b61089281611614565b50565b60008060009054906101000a900473ffffffffffffffffffffffffffffffffffffffff16905090565b6060600360008373ffffffffffffffffffffffffffffffffffffffff1673ffffffffffffffffffffffffffffffffffffffff168152602001908152602001600020805480602002602001604051908101604052809291908181526020016000905b82821015610a485783829060005260206000209060030201604051806080016040529081600082015481526020016001820160009054906101000a900467ffffffffffffffff1667ffffffffffffffff1667ffffffffffffffff1681526020016001820160089054906101000a900467ffffffffffffffff1667ffffffffffffffff1667ffffffffffffffff168152602001600282016040518060600160405290816000820160009054906101000a900467ffffffffffffffff1667ffffffffffffffff1667ffffffffffffffff1681526020016000820160089054906101000a900463ffffffff1663ffffffff1663ffffffff16815260200160008201600c9054906101000a900460ff1660ff1660ff1681525050815250508152602001906001019061091f565b505050509050919050565b60068181548110610a6357600080fd5b906000526020600020016000915054906101000a900473ffffffffffffffffffffffffffffffffffffffff1681565b606080600060068054905067ffffffffffffffff811115610ab657610ab5612220565b5b604051908082528060200260200182016040528015610ae45781602001602082028036833780820191505090505b509050600060068054905067ffffffffffffffff811115610b0857610b07612220565b5b604051908082528060200260200182016040528015610b365781602001602082028036833780820191505090505b50905060005b600680549050811015610c1057600060068281548110610b5f57610b5e6120b8565b5b9060005260206000200160009054906101000a900473ffffffffffffffffffffffffffffffffffffffff16905080848381518110610ba057610b9f6120b8565b5b602002602001019073ffffffffffffffffffffffffffffffffffffffff16908173ffffffffffffffffffffffffffffffffffffffff1681525050610be381610c1d565b838381518110610bf657610bf56120b8565b5b602002602001018181525050508080600101915050610b3c565b5081819350935050509091565b600080600090505b600360008473ffffffffffffffffffffffffffffffffffffffff1673ffffffffffffffffffffffffffffffffffffffff16815260200190815260200160002080549050811015610e2c576000600360008573ffffffffffffffffffffffffffffffffffffffff1673ffffffffffffffffffffffffffffffffffffffff1681526020019081526020016000208281548110610cc257610cc16120b8565b5b9060005260206000209060030201604051806080016040529081600082015481526020016001820160009054906101000a900467ffffffffffffffff1667ffffffffffffffff1667ffffffffffffffff1681526020016001820160089054906101000a900467ffffffffffffffff1667ffffffffffffffff1667ffffffffffffffff168152602001600282016040518060600160405290816000820160009054906101000a900467ffffffffffffffff1667ffffffffffffffff1667ffffffffffffffff1681526020016000820160089054906101000a900463ffffffff1663ffffffff1663ffffffff16815260200160008201600c9054906101000a900460ff1660ff1660ff1681525050815250509050806060015160400151600a610de99190612382565b81606001516020015163ffffffff168260000151610e0791906123cd565b610e11919061243e565b83610e1c919061246f565b9250508080600101915050610c25565b50919050565b600080600090505b600680549050811015610ea857610e8e60068281548110610e5e57610e5d6120b8565b5b9060005260206000200160009054906101000a900473ffffffffffffffffffffffffffffffffffffffff16610c1d565b82610e99919061246f565b91508080600101915050610e3a565b5090565b60036020528160005260406000208181548110610ec857600080fd5b9060005260206000209060030201600091509150508060000154908060010160009054906101000a900467ffffffffffffffff16908060010160089054906101000a900467ffffffffffffffff1690806002016040518060600160405290816000820160009054906101000a900467ffffffffffffffff1667ffffffffffffffff1667ffffffffffffffff1681526020016000820160089054906101000a900463ffffffff1663ffffffff1663ffffffff16815260200160008201600c9054906101000a900460ff1660ff1660ff1681525050905084565b60606004805480602002602001604051908101604052809291908181526020016000905b82821015611067578382906000526020600020016040518060600160405290816000820160009054906101000a900467ffffffffffffffff1667ffffffffffffffff1667ffffffffffffffff1681526020016000820160089054906101000a900463ffffffff1663ffffffff1663ffffffff16815260200160008201600c9054906101000a900460ff1660ff1660ff168152505081526020019060010190610fc4565b50505050905090565b600060048281548110611086576110856120b8565b5b9060005260206000200160000160009054906101000a900467ffffffffffffffff1667ffffffffffffffff16036110e9576040517fe142361700000000000000000000000000000000000000000000000000000000815260040160405180910390fd5b60008203611123576040517fd43e607500000000000000000000000000000000000000000000000000000000815260040160405180910390fd5b600360003373ffffffffffffffffffffffffffffffffffffffff1673ffffffffffffffffffffffffffffffffffffffff16815260200190815260200160002060405180608001604052808481526020014267ffffffffffffffff16815260200160048481548110611197576111966120b8565b5b9060005260206000200160000160009054906101000a900467ffffffffffffffff1667ffffffffffffffff16426111ce919061246f565b67ffffffffffffffff168152602001600484815481106111f1576111f06120b8565b5b906000526020600020016040518060600160405290816000820160009054906101000a900467ffffffffffffffff1667ffffffffffffffff1667ffffffffffffffff1681526020016000820160089054906101000a900463ffffffff1663ffffffff1663ffffffff16815260200160008201600c9054906101000a900460ff1660ff1660ff168152505081525090806001815401808255809150506001900390600052602060002090600302016000909190919091506000820151816000015560208201518160010160006101000a81548167ffffffffffffffff021916908367ffffffffffffffff16021790555060408201518160010160086101000a81548167ffffffffffffffff021916908367ffffffffffffffff16021790555060608201518160020160008201518160000160006101000a81548167ffffffffffffffff021916908367ffffffffffffffff16021790555060208201518160000160086101000a81548163ffffffff021916908363ffffffff160217905550604082015181600001600c6101000a81548160ff021916908360ff1602179055505050505061139c3361164d565b600260009054906101000a900473ffffffffffffffffffffffffffffffffffffffff1673ffffffffffffffffffffffffffffffffffffffff166323b872dd3330856040518463ffffffff1660e01b81526004016113fb939291906124a3565b6020604051808303816000875af115801561141a573d6000803e3d6000fd5b505050506040513d601f19601f8201168201806040525081019061143e91906121f3565b611474576040517f90b8ec1800000000000000000000000000000000000000000000000000000000815260040160405180910390fd5b5050565b6000600160009054906101000a900473ffffffffffffffffffffffffffffffffffffffff16905090565b60056020528060005260406000206000915090505481565b6114c261158d565b80600160006101000a81548173ffffffffffffffffffffffffffffffffffffffff021916908373ffffffffffffffffffffffffffffffffffffffff1602179055508073ffffffffffffffffffffffffffffffffffffffff16611522610895565b73ffffffffffffffffffffffffffffffffffffffff167f38d16b8cac22d99fc7c124b9cd0de2d3fa1faef420bfe791d8c362d765e2270060405160405180910390a350565b600260009054906101000a900473ffffffffffffffffffffffffffffffffffffffff1681565b611595611645565b73ffffffffffffffffffffffffffffffffffffffff166115b3610895565b73ffffffffffffffffffffffffffffffffffffffff1614611612576115d6611645565b6040517f118cdaa70000000000000000000000000000000000000000000000000000000081526004016116099190611aac565b60405180910390fd5b565b600160006101000a81549073ffffffffffffffffffffffffffffffffffffffff021916905561164281611753565b50565b600033905090565b6000805b6006805490508110156116e5578273ffffffffffffffffffffffffffffffffffffffff1660068281548110611689576116886120b8565b5b9060005260206000200160009054906101000a900473ffffffffffffffffffffffffffffffffffffffff1673ffffffffffffffffffffffffffffffffffffffff16036116d857600191506116e5565b8080600101915050611651565b508061174f576006829080600181540180825580915050600190039060005260206000200160009091909190916101000a81548173ffffffffffffffffffffffffffffffffffffffff021916908373ffffffffffffffffffffffffffffffffffffffff1602179055505b5050565b60008060009054906101000a900473ffffffffffffffffffffffffffffffffffffffff169050816000806101000a81548173ffffffffffffffffffffffffffffffffffffffff021916908373ffffffffffffffffffffffffffffffffffffffff1602179055508173ffffffffffffffffffffffffffffffffffffffff168173ffffffffffffffffffffffffffffffffffffffff167f8be0079c531659141344cd1fd0a4f28419497f9722a3daafe3b4186f6b6457e060405160405180910390a35050565b600080fd5b6000819050919050565b61182f8161181c565b811461183a57600080fd5b50565b60008135905061184c81611826565b92915050565b600073ffffffffffffffffffffffffffffffffffffffff82169050919050565b600061187d82611852565b9050919050565b61188d81611872565b811461189857600080fd5b50565b6000813590506118aa81611884565b92915050565b600080604083850312156118c7576118c6611817565b5b60006118d58582860161183d565b92505060206118e68582860161189b565b9150509250929050565b60006020828403121561190657611905611817565b5b60006119148482850161183d565b91505092915050565b600067ffffffffffffffff82169050919050565b61193a8161191d565b82525050565b600063ffffffff82169050919050565b61195981611940565b82525050565b600060ff82169050919050565b6119758161195f565b82525050565b60006060820190506119906000830186611931565b61199d6020830185611950565b6119aa604083018461196c565b949350505050565b6119bb8161191d565b81146119c657600080fd5b50565b6000813590506119d8816119b2565b92915050565b6119e781611940565b81146119f257600080fd5b50565b600081359050611a04816119de565b92915050565b611a138161195f565b8114611a1e57600080fd5b50565b600081359050611a3081611a0a565b92915050565b60008060008060808587031215611a5057611a4f611817565b5b6000611a5e8782880161183d565b9450506020611a6f878288016119c9565b9350506040611a80878288016119f5565b9250506060611a9187828801611a21565b91505092959194509250565b611aa681611872565b82525050565b6000602082019050611ac16000830184611a9d565b92915050565b600060208284031215611add57611adc611817565b5b6000611aeb8482850161189b565b91505092915050565b600081519050919050565b600082825260208201905092915050565b6000819050602082019050919050565b611b298161181c565b82525050565b611b388161191d565b82525050565b611b4781611940565b82525050565b611b568161195f565b82525050565b606082016000820151611b726000850182611b2f565b506020820151611b856020850182611b3e565b506040820151611b986040850182611b4d565b50505050565b60c082016000820151611bb46000850182611b20565b506020820151611bc76020850182611b2f565b506040820151611bda6040850182611b2f565b506060820151611bed6060850182611b5c565b50505050565b6000611bff8383611b9e565b60c08301905092915050565b6000602082019050919050565b6000611c2382611af4565b611c2d8185611aff565b9350611c3883611b10565b8060005b83811015611c69578151611c508882611bf3565b9750611c5b83611c0b565b925050600181019050611c3c565b5085935050505092915050565b60006020820190508181036000830152611c908184611c18565b905092915050565b600081519050919050565b600082825260208201905092915050565b6000819050602082019050919050565b611ccd81611872565b82525050565b6000611cdf8383611cc4565b60208301905092915050565b6000602082019050919050565b6000611d0382611c98565b611d0d8185611ca3565b9350611d1883611cb4565b8060005b83811015611d49578151611d308882611cd3565b9750611d3b83611ceb565b925050600181019050611d1c565b5085935050505092915050565b600081519050919050565b600082825260208201905092915050565b6000819050602082019050919050565b6000611d8e8383611b20565b60208301905092915050565b6000602082019050919050565b6000611db282611d56565b611dbc8185611d61565b9350611dc783611d72565b8060005b83811015611df8578151611ddf8882611d82565b9750611dea83611d9a565b925050600181019050611dcb565b5085935050505092915050565b60006040820190508181036000830152611e1f8185611cf8565b90508181036020830152611e338184611da7565b90509392505050565b611e458161181c565b82525050565b6000602082019050611e606000830184611e3c565b92915050565b60008060408385031215611e7d57611e7c611817565b5b6000611e8b8582860161189b565b9250506020611e9c8582860161183d565b9150509250929050565b606082016000820151611ebc6000850182611b2f565b506020820151611ecf6020850182611b3e565b506040820151611ee26040850182611b4d565b50505050565b600060c082019050611efd6000830187611e3c565b611f0a6020830186611931565b611f176040830185611931565b611f246060830184611ea6565b95945050505050565b600081519050919050565b600082825260208201905092915050565b6000819050602082019050919050565b6000611f658383611b5c565b60608301905092915050565b6000602082019050919050565b6000611f8982611f2d565b611f938185611f38565b9350611f9e83611f49565b8060005b83811015611fcf578151611fb68882611f59565b9750611fc183611f71565b925050600181019050611fa2565b5085935050505092915050565b60006020820190508181036000830152611ff68184611f7e565b905092915050565b6000806040838503121561201557612014611817565b5b60006120238582860161183d565b92505060206120348582860161183d565b9150509250929050565b6000819050919050565b600061206361205e61205984611852565b61203e565b611852565b9050919050565b600061207582612048565b9050919050565b60006120878261206a565b9050919050565b6120978161207c565b82525050565b60006020820190506120b2600083018461208e565b92915050565b7f4e487b7100000000000000000000000000000000000000000000000000000000600052603260045260246000fd5b7f4e487b7100000000000000000000000000000000000000000000000000000000600052601160045260246000fd5b60006121218261181c565b915061212c8361181c565b9250828203905081811115612144576121436120e7565b5b92915050565b60006121558261181c565b91507fffffffffffffffffffffffffffffffffffffffffffffffffffffffffffffffff8203612187576121866120e7565b5b600182019050919050565b60006040820190506121a76000830185611a9d565b6121b46020830184611e3c565b9392505050565b60008115159050919050565b6121d0816121bb565b81146121db57600080fd5b50565b6000815190506121ed816121c7565b92915050565b60006020828403121561220957612208611817565b5b6000612217848285016121de565b91505092915050565b7f4e487b7100000000000000000000000000000000000000000000000000000000600052604160045260246000fd5b60008160011c9050919050565b6000808291508390505b60018511156122a657808604811115612282576122816120e7565b5b60018516156122915780820291505b808102905061229f8561224f565b9450612266565b94509492505050565b6000826122bf576001905061237b565b816122cd576000905061237b565b81600181146122e357600281146122ed5761231c565b600191505061237b565b60ff8411156122ff576122fe6120e7565b5b8360020a915084821115612316576123156120e7565b5b5061237b565b5060208310610133831016604e8410600b84101617156123515782820a90508381111561234c5761234b6120e7565b5b61237b565b61235e848484600161225c565b92509050818404811115612375576123746120e7565b5b81810290505b9392505050565b600061238d8261181c565b91506123988361195f565b92506123c57fffffffffffffffffffffffffffffffffffffffffffffffffffffffffffffffff84846122af565b905092915050565b60006123d88261181c565b91506123e38361181c565b92508282026123f18161181c565b91508282048414831517612408576124076120e7565b5b5092915050565b7f4e487b7100000000000000000000000000000000000000000000000000000000600052601260045260246000fd5b60006124498261181c565b91506124548361181c565b9250826124645761246361240f565b5b828204905092915050565b600061247a8261181c565b91506124858361181c565b925082820190508082111561249d5761249c6120e7565b5b92915050565b60006060820190506124b86000830186611a9d565b6124c56020830185611a9d565b6124d26040830184611e3c565b94935050505056fea264697066735822122097b1859459319155416f81cf05bde5e724436cfc865629746e9e35eba7adcaab64736f6c63430008180033",
  "linkReferences": {},
  "deployedLinkReferences": {}
}