{
  "_format": "hh-sol-artifact-1",
  "contractName": "StakingVault",
  "sourceName": "contracts/StakingVault.sol",
  "abi": [
    {
      "inputs": [
        {
          "internalType": "address",
          "name": "tokenAddress",
          "type": "address"
        }
      ],
      "stateMutability": "nonpayable",
      "type": "constructor"
    },
    {
      "inputs": [],
      "name": "admin",
      "outputs": [
        {
          "internalType": "address",
          "name": "",
          "type": "address"
        }
      ],
      "stateMutability": "view",
      "type": "function"
    },
    {
      "inputs": [
        {
          "internalType": "address",
          "name": "",
          "type": "address"
        }
      ],
      "name": "claimableEarnings",
      "outputs": [
        {
          "internalType": "uint256",
          "name": "",
          "type": "uint256"
        }
      ],
      "stateMutability": "view",
      "type": "function"
    },
    {
      "inputs": [
        {
          "internalType": "uint256",
          "name": "amount",
          "type": "uint256"
        },
        {
          "internalType": "uint256",
          "name": "tierId",
          "type": "uint256"
        }
      ],
      "name": "deposit",
      "outputs": [],
      "stateMutability": "nonpayable",
      "type": "function"
    },
    {
      "inputs": [
        {
          "internalType": "address",
          "name": "",
          "type": "address"
        },
        {
          "internalType": "uint256",
          "name": "",
          "type": "uint256"
        }
      ],
      "name": "deposits",
      "outputs": [
        {
          "internalType": "uint256",
          "name": "amount",
          "type": "uint256"
        },
        {
          "internalType": "uint64",
          "name": "timestamp",
          "type": "uint64"
        },
        {
          "internalType": "uint64",
          "name": "lockupTime",
          "type": "uint64"
        }
      ],
      "stateMutability": "view",
      "type": "function"
    },
    {
      "inputs": [
        {
          "internalType": "address",
          "name": "account",
          "type": "address"
        }
      ],
      "name": "getDeposits",
      "outputs": [
        {
          "internalType": "uint256[]",
          "name": "amounts",
          "type": "uint256[]"
        },
        {
          "internalType": "uint64[]",
          "name": "timestamps",
          "type": "uint64[]"
        },
        {
          "internalType": "uint64[]",
          "name": "lockupTimes",
          "type": "uint64[]"
        }
      ],
      "stateMutability": "view",
      "type": "function"
    },
    {
      "inputs": [],
      "name": "getTotalShares",
      "outputs": [
        {
          "internalType": "uint256",
          "name": "_totalShares",
          "type": "uint256"
        }
      ],
      "stateMutability": "view",
      "type": "function"
    },
    {
      "inputs": [
        {
          "internalType": "address",
          "name": "newAdmin",
          "type": "address"
        }
      ],
      "name": "setAdmin",
      "outputs": [],
      "stateMutability": "nonpayable",
      "type": "function"
    },
    {
      "inputs": [
        {
          "internalType": "uint256",
          "name": "_tierId",
          "type": "uint256"
        },
        {
          "internalType": "uint64",
          "name": "lockupTime",
          "type": "uint64"
        },
        {
          "internalType": "uint32",
          "name": "multiplier",
          "type": "uint32"
        }
      ],
      "name": "setTier",
      "outputs": [],
      "stateMutability": "nonpayable",
      "type": "function"
    },
    {
      "inputs": [
        {
          "internalType": "address",
          "name": "account",
          "type": "address"
        }
      ],
      "name": "shares",
      "outputs": [
        {
          "internalType": "uint256",
          "name": "totalShares",
          "type": "uint256"
        }
      ],
      "stateMutability": "view",
      "type": "function"
    },
    {
      "inputs": [],
      "name": "sharesPerUser",
      "outputs": [
        {
          "internalType": "address[]",
          "name": "users",
          "type": "address[]"
        },
        {
          "internalType": "uint256[]",
          "name": "userShares",
          "type": "uint256[]"
        }
      ],
      "stateMutability": "view",
      "type": "function"
    },
    {
      "inputs": [
        {
          "internalType": "uint256",
          "name": "",
          "type": "uint256"
        }
      ],
      "name": "tiers",
      "outputs": [
        {
          "internalType": "uint64",
          "name": "lockupTime",
          "type": "uint64"
        },
        {
          "internalType": "uint32",
          "name": "multiplier",
          "type": "uint32"
        }
      ],
      "stateMutability": "view",
      "type": "function"
    },
    {
      "inputs": [],
      "name": "token",
      "outputs": [
        {
          "internalType": "contract IERC20",
          "name": "",
          "type": "address"
        }
      ],
      "stateMutability": "view",
      "type": "function"
    },
    {
      "inputs": [
        {
          "internalType": "uint256",
          "name": "",
          "type": "uint256"
        }
      ],
      "name": "totalUsers",
      "outputs": [
        {
          "internalType": "address",
          "name": "",
          "type": "address"
        }
      ],
      "stateMutability": "view",
      "type": "function"
    },
    {
      "inputs": [
        {
          "internalType": "uint256",
          "name": "amount",
          "type": "uint256"
        },
        {
          "internalType": "address",
          "name": "to",
          "type": "address"
        }
      ],
      "name": "withdraw",
      "outputs": [],
      "stateMutability": "nonpayable",
      "type": "function"
    }
  ],
  "bytecode": "0x60806040523480156200001157600080fd5b506040516200258d3803806200258d833981810160405281019062000037919062000324565b336000806101000a81548173ffffffffffffffffffffffffffffffffffffffff021916908373ffffffffffffffffffffffffffffffffffffffff16021790555080600160006101000a81548173ffffffffffffffffffffffffffffffffffffffff021916908373ffffffffffffffffffffffffffffffffffffffff160217905550600360405180604001604052806213c68067ffffffffffffffff1681526020016103e863ffffffff168152509080600181540180825580915050600190039060005260206000200160009091909190915060008201518160000160006101000a81548167ffffffffffffffff021916908367ffffffffffffffff16021790555060208201518160000160086101000a81548163ffffffff021916908363ffffffff16021790555050506003604051806040016040528062278d0067ffffffffffffffff1681526020016104e263ffffffff168152509080600181540180825580915050600190039060005260206000200160009091909190915060008201518160000160006101000a81548167ffffffffffffffff021916908367ffffffffffffffff16021790555060208201518160000160086101000a81548163ffffffff021916908363ffffffff160217905550505060036040518060400160405280624f1a0067ffffffffffffffff1681526020016105dc63ffffffff168152509080600181540180825580915050600190039060005260206000200160009091909190915060008201518160000160006101000a81548167ffffffffffffffff021916908367ffffffffffffffff16021790555060208201518160000160086101000a81548163ffffffff021916908363ffffffff16021790555050505062000356565b600080fd5b600073ffffffffffffffffffffffffffffffffffffffff82169050919050565b6000620002ec82620002bf565b9050919050565b620002fe81620002df565b81146200030a57600080fd5b50565b6000815190506200031e81620002f3565b92915050565b6000602082840312156200033d576200033c620002ba565b5b60006200034d848285016200030d565b91505092915050565b61222780620003666000396000f3fe608060405234801561001057600080fd5b50600436106100e95760003560e01c8063ce7c2ac21161008c578063e2bbb15811610066578063e2bbb15814610274578063ebf4094c14610290578063f851a440146102c0578063fc0c546a146102de576100e9565b8063ce7c2ac2146101f4578063d5002f2e14610224578063d6d6817714610242576100e9565b8063704b6c02116100c8578063704b6c021461015757806394f649dd14610173578063a4f67b8b146101a5578063b9c2c527146101d5576100e9565b8062f714ce146100ee578063039af9eb1461010a578063610dbde51461013b575b600080fd5b61010860048036038101906101039190611569565b6102fc565b005b610124600480360381019061011f91906115a9565b6105ef565b604051610132929190611618565b60405180910390f35b61015560048036038101906101509190611699565b610643565b005b610171600480360381019061016c91906116ec565b610808565b005b61018d600480360381019061018891906116ec565b610948565b60405161019c93929190611895565b60405180910390f35b6101bf60048036038101906101ba91906115a9565b610bc0565b6040516101cc91906118f0565b60405180910390f35b6101dd610bff565b6040516101eb9291906119c9565b60405180910390f35b61020e600480360381019061020991906116ec565b610cde565b60405161021b9190611a0f565b60405180910390f35b61022c610e77565b6040516102399190611a0f565b60405180910390f35b61025c60048036038101906102579190611a2a565b610ef1565b60405161026b93929190611a6a565b60405180910390f35b61028e60048036038101906102899190611aa1565b610f60565b005b6102aa60048036038101906102a591906116ec565b611206565b6040516102b79190611a0f565b60405180910390f35b6102c861121e565b6040516102d591906118f0565b60405180910390f35b6102e6611242565b6040516102f39190611b40565b60405180910390f35b600073ffffffffffffffffffffffffffffffffffffffff168173ffffffffffffffffffffffffffffffffffffffff160361036b576040517f08c379a000000000000000000000000000000000000000000000000000000000815260040161036290611bb8565b60405180910390fd5b60005b600260003373ffffffffffffffffffffffffffffffffffffffff1673ffffffffffffffffffffffffffffffffffffffff16815260200190815260200160002080549050811080156103bf5750600083115b156104c7576000600260003373ffffffffffffffffffffffffffffffffffffffff1673ffffffffffffffffffffffffffffffffffffffff168152602001908152602001600020828154811061041757610416611bd8565b5b906000526020600020906002020190508060010160089054906101000a900467ffffffffffffffff168160010160009054906101000a900467ffffffffffffffff166104639190611c36565b67ffffffffffffffff1642106104b35760008160000154905084811115610488578490505b8082600001600082825461049c9190611c72565b9250508190555080856104af9190611c72565b9450505b5080806104bf90611ca6565b91505061036e565b50600082111561050c576040517f08c379a000000000000000000000000000000000000000000000000000000000815260040161050390611d3a565b60405180910390fd5b600160009054906101000a900473ffffffffffffffffffffffffffffffffffffffff1673ffffffffffffffffffffffffffffffffffffffff1663a9059cbb82846040518363ffffffff1660e01b8152600401610569929190611d5a565b6020604051808303816000875af1158015610588573d6000803e3d6000fd5b505050506040513d601f19601f820116820180604052508101906105ac9190611dbb565b6105eb576040517f08c379a00000000000000000000000000000000000000000000000000000000081526004016105e290611e34565b60405180910390fd5b5050565b600381815481106105ff57600080fd5b906000526020600020016000915090508060000160009054906101000a900467ffffffffffffffff16908060000160089054906101000a900463ffffffff16905082565b60008054906101000a900473ffffffffffffffffffffffffffffffffffffffff1673ffffffffffffffffffffffffffffffffffffffff163373ffffffffffffffffffffffffffffffffffffffff16146106d1576040517f08c379a00000000000000000000000000000000000000000000000000000000081526004016106c890611ea0565b60405180910390fd5b60008163ffffffff161161071a576040517f08c379a000000000000000000000000000000000000000000000000000000000815260040161071190611f32565b60405180910390fd5b60008267ffffffffffffffff1611610767576040517f08c379a000000000000000000000000000000000000000000000000000000000815260040161075e90611fc4565b60405180910390fd5b60405180604001604052808367ffffffffffffffff1681526020018263ffffffff16815250600384815481106107a05761079f611bd8565b5b9060005260206000200160008201518160000160006101000a81548167ffffffffffffffff021916908367ffffffffffffffff16021790555060208201518160000160086101000a81548163ffffffff021916908363ffffffff160217905550905050505050565b60008054906101000a900473ffffffffffffffffffffffffffffffffffffffff1673ffffffffffffffffffffffffffffffffffffffff163373ffffffffffffffffffffffffffffffffffffffff1614610896576040517f08c379a000000000000000000000000000000000000000000000000000000000815260040161088d90611ea0565b60405180910390fd5b600073ffffffffffffffffffffffffffffffffffffffff168173ffffffffffffffffffffffffffffffffffffffff1603610905576040517f08c379a00000000000000000000000000000000000000000000000000000000081526004016108fc90611bb8565b60405180910390fd5b806000806101000a81548173ffffffffffffffffffffffffffffffffffffffff021916908373ffffffffffffffffffffffffffffffffffffffff16021790555050565b60608060606000600260008673ffffffffffffffffffffffffffffffffffffffff1673ffffffffffffffffffffffffffffffffffffffff1681526020019081526020016000208054905090508067ffffffffffffffff8111156109ae576109ad611fe4565b5b6040519080825280602002602001820160405280156109dc5781602001602082028036833780820191505090505b5093508067ffffffffffffffff8111156109f9576109f8611fe4565b5b604051908082528060200260200182016040528015610a275781602001602082028036833780820191505090505b50925060005b81811015610bb7576000600260008873ffffffffffffffffffffffffffffffffffffffff1673ffffffffffffffffffffffffffffffffffffffff1681526020019081526020016000208281548110610a8857610a87611bd8565b5b9060005260206000209060020201604051806060016040529081600082015481526020016001820160009054906101000a900467ffffffffffffffff1667ffffffffffffffff1667ffffffffffffffff1681526020016001820160089054906101000a900467ffffffffffffffff1667ffffffffffffffff1667ffffffffffffffff168152505090508060000151868381518110610b2957610b28611bd8565b5b6020026020010181815250508060200151858381518110610b4d57610b4c611bd8565b5b602002602001019067ffffffffffffffff16908167ffffffffffffffff16815250508060400151848381518110610b8757610b86611bd8565b5b602002602001019067ffffffffffffffff16908167ffffffffffffffff1681525050508080600101915050610a2d565b50509193909250565b60058181548110610bd057600080fd5b906000526020600020016000915054906101000a900473ffffffffffffffffffffffffffffffffffffffff1681565b60608060005b600580549050811015610cd957600060058281548110610c2857610c27611bd8565b5b9060005260206000200160009054906101000a900473ffffffffffffffffffffffffffffffffffffffff16905080848381518110610c6957610c68611bd8565b5b602002602001019073ffffffffffffffffffffffffffffffffffffffff16908173ffffffffffffffffffffffffffffffffffffffff1681525050610cac81610cde565b838381518110610cbf57610cbe611bd8565b5b602002602001018181525050508080600101915050610c05565b509091565b600080600090505b600260008473ffffffffffffffffffffffffffffffffffffffff1673ffffffffffffffffffffffffffffffffffffffff16815260200190815260200160002080549050811015610e71576000600260008573ffffffffffffffffffffffffffffffffffffffff1673ffffffffffffffffffffffffffffffffffffffff1681526020019081526020016000208281548110610d8357610d82611bd8565b5b9060005260206000209060020201604051806060016040529081600082015481526020016001820160009054906101000a900467ffffffffffffffff1667ffffffffffffffff1667ffffffffffffffff1681526020016001820160089054906101000a900467ffffffffffffffff1667ffffffffffffffff1667ffffffffffffffff168152505090506000816020015142610e1e9190612013565b90506000610e2b82611268565b90506103e8816020015163ffffffff168460000151610e4a919061204f565b610e5491906120c0565b85610e5f91906120f1565b94505050508080600101915050610ce6565b50919050565b600080600090505b600580549050811015610eed57610ed360058281548110610ea357610ea2611bd8565b5b9060005260206000200160009054906101000a900473ffffffffffffffffffffffffffffffffffffffff16610cde565b82610ede91906120f1565b91508080600101915050610e7f565b5090565b60026020528160005260406000208181548110610f0d57600080fd5b9060005260206000209060020201600091509150508060000154908060010160009054906101000a900467ffffffffffffffff16908060010160089054906101000a900467ffffffffffffffff16905083565b600060038281548110610f7657610f75611bd8565b5b9060005260206000200160000160009054906101000a900467ffffffffffffffff1667ffffffffffffffff1611610fe2576040517f08c379a0000000000000000000000000000000000000000000000000000000008152600401610fd990612171565b60405180910390fd5b600260003373ffffffffffffffffffffffffffffffffffffffff1673ffffffffffffffffffffffffffffffffffffffff16815260200190815260200160002060405180606001604052808481526020014267ffffffffffffffff1681526020016003848154811061105657611055611bd8565b5b9060005260206000200160000160009054906101000a900467ffffffffffffffff1667ffffffffffffffff1681525090806001815401808255809150506001900390600052602060002090600202016000909190919091506000820151816000015560208201518160010160006101000a81548167ffffffffffffffff021916908367ffffffffffffffff16021790555060408201518160010160086101000a81548167ffffffffffffffff021916908367ffffffffffffffff1602179055505050611121336113a0565b600160009054906101000a900473ffffffffffffffffffffffffffffffffffffffff1673ffffffffffffffffffffffffffffffffffffffff166323b872dd3330856040518463ffffffff1660e01b815260040161118093929190612191565b6020604051808303816000875af115801561119f573d6000803e3d6000fd5b505050506040513d601f19601f820116820180604052508101906111c39190611dbb565b611202576040517f08c379a00000000000000000000000000000000000000000000000000000000081526004016111f990611e34565b60405180910390fd5b5050565b60046020528060005260406000206000915090505481565b60008054906101000a900473ffffffffffffffffffffffffffffffffffffffff1681565b600160009054906101000a900473ffffffffffffffffffffffffffffffffffffffff1681565b6112706114a6565b600060038054905090505b6000811461136f578267ffffffffffffffff16600382815481106112a2576112a1611bd8565b5b9060005260206000200160000160009054906101000a900467ffffffffffffffff1667ffffffffffffffff161161135c57600381815481106112e7576112e6611bd8565b5b906000526020600020016040518060400160405290816000820160009054906101000a900467ffffffffffffffff1667ffffffffffffffff1667ffffffffffffffff1681526020016000820160089054906101000a900463ffffffff1663ffffffff1663ffffffff168152505091505061139b565b8080611367906121c8565b91505061127b565b506040518060400160405280600067ffffffffffffffff1681526020016103e863ffffffff1681525090505b919050565b6000805b600580549050811015611438578273ffffffffffffffffffffffffffffffffffffffff16600582815481106113dc576113db611bd8565b5b9060005260206000200160009054906101000a900473ffffffffffffffffffffffffffffffffffffffff1673ffffffffffffffffffffffffffffffffffffffff160361142b5760019150611438565b80806001019150506113a4565b50806114a2576005829080600181540180825580915050600190039060005260206000200160009091909190916101000a81548173ffffffffffffffffffffffffffffffffffffffff021916908373ffffffffffffffffffffffffffffffffffffffff1602179055505b5050565b6040518060400160405280600067ffffffffffffffff168152602001600063ffffffff1681525090565b600080fd5b6000819050919050565b6114e8816114d5565b81146114f357600080fd5b50565b600081359050611505816114df565b92915050565b600073ffffffffffffffffffffffffffffffffffffffff82169050919050565b60006115368261150b565b9050919050565b6115468161152b565b811461155157600080fd5b50565b6000813590506115638161153d565b92915050565b600080604083850312156115805761157f6114d0565b5b600061158e858286016114f6565b925050602061159f85828601611554565b9150509250929050565b6000602082840312156115bf576115be6114d0565b5b60006115cd848285016114f6565b91505092915050565b600067ffffffffffffffff82169050919050565b6115f3816115d6565b82525050565b600063ffffffff82169050919050565b611612816115f9565b82525050565b600060408201905061162d60008301856115ea565b61163a6020830184611609565b9392505050565b61164a816115d6565b811461165557600080fd5b50565b60008135905061166781611641565b92915050565b611676816115f9565b811461168157600080fd5b50565b6000813590506116938161166d565b92915050565b6000806000606084860312156116b2576116b16114d0565b5b60006116c0868287016114f6565b93505060206116d186828701611658565b92505060406116e286828701611684565b9150509250925092565b600060208284031215611702576117016114d0565b5b600061171084828501611554565b91505092915050565b600081519050919050565b600082825260208201905092915050565b6000819050602082019050919050565b61174e816114d5565b82525050565b60006117608383611745565b60208301905092915050565b6000602082019050919050565b600061178482611719565b61178e8185611724565b935061179983611735565b8060005b838110156117ca5781516117b18882611754565b97506117bc8361176c565b92505060018101905061179d565b5085935050505092915050565b600081519050919050565b600082825260208201905092915050565b6000819050602082019050919050565b61180c816115d6565b82525050565b600061181e8383611803565b60208301905092915050565b6000602082019050919050565b6000611842826117d7565b61184c81856117e2565b9350611857836117f3565b8060005b8381101561188857815161186f8882611812565b975061187a8361182a565b92505060018101905061185b565b5085935050505092915050565b600060608201905081810360008301526118af8186611779565b905081810360208301526118c38185611837565b905081810360408301526118d78184611837565b9050949350505050565b6118ea8161152b565b82525050565b600060208201905061190560008301846118e1565b92915050565b600081519050919050565b600082825260208201905092915050565b6000819050602082019050919050565b6119408161152b565b82525050565b60006119528383611937565b60208301905092915050565b6000602082019050919050565b60006119768261190b565b6119808185611916565b935061198b83611927565b8060005b838110156119bc5781516119a38882611946565b97506119ae8361195e565b92505060018101905061198f565b5085935050505092915050565b600060408201905081810360008301526119e3818561196b565b905081810360208301526119f78184611779565b90509392505050565b611a09816114d5565b82525050565b6000602082019050611a246000830184611a00565b92915050565b60008060408385031215611a4157611a406114d0565b5b6000611a4f85828601611554565b9250506020611a60858286016114f6565b9150509250929050565b6000606082019050611a7f6000830186611a00565b611a8c60208301856115ea565b611a9960408301846115ea565b949350505050565b60008060408385031215611ab857611ab76114d0565b5b6000611ac6858286016114f6565b9250506020611ad7858286016114f6565b9150509250929050565b6000819050919050565b6000611b06611b01611afc8461150b565b611ae1565b61150b565b9050919050565b6000611b1882611aeb565b9050919050565b6000611b2a82611b0d565b9050919050565b611b3a81611b1f565b82525050565b6000602082019050611b556000830184611b31565b92915050565b600082825260208201905092915050565b7f496e76616c696420616464726573730000000000000000000000000000000000600082015250565b6000611ba2600f83611b5b565b9150611bad82611b6c565b602082019050919050565b60006020820190508181036000830152611bd181611b95565b9050919050565b7f4e487b7100000000000000000000000000000000000000000000000000000000600052603260045260246000fd5b7f4e487b7100000000000000000000000000000000000000000000000000000000600052601160045260246000fd5b6000611c41826115d6565b9150611c4c836115d6565b9250828201905067ffffffffffffffff811115611c6c57611c6b611c07565b5b92915050565b6000611c7d826114d5565b9150611c88836114d5565b9250828203905081811115611ca057611c9f611c07565b5b92915050565b6000611cb1826114d5565b91507fffffffffffffffffffffffffffffffffffffffffffffffffffffffffffffffff8203611ce357611ce2611c07565b5b600182019050919050565b7f496e73756666696369656e742062616c616e6365000000000000000000000000600082015250565b6000611d24601483611b5b565b9150611d2f82611cee565b602082019050919050565b60006020820190508181036000830152611d5381611d17565b9050919050565b6000604082019050611d6f60008301856118e1565b611d7c6020830184611a00565b9392505050565b60008115159050919050565b611d9881611d83565b8114611da357600080fd5b50565b600081519050611db581611d8f565b92915050565b600060208284031215611dd157611dd06114d0565b5b6000611ddf84828501611da6565b91505092915050565b7f5472616e73666572206661696c65640000000000000000000000000000000000600082015250565b6000611e1e600f83611b5b565b9150611e2982611de8565b602082019050919050565b60006020820190508181036000830152611e4d81611e11565b9050919050565b7f4e6f742061646d696e0000000000000000000000000000000000000000000000600082015250565b6000611e8a600983611b5b565b9150611e9582611e54565b602082019050919050565b60006020820190508181036000830152611eb981611e7d565b9050919050565b7f4d756c7469706c696572206d7573742062652067726561746572207468616e2060008201527f3000000000000000000000000000000000000000000000000000000000000000602082015250565b6000611f1c602183611b5b565b9150611f2782611ec0565b604082019050919050565b60006020820190508181036000830152611f4b81611f0f565b9050919050565b7f4c6f636b75702074696d65206d7573742062652067726561746572207468616e60008201527f2030000000000000000000000000000000000000000000000000000000000000602082015250565b6000611fae602283611b5b565b9150611fb982611f52565b604082019050919050565b60006020820190508181036000830152611fdd81611fa1565b9050919050565b7f4e487b7100000000000000000000000000000000000000000000000000000000600052604160045260246000fd5b600061201e826115d6565b9150612029836115d6565b9250828203905067ffffffffffffffff81111561204957612048611c07565b5b92915050565b600061205a826114d5565b9150612065836114d5565b9250828202612073816114d5565b9150828204841483151761208a57612089611c07565b5b5092915050565b7f4e487b7100000000000000000000000000000000000000000000000000000000600052601260045260246000fd5b60006120cb826114d5565b91506120d6836114d5565b9250826120e6576120e5612091565b5b828204905092915050565b60006120fc826114d5565b9150612107836114d5565b925082820190508082111561211f5761211e611c07565b5b92915050565b7f496e76616c696420746965720000000000000000000000000000000000000000600082015250565b600061215b600c83611b5b565b915061216682612125565b602082019050919050565b6000602082019050818103600083015261218a8161214e565b9050919050565b60006060820190506121a660008301866118e1565b6121b360208301856118e1565b6121c06040830184611a00565b949350505050565b60006121d3826114d5565b9150600082036121e6576121e5611c07565b5b60018203905091905056fea2646970667358221220ad14174df5b3c00f0cfd14f84c804c2e5d15b39834686de91e0dabed230bf5da64736f6c63430008180033",
  "linkReferences": {},
  "deployedLinkReferences": {}
}