{
  "_format": "hh-sol-artifact-1",
  "contractName": "StakingVault",
  "sourceName": "contracts/StakingVault.sol",
  "abi": [
    {
      "inputs": [
        {
          "internalType": "address",
          "name": "tokenAddress",
          "type": "address"
        }
      ],
      "stateMutability": "nonpayable",
      "type": "constructor"
    },
    {
      "inputs": [
        {
          "internalType": "address",
          "name": "",
          "type": "address"
        },
        {
          "internalType": "uint256",
          "name": "",
          "type": "uint256"
        },
        {
          "internalType": "uint256",
          "name": "",
          "type": "uint256"
        }
      ],
      "name": "ERC20InsufficientBalance",
      "type": "error"
    },
    {
      "inputs": [],
      "name": "admin",
      "outputs": [
        {
          "internalType": "address",
          "name": "",
          "type": "address"
        }
      ],
      "stateMutability": "view",
      "type": "function"
    },
    {
      "inputs": [
        {
          "internalType": "address",
          "name": "",
          "type": "address"
        }
      ],
      "name": "claimableEarnings",
      "outputs": [
        {
          "internalType": "uint256",
          "name": "",
          "type": "uint256"
        }
      ],
      "stateMutability": "view",
      "type": "function"
    },
    {
      "inputs": [
        {
          "internalType": "uint256",
          "name": "_amount",
          "type": "uint256"
        },
        {
          "internalType": "uint256",
          "name": "tier",
          "type": "uint256"
        }
      ],
      "name": "deposit",
      "outputs": [],
      "stateMutability": "nonpayable",
      "type": "function"
    },
    {
      "inputs": [
        {
          "internalType": "address",
          "name": "",
          "type": "address"
        },
        {
          "internalType": "uint256",
          "name": "",
          "type": "uint256"
        }
      ],
      "name": "deposits",
      "outputs": [
        {
          "internalType": "uint256",
          "name": "amount",
          "type": "uint256"
        },
        {
          "internalType": "uint64",
          "name": "timestamp",
          "type": "uint64"
        },
        {
          "internalType": "uint64",
          "name": "unlockTime",
          "type": "uint64"
        },
        {
          "components": [
            {
              "internalType": "uint64",
              "name": "lockupTime",
              "type": "uint64"
            },
            {
              "internalType": "uint32",
              "name": "multiplier",
              "type": "uint32"
            },
            {
              "internalType": "uint8",
              "name": "multiplierDecimals",
              "type": "uint8"
            }
          ],
          "internalType": "struct StakingVault.Tier",
          "name": "tier",
          "type": "tuple"
        }
      ],
      "stateMutability": "view",
      "type": "function"
    },
    {
      "inputs": [
        {
          "internalType": "address",
          "name": "account",
          "type": "address"
        }
      ],
      "name": "getDeposits",
      "outputs": [
        {
          "internalType": "uint256[]",
          "name": "amounts",
          "type": "uint256[]"
        },
        {
          "internalType": "uint64[]",
          "name": "timestamps",
          "type": "uint64[]"
        },
        {
          "internalType": "uint64[]",
          "name": "unlockTimes",
          "type": "uint64[]"
        }
      ],
      "stateMutability": "view",
      "type": "function"
    },
    {
      "inputs": [],
      "name": "getTiers",
      "outputs": [
        {
          "components": [
            {
              "internalType": "uint64",
              "name": "lockupTime",
              "type": "uint64"
            },
            {
              "internalType": "uint32",
              "name": "multiplier",
              "type": "uint32"
            },
            {
              "internalType": "uint8",
              "name": "multiplierDecimals",
              "type": "uint8"
            }
          ],
          "internalType": "struct StakingVault.Tier[]",
          "name": "",
          "type": "tuple[]"
        }
      ],
      "stateMutability": "view",
      "type": "function"
    },
    {
      "inputs": [],
      "name": "getTotalShares",
      "outputs": [
        {
          "internalType": "uint256",
          "name": "_totalShares",
          "type": "uint256"
        }
      ],
      "stateMutability": "view",
      "type": "function"
    },
    {
      "inputs": [
        {
          "internalType": "address",
          "name": "newAdmin",
          "type": "address"
        }
      ],
      "name": "setAdmin",
      "outputs": [],
      "stateMutability": "nonpayable",
      "type": "function"
    },
    {
      "inputs": [
        {
          "internalType": "uint256",
          "name": "_tierId",
          "type": "uint256"
        },
        {
          "internalType": "uint64",
          "name": "lockupTime",
          "type": "uint64"
        },
        {
          "internalType": "uint32",
          "name": "multiplier",
          "type": "uint32"
        },
        {
          "internalType": "uint8",
          "name": "multiplierDecimals",
          "type": "uint8"
        }
      ],
      "name": "setTier",
      "outputs": [],
      "stateMutability": "nonpayable",
      "type": "function"
    },
    {
      "inputs": [
        {
          "internalType": "address",
          "name": "account",
          "type": "address"
        }
      ],
      "name": "shares",
      "outputs": [
        {
          "internalType": "uint256",
          "name": "totalShares",
          "type": "uint256"
        }
      ],
      "stateMutability": "view",
      "type": "function"
    },
    {
      "inputs": [],
      "name": "sharesPerUser",
      "outputs": [
        {
          "internalType": "address[]",
          "name": "users",
          "type": "address[]"
        },
        {
          "internalType": "uint256[]",
          "name": "userShares",
          "type": "uint256[]"
        }
      ],
      "stateMutability": "view",
      "type": "function"
    },
    {
      "inputs": [
        {
          "internalType": "uint256",
          "name": "",
          "type": "uint256"
        }
      ],
      "name": "tiers",
      "outputs": [
        {
          "internalType": "uint64",
          "name": "lockupTime",
          "type": "uint64"
        },
        {
          "internalType": "uint32",
          "name": "multiplier",
          "type": "uint32"
        },
        {
          "internalType": "uint8",
          "name": "multiplierDecimals",
          "type": "uint8"
        }
      ],
      "stateMutability": "view",
      "type": "function"
    },
    {
      "inputs": [],
      "name": "token",
      "outputs": [
        {
          "internalType": "contract IERC20",
          "name": "",
          "type": "address"
        }
      ],
      "stateMutability": "view",
      "type": "function"
    },
    {
      "inputs": [
        {
          "internalType": "uint256",
          "name": "",
          "type": "uint256"
        }
      ],
      "name": "totalUsers",
      "outputs": [
        {
          "internalType": "address",
          "name": "",
          "type": "address"
        }
      ],
      "stateMutability": "view",
      "type": "function"
    },
    {
      "inputs": [
        {
          "internalType": "uint256",
          "name": "amount",
          "type": "uint256"
        },
        {
          "internalType": "address",
          "name": "to",
          "type": "address"
        }
      ],
      "name": "withdraw",
      "outputs": [],
      "stateMutability": "nonpayable",
      "type": "function"
    }
  ],
  "bytecode": "0x60806040523480156200001157600080fd5b5060405162002df238038062002df283398181016040528101906200003791906200054f565b336000806101000a81548173ffffffffffffffffffffffffffffffffffffffff021916908373ffffffffffffffffffffffffffffffffffffffff16021790555080600160006101000a81548173ffffffffffffffffffffffffffffffffffffffff021916908373ffffffffffffffffffffffffffffffffffffffff1602179055506003604051806060016040528062278d0067ffffffffffffffff168152602001606463ffffffff168152602001600360ff168152509080600181540180825580915050600190039060005260206000200160009091909190915060008201518160000160006101000a81548167ffffffffffffffff021916908367ffffffffffffffff16021790555060208201518160000160086101000a81548163ffffffff021916908363ffffffff160217905550604082015181600001600c6101000a81548160ff021916908360ff160217905550505060036040518060600160405280624f1a0067ffffffffffffffff1681526020016101f463ffffffff168152602001600360ff168152509080600181540180825580915050600190039060005260206000200160009091909190915060008201518160000160006101000a81548167ffffffffffffffff021916908367ffffffffffffffff16021790555060208201518160000160086101000a81548163ffffffff021916908363ffffffff160217905550604082015181600001600c6101000a81548160ff021916908360ff1602179055505050600360405180606001604052806301e1338067ffffffffffffffff16815260200161044c63ffffffff168152602001600360ff168152509080600181540180825580915050600190039060005260206000200160009091909190915060008201518160000160006101000a81548167ffffffffffffffff021916908367ffffffffffffffff16021790555060208201518160000160086101000a81548163ffffffff021916908363ffffffff160217905550604082015181600001600c6101000a81548160ff021916908360ff1602179055505050600360405180606001604052806303c2670067ffffffffffffffff1681526020016105dc63ffffffff168152602001600360ff168152509080600181540180825580915050600190039060005260206000200160009091909190915060008201518160000160006101000a81548167ffffffffffffffff021916908367ffffffffffffffff16021790555060208201518160000160086101000a81548163ffffffff021916908363ffffffff160217905550604082015181600001600c6101000a81548160ff021916908360ff160217905550505060036040518060600160405280630784ce0067ffffffffffffffff16815260200161083463ffffffff168152602001600360ff168152509080600181540180825580915050600190039060005260206000200160009091909190915060008201518160000160006101000a81548167ffffffffffffffff021916908367ffffffffffffffff16021790555060208201518160000160086101000a81548163ffffffff021916908363ffffffff160217905550604082015181600001600c6101000a81548160ff021916908360ff16021790555050505062000581565b600080fd5b600073ffffffffffffffffffffffffffffffffffffffff82169050919050565b60006200051782620004ea565b9050919050565b62000529816200050a565b81146200053557600080fd5b50565b60008151905062000549816200051e565b92915050565b600060208284031215620005685762000567620004e5565b5b6000620005788482850162000538565b91505092915050565b61286180620005916000396000f3fe608060405234801561001057600080fd5b50600436106100f45760003560e01c8063ce7c2ac211610097578063e2bbb15811610066578063e2bbb1581461029f578063ebf4094c146102bb578063f851a440146102eb578063fc0c546a14610309576100f4565b8063ce7c2ac214610200578063d5002f2e14610230578063d6d681771461024e578063de17057014610281576100f4565b8063704b6c02116100d3578063704b6c021461016357806394f649dd1461017f578063a4f67b8b146101b1578063b9c2c527146101e1576100f4565b8062f714ce146100f9578063039af9eb146101155780631eab87da14610147575b600080fd5b610113600480360381019061010e919061186f565b610327565b005b61012f600480360381019061012a91906118af565b6105f7565b60405161013e9392919061193a565b60405180910390f35b610161600480360381019061015c91906119f5565b61065e565b005b61017d60048036038101906101789190611a5c565b61084e565b005b61019960048036038101906101949190611a5c565b61098e565b6040516101a893929190611c05565b60405180910390f35b6101cb60048036038101906101c691906118af565b610cda565b6040516101d89190611c60565b60405180910390f35b6101e9610d19565b6040516101f7929190611d39565b60405180910390f35b61021a60048036038101906102159190611a5c565b610df8565b6040516102279190611d7f565b60405180910390f35b61023861100d565b6040516102459190611d7f565b60405180910390f35b61026860048036038101906102639190611d9a565b611087565b6040516102789493929190611e3a565b60405180910390f35b61028961117b565b6040516102969190611f70565b60405180910390f35b6102b960048036038101906102b49190611f92565b61124b565b005b6102d560048036038101906102d09190611a5c565b61166e565b6040516102e29190611d7f565b60405180910390f35b6102f3611686565b6040516103009190611c60565b60405180910390f35b6103116116aa565b60405161031e9190612031565b60405180910390f35b600073ffffffffffffffffffffffffffffffffffffffff168173ffffffffffffffffffffffffffffffffffffffff1603610396576040517f08c379a000000000000000000000000000000000000000000000000000000000815260040161038d906120a9565b60405180910390fd5b60005b600260003373ffffffffffffffffffffffffffffffffffffffff1673ffffffffffffffffffffffffffffffffffffffff16815260200190815260200160002080549050811080156103ea5750600083115b156104cf576000600260003373ffffffffffffffffffffffffffffffffffffffff1673ffffffffffffffffffffffffffffffffffffffff1681526020019081526020016000208281548110610442576104416120c9565b5b906000526020600020906003020190508060010160089054906101000a900467ffffffffffffffff1667ffffffffffffffff1642106104bb5760008160000154905084811115610490578490505b808260000160008282546104a49190612127565b9250508190555080856104b79190612127565b9450505b5080806104c79061215b565b915050610399565b506000821115610514576040517f08c379a000000000000000000000000000000000000000000000000000000000815260040161050b906121ef565b60405180910390fd5b600160009054906101000a900473ffffffffffffffffffffffffffffffffffffffff1673ffffffffffffffffffffffffffffffffffffffff1663a9059cbb82846040518363ffffffff1660e01b815260040161057192919061220f565b6020604051808303816000875af1158015610590573d6000803e3d6000fd5b505050506040513d601f19601f820116820180604052508101906105b49190612270565b6105f3576040517f08c379a00000000000000000000000000000000000000000000000000000000081526004016105ea906122e9565b60405180910390fd5b5050565b6003818154811061060757600080fd5b906000526020600020016000915090508060000160009054906101000a900467ffffffffffffffff16908060000160089054906101000a900463ffffffff169080600001600c9054906101000a900460ff16905083565b60008054906101000a900473ffffffffffffffffffffffffffffffffffffffff1673ffffffffffffffffffffffffffffffffffffffff163373ffffffffffffffffffffffffffffffffffffffff16146106ec576040517f08c379a00000000000000000000000000000000000000000000000000000000081526004016106e390612355565b60405180910390fd5b60008263ffffffff1611610735576040517f08c379a000000000000000000000000000000000000000000000000000000000815260040161072c906123e7565b60405180910390fd5b60008367ffffffffffffffff1611610782576040517f08c379a000000000000000000000000000000000000000000000000000000000815260040161077990612479565b60405180910390fd5b60405180606001604052808467ffffffffffffffff1681526020018363ffffffff1681526020018260ff16815250600385815481106107c4576107c36120c9565b5b9060005260206000200160008201518160000160006101000a81548167ffffffffffffffff021916908367ffffffffffffffff16021790555060208201518160000160086101000a81548163ffffffff021916908363ffffffff160217905550604082015181600001600c6101000a81548160ff021916908360ff16021790555090505050505050565b60008054906101000a900473ffffffffffffffffffffffffffffffffffffffff1673ffffffffffffffffffffffffffffffffffffffff163373ffffffffffffffffffffffffffffffffffffffff16146108dc576040517f08c379a00000000000000000000000000000000000000000000000000000000081526004016108d390612355565b60405180910390fd5b600073ffffffffffffffffffffffffffffffffffffffff168173ffffffffffffffffffffffffffffffffffffffff160361094b576040517f08c379a0000000000000000000000000000000000000000000000000000000008152600401610942906120a9565b60405180910390fd5b806000806101000a81548173ffffffffffffffffffffffffffffffffffffffff021916908373ffffffffffffffffffffffffffffffffffffffff16021790555050565b60608060606000600260008673ffffffffffffffffffffffffffffffffffffffff1673ffffffffffffffffffffffffffffffffffffffff1681526020019081526020016000208054905090508067ffffffffffffffff8111156109f4576109f3612499565b5b604051908082528060200260200182016040528015610a225781602001602082028036833780820191505090505b5093508067ffffffffffffffff811115610a3f57610a3e612499565b5b604051908082528060200260200182016040528015610a6d5781602001602082028036833780820191505090505b5092508067ffffffffffffffff811115610a8a57610a89612499565b5b604051908082528060200260200182016040528015610ab85781602001602082028036833780820191505090505b50915060005b81811015610cd1576000600260008873ffffffffffffffffffffffffffffffffffffffff1673ffffffffffffffffffffffffffffffffffffffff1681526020019081526020016000208281548110610b1957610b186120c9565b5b9060005260206000209060030201604051806080016040529081600082015481526020016001820160009054906101000a900467ffffffffffffffff1667ffffffffffffffff1667ffffffffffffffff1681526020016001820160089054906101000a900467ffffffffffffffff1667ffffffffffffffff1667ffffffffffffffff168152602001600282016040518060600160405290816000820160009054906101000a900467ffffffffffffffff1667ffffffffffffffff1667ffffffffffffffff1681526020016000820160089054906101000a900463ffffffff1663ffffffff1663ffffffff16815260200160008201600c9054906101000a900460ff1660ff1660ff16815250508152505090508060000151868381518110610c4357610c426120c9565b5b6020026020010181815250508060200151858381518110610c6757610c666120c9565b5b602002602001019067ffffffffffffffff16908167ffffffffffffffff16815250508060400151848381518110610ca157610ca06120c9565b5b602002602001019067ffffffffffffffff16908167ffffffffffffffff1681525050508080600101915050610abe565b50509193909250565b60058181548110610cea57600080fd5b906000526020600020016000915054906101000a900473ffffffffffffffffffffffffffffffffffffffff1681565b60608060005b600580549050811015610df357600060058281548110610d4257610d416120c9565b5b9060005260206000200160009054906101000a900473ffffffffffffffffffffffffffffffffffffffff16905080848381518110610d8357610d826120c9565b5b602002602001019073ffffffffffffffffffffffffffffffffffffffff16908173ffffffffffffffffffffffffffffffffffffffff1681525050610dc681610df8565b838381518110610dd957610dd86120c9565b5b602002602001018181525050508080600101915050610d1f565b509091565b600080600090505b600260008473ffffffffffffffffffffffffffffffffffffffff1673ffffffffffffffffffffffffffffffffffffffff16815260200190815260200160002080549050811015611007576000600260008573ffffffffffffffffffffffffffffffffffffffff1673ffffffffffffffffffffffffffffffffffffffff1681526020019081526020016000208281548110610e9d57610e9c6120c9565b5b9060005260206000209060030201604051806080016040529081600082015481526020016001820160009054906101000a900467ffffffffffffffff1667ffffffffffffffff1667ffffffffffffffff1681526020016001820160089054906101000a900467ffffffffffffffff1667ffffffffffffffff1667ffffffffffffffff168152602001600282016040518060600160405290816000820160009054906101000a900467ffffffffffffffff1667ffffffffffffffff1667ffffffffffffffff1681526020016000820160089054906101000a900463ffffffff1663ffffffff1663ffffffff16815260200160008201600c9054906101000a900460ff1660ff1660ff1681525050815250509050806060015160400151600a610fc491906125fb565b81606001516020015163ffffffff168260000151610fe29190612646565b610fec91906126b7565b83610ff791906126e8565b9250508080600101915050610e00565b50919050565b600080600090505b6005805490508110156110835761106960058281548110611039576110386120c9565b5b9060005260206000200160009054906101000a900473ffffffffffffffffffffffffffffffffffffffff16610df8565b8261107491906126e8565b91508080600101915050611015565b5090565b600260205281600052604060002081815481106110a357600080fd5b9060005260206000209060030201600091509150508060000154908060010160009054906101000a900467ffffffffffffffff16908060010160089054906101000a900467ffffffffffffffff1690806002016040518060600160405290816000820160009054906101000a900467ffffffffffffffff1667ffffffffffffffff1667ffffffffffffffff1681526020016000820160089054906101000a900463ffffffff1663ffffffff1663ffffffff16815260200160008201600c9054906101000a900460ff1660ff1660ff1681525050905084565b60606003805480602002602001604051908101604052809291908181526020016000905b82821015611242578382906000526020600020016040518060600160405290816000820160009054906101000a900467ffffffffffffffff1667ffffffffffffffff1667ffffffffffffffff1681526020016000820160089054906101000a900463ffffffff1663ffffffff1663ffffffff16815260200160008201600c9054906101000a900460ff1660ff1660ff16815250508152602001906001019061119f565b50505050905090565b600060038281548110611261576112606120c9565b5b9060005260206000200160000160009054906101000a900467ffffffffffffffff1667ffffffffffffffff16116112cd576040517f08c379a00000000000000000000000000000000000000000000000000000000081526004016112c490612768565b60405180910390fd5b60008211611310576040517f08c379a0000000000000000000000000000000000000000000000000000000008152600401611307906127d4565b60405180910390fd5b600260003373ffffffffffffffffffffffffffffffffffffffff1673ffffffffffffffffffffffffffffffffffffffff16815260200190815260200160002060405180608001604052808481526020014267ffffffffffffffff16815260200160038481548110611384576113836120c9565b5b9060005260206000200160000160009054906101000a900467ffffffffffffffff1667ffffffffffffffff16426113bb91906126e8565b67ffffffffffffffff168152602001600384815481106113de576113dd6120c9565b5b906000526020600020016040518060600160405290816000820160009054906101000a900467ffffffffffffffff1667ffffffffffffffff1667ffffffffffffffff1681526020016000820160089054906101000a900463ffffffff1663ffffffff1663ffffffff16815260200160008201600c9054906101000a900460ff1660ff1660ff168152505081525090806001815401808255809150506001900390600052602060002090600302016000909190919091506000820151816000015560208201518160010160006101000a81548167ffffffffffffffff021916908367ffffffffffffffff16021790555060408201518160010160086101000a81548167ffffffffffffffff021916908367ffffffffffffffff16021790555060608201518160020160008201518160000160006101000a81548167ffffffffffffffff021916908367ffffffffffffffff16021790555060208201518160000160086101000a81548163ffffffff021916908363ffffffff160217905550604082015181600001600c6101000a81548160ff021916908360ff16021790555050505050611589336116d0565b600160009054906101000a900473ffffffffffffffffffffffffffffffffffffffff1673ffffffffffffffffffffffffffffffffffffffff166323b872dd3330856040518463ffffffff1660e01b81526004016115e8939291906127f4565b6020604051808303816000875af1158015611607573d6000803e3d6000fd5b505050506040513d601f19601f8201168201806040525081019061162b9190612270565b61166a576040517f08c379a0000000000000000000000000000000000000000000000000000000008152600401611661906122e9565b60405180910390fd5b5050565b60046020528060005260406000206000915090505481565b60008054906101000a900473ffffffffffffffffffffffffffffffffffffffff1681565b600160009054906101000a900473ffffffffffffffffffffffffffffffffffffffff1681565b6000805b600580549050811015611768578273ffffffffffffffffffffffffffffffffffffffff166005828154811061170c5761170b6120c9565b5b9060005260206000200160009054906101000a900473ffffffffffffffffffffffffffffffffffffffff1673ffffffffffffffffffffffffffffffffffffffff160361175b5760019150611768565b80806001019150506116d4565b50806117d2576005829080600181540180825580915050600190039060005260206000200160009091909190916101000a81548173ffffffffffffffffffffffffffffffffffffffff021916908373ffffffffffffffffffffffffffffffffffffffff1602179055505b5050565b600080fd5b6000819050919050565b6117ee816117db565b81146117f957600080fd5b50565b60008135905061180b816117e5565b92915050565b600073ffffffffffffffffffffffffffffffffffffffff82169050919050565b600061183c82611811565b9050919050565b61184c81611831565b811461185757600080fd5b50565b60008135905061186981611843565b92915050565b60008060408385031215611886576118856117d6565b5b6000611894858286016117fc565b92505060206118a58582860161185a565b9150509250929050565b6000602082840312156118c5576118c46117d6565b5b60006118d3848285016117fc565b91505092915050565b600067ffffffffffffffff82169050919050565b6118f9816118dc565b82525050565b600063ffffffff82169050919050565b611918816118ff565b82525050565b600060ff82169050919050565b6119348161191e565b82525050565b600060608201905061194f60008301866118f0565b61195c602083018561190f565b611969604083018461192b565b949350505050565b61197a816118dc565b811461198557600080fd5b50565b60008135905061199781611971565b92915050565b6119a6816118ff565b81146119b157600080fd5b50565b6000813590506119c38161199d565b92915050565b6119d28161191e565b81146119dd57600080fd5b50565b6000813590506119ef816119c9565b92915050565b60008060008060808587031215611a0f57611a0e6117d6565b5b6000611a1d878288016117fc565b9450506020611a2e87828801611988565b9350506040611a3f878288016119b4565b9250506060611a50878288016119e0565b91505092959194509250565b600060208284031215611a7257611a716117d6565b5b6000611a808482850161185a565b91505092915050565b600081519050919050565b600082825260208201905092915050565b6000819050602082019050919050565b611abe816117db565b82525050565b6000611ad08383611ab5565b60208301905092915050565b6000602082019050919050565b6000611af482611a89565b611afe8185611a94565b9350611b0983611aa5565b8060005b83811015611b3a578151611b218882611ac4565b9750611b2c83611adc565b925050600181019050611b0d565b5085935050505092915050565b600081519050919050565b600082825260208201905092915050565b6000819050602082019050919050565b611b7c816118dc565b82525050565b6000611b8e8383611b73565b60208301905092915050565b6000602082019050919050565b6000611bb282611b47565b611bbc8185611b52565b9350611bc783611b63565b8060005b83811015611bf8578151611bdf8882611b82565b9750611bea83611b9a565b925050600181019050611bcb565b5085935050505092915050565b60006060820190508181036000830152611c1f8186611ae9565b90508181036020830152611c338185611ba7565b90508181036040830152611c478184611ba7565b9050949350505050565b611c5a81611831565b82525050565b6000602082019050611c756000830184611c51565b92915050565b600081519050919050565b600082825260208201905092915050565b6000819050602082019050919050565b611cb081611831565b82525050565b6000611cc28383611ca7565b60208301905092915050565b6000602082019050919050565b6000611ce682611c7b565b611cf08185611c86565b9350611cfb83611c97565b8060005b83811015611d2c578151611d138882611cb6565b9750611d1e83611cce565b925050600181019050611cff565b5085935050505092915050565b60006040820190508181036000830152611d538185611cdb565b90508181036020830152611d678184611ae9565b90509392505050565b611d79816117db565b82525050565b6000602082019050611d946000830184611d70565b92915050565b60008060408385031215611db157611db06117d6565b5b6000611dbf8582860161185a565b9250506020611dd0858286016117fc565b9150509250929050565b611de3816118ff565b82525050565b611df28161191e565b82525050565b606082016000820151611e0e6000850182611b73565b506020820151611e216020850182611dda565b506040820151611e346040850182611de9565b50505050565b600060c082019050611e4f6000830187611d70565b611e5c60208301866118f0565b611e6960408301856118f0565b611e766060830184611df8565b95945050505050565b600081519050919050565b600082825260208201905092915050565b6000819050602082019050919050565b606082016000820151611ec16000850182611b73565b506020820151611ed46020850182611dda565b506040820151611ee76040850182611de9565b50505050565b6000611ef98383611eab565b60608301905092915050565b6000602082019050919050565b6000611f1d82611e7f565b611f278185611e8a565b9350611f3283611e9b565b8060005b83811015611f63578151611f4a8882611eed565b9750611f5583611f05565b925050600181019050611f36565b5085935050505092915050565b60006020820190508181036000830152611f8a8184611f12565b905092915050565b60008060408385031215611fa957611fa86117d6565b5b6000611fb7858286016117fc565b9250506020611fc8858286016117fc565b9150509250929050565b6000819050919050565b6000611ff7611ff2611fed84611811565b611fd2565b611811565b9050919050565b600061200982611fdc565b9050919050565b600061201b82611ffe565b9050919050565b61202b81612010565b82525050565b60006020820190506120466000830184612022565b92915050565b600082825260208201905092915050565b7f496e76616c696420616464726573730000000000000000000000000000000000600082015250565b6000612093600f8361204c565b915061209e8261205d565b602082019050919050565b600060208201905081810360008301526120c281612086565b9050919050565b7f4e487b7100000000000000000000000000000000000000000000000000000000600052603260045260246000fd5b7f4e487b7100000000000000000000000000000000000000000000000000000000600052601160045260246000fd5b6000612132826117db565b915061213d836117db565b9250828203905081811115612155576121546120f8565b5b92915050565b6000612166826117db565b91507fffffffffffffffffffffffffffffffffffffffffffffffffffffffffffffffff8203612198576121976120f8565b5b600182019050919050565b7f496e73756666696369656e742062616c616e6365000000000000000000000000600082015250565b60006121d960148361204c565b91506121e4826121a3565b602082019050919050565b60006020820190508181036000830152612208816121cc565b9050919050565b60006040820190506122246000830185611c51565b6122316020830184611d70565b9392505050565b60008115159050919050565b61224d81612238565b811461225857600080fd5b50565b60008151905061226a81612244565b92915050565b600060208284031215612286576122856117d6565b5b60006122948482850161225b565b91505092915050565b7f5472616e73666572206661696c65640000000000000000000000000000000000600082015250565b60006122d3600f8361204c565b91506122de8261229d565b602082019050919050565b60006020820190508181036000830152612302816122c6565b9050919050565b7f4e6f742061646d696e0000000000000000000000000000000000000000000000600082015250565b600061233f60098361204c565b915061234a82612309565b602082019050919050565b6000602082019050818103600083015261236e81612332565b9050919050565b7f4d756c7469706c696572206d7573742062652067726561746572207468616e2060008201527f3000000000000000000000000000000000000000000000000000000000000000602082015250565b60006123d160218361204c565b91506123dc82612375565b604082019050919050565b60006020820190508181036000830152612400816123c4565b9050919050565b7f4c6f636b75702074696d65206d7573742062652067726561746572207468616e60008201527f2030000000000000000000000000000000000000000000000000000000000000602082015250565b600061246360228361204c565b915061246e82612407565b604082019050919050565b6000602082019050818103600083015261249281612456565b9050919050565b7f4e487b7100000000000000000000000000000000000000000000000000000000600052604160045260246000fd5b60008160011c9050919050565b6000808291508390505b600185111561251f578086048111156124fb576124fa6120f8565b5b600185161561250a5780820291505b8081029050612518856124c8565b94506124df565b94509492505050565b60008261253857600190506125f4565b8161254657600090506125f4565b816001811461255c576002811461256657612595565b60019150506125f4565b60ff841115612578576125776120f8565b5b8360020a91508482111561258f5761258e6120f8565b5b506125f4565b5060208310610133831016604e8410600b84101617156125ca5782820a9050838111156125c5576125c46120f8565b5b6125f4565b6125d784848460016124d5565b925090508184048111156125ee576125ed6120f8565b5b81810290505b9392505050565b6000612606826117db565b91506126118361191e565b925061263e7fffffffffffffffffffffffffffffffffffffffffffffffffffffffffffffffff8484612528565b905092915050565b6000612651826117db565b915061265c836117db565b925082820261266a816117db565b91508282048414831517612681576126806120f8565b5b5092915050565b7f4e487b7100000000000000000000000000000000000000000000000000000000600052601260045260246000fd5b60006126c2826117db565b91506126cd836117db565b9250826126dd576126dc612688565b5b828204905092915050565b60006126f3826117db565b91506126fe836117db565b9250828201905080821115612716576127156120f8565b5b92915050565b7f496e76616c696420746965720000000000000000000000000000000000000000600082015250565b6000612752600c8361204c565b915061275d8261271c565b602082019050919050565b6000602082019050818103600083015261278181612745565b9050919050565b7f416d6f756e742072657175697265640000000000000000000000000000000000600082015250565b60006127be600f8361204c565b91506127c982612788565b602082019050919050565b600060208201905081810360008301526127ed816127b1565b9050919050565b60006060820190506128096000830186611c51565b6128166020830185611c51565b6128236040830184611d70565b94935050505056fea2646970667358221220319a5ae4e9bca37290a6c5ffdd842e076db872a536983108f64fc44cdfd2c56064736f6c63430008180033",
  "linkReferences": {},
  "deployedLinkReferences": {}
}