{
  "_format": "hh-sol-artifact-1",
  "contractName": "StakingVault",
  "sourceName": "contracts/StakingVault.sol",
  "abi": [
    {
      "inputs": [
        {
          "internalType": "address",
          "name": "tokenAddress",
          "type": "address"
        }
      ],
      "stateMutability": "nonpayable",
      "type": "constructor"
    },
    {
      "inputs": [],
      "name": "admin",
      "outputs": [
        {
          "internalType": "address",
          "name": "",
          "type": "address"
        }
      ],
      "stateMutability": "view",
      "type": "function"
    },
    {
      "inputs": [
        {
          "internalType": "address",
          "name": "",
          "type": "address"
        }
      ],
      "name": "claimableEarnings",
      "outputs": [
        {
          "internalType": "uint256",
          "name": "",
          "type": "uint256"
        }
      ],
      "stateMutability": "view",
      "type": "function"
    },
    {
      "inputs": [
        {
          "internalType": "uint256",
          "name": "amount",
          "type": "uint256"
        },
        {
          "internalType": "uint256",
          "name": "tierId",
          "type": "uint256"
        }
      ],
      "name": "deposit",
      "outputs": [],
      "stateMutability": "nonpayable",
      "type": "function"
    },
    {
      "inputs": [
        {
          "internalType": "address",
          "name": "",
          "type": "address"
        },
        {
          "internalType": "uint256",
          "name": "",
          "type": "uint256"
        }
      ],
      "name": "deposits",
      "outputs": [
        {
          "internalType": "uint256",
          "name": "amount",
          "type": "uint256"
        },
        {
          "internalType": "uint64",
          "name": "timestamp",
          "type": "uint64"
        },
        {
          "internalType": "uint64",
          "name": "lockupTime",
          "type": "uint64"
        }
      ],
      "stateMutability": "view",
      "type": "function"
    },
    {
      "inputs": [
        {
          "internalType": "address",
          "name": "account",
          "type": "address"
        }
      ],
      "name": "getDeposits",
      "outputs": [
        {
          "internalType": "uint256[]",
          "name": "amounts",
          "type": "uint256[]"
        },
        {
          "internalType": "uint64[]",
          "name": "timestamps",
          "type": "uint64[]"
        },
        {
          "internalType": "uint64[]",
          "name": "lockupTimes",
          "type": "uint64[]"
        }
      ],
      "stateMutability": "view",
      "type": "function"
    },
    {
      "inputs": [],
      "name": "getTotalShares",
      "outputs": [
        {
          "internalType": "uint256",
          "name": "_totalShares",
          "type": "uint256"
        }
      ],
      "stateMutability": "view",
      "type": "function"
    },
    {
      "inputs": [
        {
          "internalType": "address",
          "name": "newAdmin",
          "type": "address"
        }
      ],
      "name": "setAdmin",
      "outputs": [],
      "stateMutability": "nonpayable",
      "type": "function"
    },
    {
      "inputs": [
        {
          "internalType": "uint256",
          "name": "_tierId",
          "type": "uint256"
        },
        {
          "internalType": "uint64",
          "name": "lockupTime",
          "type": "uint64"
        },
        {
          "internalType": "uint32",
          "name": "multiplier",
          "type": "uint32"
        },
        {
          "internalType": "uint8",
          "name": "multiplierDecimals",
          "type": "uint8"
        }
      ],
      "name": "setTier",
      "outputs": [],
      "stateMutability": "nonpayable",
      "type": "function"
    },
    {
      "inputs": [
        {
          "internalType": "address",
          "name": "account",
          "type": "address"
        }
      ],
      "name": "shares",
      "outputs": [
        {
          "internalType": "uint256",
          "name": "totalShares",
          "type": "uint256"
        }
      ],
      "stateMutability": "view",
      "type": "function"
    },
    {
      "inputs": [],
      "name": "sharesPerUser",
      "outputs": [
        {
          "internalType": "address[]",
          "name": "users",
          "type": "address[]"
        },
        {
          "internalType": "uint256[]",
          "name": "userShares",
          "type": "uint256[]"
        }
      ],
      "stateMutability": "view",
      "type": "function"
    },
    {
      "inputs": [
        {
          "internalType": "uint256",
          "name": "",
          "type": "uint256"
        }
      ],
      "name": "tiers",
      "outputs": [
        {
          "internalType": "uint64",
          "name": "lockupTime",
          "type": "uint64"
        },
        {
          "internalType": "uint32",
          "name": "multiplier",
          "type": "uint32"
        },
        {
          "internalType": "uint8",
          "name": "multiplierDecimals",
          "type": "uint8"
        }
      ],
      "stateMutability": "view",
      "type": "function"
    },
    {
      "inputs": [],
      "name": "token",
      "outputs": [
        {
          "internalType": "contract IERC20",
          "name": "",
          "type": "address"
        }
      ],
      "stateMutability": "view",
      "type": "function"
    },
    {
      "inputs": [
        {
          "internalType": "uint256",
          "name": "",
          "type": "uint256"
        }
      ],
      "name": "totalUsers",
      "outputs": [
        {
          "internalType": "address",
          "name": "",
          "type": "address"
        }
      ],
      "stateMutability": "view",
      "type": "function"
    },
    {
      "inputs": [
        {
          "internalType": "uint256",
          "name": "amount",
          "type": "uint256"
        },
        {
          "internalType": "address",
          "name": "to",
          "type": "address"
        }
      ],
      "name": "withdraw",
      "outputs": [],
      "stateMutability": "nonpayable",
      "type": "function"
    }
  ],
  "bytecode": "0x60806040523480156200001157600080fd5b5060405162002874380380620028748339818101604052810190620000379190620003a5565b336000806101000a81548173ffffffffffffffffffffffffffffffffffffffff021916908373ffffffffffffffffffffffffffffffffffffffff16021790555080600160006101000a81548173ffffffffffffffffffffffffffffffffffffffff021916908373ffffffffffffffffffffffffffffffffffffffff160217905550600360405180606001604052806213c68067ffffffffffffffff1681526020016103e863ffffffff168152602001600360ff168152509080600181540180825580915050600190039060005260206000200160009091909190915060008201518160000160006101000a81548167ffffffffffffffff021916908367ffffffffffffffff16021790555060208201518160000160086101000a81548163ffffffff021916908363ffffffff160217905550604082015181600001600c6101000a81548160ff021916908360ff16021790555050506003604051806060016040528062278d0067ffffffffffffffff1681526020016104e263ffffffff168152602001600360ff168152509080600181540180825580915050600190039060005260206000200160009091909190915060008201518160000160006101000a81548167ffffffffffffffff021916908367ffffffffffffffff16021790555060208201518160000160086101000a81548163ffffffff021916908363ffffffff160217905550604082015181600001600c6101000a81548160ff021916908360ff160217905550505060036040518060600160405280624f1a0067ffffffffffffffff1681526020016105dc63ffffffff168152602001600360ff168152509080600181540180825580915050600190039060005260206000200160009091909190915060008201518160000160006101000a81548167ffffffffffffffff021916908367ffffffffffffffff16021790555060208201518160000160086101000a81548163ffffffff021916908363ffffffff160217905550604082015181600001600c6101000a81548160ff021916908360ff160217905550505050620003d7565b600080fd5b600073ffffffffffffffffffffffffffffffffffffffff82169050919050565b60006200036d8262000340565b9050919050565b6200037f8162000360565b81146200038b57600080fd5b50565b6000815190506200039f8162000374565b92915050565b600060208284031215620003be57620003bd6200033b565b5b6000620003ce848285016200038e565b91505092915050565b61248d80620003e76000396000f3fe608060405234801561001057600080fd5b50600436106100e95760003560e01c8063ce7c2ac21161008c578063e2bbb15811610066578063e2bbb15814610275578063ebf4094c14610291578063f851a440146102c1578063fc0c546a146102df576100e9565b8063ce7c2ac2146101f5578063d5002f2e14610225578063d6d6817714610243576100e9565b8063704b6c02116100c8578063704b6c021461015857806394f649dd14610174578063a4f67b8b146101a6578063b9c2c527146101d6576100e9565b8062f714ce146100ee578063039af9eb1461010a5780631eab87da1461013c575b600080fd5b610108600480360381019061010391906115e7565b6102fd565b005b610124600480360381019061011f9190611627565b6105f0565b604051610133939291906116b2565b60405180910390f35b6101566004803603810190610151919061176d565b610657565b005b610172600480360381019061016d91906117d4565b610847565b005b61018e600480360381019061018991906117d4565b610987565b60405161019d9392919061197d565b60405180910390f35b6101c060048036038101906101bb9190611627565b610bff565b6040516101cd91906119d8565b60405180910390f35b6101de610c3e565b6040516101ec929190611ab1565b60405180910390f35b61020f600480360381019061020a91906117d4565b610d1d565b60405161021c9190611af7565b60405180910390f35b61022d610ec4565b60405161023a9190611af7565b60405180910390f35b61025d60048036038101906102589190611b12565b610f3e565b60405161026c93929190611b52565b60405180910390f35b61028f600480360381019061028a9190611b89565b610fad565b005b6102ab60048036038101906102a691906117d4565b611253565b6040516102b89190611af7565b60405180910390f35b6102c961126b565b6040516102d691906119d8565b60405180910390f35b6102e761128f565b6040516102f49190611c28565b60405180910390f35b600073ffffffffffffffffffffffffffffffffffffffff168173ffffffffffffffffffffffffffffffffffffffff160361036c576040517f08c379a000000000000000000000000000000000000000000000000000000000815260040161036390611ca0565b60405180910390fd5b60005b600260003373ffffffffffffffffffffffffffffffffffffffff1673ffffffffffffffffffffffffffffffffffffffff16815260200190815260200160002080549050811080156103c05750600083115b156104c8576000600260003373ffffffffffffffffffffffffffffffffffffffff1673ffffffffffffffffffffffffffffffffffffffff168152602001908152602001600020828154811061041857610417611cc0565b5b906000526020600020906002020190508060010160089054906101000a900467ffffffffffffffff168160010160009054906101000a900467ffffffffffffffff166104649190611d1e565b67ffffffffffffffff1642106104b45760008160000154905084811115610489578490505b8082600001600082825461049d9190611d5a565b9250508190555080856104b09190611d5a565b9450505b5080806104c090611d8e565b91505061036f565b50600082111561050d576040517f08c379a000000000000000000000000000000000000000000000000000000000815260040161050490611e22565b60405180910390fd5b600160009054906101000a900473ffffffffffffffffffffffffffffffffffffffff1673ffffffffffffffffffffffffffffffffffffffff1663a9059cbb82846040518363ffffffff1660e01b815260040161056a929190611e42565b6020604051808303816000875af1158015610589573d6000803e3d6000fd5b505050506040513d601f19601f820116820180604052508101906105ad9190611ea3565b6105ec576040517f08c379a00000000000000000000000000000000000000000000000000000000081526004016105e390611f1c565b60405180910390fd5b5050565b6003818154811061060057600080fd5b906000526020600020016000915090508060000160009054906101000a900467ffffffffffffffff16908060000160089054906101000a900463ffffffff169080600001600c9054906101000a900460ff16905083565b60008054906101000a900473ffffffffffffffffffffffffffffffffffffffff1673ffffffffffffffffffffffffffffffffffffffff163373ffffffffffffffffffffffffffffffffffffffff16146106e5576040517f08c379a00000000000000000000000000000000000000000000000000000000081526004016106dc90611f88565b60405180910390fd5b60008263ffffffff161161072e576040517f08c379a00000000000000000000000000000000000000000000000000000000081526004016107259061201a565b60405180910390fd5b60008367ffffffffffffffff161161077b576040517f08c379a0000000000000000000000000000000000000000000000000000000008152600401610772906120ac565b60405180910390fd5b60405180606001604052808467ffffffffffffffff1681526020018363ffffffff1681526020018260ff16815250600385815481106107bd576107bc611cc0565b5b9060005260206000200160008201518160000160006101000a81548167ffffffffffffffff021916908367ffffffffffffffff16021790555060208201518160000160086101000a81548163ffffffff021916908363ffffffff160217905550604082015181600001600c6101000a81548160ff021916908360ff16021790555090505050505050565b60008054906101000a900473ffffffffffffffffffffffffffffffffffffffff1673ffffffffffffffffffffffffffffffffffffffff163373ffffffffffffffffffffffffffffffffffffffff16146108d5576040517f08c379a00000000000000000000000000000000000000000000000000000000081526004016108cc90611f88565b60405180910390fd5b600073ffffffffffffffffffffffffffffffffffffffff168173ffffffffffffffffffffffffffffffffffffffff1603610944576040517f08c379a000000000000000000000000000000000000000000000000000000000815260040161093b90611ca0565b60405180910390fd5b806000806101000a81548173ffffffffffffffffffffffffffffffffffffffff021916908373ffffffffffffffffffffffffffffffffffffffff16021790555050565b60608060606000600260008673ffffffffffffffffffffffffffffffffffffffff1673ffffffffffffffffffffffffffffffffffffffff1681526020019081526020016000208054905090508067ffffffffffffffff8111156109ed576109ec6120cc565b5b604051908082528060200260200182016040528015610a1b5781602001602082028036833780820191505090505b5093508067ffffffffffffffff811115610a3857610a376120cc565b5b604051908082528060200260200182016040528015610a665781602001602082028036833780820191505090505b50925060005b81811015610bf6576000600260008873ffffffffffffffffffffffffffffffffffffffff1673ffffffffffffffffffffffffffffffffffffffff1681526020019081526020016000208281548110610ac757610ac6611cc0565b5b9060005260206000209060020201604051806060016040529081600082015481526020016001820160009054906101000a900467ffffffffffffffff1667ffffffffffffffff1667ffffffffffffffff1681526020016001820160089054906101000a900467ffffffffffffffff1667ffffffffffffffff1667ffffffffffffffff168152505090508060000151868381518110610b6857610b67611cc0565b5b6020026020010181815250508060200151858381518110610b8c57610b8b611cc0565b5b602002602001019067ffffffffffffffff16908167ffffffffffffffff16815250508060400151848381518110610bc657610bc5611cc0565b5b602002602001019067ffffffffffffffff16908167ffffffffffffffff1681525050508080600101915050610a6c565b50509193909250565b60058181548110610c0f57600080fd5b906000526020600020016000915054906101000a900473ffffffffffffffffffffffffffffffffffffffff1681565b60608060005b600580549050811015610d1857600060058281548110610c6757610c66611cc0565b5b9060005260206000200160009054906101000a900473ffffffffffffffffffffffffffffffffffffffff16905080848381518110610ca857610ca7611cc0565b5b602002602001019073ffffffffffffffffffffffffffffffffffffffff16908173ffffffffffffffffffffffffffffffffffffffff1681525050610ceb81610d1d565b838381518110610cfe57610cfd611cc0565b5b602002602001018181525050508080600101915050610c44565b509091565b600080600090505b600260008473ffffffffffffffffffffffffffffffffffffffff1673ffffffffffffffffffffffffffffffffffffffff16815260200190815260200160002080549050811015610ebe576000600260008573ffffffffffffffffffffffffffffffffffffffff1673ffffffffffffffffffffffffffffffffffffffff1681526020019081526020016000208281548110610dc257610dc1611cc0565b5b9060005260206000209060020201604051806060016040529081600082015481526020016001820160009054906101000a900467ffffffffffffffff1667ffffffffffffffff1667ffffffffffffffff1681526020016001820160089054906101000a900467ffffffffffffffff1667ffffffffffffffff1667ffffffffffffffff168152505090506000816020015142610e5d91906120fb565b90506000610e6a826112b5565b90508060400151600a610e7d919061226a565b816020015163ffffffff168460000151610e9791906122b5565b610ea19190612326565b85610eac9190612357565b94505050508080600101915050610d25565b50919050565b600080600090505b600580549050811015610f3a57610f2060058281548110610ef057610eef611cc0565b5b9060005260206000200160009054906101000a900473ffffffffffffffffffffffffffffffffffffffff16610d1d565b82610f2b9190612357565b91508080600101915050610ecc565b5090565b60026020528160005260406000208181548110610f5a57600080fd5b9060005260206000209060020201600091509150508060000154908060010160009054906101000a900467ffffffffffffffff16908060010160089054906101000a900467ffffffffffffffff16905083565b600060038281548110610fc357610fc2611cc0565b5b9060005260206000200160000160009054906101000a900467ffffffffffffffff1667ffffffffffffffff161161102f576040517f08c379a0000000000000000000000000000000000000000000000000000000008152600401611026906123d7565b60405180910390fd5b600260003373ffffffffffffffffffffffffffffffffffffffff1673ffffffffffffffffffffffffffffffffffffffff16815260200190815260200160002060405180606001604052808481526020014267ffffffffffffffff168152602001600384815481106110a3576110a2611cc0565b5b9060005260206000200160000160009054906101000a900467ffffffffffffffff1667ffffffffffffffff1681525090806001815401808255809150506001900390600052602060002090600202016000909190919091506000820151816000015560208201518160010160006101000a81548167ffffffffffffffff021916908367ffffffffffffffff16021790555060408201518160010160086101000a81548167ffffffffffffffff021916908367ffffffffffffffff160217905550505061116e33611414565b600160009054906101000a900473ffffffffffffffffffffffffffffffffffffffff1673ffffffffffffffffffffffffffffffffffffffff166323b872dd3330856040518463ffffffff1660e01b81526004016111cd939291906123f7565b6020604051808303816000875af11580156111ec573d6000803e3d6000fd5b505050506040513d601f19601f820116820180604052508101906112109190611ea3565b61124f576040517f08c379a000000000000000000000000000000000000000000000000000000000815260040161124690611f1c565b60405180910390fd5b5050565b60046020528060005260406000206000915090505481565b60008054906101000a900473ffffffffffffffffffffffffffffffffffffffff1681565b600160009054906101000a900473ffffffffffffffffffffffffffffffffffffffff1681565b6112bd61151a565b600060038054905090505b600081146113d9578267ffffffffffffffff16600382815481106112ef576112ee611cc0565b5b9060005260206000200160000160009054906101000a900467ffffffffffffffff1667ffffffffffffffff16116113c6576003818154811061133457611333611cc0565b5b906000526020600020016040518060600160405290816000820160009054906101000a900467ffffffffffffffff1667ffffffffffffffff1667ffffffffffffffff1681526020016000820160089054906101000a900463ffffffff1663ffffffff1663ffffffff16815260200160008201600c9054906101000a900460ff1660ff1660ff168152505091505061140f565b80806113d19061242e565b9150506112c8565b506040518060600160405280600067ffffffffffffffff1681526020016103e863ffffffff168152602001600360ff1681525090505b919050565b6000805b6005805490508110156114ac578273ffffffffffffffffffffffffffffffffffffffff16600582815481106114505761144f611cc0565b5b9060005260206000200160009054906101000a900473ffffffffffffffffffffffffffffffffffffffff1673ffffffffffffffffffffffffffffffffffffffff160361149f57600191506114ac565b8080600101915050611418565b5080611516576005829080600181540180825580915050600190039060005260206000200160009091909190916101000a81548173ffffffffffffffffffffffffffffffffffffffff021916908373ffffffffffffffffffffffffffffffffffffffff1602179055505b5050565b6040518060600160405280600067ffffffffffffffff168152602001600063ffffffff168152602001600060ff1681525090565b600080fd5b6000819050919050565b61156681611553565b811461157157600080fd5b50565b6000813590506115838161155d565b92915050565b600073ffffffffffffffffffffffffffffffffffffffff82169050919050565b60006115b482611589565b9050919050565b6115c4816115a9565b81146115cf57600080fd5b50565b6000813590506115e1816115bb565b92915050565b600080604083850312156115fe576115fd61154e565b5b600061160c85828601611574565b925050602061161d858286016115d2565b9150509250929050565b60006020828403121561163d5761163c61154e565b5b600061164b84828501611574565b91505092915050565b600067ffffffffffffffff82169050919050565b61167181611654565b82525050565b600063ffffffff82169050919050565b61169081611677565b82525050565b600060ff82169050919050565b6116ac81611696565b82525050565b60006060820190506116c76000830186611668565b6116d46020830185611687565b6116e160408301846116a3565b949350505050565b6116f281611654565b81146116fd57600080fd5b50565b60008135905061170f816116e9565b92915050565b61171e81611677565b811461172957600080fd5b50565b60008135905061173b81611715565b92915050565b61174a81611696565b811461175557600080fd5b50565b60008135905061176781611741565b92915050565b600080600080608085870312156117875761178661154e565b5b600061179587828801611574565b94505060206117a687828801611700565b93505060406117b78782880161172c565b92505060606117c887828801611758565b91505092959194509250565b6000602082840312156117ea576117e961154e565b5b60006117f8848285016115d2565b91505092915050565b600081519050919050565b600082825260208201905092915050565b6000819050602082019050919050565b61183681611553565b82525050565b6000611848838361182d565b60208301905092915050565b6000602082019050919050565b600061186c82611801565b611876818561180c565b93506118818361181d565b8060005b838110156118b2578151611899888261183c565b97506118a483611854565b925050600181019050611885565b5085935050505092915050565b600081519050919050565b600082825260208201905092915050565b6000819050602082019050919050565b6118f481611654565b82525050565b600061190683836118eb565b60208301905092915050565b6000602082019050919050565b600061192a826118bf565b61193481856118ca565b935061193f836118db565b8060005b8381101561197057815161195788826118fa565b975061196283611912565b925050600181019050611943565b5085935050505092915050565b600060608201905081810360008301526119978186611861565b905081810360208301526119ab818561191f565b905081810360408301526119bf818461191f565b9050949350505050565b6119d2816115a9565b82525050565b60006020820190506119ed60008301846119c9565b92915050565b600081519050919050565b600082825260208201905092915050565b6000819050602082019050919050565b611a28816115a9565b82525050565b6000611a3a8383611a1f565b60208301905092915050565b6000602082019050919050565b6000611a5e826119f3565b611a6881856119fe565b9350611a7383611a0f565b8060005b83811015611aa4578151611a8b8882611a2e565b9750611a9683611a46565b925050600181019050611a77565b5085935050505092915050565b60006040820190508181036000830152611acb8185611a53565b90508181036020830152611adf8184611861565b90509392505050565b611af181611553565b82525050565b6000602082019050611b0c6000830184611ae8565b92915050565b60008060408385031215611b2957611b2861154e565b5b6000611b37858286016115d2565b9250506020611b4885828601611574565b9150509250929050565b6000606082019050611b676000830186611ae8565b611b746020830185611668565b611b816040830184611668565b949350505050565b60008060408385031215611ba057611b9f61154e565b5b6000611bae85828601611574565b9250506020611bbf85828601611574565b9150509250929050565b6000819050919050565b6000611bee611be9611be484611589565b611bc9565b611589565b9050919050565b6000611c0082611bd3565b9050919050565b6000611c1282611bf5565b9050919050565b611c2281611c07565b82525050565b6000602082019050611c3d6000830184611c19565b92915050565b600082825260208201905092915050565b7f496e76616c696420616464726573730000000000000000000000000000000000600082015250565b6000611c8a600f83611c43565b9150611c9582611c54565b602082019050919050565b60006020820190508181036000830152611cb981611c7d565b9050919050565b7f4e487b7100000000000000000000000000000000000000000000000000000000600052603260045260246000fd5b7f4e487b7100000000000000000000000000000000000000000000000000000000600052601160045260246000fd5b6000611d2982611654565b9150611d3483611654565b9250828201905067ffffffffffffffff811115611d5457611d53611cef565b5b92915050565b6000611d6582611553565b9150611d7083611553565b9250828203905081811115611d8857611d87611cef565b5b92915050565b6000611d9982611553565b91507fffffffffffffffffffffffffffffffffffffffffffffffffffffffffffffffff8203611dcb57611dca611cef565b5b600182019050919050565b7f496e73756666696369656e742062616c616e6365000000000000000000000000600082015250565b6000611e0c601483611c43565b9150611e1782611dd6565b602082019050919050565b60006020820190508181036000830152611e3b81611dff565b9050919050565b6000604082019050611e5760008301856119c9565b611e646020830184611ae8565b9392505050565b60008115159050919050565b611e8081611e6b565b8114611e8b57600080fd5b50565b600081519050611e9d81611e77565b92915050565b600060208284031215611eb957611eb861154e565b5b6000611ec784828501611e8e565b91505092915050565b7f5472616e73666572206661696c65640000000000000000000000000000000000600082015250565b6000611f06600f83611c43565b9150611f1182611ed0565b602082019050919050565b60006020820190508181036000830152611f3581611ef9565b9050919050565b7f4e6f742061646d696e0000000000000000000000000000000000000000000000600082015250565b6000611f72600983611c43565b9150611f7d82611f3c565b602082019050919050565b60006020820190508181036000830152611fa181611f65565b9050919050565b7f4d756c7469706c696572206d7573742062652067726561746572207468616e2060008201527f3000000000000000000000000000000000000000000000000000000000000000602082015250565b6000612004602183611c43565b915061200f82611fa8565b604082019050919050565b6000602082019050818103600083015261203381611ff7565b9050919050565b7f4c6f636b75702074696d65206d7573742062652067726561746572207468616e60008201527f2030000000000000000000000000000000000000000000000000000000000000602082015250565b6000612096602283611c43565b91506120a18261203a565b604082019050919050565b600060208201905081810360008301526120c581612089565b9050919050565b7f4e487b7100000000000000000000000000000000000000000000000000000000600052604160045260246000fd5b600061210682611654565b915061211183611654565b9250828203905067ffffffffffffffff81111561213157612130611cef565b5b92915050565b60008160011c9050919050565b6000808291508390505b600185111561218e5780860481111561216a57612169611cef565b5b60018516156121795780820291505b808102905061218785612137565b945061214e565b94509492505050565b6000826121a75760019050612263565b816121b55760009050612263565b81600181146121cb57600281146121d557612204565b6001915050612263565b60ff8411156121e7576121e6611cef565b5b8360020a9150848211156121fe576121fd611cef565b5b50612263565b5060208310610133831016604e8410600b84101617156122395782820a90508381111561223457612233611cef565b5b612263565b6122468484846001612144565b9250905081840481111561225d5761225c611cef565b5b81810290505b9392505050565b600061227582611553565b915061228083611696565b92506122ad7fffffffffffffffffffffffffffffffffffffffffffffffffffffffffffffffff8484612197565b905092915050565b60006122c082611553565b91506122cb83611553565b92508282026122d981611553565b915082820484148315176122f0576122ef611cef565b5b5092915050565b7f4e487b7100000000000000000000000000000000000000000000000000000000600052601260045260246000fd5b600061233182611553565b915061233c83611553565b92508261234c5761234b6122f7565b5b828204905092915050565b600061236282611553565b915061236d83611553565b925082820190508082111561238557612384611cef565b5b92915050565b7f496e76616c696420746965720000000000000000000000000000000000000000600082015250565b60006123c1600c83611c43565b91506123cc8261238b565b602082019050919050565b600060208201905081810360008301526123f0816123b4565b9050919050565b600060608201905061240c60008301866119c9565b61241960208301856119c9565b6124266040830184611ae8565b949350505050565b600061243982611553565b91506000820361244c5761244b611cef565b5b60018203905091905056fea2646970667358221220f6905d4b60c5c156e1f2a5330535fe8f741fd9306b58437d77ff0bd9deec807164736f6c63430008180033",
  "linkReferences": {},
  "deployedLinkReferences": {}
}