{
  "_format": "hh-sol-artifact-1",
  "contractName": "TokenMaster",
  "sourceName": "contracts/TokenMaster.sol",
  "abi": [
    {
      "inputs": [
        {
          "internalType": "address",
          "name": "_authorizedSigner",
          "type": "address"
        },
        {
          "internalType": "address",
          "name": "_treasury",
          "type": "address"
        },
        {
          "internalType": "contract ERC20",
          "name": "_token",
          "type": "address"
        }
      ],
      "stateMutability": "nonpayable",
      "type": "constructor"
    },
    {
      "inputs": [],
      "name": "AccessControlBadConfirmation",
      "type": "error"
    },
    {
      "inputs": [
        {
          "internalType": "address",
          "name": "account",
          "type": "address"
        },
        {
          "internalType": "bytes32",
          "name": "neededRole",
          "type": "bytes32"
        }
      ],
      "name": "AccessControlUnauthorizedAccount",
      "type": "error"
    },
    {
      "inputs": [
        {
          "internalType": "address",
          "name": "target",
          "type": "address"
        }
      ],
      "name": "AddressEmptyCode",
      "type": "error"
    },
    {
      "inputs": [],
      "name": "ECDSAInvalidSignature",
      "type": "error"
    },
    {
      "inputs": [
        {
          "internalType": "uint256",
          "name": "length",
          "type": "uint256"
        }
      ],
      "name": "ECDSAInvalidSignatureLength",
      "type": "error"
    },
    {
      "inputs": [
        {
          "internalType": "bytes32",
          "name": "s",
          "type": "bytes32"
        }
      ],
      "name": "ECDSAInvalidSignatureS",
      "type": "error"
    },
    {
      "inputs": [],
      "name": "EnforcedPause",
      "type": "error"
    },
    {
      "inputs": [],
      "name": "ExpectedPause",
      "type": "error"
    },
    {
      "inputs": [],
      "name": "FailedCall",
      "type": "error"
    },
    {
      "inputs": [],
      "name": "ReentrancyGuardReentrantCall",
      "type": "error"
    },
    {
      "anonymous": false,
      "inputs": [
        {
          "indexed": false,
          "internalType": "address",
          "name": "account",
          "type": "address"
        }
      ],
      "name": "Paused",
      "type": "event"
    },
    {
      "anonymous": false,
      "inputs": [
        {
          "indexed": true,
          "internalType": "bytes32",
          "name": "role",
          "type": "bytes32"
        },
        {
          "indexed": true,
          "internalType": "bytes32",
          "name": "previousAdminRole",
          "type": "bytes32"
        },
        {
          "indexed": true,
          "internalType": "bytes32",
          "name": "newAdminRole",
          "type": "bytes32"
        }
      ],
      "name": "RoleAdminChanged",
      "type": "event"
    },
    {
      "anonymous": false,
      "inputs": [
        {
          "indexed": true,
          "internalType": "bytes32",
          "name": "role",
          "type": "bytes32"
        },
        {
          "indexed": true,
          "internalType": "address",
          "name": "account",
          "type": "address"
        },
        {
          "indexed": true,
          "internalType": "address",
          "name": "sender",
          "type": "address"
        }
      ],
      "name": "RoleGranted",
      "type": "event"
    },
    {
      "anonymous": false,
      "inputs": [
        {
          "indexed": true,
          "internalType": "bytes32",
          "name": "role",
          "type": "bytes32"
        },
        {
          "indexed": true,
          "internalType": "address",
          "name": "account",
          "type": "address"
        },
        {
          "indexed": true,
          "internalType": "address",
          "name": "sender",
          "type": "address"
        }
      ],
      "name": "RoleRevoked",
      "type": "event"
    },
    {
      "anonymous": false,
      "inputs": [
        {
          "indexed": true,
          "internalType": "address",
          "name": "walletAddress",
          "type": "address"
        },
        {
          "indexed": true,
          "internalType": "bytes16",
          "name": "claimId",
          "type": "bytes16"
        },
        {
          "indexed": false,
          "internalType": "uint256",
          "name": "amount",
          "type": "uint256"
        }
      ],
      "name": "TokenPayOut",
      "type": "event"
    },
    {
      "anonymous": false,
      "inputs": [
        {
          "indexed": false,
          "internalType": "address",
          "name": "account",
          "type": "address"
        }
      ],
      "name": "Unpaused",
      "type": "event"
    },
    {
      "stateMutability": "payable",
      "type": "fallback"
    },
    {
      "inputs": [],
      "name": "DEFAULT_ADMIN_ROLE",
      "outputs": [
        {
          "internalType": "bytes32",
          "name": "",
          "type": "bytes32"
        }
      ],
      "stateMutability": "view",
      "type": "function"
    },
    {
      "inputs": [],
      "name": "authorizedSigner",
      "outputs": [
        {
          "internalType": "address",
          "name": "",
          "type": "address"
        }
      ],
      "stateMutability": "view",
      "type": "function"
    },
    {
      "inputs": [
        {
          "internalType": "bytes16",
          "name": "claimId",
          "type": "bytes16"
        },
        {
          "internalType": "uint256",
          "name": "amount",
          "type": "uint256"
        },
        {
          "internalType": "bytes",
          "name": "signature",
          "type": "bytes"
        }
      ],
      "name": "claimToken",
      "outputs": [],
      "stateMutability": "nonpayable",
      "type": "function"
    },
    {
      "inputs": [
        {
          "internalType": "bytes16",
          "name": "",
          "type": "bytes16"
        }
      ],
      "name": "claimed",
      "outputs": [
        {
          "internalType": "bool",
          "name": "",
          "type": "bool"
        }
      ],
      "stateMutability": "view",
      "type": "function"
    },
    {
      "inputs": [
        {
          "internalType": "bytes16",
          "name": "_claimId",
          "type": "bytes16"
        },
        {
          "internalType": "address",
          "name": "_receiver",
          "type": "address"
        },
        {
          "internalType": "uint256",
          "name": "_amount",
          "type": "uint256"
        },
        {
          "internalType": "uint256",
          "name": "_nonce",
          "type": "uint256"
        }
      ],
      "name": "getMessageHash",
      "outputs": [
        {
          "internalType": "bytes32",
          "name": "",
          "type": "bytes32"
        }
      ],
      "stateMutability": "view",
      "type": "function"
    },
    {
      "inputs": [
        {
          "internalType": "bytes32",
          "name": "role",
          "type": "bytes32"
        }
      ],
      "name": "getRoleAdmin",
      "outputs": [
        {
          "internalType": "bytes32",
          "name": "",
          "type": "bytes32"
        }
      ],
      "stateMutability": "view",
      "type": "function"
    },
    {
      "inputs": [
        {
          "internalType": "bytes32",
          "name": "role",
          "type": "bytes32"
        },
        {
          "internalType": "address",
          "name": "account",
          "type": "address"
        }
      ],
      "name": "grantRole",
      "outputs": [],
      "stateMutability": "nonpayable",
      "type": "function"
    },
    {
      "inputs": [
        {
          "internalType": "bytes32",
          "name": "role",
          "type": "bytes32"
        },
        {
          "internalType": "address",
          "name": "account",
          "type": "address"
        }
      ],
      "name": "hasRole",
      "outputs": [
        {
          "internalType": "bool",
          "name": "",
          "type": "bool"
        }
      ],
      "stateMutability": "view",
      "type": "function"
    },
    {
      "inputs": [
        {
          "internalType": "bytes[]",
          "name": "data",
          "type": "bytes[]"
        }
      ],
      "name": "multicall",
      "outputs": [
        {
          "internalType": "bytes[]",
          "name": "results",
          "type": "bytes[]"
        }
      ],
      "stateMutability": "nonpayable",
      "type": "function"
    },
    {
      "inputs": [
        {
          "internalType": "address",
          "name": "",
          "type": "address"
        }
      ],
      "name": "nonces",
      "outputs": [
        {
          "internalType": "uint256",
          "name": "",
          "type": "uint256"
        }
      ],
      "stateMutability": "view",
      "type": "function"
    },
    {
      "inputs": [],
      "name": "paused",
      "outputs": [
        {
          "internalType": "bool",
          "name": "",
          "type": "bool"
        }
      ],
      "stateMutability": "view",
      "type": "function"
    },
    {
      "inputs": [
        {
          "internalType": "bytes32",
          "name": "role",
          "type": "bytes32"
        },
        {
          "internalType": "address",
          "name": "callerConfirmation",
          "type": "address"
        }
      ],
      "name": "renounceRole",
      "outputs": [],
      "stateMutability": "nonpayable",
      "type": "function"
    },
    {
      "inputs": [
        {
          "internalType": "bytes32",
          "name": "role",
          "type": "bytes32"
        },
        {
          "internalType": "address",
          "name": "account",
          "type": "address"
        }
      ],
      "name": "revokeRole",
      "outputs": [],
      "stateMutability": "nonpayable",
      "type": "function"
    },
    {
      "inputs": [
        {
          "internalType": "address",
          "name": "_treasury",
          "type": "address"
        }
      ],
      "name": "setTreasury",
      "outputs": [],
      "stateMutability": "nonpayable",
      "type": "function"
    },
    {
      "inputs": [
        {
          "internalType": "bytes4",
          "name": "interfaceId",
          "type": "bytes4"
        }
      ],
      "name": "supportsInterface",
      "outputs": [
        {
          "internalType": "bool",
          "name": "",
          "type": "bool"
        }
      ],
      "stateMutability": "view",
      "type": "function"
    },
    {
      "inputs": [],
      "name": "token",
      "outputs": [
        {
          "internalType": "contract ERC20",
          "name": "",
          "type": "address"
        }
      ],
      "stateMutability": "view",
      "type": "function"
    },
    {
      "inputs": [],
      "name": "treasury",
      "outputs": [
        {
          "internalType": "address",
          "name": "",
          "type": "address"
        }
      ],
      "stateMutability": "view",
      "type": "function"
    },
    {
      "stateMutability": "payable",
      "type": "receive"
    }
  ],
  "bytecode": "0x60806040523480156200001157600080fd5b5060405162002ba638038062002ba68339818101604052810190620000379190620004b5565b600180819055506000600260006101000a81548160ff021916908315150217905550600073ffffffffffffffffffffffffffffffffffffffff168373ffffffffffffffffffffffffffffffffffffffff1603620000cb576040517f08c379a0000000000000000000000000000000000000000000000000000000008152600401620000c29062000572565b60405180910390fd5b600073ffffffffffffffffffffffffffffffffffffffff168173ffffffffffffffffffffffffffffffffffffffff16036200013d576040517f08c379a00000000000000000000000000000000000000000000000000000000081526004016200013490620005e4565b60405180910390fd5b600073ffffffffffffffffffffffffffffffffffffffff168273ffffffffffffffffffffffffffffffffffffffff1603620001af576040517f08c379a0000000000000000000000000000000000000000000000000000000008152600401620001a69062000656565b60405180910390fd5b81600460006101000a81548173ffffffffffffffffffffffffffffffffffffffff021916908373ffffffffffffffffffffffffffffffffffffffff16021790555080600360006101000a81548173ffffffffffffffffffffffffffffffffffffffff021916908373ffffffffffffffffffffffffffffffffffffffff16021790555082600260016101000a81548173ffffffffffffffffffffffffffffffffffffffff021916908373ffffffffffffffffffffffffffffffffffffffff160217905550620002876000801b336200029160201b60201c565b5050505062000678565b6000620002a583836200039460201b60201c565b6200038957600160008085815260200190815260200160002060000160008473ffffffffffffffffffffffffffffffffffffffff1673ffffffffffffffffffffffffffffffffffffffff16815260200190815260200160002060006101000a81548160ff02191690831515021790555062000325620003fe60201b60201c565b73ffffffffffffffffffffffffffffffffffffffff168273ffffffffffffffffffffffffffffffffffffffff16847f2f8788117e7eff1d82e926ec794901d17c78024a50270940304540a733656f0d60405160405180910390a4600190506200038e565b600090505b92915050565b600080600084815260200190815260200160002060000160008373ffffffffffffffffffffffffffffffffffffffff1673ffffffffffffffffffffffffffffffffffffffff16815260200190815260200160002060009054906101000a900460ff16905092915050565b600033905090565b600080fd5b600073ffffffffffffffffffffffffffffffffffffffff82169050919050565b600062000438826200040b565b9050919050565b6200044a816200042b565b81146200045657600080fd5b50565b6000815190506200046a816200043f565b92915050565b60006200047d826200042b565b9050919050565b6200048f8162000470565b81146200049b57600080fd5b50565b600081519050620004af8162000484565b92915050565b600080600060608486031215620004d157620004d062000406565b5b6000620004e18682870162000459565b9350506020620004f48682870162000459565b925050604062000507868287016200049e565b9150509250925092565b600082825260208201905092915050565b7f496e76616c6964207369676e6572206164647265737300000000000000000000600082015250565b60006200055a60168362000511565b9150620005678262000522565b602082019050919050565b600060208201905081810360008301526200058d816200054b565b9050919050565b7f496e76616c696420746f6b656e20616464726573730000000000000000000000600082015250565b6000620005cc60158362000511565b9150620005d98262000594565b602082019050919050565b60006020820190508181036000830152620005ff81620005bd565b9050919050565b7f496e76616c696420747265617375727920616464726573730000000000000000600082015250565b60006200063e60188362000511565b91506200064b8262000606565b602082019050919050565b6000602082019050818103600083015262000671816200062f565b9050919050565b61251e80620006886000396000f3fe6080604052600436106101025760003560e01c80637ecebe0011610095578063ac9650d811610064578063ac9650d814610375578063c771909c146103b2578063d547741f146103dd578063f0f4426014610406578063fc0c546a1461042f57610109565b80637ecebe00146102935780638a531a3f146102d057806391d148541461030d578063a217fddf1461034a57610109565b806336568abe116100d157806336568abe146101eb5780635c975abb1461021457806361d027b31461023f5780637a23f83a1461026a57610109565b806301ffc9a71461010b5780631dd1eb4414610148578063248a9ca3146101855780632f2ff15d146101c257610109565b3661010957005b005b34801561011757600080fd5b50610132600480360381019061012d9190611697565b61045a565b60405161013f91906116df565b60405180910390f35b34801561015457600080fd5b5061016f600480360381019061016a9190611752565b6104d4565b60405161017c91906116df565b60405180910390f35b34801561019157600080fd5b506101ac60048036038101906101a791906117b5565b6104f4565b6040516101b991906117f1565b60405180910390f35b3480156101ce57600080fd5b506101e960048036038101906101e4919061186a565b610513565b005b3480156101f757600080fd5b50610212600480360381019061020d919061186a565b610535565b005b34801561022057600080fd5b506102296105b0565b60405161023691906116df565b60405180910390f35b34801561024b57600080fd5b506102546105c7565b60405161026191906118b9565b60405180910390f35b34801561027657600080fd5b50610291600480360381019061028c9190611a50565b6105ed565b005b34801561029f57600080fd5b506102ba60048036038101906102b59190611abf565b610a20565b6040516102c79190611afb565b60405180910390f35b3480156102dc57600080fd5b506102f760048036038101906102f29190611b16565b610a38565b60405161030491906117f1565b60405180910390f35b34801561031957600080fd5b50610334600480360381019061032f919061186a565b610a75565b60405161034191906116df565b60405180910390f35b34801561035657600080fd5b5061035f610adf565b60405161036c91906117f1565b60405180910390f35b34801561038157600080fd5b5061039c60048036038101906103979190611bdd565b610ae6565b6040516103a99190611d6b565b60405180910390f35b3480156103be57600080fd5b506103c7610cca565b6040516103d491906118b9565b60405180910390f35b3480156103e957600080fd5b5061040460048036038101906103ff919061186a565b610cf0565b005b34801561041257600080fd5b5061042d60048036038101906104289190611abf565b610d12565b005b34801561043b57600080fd5b50610444610dd3565b6040516104519190611dec565b60405180910390f35b60007f7965db0b000000000000000000000000000000000000000000000000000000007bffffffffffffffffffffffffffffffffffffffffffffffffffffffff1916827bffffffffffffffffffffffffffffffffffffffffffffffffffffffff191614806104cd57506104cc82610df9565b5b9050919050565b60056020528060005260406000206000915054906101000a900460ff1681565b6000806000838152602001908152602001600020600101549050919050565b61051c826104f4565b61052581610e63565b61052f8383610e77565b50505050565b61053d610f68565b73ffffffffffffffffffffffffffffffffffffffff168173ffffffffffffffffffffffffffffffffffffffff16146105a1576040517f6697b23200000000000000000000000000000000000000000000000000000000815260040160405180910390fd5b6105ab8282610f70565b505050565b6000600260009054906101000a900460ff16905090565b600460009054906101000a900473ffffffffffffffffffffffffffffffffffffffff1681565b6105f5611062565b6105fd6110a3565b6000339050600061064f858386600660008773ffffffffffffffffffffffffffffffffffffffff1673ffffffffffffffffffffffffffffffffffffffff16815260200190815260200160002054610a38565b905061065b81846110e9565b61069a576040517f08c379a000000000000000000000000000000000000000000000000000000000815260040161069190611e64565b60405180910390fd5b60056000866fffffffffffffffffffffffffffffffff19166fffffffffffffffffffffffffffffffff1916815260200190815260200160002060009054906101000a900460ff1615610721576040517f08c379a000000000000000000000000000000000000000000000000000000000815260040161071890611ed0565b60405180910390fd5b83600360009054906101000a900473ffffffffffffffffffffffffffffffffffffffff1673ffffffffffffffffffffffffffffffffffffffff166370a08231306040518263ffffffff1660e01b815260040161077d91906118b9565b602060405180830381865afa15801561079a573d6000803e3d6000fd5b505050506040513d601f19601f820116820180604052508101906107be9190611f05565b10156107ff576040517f08c379a00000000000000000000000000000000000000000000000000000000081526004016107f690611f7e565b60405180910390fd5b600160056000876fffffffffffffffffffffffffffffffff19166fffffffffffffffffffffffffffffffff1916815260200190815260200160002060006101000a81548160ff021916908315150217905550600660008373ffffffffffffffffffffffffffffffffffffffff1673ffffffffffffffffffffffffffffffffffffffff16815260200190815260200160002060008154809291906108a190611fcd565b91905055506000600360009054906101000a900473ffffffffffffffffffffffffffffffffffffffff1673ffffffffffffffffffffffffffffffffffffffff166323b872dd600460009054906101000a900473ffffffffffffffffffffffffffffffffffffffff1685886040518463ffffffff1660e01b815260040161092993929190612015565b6020604051808303816000875af1158015610948573d6000803e3d6000fd5b505050506040513d601f19601f8201168201806040525081019061096c9190612078565b9050806109ae576040517f08c379a00000000000000000000000000000000000000000000000000000000081526004016109a5906120f1565b60405180910390fd5b856fffffffffffffffffffffffffffffffff19168373ffffffffffffffffffffffffffffffffffffffff167f1ec0a4b718049e90872f9887c3f58d7aa76e5f3c22859d6e6dc0d3f0a948a4e287604051610a089190611afb565b60405180910390a3505050610a1b61115e565b505050565b60066020528060005260406000206000915090505481565b6000848484463086604051602001610a559695949392919061219b565b604051602081830303815290604052805190602001209050949350505050565b600080600084815260200190815260200160002060000160008373ffffffffffffffffffffffffffffffffffffffff1673ffffffffffffffffffffffffffffffffffffffff16815260200190815260200160002060009054906101000a900460ff16905092915050565b6000801b81565b60606000610af2610f68565b73ffffffffffffffffffffffffffffffffffffffff163373ffffffffffffffffffffffffffffffffffffffff1614610b9557600036610b2f611167565b6000369050610b3e919061220b565b908092610b4d93929190612249565b8080601f016020809104026020016040519081016040528093929190818152602001838380828437600081840152601f19601f82011690508083019250505050505050610be4565b600067ffffffffffffffff811115610bb057610baf611925565b5b6040519080825280601f01601f191660200182016040528015610be25781602001600182028036833780820191505090505b505b90508383905067ffffffffffffffff811115610c0357610c02611925565b5b604051908082528060200260200182016040528015610c3657816020015b6060815260200190600190039081610c215790505b50915060005b84849050811015610cc257610c9730868684818110610c5e57610c5d612284565b5b9050602002810190610c7091906122c2565b85604051602001610c8393929190612386565b60405160208183030381529060405261116c565b838281518110610caa57610ca9612284565b5b60200260200101819052508080600101915050610c3c565b505092915050565b600260019054906101000a900473ffffffffffffffffffffffffffffffffffffffff1681565b610cf9826104f4565b610d0281610e63565b610d0c8383610f70565b50505050565b6000801b610d1f81610e63565b600073ffffffffffffffffffffffffffffffffffffffff168273ffffffffffffffffffffffffffffffffffffffff1603610d8e576040517f08c379a0000000000000000000000000000000000000000000000000000000008152600401610d85906123f8565b60405180910390fd5b81600460006101000a81548173ffffffffffffffffffffffffffffffffffffffff021916908373ffffffffffffffffffffffffffffffffffffffff1602179055505050565b600360009054906101000a900473ffffffffffffffffffffffffffffffffffffffff1681565b60007f01ffc9a7000000000000000000000000000000000000000000000000000000007bffffffffffffffffffffffffffffffffffffffffffffffffffffffff1916827bffffffffffffffffffffffffffffffffffffffffffffffffffffffff1916149050919050565b610e7481610e6f610f68565b6111f0565b50565b6000610e838383610a75565b610f5d57600160008085815260200190815260200160002060000160008473ffffffffffffffffffffffffffffffffffffffff1673ffffffffffffffffffffffffffffffffffffffff16815260200190815260200160002060006101000a81548160ff021916908315150217905550610efa610f68565b73ffffffffffffffffffffffffffffffffffffffff168273ffffffffffffffffffffffffffffffffffffffff16847f2f8788117e7eff1d82e926ec794901d17c78024a50270940304540a733656f0d60405160405180910390a460019050610f62565b600090505b92915050565b600033905090565b6000610f7c8383610a75565b1561105757600080600085815260200190815260200160002060000160008473ffffffffffffffffffffffffffffffffffffffff1673ffffffffffffffffffffffffffffffffffffffff16815260200190815260200160002060006101000a81548160ff021916908315150217905550610ff4610f68565b73ffffffffffffffffffffffffffffffffffffffff168273ffffffffffffffffffffffffffffffffffffffff16847ff6391f5c32d9c69d2a47ea670b442974b53935d1edc7fd64eb21e047a839171b60405160405180910390a46001905061105c565b600090505b92915050565b61106a6105b0565b156110a1576040517fd93c066500000000000000000000000000000000000000000000000000000000815260040160405180910390fd5b565b6002600154036110df576040517f3ee5aeb500000000000000000000000000000000000000000000000000000000815260040160405180910390fd5b6002600181905550565b6000600260019054906101000a900473ffffffffffffffffffffffffffffffffffffffff1673ffffffffffffffffffffffffffffffffffffffff1661113f8361113186611241565b61127790919063ffffffff16565b73ffffffffffffffffffffffffffffffffffffffff1614905092915050565b60018081905550565b600090565b60606000808473ffffffffffffffffffffffffffffffffffffffff16846040516111969190612418565b600060405180830381855af49150503d80600081146111d1576040519150601f19603f3d011682016040523d82523d6000602084013e6111d6565b606091505b50915091506111e68583836112a3565b9250505092915050565b6111fa8282610a75565b61123d5780826040517fe2517d3f00000000000000000000000000000000000000000000000000000000815260040161123492919061242f565b60405180910390fd5b5050565b60007f19457468657265756d205369676e6564204d6573736167653a0a33320000000060005281601c52603c6000209050919050565b6000806000806112878686611332565b925092509250611297828261138e565b82935050505092915050565b6060826112b8576112b3826114f2565b61132a565b600082511480156112e0575060008473ffffffffffffffffffffffffffffffffffffffff163b145b1561132257836040517f9996b31500000000000000000000000000000000000000000000000000000000815260040161131991906118b9565b60405180910390fd5b81905061132b565b5b9392505050565b600080600060418451036113775760008060006020870151925060408701519150606087015160001a905061136988828585611537565b955095509550505050611387565b60006002855160001b9250925092505b9250925092565b600060038111156113a2576113a1612458565b5b8260038111156113b5576113b4612458565b5b03156114ee57600160038111156113cf576113ce612458565b5b8260038111156113e2576113e1612458565b5b03611419576040517ff645eedf00000000000000000000000000000000000000000000000000000000815260040160405180910390fd5b6002600381111561142d5761142c612458565b5b8260038111156114405761143f612458565b5b03611485578060001c6040517ffce698f700000000000000000000000000000000000000000000000000000000815260040161147c9190611afb565b60405180910390fd5b60038081111561149857611497612458565b5b8260038111156114ab576114aa612458565b5b036114ed57806040517fd78bce0c0000000000000000000000000000000000000000000000000000000081526004016114e491906117f1565b60405180910390fd5b5b5050565b6000815111156115055780518082602001fd5b6040517fd6bda27500000000000000000000000000000000000000000000000000000000815260040160405180910390fd5b60008060007f7fffffffffffffffffffffffffffffff5d576e7357a4501ddfe92f46681b20a08460001c1115611577576000600385925092509250611621565b60006001888888886040516000815260200160405260405161159c94939291906124a3565b6020604051602081039080840390855afa1580156115be573d6000803e3d6000fd5b505050602060405103519050600073ffffffffffffffffffffffffffffffffffffffff168173ffffffffffffffffffffffffffffffffffffffff160361161257600060016000801b93509350935050611621565b8060008060001b935093509350505b9450945094915050565b6000604051905090565b600080fd5b600080fd5b60007fffffffff0000000000000000000000000000000000000000000000000000000082169050919050565b6116748161163f565b811461167f57600080fd5b50565b6000813590506116918161166b565b92915050565b6000602082840312156116ad576116ac611635565b5b60006116bb84828501611682565b91505092915050565b60008115159050919050565b6116d9816116c4565b82525050565b60006020820190506116f460008301846116d0565b92915050565b60007fffffffffffffffffffffffffffffffff0000000000000000000000000000000082169050919050565b61172f816116fa565b811461173a57600080fd5b50565b60008135905061174c81611726565b92915050565b60006020828403121561176857611767611635565b5b60006117768482850161173d565b91505092915050565b6000819050919050565b6117928161177f565b811461179d57600080fd5b50565b6000813590506117af81611789565b92915050565b6000602082840312156117cb576117ca611635565b5b60006117d9848285016117a0565b91505092915050565b6117eb8161177f565b82525050565b600060208201905061180660008301846117e2565b92915050565b600073ffffffffffffffffffffffffffffffffffffffff82169050919050565b60006118378261180c565b9050919050565b6118478161182c565b811461185257600080fd5b50565b6000813590506118648161183e565b92915050565b6000806040838503121561188157611880611635565b5b600061188f858286016117a0565b92505060206118a085828601611855565b9150509250929050565b6118b38161182c565b82525050565b60006020820190506118ce60008301846118aa565b92915050565b6000819050919050565b6118e7816118d4565b81146118f257600080fd5b50565b600081359050611904816118de565b92915050565b600080fd5b600080fd5b6000601f19601f8301169050919050565b7f4e487b7100000000000000000000000000000000000000000000000000000000600052604160045260246000fd5b61195d82611914565b810181811067ffffffffffffffff8211171561197c5761197b611925565b5b80604052505050565b600061198f61162b565b905061199b8282611954565b919050565b600067ffffffffffffffff8211156119bb576119ba611925565b5b6119c482611914565b9050602081019050919050565b82818337600083830152505050565b60006119f36119ee846119a0565b611985565b905082815260208101848484011115611a0f57611a0e61190f565b5b611a1a8482856119d1565b509392505050565b600082601f830112611a3757611a3661190a565b5b8135611a478482602086016119e0565b91505092915050565b600080600060608486031215611a6957611a68611635565b5b6000611a778682870161173d565b9350506020611a88868287016118f5565b925050604084013567ffffffffffffffff811115611aa957611aa861163a565b5b611ab586828701611a22565b9150509250925092565b600060208284031215611ad557611ad4611635565b5b6000611ae384828501611855565b91505092915050565b611af5816118d4565b82525050565b6000602082019050611b106000830184611aec565b92915050565b60008060008060808587031215611b3057611b2f611635565b5b6000611b3e8782880161173d565b9450506020611b4f87828801611855565b9350506040611b60878288016118f5565b9250506060611b71878288016118f5565b91505092959194509250565b600080fd5b600080fd5b60008083601f840112611b9d57611b9c61190a565b5b8235905067ffffffffffffffff811115611bba57611bb9611b7d565b5b602083019150836020820283011115611bd657611bd5611b82565b5b9250929050565b60008060208385031215611bf457611bf3611635565b5b600083013567ffffffffffffffff811115611c1257611c1161163a565b5b611c1e85828601611b87565b92509250509250929050565b600081519050919050565b600082825260208201905092915050565b6000819050602082019050919050565b600081519050919050565b600082825260208201905092915050565b60005b83811015611c90578082015181840152602081019050611c75565b60008484015250505050565b6000611ca782611c56565b611cb18185611c61565b9350611cc1818560208601611c72565b611cca81611914565b840191505092915050565b6000611ce18383611c9c565b905092915050565b6000602082019050919050565b6000611d0182611c2a565b611d0b8185611c35565b935083602082028501611d1d85611c46565b8060005b85811015611d595784840389528151611d3a8582611cd5565b9450611d4583611ce9565b925060208a01995050600181019050611d21565b50829750879550505050505092915050565b60006020820190508181036000830152611d858184611cf6565b905092915050565b6000819050919050565b6000611db2611dad611da88461180c565b611d8d565b61180c565b9050919050565b6000611dc482611d97565b9050919050565b6000611dd682611db9565b9050919050565b611de681611dcb565b82525050565b6000602082019050611e016000830184611ddd565b92915050565b600082825260208201905092915050565b7f496e76616c6964207369676e6174757265000000000000000000000000000000600082015250565b6000611e4e601183611e07565b9150611e5982611e18565b602082019050919050565b60006020820190508181036000830152611e7d81611e41565b9050919050565b7f546f6b656e20616c726561647920697373756564000000000000000000000000600082015250565b6000611eba601483611e07565b9150611ec582611e84565b602082019050919050565b60006020820190508181036000830152611ee981611ead565b9050919050565b600081519050611eff816118de565b92915050565b600060208284031215611f1b57611f1a611635565b5b6000611f2984828501611ef0565b91505092915050565b7f496e73756666696369656e742062616c616e6365000000000000000000000000600082015250565b6000611f68601483611e07565b9150611f7382611f32565b602082019050919050565b60006020820190508181036000830152611f9781611f5b565b9050919050565b7f4e487b7100000000000000000000000000000000000000000000000000000000600052601160045260246000fd5b6000611fd8826118d4565b91507fffffffffffffffffffffffffffffffffffffffffffffffffffffffffffffffff820361200a57612009611f9e565b5b600182019050919050565b600060608201905061202a60008301866118aa565b61203760208301856118aa565b6120446040830184611aec565b949350505050565b612055816116c4565b811461206057600080fd5b50565b6000815190506120728161204c565b92915050565b60006020828403121561208e5761208d611635565b5b600061209c84828501612063565b91505092915050565b7f4661696c656420746f2073656e6420546f6b656e000000000000000000000000600082015250565b60006120db601483611e07565b91506120e6826120a5565b602082019050919050565b6000602082019050818103600083015261210a816120ce565b9050919050565b6000819050919050565b61212c612127826116fa565b612111565b82525050565b60008160601b9050919050565b600061214a82612132565b9050919050565b600061215c8261213f565b9050919050565b61217461216f8261182c565b612151565b82525050565b6000819050919050565b612195612190826118d4565b61217a565b82525050565b60006121a7828961211b565b6010820191506121b78288612163565b6014820191506121c78287612184565b6020820191506121d78286612184565b6020820191506121e78285612163565b6014820191506121f78284612184565b602082019150819050979650505050505050565b6000612216826118d4565b9150612221836118d4565b925082820390508181111561223957612238611f9e565b5b92915050565b600080fd5b600080fd5b6000808585111561225d5761225c61223f565b5b8386111561226e5761226d612244565b5b6001850283019150848603905094509492505050565b7f4e487b7100000000000000000000000000000000000000000000000000000000600052603260045260246000fd5b600080fd5b600080fd5b600080fd5b600080833560016020038436030381126122df576122de6122b3565b5b80840192508235915067ffffffffffffffff821115612301576123006122b8565b5b60208301925060018202360383131561231d5761231c6122bd565b5b509250929050565b600081905092915050565b600061233c8385612325565b93506123498385846119d1565b82840190509392505050565b600061236082611c56565b61236a8185612325565b935061237a818560208601611c72565b80840191505092915050565b6000612393828587612330565b915061239f8284612355565b9150819050949350505050565b7f496e76616c696420747265617375727920616464726573730000000000000000600082015250565b60006123e2601883611e07565b91506123ed826123ac565b602082019050919050565b60006020820190508181036000830152612411816123d5565b9050919050565b60006124248284612355565b915081905092915050565b600060408201905061244460008301856118aa565b61245160208301846117e2565b9392505050565b7f4e487b7100000000000000000000000000000000000000000000000000000000600052602160045260246000fd5b600060ff82169050919050565b61249d81612487565b82525050565b60006080820190506124b860008301876117e2565b6124c56020830186612494565b6124d260408301856117e2565b6124df60608301846117e2565b9594505050505056fea2646970667358221220351f38762dbdd6751c35434a0dbb3536c2c498ed79cb0237c69de7ea42c5adf864736f6c63430008180033",
  "linkReferences": {},
  "deployedLinkReferences": {}
}