{
  "_format": "hh-sol-artifact-1",
  "contractName": "TokenMaster",
  "sourceName": "contracts/TokenMaster.sol",
  "abi": [
    {
      "inputs": [
        {
          "internalType": "address",
          "name": "_authorizedSigner",
          "type": "address"
        },
        {
          "internalType": "contract ERC20",
          "name": "_token",
          "type": "address"
        }
      ],
      "stateMutability": "nonpayable",
      "type": "constructor"
    },
    {
      "inputs": [],
      "name": "AccessControlBadConfirmation",
      "type": "error"
    },
    {
      "inputs": [
        {
          "internalType": "address",
          "name": "account",
          "type": "address"
        },
        {
          "internalType": "bytes32",
          "name": "neededRole",
          "type": "bytes32"
        }
      ],
      "name": "AccessControlUnauthorizedAccount",
      "type": "error"
    },
    {
      "inputs": [],
      "name": "ECDSAInvalidSignature",
      "type": "error"
    },
    {
      "inputs": [
        {
          "internalType": "uint256",
          "name": "length",
          "type": "uint256"
        }
      ],
      "name": "ECDSAInvalidSignatureLength",
      "type": "error"
    },
    {
      "inputs": [
        {
          "internalType": "bytes32",
          "name": "s",
          "type": "bytes32"
        }
      ],
      "name": "ECDSAInvalidSignatureS",
      "type": "error"
    },
    {
      "inputs": [],
      "name": "EnforcedPause",
      "type": "error"
    },
    {
      "inputs": [],
      "name": "ExpectedPause",
      "type": "error"
    },
    {
      "inputs": [],
      "name": "ReentrancyGuardReentrantCall",
      "type": "error"
    },
    {
      "anonymous": false,
      "inputs": [
        {
          "indexed": false,
          "internalType": "address",
          "name": "account",
          "type": "address"
        }
      ],
      "name": "Paused",
      "type": "event"
    },
    {
      "anonymous": false,
      "inputs": [
        {
          "indexed": true,
          "internalType": "bytes32",
          "name": "role",
          "type": "bytes32"
        },
        {
          "indexed": true,
          "internalType": "bytes32",
          "name": "previousAdminRole",
          "type": "bytes32"
        },
        {
          "indexed": true,
          "internalType": "bytes32",
          "name": "newAdminRole",
          "type": "bytes32"
        }
      ],
      "name": "RoleAdminChanged",
      "type": "event"
    },
    {
      "anonymous": false,
      "inputs": [
        {
          "indexed": true,
          "internalType": "bytes32",
          "name": "role",
          "type": "bytes32"
        },
        {
          "indexed": true,
          "internalType": "address",
          "name": "account",
          "type": "address"
        },
        {
          "indexed": true,
          "internalType": "address",
          "name": "sender",
          "type": "address"
        }
      ],
      "name": "RoleGranted",
      "type": "event"
    },
    {
      "anonymous": false,
      "inputs": [
        {
          "indexed": true,
          "internalType": "bytes32",
          "name": "role",
          "type": "bytes32"
        },
        {
          "indexed": true,
          "internalType": "address",
          "name": "account",
          "type": "address"
        },
        {
          "indexed": true,
          "internalType": "address",
          "name": "sender",
          "type": "address"
        }
      ],
      "name": "RoleRevoked",
      "type": "event"
    },
    {
      "anonymous": false,
      "inputs": [
        {
          "indexed": true,
          "internalType": "address",
          "name": "walletAddress",
          "type": "address"
        },
        {
          "indexed": true,
          "internalType": "bytes16",
          "name": "receiptId",
          "type": "bytes16"
        },
        {
          "indexed": false,
          "internalType": "uint256",
          "name": "amount",
          "type": "uint256"
        }
      ],
      "name": "TokenPayOut",
      "type": "event"
    },
    {
      "anonymous": false,
      "inputs": [
        {
          "indexed": false,
          "internalType": "address",
          "name": "account",
          "type": "address"
        }
      ],
      "name": "Unpaused",
      "type": "event"
    },
    {
      "stateMutability": "payable",
      "type": "fallback"
    },
    {
      "inputs": [],
      "name": "DEFAULT_ADMIN_ROLE",
      "outputs": [
        {
          "internalType": "bytes32",
          "name": "",
          "type": "bytes32"
        }
      ],
      "stateMutability": "view",
      "type": "function"
    },
    {
      "inputs": [],
      "name": "authorizedSigner",
      "outputs": [
        {
          "internalType": "address",
          "name": "",
          "type": "address"
        }
      ],
      "stateMutability": "view",
      "type": "function"
    },
    {
      "inputs": [
        {
          "internalType": "bytes16",
          "name": "receiptId",
          "type": "bytes16"
        },
        {
          "internalType": "uint256",
          "name": "amount",
          "type": "uint256"
        },
        {
          "internalType": "bytes",
          "name": "signature",
          "type": "bytes"
        }
      ],
      "name": "claimToken",
      "outputs": [],
      "stateMutability": "nonpayable",
      "type": "function"
    },
    {
      "inputs": [
        {
          "internalType": "bytes16",
          "name": "",
          "type": "bytes16"
        }
      ],
      "name": "claimed",
      "outputs": [
        {
          "internalType": "bool",
          "name": "",
          "type": "bool"
        }
      ],
      "stateMutability": "view",
      "type": "function"
    },
    {
      "inputs": [
        {
          "internalType": "bytes16",
          "name": "_receiptId",
          "type": "bytes16"
        },
        {
          "internalType": "address",
          "name": "_receiver",
          "type": "address"
        },
        {
          "internalType": "uint256",
          "name": "_amount",
          "type": "uint256"
        },
        {
          "internalType": "uint256",
          "name": "_nonce",
          "type": "uint256"
        }
      ],
      "name": "getMessageHash",
      "outputs": [
        {
          "internalType": "bytes32",
          "name": "",
          "type": "bytes32"
        }
      ],
      "stateMutability": "view",
      "type": "function"
    },
    {
      "inputs": [
        {
          "internalType": "bytes32",
          "name": "role",
          "type": "bytes32"
        }
      ],
      "name": "getRoleAdmin",
      "outputs": [
        {
          "internalType": "bytes32",
          "name": "",
          "type": "bytes32"
        }
      ],
      "stateMutability": "view",
      "type": "function"
    },
    {
      "inputs": [
        {
          "internalType": "bytes32",
          "name": "role",
          "type": "bytes32"
        },
        {
          "internalType": "address",
          "name": "account",
          "type": "address"
        }
      ],
      "name": "grantRole",
      "outputs": [],
      "stateMutability": "nonpayable",
      "type": "function"
    },
    {
      "inputs": [
        {
          "internalType": "bytes32",
          "name": "role",
          "type": "bytes32"
        },
        {
          "internalType": "address",
          "name": "account",
          "type": "address"
        }
      ],
      "name": "hasRole",
      "outputs": [
        {
          "internalType": "bool",
          "name": "",
          "type": "bool"
        }
      ],
      "stateMutability": "view",
      "type": "function"
    },
    {
      "inputs": [
        {
          "internalType": "address",
          "name": "",
          "type": "address"
        }
      ],
      "name": "nonces",
      "outputs": [
        {
          "internalType": "uint256",
          "name": "",
          "type": "uint256"
        }
      ],
      "stateMutability": "view",
      "type": "function"
    },
    {
      "inputs": [],
      "name": "paused",
      "outputs": [
        {
          "internalType": "bool",
          "name": "",
          "type": "bool"
        }
      ],
      "stateMutability": "view",
      "type": "function"
    },
    {
      "inputs": [
        {
          "internalType": "bytes32",
          "name": "role",
          "type": "bytes32"
        },
        {
          "internalType": "address",
          "name": "callerConfirmation",
          "type": "address"
        }
      ],
      "name": "renounceRole",
      "outputs": [],
      "stateMutability": "nonpayable",
      "type": "function"
    },
    {
      "inputs": [
        {
          "internalType": "bytes32",
          "name": "role",
          "type": "bytes32"
        },
        {
          "internalType": "address",
          "name": "account",
          "type": "address"
        }
      ],
      "name": "revokeRole",
      "outputs": [],
      "stateMutability": "nonpayable",
      "type": "function"
    },
    {
      "inputs": [
        {
          "internalType": "bytes4",
          "name": "interfaceId",
          "type": "bytes4"
        }
      ],
      "name": "supportsInterface",
      "outputs": [
        {
          "internalType": "bool",
          "name": "",
          "type": "bool"
        }
      ],
      "stateMutability": "view",
      "type": "function"
    },
    {
      "inputs": [],
      "name": "token",
      "outputs": [
        {
          "internalType": "contract ERC20",
          "name": "",
          "type": "address"
        }
      ],
      "stateMutability": "view",
      "type": "function"
    },
    {
      "inputs": [
        {
          "internalType": "address payable",
          "name": "to",
          "type": "address"
        },
        {
          "internalType": "uint256",
          "name": "amount",
          "type": "uint256"
        }
      ],
      "name": "withdraw",
      "outputs": [],
      "stateMutability": "nonpayable",
      "type": "function"
    },
    {
      "stateMutability": "payable",
      "type": "receive"
    }
  ],
  "bytecode": "0x60806040523480156200001157600080fd5b506040516200213238038062002132833981810160405281019062000037919062000276565b600180819055506000600260006101000a81548160ff021916908315150217905550600073ffffffffffffffffffffffffffffffffffffffff168273ffffffffffffffffffffffffffffffffffffffff1603620000cb576040517f08c379a0000000000000000000000000000000000000000000000000000000008152600401620000c2906200031e565b60405180910390fd5b600073ffffffffffffffffffffffffffffffffffffffff168173ffffffffffffffffffffffffffffffffffffffff16036200013d576040517f08c379a0000000000000000000000000000000000000000000000000000000008152600401620001349062000390565b60405180910390fd5b80600360006101000a81548173ffffffffffffffffffffffffffffffffffffffff021916908373ffffffffffffffffffffffffffffffffffffffff16021790555081600260016101000a81548173ffffffffffffffffffffffffffffffffffffffff021916908373ffffffffffffffffffffffffffffffffffffffff1602179055505050620003b2565b600080fd5b600073ffffffffffffffffffffffffffffffffffffffff82169050919050565b6000620001f982620001cc565b9050919050565b6200020b81620001ec565b81146200021757600080fd5b50565b6000815190506200022b8162000200565b92915050565b60006200023e82620001ec565b9050919050565b620002508162000231565b81146200025c57600080fd5b50565b600081519050620002708162000245565b92915050565b6000806040838503121562000290576200028f620001c7565b5b6000620002a0858286016200021a565b9250506020620002b3858286016200025f565b9150509250929050565b600082825260208201905092915050565b7f496e76616c6964207369676e6572206164647265737300000000000000000000600082015250565b600062000306601683620002bd565b91506200031382620002ce565b602082019050919050565b600060208201905081810360008301526200033981620002f7565b9050919050565b7f496e76616c696420746f6b656e20616464726573730000000000000000000000600082015250565b600062000378601583620002bd565b9150620003858262000340565b602082019050919050565b60006020820190508181036000830152620003ab8162000369565b9050919050565b611d7080620003c26000396000f3fe6080604052600436106100ec5760003560e01c80637ecebe001161008a578063c771909c11610059578063c771909c14610334578063d547741f1461035f578063f3fef3a314610388578063fc0c546a146103b1576100f3565b80637ecebe00146102525780638a531a3f1461028f57806391d14854146102cc578063a217fddf14610309576100f3565b80632f2ff15d116100c65780632f2ff15d146101ac57806336568abe146101d55780635c975abb146101fe5780637a23f83a14610229576100f3565b806301ffc9a7146100f55780631dd1eb4414610132578063248a9ca31461016f576100f3565b366100f357005b005b34801561010157600080fd5b5061011c60048036038101906101179190611239565b6103dc565b6040516101299190611281565b60405180910390f35b34801561013e57600080fd5b50610159600480360381019061015491906112f4565b610456565b6040516101669190611281565b60405180910390f35b34801561017b57600080fd5b5061019660048036038101906101919190611357565b610476565b6040516101a39190611393565b60405180910390f35b3480156101b857600080fd5b506101d360048036038101906101ce919061140c565b610495565b005b3480156101e157600080fd5b506101fc60048036038101906101f7919061140c565b6104b7565b005b34801561020a57600080fd5b50610213610532565b6040516102209190611281565b60405180910390f35b34801561023557600080fd5b50610250600480360381019061024b91906115c8565b610549565b005b34801561025e57600080fd5b5061027960048036038101906102749190611637565b61087a565b6040516102869190611673565b60405180910390f35b34801561029b57600080fd5b506102b660048036038101906102b1919061168e565b610892565b6040516102c39190611393565b60405180910390f35b3480156102d857600080fd5b506102f360048036038101906102ee919061140c565b6108cf565b6040516103009190611281565b60405180910390f35b34801561031557600080fd5b5061031e610939565b60405161032b9190611393565b60405180910390f35b34801561034057600080fd5b50610349610940565b6040516103569190611704565b60405180910390f35b34801561036b57600080fd5b506103866004803603810190610381919061140c565b610966565b005b34801561039457600080fd5b506103af60048036038101906103aa919061175d565b610988565b005b3480156103bd57600080fd5b506103c6610ad2565b6040516103d391906117fc565b60405180910390f35b60007f7965db0b000000000000000000000000000000000000000000000000000000007bffffffffffffffffffffffffffffffffffffffffffffffffffffffff1916827bffffffffffffffffffffffffffffffffffffffffffffffffffffffff1916148061044f575061044e82610af8565b5b9050919050565b60046020528060005260406000206000915054906101000a900460ff1681565b6000806000838152602001908152602001600020600101549050919050565b61049e82610476565b6104a781610b62565b6104b18383610b76565b50505050565b6104bf610c67565b73ffffffffffffffffffffffffffffffffffffffff168173ffffffffffffffffffffffffffffffffffffffff1614610523576040517f6697b23200000000000000000000000000000000000000000000000000000000815260040160405180910390fd5b61052d8282610c6f565b505050565b6000600260009054906101000a900460ff16905090565b610551610d61565b610559610da2565b600033905060006105ab858386600560008773ffffffffffffffffffffffffffffffffffffffff1673ffffffffffffffffffffffffffffffffffffffff16815260200190815260200160002054610892565b90506105b78184610de8565b6105f6576040517f08c379a00000000000000000000000000000000000000000000000000000000081526004016105ed90611874565b60405180910390fd5b60046000866fffffffffffffffffffffffffffffffff19166fffffffffffffffffffffffffffffffff1916815260200190815260200160002060009054906101000a900460ff161561067d576040517f08c379a0000000000000000000000000000000000000000000000000000000008152600401610674906118e0565b60405180910390fd5b600160046000876fffffffffffffffffffffffffffffffff19166fffffffffffffffffffffffffffffffff1916815260200190815260200160002060006101000a81548160ff021916908315150217905550600560008373ffffffffffffffffffffffffffffffffffffffff1673ffffffffffffffffffffffffffffffffffffffff168152602001908152602001600020600081548092919061071f9061192f565b91905055506000600360009054906101000a900473ffffffffffffffffffffffffffffffffffffffff1673ffffffffffffffffffffffffffffffffffffffff1663a9059cbb84876040518363ffffffff1660e01b8152600401610783929190611977565b6020604051808303816000875af11580156107a2573d6000803e3d6000fd5b505050506040513d601f19601f820116820180604052508101906107c691906119cc565b905080610808576040517f08c379a00000000000000000000000000000000000000000000000000000000081526004016107ff90611a45565b60405180910390fd5b856fffffffffffffffffffffffffffffffff19168373ffffffffffffffffffffffffffffffffffffffff167f1ec0a4b718049e90872f9887c3f58d7aa76e5f3c22859d6e6dc0d3f0a948a4e2876040516108629190611673565b60405180910390a3505050610875610e5d565b505050565b60056020528060005260406000206000915090505481565b60008484844630866040516020016108af96959493929190611aef565b604051602081830303815290604052805190602001209050949350505050565b600080600084815260200190815260200160002060000160008373ffffffffffffffffffffffffffffffffffffffff1673ffffffffffffffffffffffffffffffffffffffff16815260200190815260200160002060009054906101000a900460ff16905092915050565b6000801b81565b600260019054906101000a900473ffffffffffffffffffffffffffffffffffffffff1681565b61096f82610476565b61097881610b62565b6109828383610c6f565b50505050565b6000801b61099581610b62565b61099d610da2565b600082116109e0576040517f08c379a00000000000000000000000000000000000000000000000000000000081526004016109d790611bab565b60405180910390fd5b6000600360009054906101000a900473ffffffffffffffffffffffffffffffffffffffff1673ffffffffffffffffffffffffffffffffffffffff1663a9059cbb85856040518363ffffffff1660e01b8152600401610a3f929190611bec565b6020604051808303816000875af1158015610a5e573d6000803e3d6000fd5b505050506040513d601f19601f82011682018060405250810190610a8291906119cc565b905080610ac4576040517f08c379a0000000000000000000000000000000000000000000000000000000008152600401610abb90611c61565b60405180910390fd5b50610acd610e5d565b505050565b600360009054906101000a900473ffffffffffffffffffffffffffffffffffffffff1681565b60007f01ffc9a7000000000000000000000000000000000000000000000000000000007bffffffffffffffffffffffffffffffffffffffffffffffffffffffff1916827bffffffffffffffffffffffffffffffffffffffffffffffffffffffff1916149050919050565b610b7381610b6e610c67565b610e66565b50565b6000610b8283836108cf565b610c5c57600160008085815260200190815260200160002060000160008473ffffffffffffffffffffffffffffffffffffffff1673ffffffffffffffffffffffffffffffffffffffff16815260200190815260200160002060006101000a81548160ff021916908315150217905550610bf9610c67565b73ffffffffffffffffffffffffffffffffffffffff168273ffffffffffffffffffffffffffffffffffffffff16847f2f8788117e7eff1d82e926ec794901d17c78024a50270940304540a733656f0d60405160405180910390a460019050610c61565b600090505b92915050565b600033905090565b6000610c7b83836108cf565b15610d5657600080600085815260200190815260200160002060000160008473ffffffffffffffffffffffffffffffffffffffff1673ffffffffffffffffffffffffffffffffffffffff16815260200190815260200160002060006101000a81548160ff021916908315150217905550610cf3610c67565b73ffffffffffffffffffffffffffffffffffffffff168273ffffffffffffffffffffffffffffffffffffffff16847ff6391f5c32d9c69d2a47ea670b442974b53935d1edc7fd64eb21e047a839171b60405160405180910390a460019050610d5b565b600090505b92915050565b610d69610532565b15610da0576040517fd93c066500000000000000000000000000000000000000000000000000000000815260040160405180910390fd5b565b600260015403610dde576040517f3ee5aeb500000000000000000000000000000000000000000000000000000000815260040160405180910390fd5b6002600181905550565b6000600260019054906101000a900473ffffffffffffffffffffffffffffffffffffffff1673ffffffffffffffffffffffffffffffffffffffff16610e3e83610e3086610eb7565b610eed90919063ffffffff16565b73ffffffffffffffffffffffffffffffffffffffff1614905092915050565b60018081905550565b610e7082826108cf565b610eb35780826040517fe2517d3f000000000000000000000000000000000000000000000000000000008152600401610eaa929190611c81565b60405180910390fd5b5050565b60007f19457468657265756d205369676e6564204d6573736167653a0a33320000000060005281601c52603c6000209050919050565b600080600080610efd8686610f19565b925092509250610f0d8282610f75565b82935050505092915050565b60008060006041845103610f5e5760008060006020870151925060408701519150606087015160001a9050610f50888285856110d9565b955095509550505050610f6e565b60006002855160001b9250925092505b9250925092565b60006003811115610f8957610f88611caa565b5b826003811115610f9c57610f9b611caa565b5b03156110d55760016003811115610fb657610fb5611caa565b5b826003811115610fc957610fc8611caa565b5b03611000576040517ff645eedf00000000000000000000000000000000000000000000000000000000815260040160405180910390fd5b6002600381111561101457611013611caa565b5b82600381111561102757611026611caa565b5b0361106c578060001c6040517ffce698f70000000000000000000000000000000000000000000000000000000081526004016110639190611673565b60405180910390fd5b60038081111561107f5761107e611caa565b5b82600381111561109257611091611caa565b5b036110d457806040517fd78bce0c0000000000000000000000000000000000000000000000000000000081526004016110cb9190611393565b60405180910390fd5b5b5050565b60008060007f7fffffffffffffffffffffffffffffff5d576e7357a4501ddfe92f46681b20a08460001c11156111195760006003859250925092506111c3565b60006001888888886040516000815260200160405260405161113e9493929190611cf5565b6020604051602081039080840390855afa158015611160573d6000803e3d6000fd5b505050602060405103519050600073ffffffffffffffffffffffffffffffffffffffff168173ffffffffffffffffffffffffffffffffffffffff16036111b457600060016000801b935093509350506111c3565b8060008060001b935093509350505b9450945094915050565b6000604051905090565b600080fd5b600080fd5b60007fffffffff0000000000000000000000000000000000000000000000000000000082169050919050565b611216816111e1565b811461122157600080fd5b50565b6000813590506112338161120d565b92915050565b60006020828403121561124f5761124e6111d7565b5b600061125d84828501611224565b91505092915050565b60008115159050919050565b61127b81611266565b82525050565b60006020820190506112966000830184611272565b92915050565b60007fffffffffffffffffffffffffffffffff0000000000000000000000000000000082169050919050565b6112d18161129c565b81146112dc57600080fd5b50565b6000813590506112ee816112c8565b92915050565b60006020828403121561130a576113096111d7565b5b6000611318848285016112df565b91505092915050565b6000819050919050565b61133481611321565b811461133f57600080fd5b50565b6000813590506113518161132b565b92915050565b60006020828403121561136d5761136c6111d7565b5b600061137b84828501611342565b91505092915050565b61138d81611321565b82525050565b60006020820190506113a86000830184611384565b92915050565b600073ffffffffffffffffffffffffffffffffffffffff82169050919050565b60006113d9826113ae565b9050919050565b6113e9816113ce565b81146113f457600080fd5b50565b600081359050611406816113e0565b92915050565b60008060408385031215611423576114226111d7565b5b600061143185828601611342565b9250506020611442858286016113f7565b9150509250929050565b6000819050919050565b61145f8161144c565b811461146a57600080fd5b50565b60008135905061147c81611456565b92915050565b600080fd5b600080fd5b6000601f19601f8301169050919050565b7f4e487b7100000000000000000000000000000000000000000000000000000000600052604160045260246000fd5b6114d58261148c565b810181811067ffffffffffffffff821117156114f4576114f361149d565b5b80604052505050565b60006115076111cd565b905061151382826114cc565b919050565b600067ffffffffffffffff8211156115335761153261149d565b5b61153c8261148c565b9050602081019050919050565b82818337600083830152505050565b600061156b61156684611518565b6114fd565b90508281526020810184848401111561158757611586611487565b5b611592848285611549565b509392505050565b600082601f8301126115af576115ae611482565b5b81356115bf848260208601611558565b91505092915050565b6000806000606084860312156115e1576115e06111d7565b5b60006115ef868287016112df565b93505060206116008682870161146d565b925050604084013567ffffffffffffffff811115611621576116206111dc565b5b61162d8682870161159a565b9150509250925092565b60006020828403121561164d5761164c6111d7565b5b600061165b848285016113f7565b91505092915050565b61166d8161144c565b82525050565b60006020820190506116886000830184611664565b92915050565b600080600080608085870312156116a8576116a76111d7565b5b60006116b6878288016112df565b94505060206116c7878288016113f7565b93505060406116d88782880161146d565b92505060606116e98782880161146d565b91505092959194509250565b6116fe816113ce565b82525050565b600060208201905061171960008301846116f5565b92915050565b600061172a826113ae565b9050919050565b61173a8161171f565b811461174557600080fd5b50565b60008135905061175781611731565b92915050565b60008060408385031215611774576117736111d7565b5b600061178285828601611748565b92505060206117938582860161146d565b9150509250929050565b6000819050919050565b60006117c26117bd6117b8846113ae565b61179d565b6113ae565b9050919050565b60006117d4826117a7565b9050919050565b60006117e6826117c9565b9050919050565b6117f6816117db565b82525050565b600060208201905061181160008301846117ed565b92915050565b600082825260208201905092915050565b7f496e76616c6964207369676e6174757265000000000000000000000000000000600082015250565b600061185e601183611817565b915061186982611828565b602082019050919050565b6000602082019050818103600083015261188d81611851565b9050919050565b7f546f6b656e20616c726561647920697373756564000000000000000000000000600082015250565b60006118ca601483611817565b91506118d582611894565b602082019050919050565b600060208201905081810360008301526118f9816118bd565b9050919050565b7f4e487b7100000000000000000000000000000000000000000000000000000000600052601160045260246000fd5b600061193a8261144c565b91507fffffffffffffffffffffffffffffffffffffffffffffffffffffffffffffffff820361196c5761196b611900565b5b600182019050919050565b600060408201905061198c60008301856116f5565b6119996020830184611664565b9392505050565b6119a981611266565b81146119b457600080fd5b50565b6000815190506119c6816119a0565b92915050565b6000602082840312156119e2576119e16111d7565b5b60006119f0848285016119b7565b91505092915050565b7f4661696c656420746f2073656e6420546f6b656e000000000000000000000000600082015250565b6000611a2f601483611817565b9150611a3a826119f9565b602082019050919050565b60006020820190508181036000830152611a5e81611a22565b9050919050565b6000819050919050565b611a80611a7b8261129c565b611a65565b82525050565b60008160601b9050919050565b6000611a9e82611a86565b9050919050565b6000611ab082611a93565b9050919050565b611ac8611ac3826113ce565b611aa5565b82525050565b6000819050919050565b611ae9611ae48261144c565b611ace565b82525050565b6000611afb8289611a6f565b601082019150611b0b8288611ab7565b601482019150611b1b8287611ad8565b602082019150611b2b8286611ad8565b602082019150611b3b8285611ab7565b601482019150611b4b8284611ad8565b602082019150819050979650505050505050565b7f496e76616c696420616d6f756e74000000000000000000000000000000000000600082015250565b6000611b95600e83611817565b9150611ba082611b5f565b602082019050919050565b60006020820190508181036000830152611bc481611b88565b9050919050565b6000611bd6826117c9565b9050919050565b611be681611bcb565b82525050565b6000604082019050611c016000830185611bdd565b611c0e6020830184611664565b9392505050565b7f4661696c656420746f2073656e6420746f6b656e000000000000000000000000600082015250565b6000611c4b601483611817565b9150611c5682611c15565b602082019050919050565b60006020820190508181036000830152611c7a81611c3e565b9050919050565b6000604082019050611c9660008301856116f5565b611ca36020830184611384565b9392505050565b7f4e487b7100000000000000000000000000000000000000000000000000000000600052602160045260246000fd5b600060ff82169050919050565b611cef81611cd9565b82525050565b6000608082019050611d0a6000830187611384565b611d176020830186611ce6565b611d246040830185611384565b611d316060830184611384565b9594505050505056fea26469706673582212201d3729885f0144bb8322e5814338c593fa020afa844cade7f96e35b7336b3ae064736f6c63430008180033",
  "linkReferences": {},
  "deployedLinkReferences": {}
}