{
  "_format": "hh-sol-artifact-1",
  "contractName": "TestTokenMaster",
  "sourceName": "contracts/TestTokenMaster.sol",
  "abi": [
    {
      "inputs": [
        {
          "internalType": "address",
          "name": "_authorizedSigner",
          "type": "address"
        },
        {
          "internalType": "address",
          "name": "_treasury",
          "type": "address"
        },
        {
          "internalType": "contract ERC20",
          "name": "_token",
          "type": "address"
        }
      ],
      "stateMutability": "nonpayable",
      "type": "constructor"
    },
    {
      "inputs": [],
      "name": "AccessControlBadConfirmation",
      "type": "error"
    },
    {
      "inputs": [
        {
          "internalType": "address",
          "name": "account",
          "type": "address"
        },
        {
          "internalType": "bytes32",
          "name": "neededRole",
          "type": "bytes32"
        }
      ],
      "name": "AccessControlUnauthorizedAccount",
      "type": "error"
    },
    {
      "inputs": [
        {
          "internalType": "address",
          "name": "target",
          "type": "address"
        }
      ],
      "name": "AddressEmptyCode",
      "type": "error"
    },
    {
      "inputs": [],
      "name": "ECDSAInvalidSignature",
      "type": "error"
    },
    {
      "inputs": [
        {
          "internalType": "uint256",
          "name": "length",
          "type": "uint256"
        }
      ],
      "name": "ECDSAInvalidSignatureLength",
      "type": "error"
    },
    {
      "inputs": [
        {
          "internalType": "bytes32",
          "name": "s",
          "type": "bytes32"
        }
      ],
      "name": "ECDSAInvalidSignatureS",
      "type": "error"
    },
    {
      "inputs": [],
      "name": "EnforcedPause",
      "type": "error"
    },
    {
      "inputs": [],
      "name": "ExpectedPause",
      "type": "error"
    },
    {
      "inputs": [],
      "name": "FailedCall",
      "type": "error"
    },
    {
      "inputs": [],
      "name": "ReentrancyGuardReentrantCall",
      "type": "error"
    },
    {
      "anonymous": false,
      "inputs": [
        {
          "indexed": false,
          "internalType": "address",
          "name": "account",
          "type": "address"
        }
      ],
      "name": "Paused",
      "type": "event"
    },
    {
      "anonymous": false,
      "inputs": [
        {
          "indexed": true,
          "internalType": "bytes32",
          "name": "role",
          "type": "bytes32"
        },
        {
          "indexed": true,
          "internalType": "bytes32",
          "name": "previousAdminRole",
          "type": "bytes32"
        },
        {
          "indexed": true,
          "internalType": "bytes32",
          "name": "newAdminRole",
          "type": "bytes32"
        }
      ],
      "name": "RoleAdminChanged",
      "type": "event"
    },
    {
      "anonymous": false,
      "inputs": [
        {
          "indexed": true,
          "internalType": "bytes32",
          "name": "role",
          "type": "bytes32"
        },
        {
          "indexed": true,
          "internalType": "address",
          "name": "account",
          "type": "address"
        },
        {
          "indexed": true,
          "internalType": "address",
          "name": "sender",
          "type": "address"
        }
      ],
      "name": "RoleGranted",
      "type": "event"
    },
    {
      "anonymous": false,
      "inputs": [
        {
          "indexed": true,
          "internalType": "bytes32",
          "name": "role",
          "type": "bytes32"
        },
        {
          "indexed": true,
          "internalType": "address",
          "name": "account",
          "type": "address"
        },
        {
          "indexed": true,
          "internalType": "address",
          "name": "sender",
          "type": "address"
        }
      ],
      "name": "RoleRevoked",
      "type": "event"
    },
    {
      "anonymous": false,
      "inputs": [
        {
          "indexed": true,
          "internalType": "address",
          "name": "walletAddress",
          "type": "address"
        },
        {
          "indexed": true,
          "internalType": "bytes16",
          "name": "claimId",
          "type": "bytes16"
        },
        {
          "indexed": false,
          "internalType": "uint256",
          "name": "amount",
          "type": "uint256"
        }
      ],
      "name": "TokenPayOut",
      "type": "event"
    },
    {
      "anonymous": false,
      "inputs": [
        {
          "indexed": false,
          "internalType": "address",
          "name": "account",
          "type": "address"
        }
      ],
      "name": "Unpaused",
      "type": "event"
    },
    {
      "stateMutability": "payable",
      "type": "fallback"
    },
    {
      "inputs": [],
      "name": "DEFAULT_ADMIN_ROLE",
      "outputs": [
        {
          "internalType": "bytes32",
          "name": "",
          "type": "bytes32"
        }
      ],
      "stateMutability": "view",
      "type": "function"
    },
    {
      "inputs": [],
      "name": "authorizedSigner",
      "outputs": [
        {
          "internalType": "address",
          "name": "",
          "type": "address"
        }
      ],
      "stateMutability": "view",
      "type": "function"
    },
    {
      "inputs": [
        {
          "internalType": "bytes16",
          "name": "claimId",
          "type": "bytes16"
        },
        {
          "internalType": "uint256",
          "name": "amount",
          "type": "uint256"
        },
        {
          "internalType": "bytes",
          "name": "signature",
          "type": "bytes"
        }
      ],
      "name": "claimToken",
      "outputs": [],
      "stateMutability": "nonpayable",
      "type": "function"
    },
    {
      "inputs": [
        {
          "internalType": "bytes16",
          "name": "",
          "type": "bytes16"
        }
      ],
      "name": "claimed",
      "outputs": [
        {
          "internalType": "bool",
          "name": "",
          "type": "bool"
        }
      ],
      "stateMutability": "view",
      "type": "function"
    },
    {
      "inputs": [
        {
          "internalType": "bytes16",
          "name": "_claimId",
          "type": "bytes16"
        },
        {
          "internalType": "address",
          "name": "_receiver",
          "type": "address"
        },
        {
          "internalType": "uint256",
          "name": "_amount",
          "type": "uint256"
        },
        {
          "internalType": "uint256",
          "name": "_nonce",
          "type": "uint256"
        }
      ],
      "name": "getMessageHash",
      "outputs": [
        {
          "internalType": "bytes32",
          "name": "",
          "type": "bytes32"
        }
      ],
      "stateMutability": "view",
      "type": "function"
    },
    {
      "inputs": [
        {
          "internalType": "bytes32",
          "name": "role",
          "type": "bytes32"
        }
      ],
      "name": "getRoleAdmin",
      "outputs": [
        {
          "internalType": "bytes32",
          "name": "",
          "type": "bytes32"
        }
      ],
      "stateMutability": "view",
      "type": "function"
    },
    {
      "inputs": [
        {
          "internalType": "bytes32",
          "name": "role",
          "type": "bytes32"
        },
        {
          "internalType": "address",
          "name": "account",
          "type": "address"
        }
      ],
      "name": "grantRole",
      "outputs": [],
      "stateMutability": "nonpayable",
      "type": "function"
    },
    {
      "inputs": [
        {
          "internalType": "bytes32",
          "name": "role",
          "type": "bytes32"
        },
        {
          "internalType": "address",
          "name": "account",
          "type": "address"
        }
      ],
      "name": "hasRole",
      "outputs": [
        {
          "internalType": "bool",
          "name": "",
          "type": "bool"
        }
      ],
      "stateMutability": "view",
      "type": "function"
    },
    {
      "inputs": [
        {
          "internalType": "bytes[]",
          "name": "data",
          "type": "bytes[]"
        }
      ],
      "name": "multicall",
      "outputs": [
        {
          "internalType": "bytes[]",
          "name": "results",
          "type": "bytes[]"
        }
      ],
      "stateMutability": "nonpayable",
      "type": "function"
    },
    {
      "inputs": [
        {
          "internalType": "address",
          "name": "",
          "type": "address"
        }
      ],
      "name": "nonces",
      "outputs": [
        {
          "internalType": "uint256",
          "name": "",
          "type": "uint256"
        }
      ],
      "stateMutability": "view",
      "type": "function"
    },
    {
      "inputs": [],
      "name": "paused",
      "outputs": [
        {
          "internalType": "bool",
          "name": "",
          "type": "bool"
        }
      ],
      "stateMutability": "view",
      "type": "function"
    },
    {
      "inputs": [
        {
          "internalType": "bytes32",
          "name": "role",
          "type": "bytes32"
        },
        {
          "internalType": "address",
          "name": "callerConfirmation",
          "type": "address"
        }
      ],
      "name": "renounceRole",
      "outputs": [],
      "stateMutability": "nonpayable",
      "type": "function"
    },
    {
      "inputs": [
        {
          "internalType": "bytes16",
          "name": "claimId",
          "type": "bytes16"
        }
      ],
      "name": "resetClaimed",
      "outputs": [],
      "stateMutability": "nonpayable",
      "type": "function"
    },
    {
      "inputs": [
        {
          "internalType": "bytes32",
          "name": "role",
          "type": "bytes32"
        },
        {
          "internalType": "address",
          "name": "account",
          "type": "address"
        }
      ],
      "name": "revokeRole",
      "outputs": [],
      "stateMutability": "nonpayable",
      "type": "function"
    },
    {
      "inputs": [
        {
          "internalType": "address",
          "name": "_receiver",
          "type": "address"
        },
        {
          "internalType": "uint256",
          "name": "_nonce",
          "type": "uint256"
        }
      ],
      "name": "setNonce",
      "outputs": [],
      "stateMutability": "nonpayable",
      "type": "function"
    },
    {
      "inputs": [
        {
          "internalType": "address",
          "name": "_treasury",
          "type": "address"
        }
      ],
      "name": "setTreasury",
      "outputs": [],
      "stateMutability": "nonpayable",
      "type": "function"
    },
    {
      "inputs": [
        {
          "internalType": "bytes4",
          "name": "interfaceId",
          "type": "bytes4"
        }
      ],
      "name": "supportsInterface",
      "outputs": [
        {
          "internalType": "bool",
          "name": "",
          "type": "bool"
        }
      ],
      "stateMutability": "view",
      "type": "function"
    },
    {
      "inputs": [],
      "name": "token",
      "outputs": [
        {
          "internalType": "contract ERC20",
          "name": "",
          "type": "address"
        }
      ],
      "stateMutability": "view",
      "type": "function"
    },
    {
      "inputs": [],
      "name": "treasury",
      "outputs": [
        {
          "internalType": "address",
          "name": "",
          "type": "address"
        }
      ],
      "stateMutability": "view",
      "type": "function"
    },
    {
      "stateMutability": "payable",
      "type": "receive"
    }
  ],
  "bytecode": "0x60806040523480156200001157600080fd5b5060405162002d5a38038062002d5a8339818101604052810190620000379190620004bb565b828282600180819055506000600260006101000a81548160ff021916908315150217905550600073ffffffffffffffffffffffffffffffffffffffff168373ffffffffffffffffffffffffffffffffffffffff1603620000ce576040517f08c379a0000000000000000000000000000000000000000000000000000000008152600401620000c59062000578565b60405180910390fd5b600073ffffffffffffffffffffffffffffffffffffffff168273ffffffffffffffffffffffffffffffffffffffff160362000140576040517f08c379a00000000000000000000000000000000000000000000000000000000081526004016200013790620005ea565b60405180910390fd5b600073ffffffffffffffffffffffffffffffffffffffff168173ffffffffffffffffffffffffffffffffffffffff1603620001b2576040517f08c379a0000000000000000000000000000000000000000000000000000000008152600401620001a9906200065c565b60405180910390fd5b82600260016101000a81548173ffffffffffffffffffffffffffffffffffffffff021916908373ffffffffffffffffffffffffffffffffffffffff16021790555080600360006101000a81548173ffffffffffffffffffffffffffffffffffffffff021916908373ffffffffffffffffffffffffffffffffffffffff16021790555081600460006101000a81548173ffffffffffffffffffffffffffffffffffffffff021916908373ffffffffffffffffffffffffffffffffffffffff1602179055506200028a6000801b336200029760201b60201c565b505050505050506200067e565b6000620002ab83836200039a60201b60201c565b6200038f57600160008085815260200190815260200160002060000160008473ffffffffffffffffffffffffffffffffffffffff1673ffffffffffffffffffffffffffffffffffffffff16815260200190815260200160002060006101000a81548160ff0219169083151502179055506200032b6200040460201b60201c565b73ffffffffffffffffffffffffffffffffffffffff168273ffffffffffffffffffffffffffffffffffffffff16847f2f8788117e7eff1d82e926ec794901d17c78024a50270940304540a733656f0d60405160405180910390a46001905062000394565b600090505b92915050565b600080600084815260200190815260200160002060000160008373ffffffffffffffffffffffffffffffffffffffff1673ffffffffffffffffffffffffffffffffffffffff16815260200190815260200160002060009054906101000a900460ff16905092915050565b600033905090565b600080fd5b600073ffffffffffffffffffffffffffffffffffffffff82169050919050565b60006200043e8262000411565b9050919050565b620004508162000431565b81146200045c57600080fd5b50565b600081519050620004708162000445565b92915050565b6000620004838262000431565b9050919050565b620004958162000476565b8114620004a157600080fd5b50565b600081519050620004b5816200048a565b92915050565b600080600060608486031215620004d757620004d66200040c565b5b6000620004e7868287016200045f565b9350506020620004fa868287016200045f565b92505060406200050d86828701620004a4565b9150509250925092565b600082825260208201905092915050565b7f496e76616c6964207369676e6572206164647265737300000000000000000000600082015250565b60006200056060168362000517565b91506200056d8262000528565b602082019050919050565b60006020820190508181036000830152620005938162000551565b9050919050565b7f496e76616c696420747265617375727920616464726573730000000000000000600082015250565b6000620005d260188362000517565b9150620005df826200059a565b602082019050919050565b600060208201905081810360008301526200060581620005c3565b9050919050565b7f496e76616c696420746f6b656e20616464726573730000000000000000000000600082015250565b60006200064460158362000517565b915062000651826200060c565b602082019050919050565b60006020820190508181036000830152620006778162000635565b9050919050565b6126cc806200068e6000396000f3fe6080604052600436106101185760003560e01c80637ecebe00116100a0578063c771909c11610064578063c771909c146103f1578063cd472d061461041c578063d547741f14610445578063f0f442601461046e578063fc0c546a146104975761011f565b80637ecebe00146102d25780638a531a3f1461030f57806391d148541461034c578063a217fddf14610389578063ac9650d8146103b45761011f565b80632f2ff15d116100e75780632f2ff15d1461020157806336568abe1461022a5780635c975abb1461025357806361d027b31461027e5780637a23f83a146102a95761011f565b806301ffc9a7146101215780631d79f3251461015e5780631dd1eb4414610187578063248a9ca3146101c45761011f565b3661011f57005b005b34801561012d57600080fd5b50610148600480360381019061014391906117dc565b6104c2565b6040516101559190611824565b60405180910390f35b34801561016a57600080fd5b50610185600480360381019061018091906118d3565b61053c565b005b34801561019357600080fd5b506101ae60048036038101906101a9919061196b565b610592565b6040516101bb9190611824565b60405180910390f35b3480156101d057600080fd5b506101eb60048036038101906101e691906119ce565b6105b2565b6040516101f89190611a0a565b60405180910390f35b34801561020d57600080fd5b5061022860048036038101906102239190611a25565b6105d1565b005b34801561023657600080fd5b50610251600480360381019061024c9190611a25565b6105f3565b005b34801561025f57600080fd5b5061026861066e565b6040516102759190611824565b60405180910390f35b34801561028a57600080fd5b50610293610685565b6040516102a09190611a74565b60405180910390f35b3480156102b557600080fd5b506102d060048036038101906102cb9190611bd5565b6106ab565b005b3480156102de57600080fd5b506102f960048036038101906102f49190611c44565b610b02565b6040516103069190611c80565b60405180910390f35b34801561031b57600080fd5b5061033660048036038101906103319190611c9b565b610b1a565b6040516103439190611a0a565b60405180910390f35b34801561035857600080fd5b50610373600480360381019061036e9190611a25565b610b57565b6040516103809190611824565b60405180910390f35b34801561039557600080fd5b5061039e610bc1565b6040516103ab9190611a0a565b60405180910390f35b3480156103c057600080fd5b506103db60048036038101906103d69190611d62565b610bc8565b6040516103e89190611ef0565b60405180910390f35b3480156103fd57600080fd5b50610406610dac565b6040516104139190611a74565b60405180910390f35b34801561042857600080fd5b50610443600480360381019061043e919061196b565b610dd2565b005b34801561045157600080fd5b5061046c60048036038101906104679190611a25565b610e35565b005b34801561047a57600080fd5b5061049560048036038101906104909190611c44565b610e57565b005b3480156104a357600080fd5b506104ac610f18565b6040516104b99190611f71565b60405180910390f35b60007f7965db0b000000000000000000000000000000000000000000000000000000007bffffffffffffffffffffffffffffffffffffffffffffffffffffffff1916827bffffffffffffffffffffffffffffffffffffffffffffffffffffffff19161480610535575061053482610f3e565b5b9050919050565b6000801b61054981610fa8565b81600660008573ffffffffffffffffffffffffffffffffffffffff1673ffffffffffffffffffffffffffffffffffffffff16815260200190815260200160002081905550505050565b60056020528060005260406000206000915054906101000a900460ff1681565b6000806000838152602001908152602001600020600101549050919050565b6105da826105b2565b6105e381610fa8565b6105ed8383610fbc565b50505050565b6105fb6110ad565b73ffffffffffffffffffffffffffffffffffffffff168173ffffffffffffffffffffffffffffffffffffffff161461065f576040517f6697b23200000000000000000000000000000000000000000000000000000000815260040160405180910390fd5b61066982826110b5565b505050565b6000600260009054906101000a900460ff16905090565b600460009054906101000a900473ffffffffffffffffffffffffffffffffffffffff1681565b6106b36111a7565b6106bb6111e8565b6000339050600061070d858386600660008773ffffffffffffffffffffffffffffffffffffffff1673ffffffffffffffffffffffffffffffffffffffff16815260200190815260200160002054610b1a565b9050610719818461122e565b610758576040517f08c379a000000000000000000000000000000000000000000000000000000000815260040161074f90611fe9565b60405180910390fd5b60056000866fffffffffffffffffffffffffffffffff19166fffffffffffffffffffffffffffffffff1916815260200190815260200160002060009054906101000a900460ff16156107df576040517f08c379a00000000000000000000000000000000000000000000000000000000081526004016107d690612055565b60405180910390fd5b83600360009054906101000a900473ffffffffffffffffffffffffffffffffffffffff1673ffffffffffffffffffffffffffffffffffffffff1663dd62ed3e600460009054906101000a900473ffffffffffffffffffffffffffffffffffffffff16306040518363ffffffff1660e01b815260040161085f929190612075565b602060405180830381865afa15801561087c573d6000803e3d6000fd5b505050506040513d601f19601f820116820180604052508101906108a091906120b3565b10156108e1576040517f08c379a00000000000000000000000000000000000000000000000000000000081526004016108d89061212c565b60405180910390fd5b600160056000876fffffffffffffffffffffffffffffffff19166fffffffffffffffffffffffffffffffff1916815260200190815260200160002060006101000a81548160ff021916908315150217905550600660008373ffffffffffffffffffffffffffffffffffffffff1673ffffffffffffffffffffffffffffffffffffffff16815260200190815260200160002060008154809291906109839061217b565b91905055506000600360009054906101000a900473ffffffffffffffffffffffffffffffffffffffff1673ffffffffffffffffffffffffffffffffffffffff166323b872dd600460009054906101000a900473ffffffffffffffffffffffffffffffffffffffff1685886040518463ffffffff1660e01b8152600401610a0b939291906121c3565b6020604051808303816000875af1158015610a2a573d6000803e3d6000fd5b505050506040513d601f19601f82011682018060405250810190610a4e9190612226565b905080610a90576040517f08c379a0000000000000000000000000000000000000000000000000000000008152600401610a879061229f565b60405180910390fd5b856fffffffffffffffffffffffffffffffff19168373ffffffffffffffffffffffffffffffffffffffff167f1ec0a4b718049e90872f9887c3f58d7aa76e5f3c22859d6e6dc0d3f0a948a4e287604051610aea9190611c80565b60405180910390a3505050610afd6112a3565b505050565b60066020528060005260406000206000915090505481565b6000848484463086604051602001610b3796959493929190612349565b604051602081830303815290604052805190602001209050949350505050565b600080600084815260200190815260200160002060000160008373ffffffffffffffffffffffffffffffffffffffff1673ffffffffffffffffffffffffffffffffffffffff16815260200190815260200160002060009054906101000a900460ff16905092915050565b6000801b81565b60606000610bd46110ad565b73ffffffffffffffffffffffffffffffffffffffff163373ffffffffffffffffffffffffffffffffffffffff1614610c7757600036610c116112ac565b6000369050610c2091906123b9565b908092610c2f939291906123f7565b8080601f016020809104026020016040519081016040528093929190818152602001838380828437600081840152601f19601f82011690508083019250505050505050610cc6565b600067ffffffffffffffff811115610c9257610c91611aaa565b5b6040519080825280601f01601f191660200182016040528015610cc45781602001600182028036833780820191505090505b505b90508383905067ffffffffffffffff811115610ce557610ce4611aaa565b5b604051908082528060200260200182016040528015610d1857816020015b6060815260200190600190039081610d035790505b50915060005b84849050811015610da457610d7930868684818110610d4057610d3f612432565b5b9050602002810190610d529190612470565b85604051602001610d6593929190612534565b6040516020818303038152906040526112b1565b838281518110610d8c57610d8b612432565b5b60200260200101819052508080600101915050610d1e565b505092915050565b600260019054906101000a900473ffffffffffffffffffffffffffffffffffffffff1681565b6000801b610ddf81610fa8565b600060056000846fffffffffffffffffffffffffffffffff19166fffffffffffffffffffffffffffffffff1916815260200190815260200160002060006101000a81548160ff0219169083151502179055505050565b610e3e826105b2565b610e4781610fa8565b610e5183836110b5565b50505050565b6000801b610e6481610fa8565b600073ffffffffffffffffffffffffffffffffffffffff168273ffffffffffffffffffffffffffffffffffffffff1603610ed3576040517f08c379a0000000000000000000000000000000000000000000000000000000008152600401610eca906125a6565b60405180910390fd5b81600460006101000a81548173ffffffffffffffffffffffffffffffffffffffff021916908373ffffffffffffffffffffffffffffffffffffffff1602179055505050565b600360009054906101000a900473ffffffffffffffffffffffffffffffffffffffff1681565b60007f01ffc9a7000000000000000000000000000000000000000000000000000000007bffffffffffffffffffffffffffffffffffffffffffffffffffffffff1916827bffffffffffffffffffffffffffffffffffffffffffffffffffffffff1916149050919050565b610fb981610fb46110ad565b611335565b50565b6000610fc88383610b57565b6110a257600160008085815260200190815260200160002060000160008473ffffffffffffffffffffffffffffffffffffffff1673ffffffffffffffffffffffffffffffffffffffff16815260200190815260200160002060006101000a81548160ff02191690831515021790555061103f6110ad565b73ffffffffffffffffffffffffffffffffffffffff168273ffffffffffffffffffffffffffffffffffffffff16847f2f8788117e7eff1d82e926ec794901d17c78024a50270940304540a733656f0d60405160405180910390a4600190506110a7565b600090505b92915050565b600033905090565b60006110c18383610b57565b1561119c57600080600085815260200190815260200160002060000160008473ffffffffffffffffffffffffffffffffffffffff1673ffffffffffffffffffffffffffffffffffffffff16815260200190815260200160002060006101000a81548160ff0219169083151502179055506111396110ad565b73ffffffffffffffffffffffffffffffffffffffff168273ffffffffffffffffffffffffffffffffffffffff16847ff6391f5c32d9c69d2a47ea670b442974b53935d1edc7fd64eb21e047a839171b60405160405180910390a4600190506111a1565b600090505b92915050565b6111af61066e565b156111e6576040517fd93c066500000000000000000000000000000000000000000000000000000000815260040160405180910390fd5b565b600260015403611224576040517f3ee5aeb500000000000000000000000000000000000000000000000000000000815260040160405180910390fd5b6002600181905550565b6000600260019054906101000a900473ffffffffffffffffffffffffffffffffffffffff1673ffffffffffffffffffffffffffffffffffffffff166112848361127686611386565b6113bc90919063ffffffff16565b73ffffffffffffffffffffffffffffffffffffffff1614905092915050565b60018081905550565b600090565b60606000808473ffffffffffffffffffffffffffffffffffffffff16846040516112db91906125c6565b600060405180830381855af49150503d8060008114611316576040519150601f19603f3d011682016040523d82523d6000602084013e61131b565b606091505b509150915061132b8583836113e8565b9250505092915050565b61133f8282610b57565b6113825780826040517fe2517d3f0000000000000000000000000000000000000000000000000000000081526004016113799291906125dd565b60405180910390fd5b5050565b60007f19457468657265756d205369676e6564204d6573736167653a0a33320000000060005281601c52603c6000209050919050565b6000806000806113cc8686611477565b9250925092506113dc82826114d3565b82935050505092915050565b6060826113fd576113f882611637565b61146f565b60008251148015611425575060008473ffffffffffffffffffffffffffffffffffffffff163b145b1561146757836040517f9996b31500000000000000000000000000000000000000000000000000000000815260040161145e9190611a74565b60405180910390fd5b819050611470565b5b9392505050565b600080600060418451036114bc5760008060006020870151925060408701519150606087015160001a90506114ae8882858561167c565b9550955095505050506114cc565b60006002855160001b9250925092505b9250925092565b600060038111156114e7576114e6612606565b5b8260038111156114fa576114f9612606565b5b0315611633576001600381111561151457611513612606565b5b82600381111561152757611526612606565b5b0361155e576040517ff645eedf00000000000000000000000000000000000000000000000000000000815260040160405180910390fd5b6002600381111561157257611571612606565b5b82600381111561158557611584612606565b5b036115ca578060001c6040517ffce698f70000000000000000000000000000000000000000000000000000000081526004016115c19190611c80565b60405180910390fd5b6003808111156115dd576115dc612606565b5b8260038111156115f0576115ef612606565b5b0361163257806040517fd78bce0c0000000000000000000000000000000000000000000000000000000081526004016116299190611a0a565b60405180910390fd5b5b5050565b60008151111561164a5780518082602001fd5b6040517fd6bda27500000000000000000000000000000000000000000000000000000000815260040160405180910390fd5b60008060007f7fffffffffffffffffffffffffffffff5d576e7357a4501ddfe92f46681b20a08460001c11156116bc576000600385925092509250611766565b6000600188888888604051600081526020016040526040516116e19493929190612651565b6020604051602081039080840390855afa158015611703573d6000803e3d6000fd5b505050602060405103519050600073ffffffffffffffffffffffffffffffffffffffff168173ffffffffffffffffffffffffffffffffffffffff160361175757600060016000801b93509350935050611766565b8060008060001b935093509350505b9450945094915050565b6000604051905090565b600080fd5b600080fd5b60007fffffffff0000000000000000000000000000000000000000000000000000000082169050919050565b6117b981611784565b81146117c457600080fd5b50565b6000813590506117d6816117b0565b92915050565b6000602082840312156117f2576117f161177a565b5b6000611800848285016117c7565b91505092915050565b60008115159050919050565b61181e81611809565b82525050565b60006020820190506118396000830184611815565b92915050565b600073ffffffffffffffffffffffffffffffffffffffff82169050919050565b600061186a8261183f565b9050919050565b61187a8161185f565b811461188557600080fd5b50565b60008135905061189781611871565b92915050565b6000819050919050565b6118b08161189d565b81146118bb57600080fd5b50565b6000813590506118cd816118a7565b92915050565b600080604083850312156118ea576118e961177a565b5b60006118f885828601611888565b9250506020611909858286016118be565b9150509250929050565b60007fffffffffffffffffffffffffffffffff0000000000000000000000000000000082169050919050565b61194881611913565b811461195357600080fd5b50565b6000813590506119658161193f565b92915050565b6000602082840312156119815761198061177a565b5b600061198f84828501611956565b91505092915050565b6000819050919050565b6119ab81611998565b81146119b657600080fd5b50565b6000813590506119c8816119a2565b92915050565b6000602082840312156119e4576119e361177a565b5b60006119f2848285016119b9565b91505092915050565b611a0481611998565b82525050565b6000602082019050611a1f60008301846119fb565b92915050565b60008060408385031215611a3c57611a3b61177a565b5b6000611a4a858286016119b9565b9250506020611a5b85828601611888565b9150509250929050565b611a6e8161185f565b82525050565b6000602082019050611a896000830184611a65565b92915050565b600080fd5b600080fd5b6000601f19601f8301169050919050565b7f4e487b7100000000000000000000000000000000000000000000000000000000600052604160045260246000fd5b611ae282611a99565b810181811067ffffffffffffffff82111715611b0157611b00611aaa565b5b80604052505050565b6000611b14611770565b9050611b208282611ad9565b919050565b600067ffffffffffffffff821115611b4057611b3f611aaa565b5b611b4982611a99565b9050602081019050919050565b82818337600083830152505050565b6000611b78611b7384611b25565b611b0a565b905082815260208101848484011115611b9457611b93611a94565b5b611b9f848285611b56565b509392505050565b600082601f830112611bbc57611bbb611a8f565b5b8135611bcc848260208601611b65565b91505092915050565b600080600060608486031215611bee57611bed61177a565b5b6000611bfc86828701611956565b9350506020611c0d868287016118be565b925050604084013567ffffffffffffffff811115611c2e57611c2d61177f565b5b611c3a86828701611ba7565b9150509250925092565b600060208284031215611c5a57611c5961177a565b5b6000611c6884828501611888565b91505092915050565b611c7a8161189d565b82525050565b6000602082019050611c956000830184611c71565b92915050565b60008060008060808587031215611cb557611cb461177a565b5b6000611cc387828801611956565b9450506020611cd487828801611888565b9350506040611ce5878288016118be565b9250506060611cf6878288016118be565b91505092959194509250565b600080fd5b600080fd5b60008083601f840112611d2257611d21611a8f565b5b8235905067ffffffffffffffff811115611d3f57611d3e611d02565b5b602083019150836020820283011115611d5b57611d5a611d07565b5b9250929050565b60008060208385031215611d7957611d7861177a565b5b600083013567ffffffffffffffff811115611d9757611d9661177f565b5b611da385828601611d0c565b92509250509250929050565b600081519050919050565b600082825260208201905092915050565b6000819050602082019050919050565b600081519050919050565b600082825260208201905092915050565b60005b83811015611e15578082015181840152602081019050611dfa565b60008484015250505050565b6000611e2c82611ddb565b611e368185611de6565b9350611e46818560208601611df7565b611e4f81611a99565b840191505092915050565b6000611e668383611e21565b905092915050565b6000602082019050919050565b6000611e8682611daf565b611e908185611dba565b935083602082028501611ea285611dcb565b8060005b85811015611ede5784840389528151611ebf8582611e5a565b9450611eca83611e6e565b925060208a01995050600181019050611ea6565b50829750879550505050505092915050565b60006020820190508181036000830152611f0a8184611e7b565b905092915050565b6000819050919050565b6000611f37611f32611f2d8461183f565b611f12565b61183f565b9050919050565b6000611f4982611f1c565b9050919050565b6000611f5b82611f3e565b9050919050565b611f6b81611f50565b82525050565b6000602082019050611f866000830184611f62565b92915050565b600082825260208201905092915050565b7f496e76616c6964207369676e6174757265000000000000000000000000000000600082015250565b6000611fd3601183611f8c565b9150611fde82611f9d565b602082019050919050565b6000602082019050818103600083015261200281611fc6565b9050919050565b7f546f6b656e20616c726561647920697373756564000000000000000000000000600082015250565b600061203f601483611f8c565b915061204a82612009565b602082019050919050565b6000602082019050818103600083015261206e81612032565b9050919050565b600060408201905061208a6000830185611a65565b6120976020830184611a65565b9392505050565b6000815190506120ad816118a7565b92915050565b6000602082840312156120c9576120c861177a565b5b60006120d78482850161209e565b91505092915050565b7f496e73756666696369656e7420616c6c6f77616e636500000000000000000000600082015250565b6000612116601683611f8c565b9150612121826120e0565b602082019050919050565b6000602082019050818103600083015261214581612109565b9050919050565b7f4e487b7100000000000000000000000000000000000000000000000000000000600052601160045260246000fd5b60006121868261189d565b91507fffffffffffffffffffffffffffffffffffffffffffffffffffffffffffffffff82036121b8576121b761214c565b5b600182019050919050565b60006060820190506121d86000830186611a65565b6121e56020830185611a65565b6121f26040830184611c71565b949350505050565b61220381611809565b811461220e57600080fd5b50565b600081519050612220816121fa565b92915050565b60006020828403121561223c5761223b61177a565b5b600061224a84828501612211565b91505092915050565b7f4661696c656420746f2073656e6420546f6b656e000000000000000000000000600082015250565b6000612289601483611f8c565b915061229482612253565b602082019050919050565b600060208201905081810360008301526122b88161227c565b9050919050565b6000819050919050565b6122da6122d582611913565b6122bf565b82525050565b60008160601b9050919050565b60006122f8826122e0565b9050919050565b600061230a826122ed565b9050919050565b61232261231d8261185f565b6122ff565b82525050565b6000819050919050565b61234361233e8261189d565b612328565b82525050565b600061235582896122c9565b6010820191506123658288612311565b6014820191506123758287612332565b6020820191506123858286612332565b6020820191506123958285612311565b6014820191506123a58284612332565b602082019150819050979650505050505050565b60006123c48261189d565b91506123cf8361189d565b92508282039050818111156123e7576123e661214c565b5b92915050565b600080fd5b600080fd5b6000808585111561240b5761240a6123ed565b5b8386111561241c5761241b6123f2565b5b6001850283019150848603905094509492505050565b7f4e487b7100000000000000000000000000000000000000000000000000000000600052603260045260246000fd5b600080fd5b600080fd5b600080fd5b6000808335600160200384360303811261248d5761248c612461565b5b80840192508235915067ffffffffffffffff8211156124af576124ae612466565b5b6020830192506001820236038313156124cb576124ca61246b565b5b509250929050565b600081905092915050565b60006124ea83856124d3565b93506124f7838584611b56565b82840190509392505050565b600061250e82611ddb565b61251881856124d3565b9350612528818560208601611df7565b80840191505092915050565b60006125418285876124de565b915061254d8284612503565b9150819050949350505050565b7f496e76616c696420747265617375727920616464726573730000000000000000600082015250565b6000612590601883611f8c565b915061259b8261255a565b602082019050919050565b600060208201905081810360008301526125bf81612583565b9050919050565b60006125d28284612503565b915081905092915050565b60006040820190506125f26000830185611a65565b6125ff60208301846119fb565b9392505050565b7f4e487b7100000000000000000000000000000000000000000000000000000000600052602160045260246000fd5b600060ff82169050919050565b61264b81612635565b82525050565b600060808201905061266660008301876119fb565b6126736020830186612642565b61268060408301856119fb565b61268d60608301846119fb565b9594505050505056fea2646970667358221220cdf3dff4a2da1f26a175733ebcf814c7bce1c2fac156f6597ad654e32c9bfa5564736f6c63430008180033",
  "linkReferences": {},
  "deployedLinkReferences": {}
}