{
  "_format": "hh-sol-artifact-1",
  "contractName": "TokenMaster",
  "sourceName": "contracts/TokenMaster.sol",
  "abi": [
    {
      "inputs": [
        {
          "internalType": "address",
          "name": "_authorizedSigner",
          "type": "address"
        },
        {
          "internalType": "address",
          "name": "_treasury",
          "type": "address"
        },
        {
          "internalType": "contract ERC20",
          "name": "_token",
          "type": "address"
        }
      ],
      "stateMutability": "nonpayable",
      "type": "constructor"
    },
    {
      "inputs": [],
      "name": "AccessControlBadConfirmation",
      "type": "error"
    },
    {
      "inputs": [
        {
          "internalType": "address",
          "name": "account",
          "type": "address"
        },
        {
          "internalType": "bytes32",
          "name": "neededRole",
          "type": "bytes32"
        }
      ],
      "name": "AccessControlUnauthorizedAccount",
      "type": "error"
    },
    {
      "inputs": [
        {
          "internalType": "address",
          "name": "target",
          "type": "address"
        }
      ],
      "name": "AddressEmptyCode",
      "type": "error"
    },
    {
      "inputs": [],
      "name": "ECDSAInvalidSignature",
      "type": "error"
    },
    {
      "inputs": [
        {
          "internalType": "uint256",
          "name": "length",
          "type": "uint256"
        }
      ],
      "name": "ECDSAInvalidSignatureLength",
      "type": "error"
    },
    {
      "inputs": [
        {
          "internalType": "bytes32",
          "name": "s",
          "type": "bytes32"
        }
      ],
      "name": "ECDSAInvalidSignatureS",
      "type": "error"
    },
    {
      "inputs": [],
      "name": "EnforcedPause",
      "type": "error"
    },
    {
      "inputs": [],
      "name": "ExpectedPause",
      "type": "error"
    },
    {
      "inputs": [],
      "name": "FailedCall",
      "type": "error"
    },
    {
      "inputs": [],
      "name": "ReentrancyGuardReentrantCall",
      "type": "error"
    },
    {
      "anonymous": false,
      "inputs": [
        {
          "indexed": false,
          "internalType": "address",
          "name": "account",
          "type": "address"
        }
      ],
      "name": "Paused",
      "type": "event"
    },
    {
      "anonymous": false,
      "inputs": [
        {
          "indexed": true,
          "internalType": "bytes32",
          "name": "role",
          "type": "bytes32"
        },
        {
          "indexed": true,
          "internalType": "bytes32",
          "name": "previousAdminRole",
          "type": "bytes32"
        },
        {
          "indexed": true,
          "internalType": "bytes32",
          "name": "newAdminRole",
          "type": "bytes32"
        }
      ],
      "name": "RoleAdminChanged",
      "type": "event"
    },
    {
      "anonymous": false,
      "inputs": [
        {
          "indexed": true,
          "internalType": "bytes32",
          "name": "role",
          "type": "bytes32"
        },
        {
          "indexed": true,
          "internalType": "address",
          "name": "account",
          "type": "address"
        },
        {
          "indexed": true,
          "internalType": "address",
          "name": "sender",
          "type": "address"
        }
      ],
      "name": "RoleGranted",
      "type": "event"
    },
    {
      "anonymous": false,
      "inputs": [
        {
          "indexed": true,
          "internalType": "bytes32",
          "name": "role",
          "type": "bytes32"
        },
        {
          "indexed": true,
          "internalType": "address",
          "name": "account",
          "type": "address"
        },
        {
          "indexed": true,
          "internalType": "address",
          "name": "sender",
          "type": "address"
        }
      ],
      "name": "RoleRevoked",
      "type": "event"
    },
    {
      "anonymous": false,
      "inputs": [
        {
          "indexed": true,
          "internalType": "address",
          "name": "walletAddress",
          "type": "address"
        },
        {
          "indexed": true,
          "internalType": "bytes16",
          "name": "claimId",
          "type": "bytes16"
        },
        {
          "indexed": false,
          "internalType": "uint256",
          "name": "amount",
          "type": "uint256"
        }
      ],
      "name": "TokenPayOut",
      "type": "event"
    },
    {
      "anonymous": false,
      "inputs": [
        {
          "indexed": false,
          "internalType": "address",
          "name": "account",
          "type": "address"
        }
      ],
      "name": "Unpaused",
      "type": "event"
    },
    {
      "stateMutability": "payable",
      "type": "fallback"
    },
    {
      "inputs": [],
      "name": "DEFAULT_ADMIN_ROLE",
      "outputs": [
        {
          "internalType": "bytes32",
          "name": "",
          "type": "bytes32"
        }
      ],
      "stateMutability": "view",
      "type": "function"
    },
    {
      "inputs": [],
      "name": "authorizedSigner",
      "outputs": [
        {
          "internalType": "address",
          "name": "",
          "type": "address"
        }
      ],
      "stateMutability": "view",
      "type": "function"
    },
    {
      "inputs": [
        {
          "internalType": "bytes16",
          "name": "claimId",
          "type": "bytes16"
        },
        {
          "internalType": "uint256",
          "name": "amount",
          "type": "uint256"
        },
        {
          "internalType": "bytes",
          "name": "signature",
          "type": "bytes"
        }
      ],
      "name": "claimToken",
      "outputs": [],
      "stateMutability": "nonpayable",
      "type": "function"
    },
    {
      "inputs": [
        {
          "internalType": "bytes16",
          "name": "",
          "type": "bytes16"
        }
      ],
      "name": "claimed",
      "outputs": [
        {
          "internalType": "bool",
          "name": "",
          "type": "bool"
        }
      ],
      "stateMutability": "view",
      "type": "function"
    },
    {
      "inputs": [
        {
          "internalType": "bytes16",
          "name": "_claimId",
          "type": "bytes16"
        },
        {
          "internalType": "address",
          "name": "_receiver",
          "type": "address"
        },
        {
          "internalType": "uint256",
          "name": "_amount",
          "type": "uint256"
        },
        {
          "internalType": "uint256",
          "name": "_nonce",
          "type": "uint256"
        }
      ],
      "name": "getMessageHash",
      "outputs": [
        {
          "internalType": "bytes32",
          "name": "",
          "type": "bytes32"
        }
      ],
      "stateMutability": "view",
      "type": "function"
    },
    {
      "inputs": [
        {
          "internalType": "bytes32",
          "name": "role",
          "type": "bytes32"
        }
      ],
      "name": "getRoleAdmin",
      "outputs": [
        {
          "internalType": "bytes32",
          "name": "",
          "type": "bytes32"
        }
      ],
      "stateMutability": "view",
      "type": "function"
    },
    {
      "inputs": [
        {
          "internalType": "bytes32",
          "name": "role",
          "type": "bytes32"
        },
        {
          "internalType": "address",
          "name": "account",
          "type": "address"
        }
      ],
      "name": "grantRole",
      "outputs": [],
      "stateMutability": "nonpayable",
      "type": "function"
    },
    {
      "inputs": [
        {
          "internalType": "bytes32",
          "name": "role",
          "type": "bytes32"
        },
        {
          "internalType": "address",
          "name": "account",
          "type": "address"
        }
      ],
      "name": "hasRole",
      "outputs": [
        {
          "internalType": "bool",
          "name": "",
          "type": "bool"
        }
      ],
      "stateMutability": "view",
      "type": "function"
    },
    {
      "inputs": [
        {
          "internalType": "bytes[]",
          "name": "data",
          "type": "bytes[]"
        }
      ],
      "name": "multicall",
      "outputs": [
        {
          "internalType": "bytes[]",
          "name": "results",
          "type": "bytes[]"
        }
      ],
      "stateMutability": "nonpayable",
      "type": "function"
    },
    {
      "inputs": [
        {
          "internalType": "address",
          "name": "",
          "type": "address"
        }
      ],
      "name": "nonces",
      "outputs": [
        {
          "internalType": "uint256",
          "name": "",
          "type": "uint256"
        }
      ],
      "stateMutability": "view",
      "type": "function"
    },
    {
      "inputs": [],
      "name": "paused",
      "outputs": [
        {
          "internalType": "bool",
          "name": "",
          "type": "bool"
        }
      ],
      "stateMutability": "view",
      "type": "function"
    },
    {
      "inputs": [
        {
          "internalType": "bytes32",
          "name": "role",
          "type": "bytes32"
        },
        {
          "internalType": "address",
          "name": "callerConfirmation",
          "type": "address"
        }
      ],
      "name": "renounceRole",
      "outputs": [],
      "stateMutability": "nonpayable",
      "type": "function"
    },
    {
      "inputs": [
        {
          "internalType": "bytes32",
          "name": "role",
          "type": "bytes32"
        },
        {
          "internalType": "address",
          "name": "account",
          "type": "address"
        }
      ],
      "name": "revokeRole",
      "outputs": [],
      "stateMutability": "nonpayable",
      "type": "function"
    },
    {
      "inputs": [
        {
          "internalType": "address",
          "name": "_treasury",
          "type": "address"
        }
      ],
      "name": "setTreasury",
      "outputs": [],
      "stateMutability": "nonpayable",
      "type": "function"
    },
    {
      "inputs": [
        {
          "internalType": "bytes4",
          "name": "interfaceId",
          "type": "bytes4"
        }
      ],
      "name": "supportsInterface",
      "outputs": [
        {
          "internalType": "bool",
          "name": "",
          "type": "bool"
        }
      ],
      "stateMutability": "view",
      "type": "function"
    },
    {
      "inputs": [],
      "name": "token",
      "outputs": [
        {
          "internalType": "contract ERC20",
          "name": "",
          "type": "address"
        }
      ],
      "stateMutability": "view",
      "type": "function"
    },
    {
      "inputs": [],
      "name": "treasury",
      "outputs": [
        {
          "internalType": "address",
          "name": "",
          "type": "address"
        }
      ],
      "stateMutability": "view",
      "type": "function"
    },
    {
      "stateMutability": "payable",
      "type": "receive"
    }
  ],
  "bytecode": "0x60806040523480156200001157600080fd5b5060405162002e8638038062002e868339818101604052810190620000379190620004b5565b600180819055506000600260006101000a81548160ff021916908315150217905550600073ffffffffffffffffffffffffffffffffffffffff168373ffffffffffffffffffffffffffffffffffffffff1603620000cb576040517f08c379a0000000000000000000000000000000000000000000000000000000008152600401620000c29062000572565b60405180910390fd5b600073ffffffffffffffffffffffffffffffffffffffff168273ffffffffffffffffffffffffffffffffffffffff16036200013d576040517f08c379a00000000000000000000000000000000000000000000000000000000081526004016200013490620005e4565b60405180910390fd5b600073ffffffffffffffffffffffffffffffffffffffff168173ffffffffffffffffffffffffffffffffffffffff1603620001af576040517f08c379a0000000000000000000000000000000000000000000000000000000008152600401620001a69062000656565b60405180910390fd5b82600260016101000a81548173ffffffffffffffffffffffffffffffffffffffff021916908373ffffffffffffffffffffffffffffffffffffffff16021790555080600360006101000a81548173ffffffffffffffffffffffffffffffffffffffff021916908373ffffffffffffffffffffffffffffffffffffffff16021790555081600460006101000a81548173ffffffffffffffffffffffffffffffffffffffff021916908373ffffffffffffffffffffffffffffffffffffffff160217905550620002876000801b336200029160201b60201c565b5050505062000678565b6000620002a583836200039460201b60201c565b6200038957600160008085815260200190815260200160002060000160008473ffffffffffffffffffffffffffffffffffffffff1673ffffffffffffffffffffffffffffffffffffffff16815260200190815260200160002060006101000a81548160ff02191690831515021790555062000325620003fe60201b60201c565b73ffffffffffffffffffffffffffffffffffffffff168273ffffffffffffffffffffffffffffffffffffffff16847f2f8788117e7eff1d82e926ec794901d17c78024a50270940304540a733656f0d60405160405180910390a4600190506200038e565b600090505b92915050565b600080600084815260200190815260200160002060000160008373ffffffffffffffffffffffffffffffffffffffff1673ffffffffffffffffffffffffffffffffffffffff16815260200190815260200160002060009054906101000a900460ff16905092915050565b600033905090565b600080fd5b600073ffffffffffffffffffffffffffffffffffffffff82169050919050565b600062000438826200040b565b9050919050565b6200044a816200042b565b81146200045657600080fd5b50565b6000815190506200046a816200043f565b92915050565b60006200047d826200042b565b9050919050565b6200048f8162000470565b81146200049b57600080fd5b50565b600081519050620004af8162000484565b92915050565b600080600060608486031215620004d157620004d062000406565b5b6000620004e18682870162000459565b9350506020620004f48682870162000459565b925050604062000507868287016200049e565b9150509250925092565b600082825260208201905092915050565b7f496e76616c6964207369676e6572206164647265737300000000000000000000600082015250565b60006200055a60168362000511565b9150620005678262000522565b602082019050919050565b600060208201905081810360008301526200058d816200054b565b9050919050565b7f496e76616c696420747265617375727920616464726573730000000000000000600082015250565b6000620005cc60188362000511565b9150620005d98262000594565b602082019050919050565b60006020820190508181036000830152620005ff81620005bd565b9050919050565b7f496e76616c696420746f6b656e20616464726573730000000000000000000000600082015250565b60006200063e60158362000511565b91506200064b8262000606565b602082019050919050565b6000602082019050818103600083015262000671816200062f565b9050919050565b6127fe80620006886000396000f3fe6080604052600436106101025760003560e01c80637ecebe0011610095578063ac9650d811610064578063ac9650d814610375578063c771909c146103b2578063d547741f146103dd578063f0f4426014610406578063fc0c546a1461042f57610109565b80637ecebe00146102935780638a531a3f146102d057806391d148541461030d578063a217fddf1461034a57610109565b806336568abe116100d157806336568abe146101eb5780635c975abb1461021457806361d027b31461023f5780637a23f83a1461026a57610109565b806301ffc9a71461010b5780631dd1eb4414610148578063248a9ca3146101855780632f2ff15d146101c257610109565b3661010957005b005b34801561011757600080fd5b50610132600480360381019061012d91906118ab565b61045a565b60405161013f91906118f3565b60405180910390f35b34801561015457600080fd5b5061016f600480360381019061016a9190611966565b6104d4565b60405161017c91906118f3565b60405180910390f35b34801561019157600080fd5b506101ac60048036038101906101a791906119c9565b6104f4565b6040516101b99190611a05565b60405180910390f35b3480156101ce57600080fd5b506101e960048036038101906101e49190611a7e565b610513565b005b3480156101f757600080fd5b50610212600480360381019061020d9190611a7e565b610535565b005b34801561022057600080fd5b506102296105b0565b60405161023691906118f3565b60405180910390f35b34801561024b57600080fd5b506102546105c7565b6040516102619190611acd565b60405180910390f35b34801561027657600080fd5b50610291600480360381019061028c9190611c64565b6105ed565b005b34801561029f57600080fd5b506102ba60048036038101906102b59190611cd3565b610b48565b6040516102c79190611d0f565b60405180910390f35b3480156102dc57600080fd5b506102f760048036038101906102f29190611d2a565b610b60565b6040516103049190611a05565b60405180910390f35b34801561031957600080fd5b50610334600480360381019061032f9190611a7e565b610b9d565b60405161034191906118f3565b60405180910390f35b34801561035657600080fd5b5061035f610c07565b60405161036c9190611a05565b60405180910390f35b34801561038157600080fd5b5061039c60048036038101906103979190611df1565b610c0e565b6040516103a99190611f7f565b60405180910390f35b3480156103be57600080fd5b506103c7610df2565b6040516103d49190611acd565b60405180910390f35b3480156103e957600080fd5b5061040460048036038101906103ff9190611a7e565b610e18565b005b34801561041257600080fd5b5061042d60048036038101906104289190611cd3565b610e3a565b005b34801561043b57600080fd5b50610444610efb565b6040516104519190612000565b60405180910390f35b60007f7965db0b000000000000000000000000000000000000000000000000000000007bffffffffffffffffffffffffffffffffffffffffffffffffffffffff1916827bffffffffffffffffffffffffffffffffffffffffffffffffffffffff191614806104cd57506104cc82610f21565b5b9050919050565b60056020528060005260406000206000915054906101000a900460ff1681565b6000806000838152602001908152602001600020600101549050919050565b61051c826104f4565b61052581610f8b565b61052f8383610f9f565b50505050565b61053d611090565b73ffffffffffffffffffffffffffffffffffffffff168173ffffffffffffffffffffffffffffffffffffffff16146105a1576040517f6697b23200000000000000000000000000000000000000000000000000000000815260040160405180910390fd5b6105ab8282611098565b505050565b6000600260009054906101000a900460ff16905090565b600460009054906101000a900473ffffffffffffffffffffffffffffffffffffffff1681565b6105f561118a565b6105fd6111cb565b6000339050600061064f858386600660008773ffffffffffffffffffffffffffffffffffffffff1673ffffffffffffffffffffffffffffffffffffffff16815260200190815260200160002054610b60565b905061065b8184611211565b61069a576040517f08c379a000000000000000000000000000000000000000000000000000000000815260040161069190612078565b60405180910390fd5b60056000866fffffffffffffffffffffffffffffffff19166fffffffffffffffffffffffffffffffff1916815260200190815260200160002060009054906101000a900460ff1615610721576040517f08c379a0000000000000000000000000000000000000000000000000000000008152600401610718906120e4565b60405180910390fd5b6000600360009054906101000a900473ffffffffffffffffffffffffffffffffffffffff1673ffffffffffffffffffffffffffffffffffffffff1663dd62ed3e600460009054906101000a900473ffffffffffffffffffffffffffffffffffffffff16306040518363ffffffff1660e01b81526004016107a2929190612104565b602060405180830381865afa1580156107bf573d6000803e3d6000fd5b505050506040513d601f19601f820116820180604052508101906107e39190612142565b90506108246040518060400160405280600781526020017f416c6c6f7765640000000000000000000000000000000000000000000000000081525082611286565b84600360009054906101000a900473ffffffffffffffffffffffffffffffffffffffff1673ffffffffffffffffffffffffffffffffffffffff1663dd62ed3e600460009054906101000a900473ffffffffffffffffffffffffffffffffffffffff16306040518363ffffffff1660e01b81526004016108a4929190612104565b602060405180830381865afa1580156108c1573d6000803e3d6000fd5b505050506040513d601f19601f820116820180604052508101906108e59190612142565b1015610926576040517f08c379a000000000000000000000000000000000000000000000000000000000815260040161091d906121bb565b60405180910390fd5b600160056000886fffffffffffffffffffffffffffffffff19166fffffffffffffffffffffffffffffffff1916815260200190815260200160002060006101000a81548160ff021916908315150217905550600660008473ffffffffffffffffffffffffffffffffffffffff1673ffffffffffffffffffffffffffffffffffffffff16815260200190815260200160002060008154809291906109c89061220a565b91905055506000600360009054906101000a900473ffffffffffffffffffffffffffffffffffffffff1673ffffffffffffffffffffffffffffffffffffffff166323b872dd600460009054906101000a900473ffffffffffffffffffffffffffffffffffffffff1686896040518463ffffffff1660e01b8152600401610a5093929190612252565b6020604051808303816000875af1158015610a6f573d6000803e3d6000fd5b505050506040513d601f19601f82011682018060405250810190610a9391906122b5565b905080610ad5576040517f08c379a0000000000000000000000000000000000000000000000000000000008152600401610acc9061232e565b60405180910390fd5b866fffffffffffffffffffffffffffffffff19168473ffffffffffffffffffffffffffffffffffffffff167f1ec0a4b718049e90872f9887c3f58d7aa76e5f3c22859d6e6dc0d3f0a948a4e288604051610b2f9190611d0f565b60405180910390a350505050610b43611322565b505050565b60066020528060005260406000206000915090505481565b6000848484463086604051602001610b7d969594939291906123d8565b604051602081830303815290604052805190602001209050949350505050565b600080600084815260200190815260200160002060000160008373ffffffffffffffffffffffffffffffffffffffff1673ffffffffffffffffffffffffffffffffffffffff16815260200190815260200160002060009054906101000a900460ff16905092915050565b6000801b81565b60606000610c1a611090565b73ffffffffffffffffffffffffffffffffffffffff163373ffffffffffffffffffffffffffffffffffffffff1614610cbd57600036610c5761132b565b6000369050610c669190612448565b908092610c7593929190612486565b8080601f016020809104026020016040519081016040528093929190818152602001838380828437600081840152601f19601f82011690508083019250505050505050610d0c565b600067ffffffffffffffff811115610cd857610cd7611b39565b5b6040519080825280601f01601f191660200182016040528015610d0a5781602001600182028036833780820191505090505b505b90508383905067ffffffffffffffff811115610d2b57610d2a611b39565b5b604051908082528060200260200182016040528015610d5e57816020015b6060815260200190600190039081610d495790505b50915060005b84849050811015610dea57610dbf30868684818110610d8657610d856124c1565b5b9050602002810190610d9891906124ff565b85604051602001610dab939291906125c3565b604051602081830303815290604052611330565b838281518110610dd257610dd16124c1565b5b60200260200101819052508080600101915050610d64565b505092915050565b600260019054906101000a900473ffffffffffffffffffffffffffffffffffffffff1681565b610e21826104f4565b610e2a81610f8b565b610e348383611098565b50505050565b6000801b610e4781610f8b565b600073ffffffffffffffffffffffffffffffffffffffff168273ffffffffffffffffffffffffffffffffffffffff1603610eb6576040517f08c379a0000000000000000000000000000000000000000000000000000000008152600401610ead90612635565b60405180910390fd5b81600460006101000a81548173ffffffffffffffffffffffffffffffffffffffff021916908373ffffffffffffffffffffffffffffffffffffffff1602179055505050565b600360009054906101000a900473ffffffffffffffffffffffffffffffffffffffff1681565b60007f01ffc9a7000000000000000000000000000000000000000000000000000000007bffffffffffffffffffffffffffffffffffffffffffffffffffffffff1916827bffffffffffffffffffffffffffffffffffffffffffffffffffffffff1916149050919050565b610f9c81610f97611090565b6113b4565b50565b6000610fab8383610b9d565b61108557600160008085815260200190815260200160002060000160008473ffffffffffffffffffffffffffffffffffffffff1673ffffffffffffffffffffffffffffffffffffffff16815260200190815260200160002060006101000a81548160ff021916908315150217905550611022611090565b73ffffffffffffffffffffffffffffffffffffffff168273ffffffffffffffffffffffffffffffffffffffff16847f2f8788117e7eff1d82e926ec794901d17c78024a50270940304540a733656f0d60405160405180910390a46001905061108a565b600090505b92915050565b600033905090565b60006110a48383610b9d565b1561117f57600080600085815260200190815260200160002060000160008473ffffffffffffffffffffffffffffffffffffffff1673ffffffffffffffffffffffffffffffffffffffff16815260200190815260200160002060006101000a81548160ff02191690831515021790555061111c611090565b73ffffffffffffffffffffffffffffffffffffffff168273ffffffffffffffffffffffffffffffffffffffff16847ff6391f5c32d9c69d2a47ea670b442974b53935d1edc7fd64eb21e047a839171b60405160405180910390a460019050611184565b600090505b92915050565b6111926105b0565b156111c9576040517fd93c066500000000000000000000000000000000000000000000000000000000815260040160405180910390fd5b565b600260015403611207576040517f3ee5aeb500000000000000000000000000000000000000000000000000000000815260040160405180910390fd5b6002600181905550565b6000600260019054906101000a900473ffffffffffffffffffffffffffffffffffffffff1673ffffffffffffffffffffffffffffffffffffffff166112678361125986611405565b61143b90919063ffffffff16565b73ffffffffffffffffffffffffffffffffffffffff1614905092915050565b61131e828260405160240161129c929190612699565b6040516020818303038152906040527fb60e72cc000000000000000000000000000000000000000000000000000000007bffffffffffffffffffffffffffffffffffffffffffffffffffffffff19166020820180517bffffffffffffffffffffffffffffffffffffffffffffffffffffffff8381831617835250505050611467565b5050565b60018081905550565b600090565b60606000808473ffffffffffffffffffffffffffffffffffffffff168460405161135a91906126c9565b600060405180830381855af49150503d8060008114611395576040519150601f19603f3d011682016040523d82523d6000602084013e61139a565b606091505b50915091506113aa858383611481565b9250505092915050565b6113be8282610b9d565b6114015780826040517fe2517d3f0000000000000000000000000000000000000000000000000000000081526004016113f89291906126e0565b60405180910390fd5b5050565b60007f19457468657265756d205369676e6564204d6573736167653a0a33320000000060005281601c52603c6000209050919050565b60008060008061144b8686611510565b92509250925061145b828261156c565b82935050505092915050565b61147e816114766116d06116f1565b63ffffffff16565b50565b60608261149657611491826116fc565b611508565b600082511480156114be575060008473ffffffffffffffffffffffffffffffffffffffff163b145b1561150057836040517f9996b3150000000000000000000000000000000000000000000000000000000081526004016114f79190611acd565b60405180910390fd5b819050611509565b5b9392505050565b600080600060418451036115555760008060006020870151925060408701519150606087015160001a905061154788828585611741565b955095509550505050611565565b60006002855160001b9250925092505b9250925092565b600060038111156115805761157f612709565b5b82600381111561159357611592612709565b5b03156116cc57600160038111156115ad576115ac612709565b5b8260038111156115c0576115bf612709565b5b036115f7576040517ff645eedf00000000000000000000000000000000000000000000000000000000815260040160405180910390fd5b6002600381111561160b5761160a612709565b5b82600381111561161e5761161d612709565b5b03611663578060001c6040517ffce698f700000000000000000000000000000000000000000000000000000000815260040161165a9190611d0f565b60405180910390fd5b60038081111561167657611675612709565b5b82600381111561168957611688612709565b5b036116cb57806040517fd78bce0c0000000000000000000000000000000000000000000000000000000081526004016116c29190611a05565b60405180910390fd5b5b5050565b60006a636f6e736f6c652e6c6f679050600080835160208501845afa505050565b611835819050919050565b60008151111561170f5780518082602001fd5b6040517fd6bda27500000000000000000000000000000000000000000000000000000000815260040160405180910390fd5b60008060007f7fffffffffffffffffffffffffffffff5d576e7357a4501ddfe92f46681b20a08460001c111561178157600060038592509250925061182b565b6000600188888888604051600081526020016040526040516117a69493929190612754565b6020604051602081039080840390855afa1580156117c8573d6000803e3d6000fd5b505050602060405103519050600073ffffffffffffffffffffffffffffffffffffffff168173ffffffffffffffffffffffffffffffffffffffff160361181c57600060016000801b9350935093505061182b565b8060008060001b935093509350505b9450945094915050565b61183d612799565b565b6000604051905090565b600080fd5b600080fd5b60007fffffffff0000000000000000000000000000000000000000000000000000000082169050919050565b61188881611853565b811461189357600080fd5b50565b6000813590506118a58161187f565b92915050565b6000602082840312156118c1576118c0611849565b5b60006118cf84828501611896565b91505092915050565b60008115159050919050565b6118ed816118d8565b82525050565b600060208201905061190860008301846118e4565b92915050565b60007fffffffffffffffffffffffffffffffff0000000000000000000000000000000082169050919050565b6119438161190e565b811461194e57600080fd5b50565b6000813590506119608161193a565b92915050565b60006020828403121561197c5761197b611849565b5b600061198a84828501611951565b91505092915050565b6000819050919050565b6119a681611993565b81146119b157600080fd5b50565b6000813590506119c38161199d565b92915050565b6000602082840312156119df576119de611849565b5b60006119ed848285016119b4565b91505092915050565b6119ff81611993565b82525050565b6000602082019050611a1a60008301846119f6565b92915050565b600073ffffffffffffffffffffffffffffffffffffffff82169050919050565b6000611a4b82611a20565b9050919050565b611a5b81611a40565b8114611a6657600080fd5b50565b600081359050611a7881611a52565b92915050565b60008060408385031215611a9557611a94611849565b5b6000611aa3858286016119b4565b9250506020611ab485828601611a69565b9150509250929050565b611ac781611a40565b82525050565b6000602082019050611ae26000830184611abe565b92915050565b6000819050919050565b611afb81611ae8565b8114611b0657600080fd5b50565b600081359050611b1881611af2565b92915050565b600080fd5b600080fd5b6000601f19601f8301169050919050565b7f4e487b7100000000000000000000000000000000000000000000000000000000600052604160045260246000fd5b611b7182611b28565b810181811067ffffffffffffffff82111715611b9057611b8f611b39565b5b80604052505050565b6000611ba361183f565b9050611baf8282611b68565b919050565b600067ffffffffffffffff821115611bcf57611bce611b39565b5b611bd882611b28565b9050602081019050919050565b82818337600083830152505050565b6000611c07611c0284611bb4565b611b99565b905082815260208101848484011115611c2357611c22611b23565b5b611c2e848285611be5565b509392505050565b600082601f830112611c4b57611c4a611b1e565b5b8135611c5b848260208601611bf4565b91505092915050565b600080600060608486031215611c7d57611c7c611849565b5b6000611c8b86828701611951565b9350506020611c9c86828701611b09565b925050604084013567ffffffffffffffff811115611cbd57611cbc61184e565b5b611cc986828701611c36565b9150509250925092565b600060208284031215611ce957611ce8611849565b5b6000611cf784828501611a69565b91505092915050565b611d0981611ae8565b82525050565b6000602082019050611d246000830184611d00565b92915050565b60008060008060808587031215611d4457611d43611849565b5b6000611d5287828801611951565b9450506020611d6387828801611a69565b9350506040611d7487828801611b09565b9250506060611d8587828801611b09565b91505092959194509250565b600080fd5b600080fd5b60008083601f840112611db157611db0611b1e565b5b8235905067ffffffffffffffff811115611dce57611dcd611d91565b5b602083019150836020820283011115611dea57611de9611d96565b5b9250929050565b60008060208385031215611e0857611e07611849565b5b600083013567ffffffffffffffff811115611e2657611e2561184e565b5b611e3285828601611d9b565b92509250509250929050565b600081519050919050565b600082825260208201905092915050565b6000819050602082019050919050565b600081519050919050565b600082825260208201905092915050565b60005b83811015611ea4578082015181840152602081019050611e89565b60008484015250505050565b6000611ebb82611e6a565b611ec58185611e75565b9350611ed5818560208601611e86565b611ede81611b28565b840191505092915050565b6000611ef58383611eb0565b905092915050565b6000602082019050919050565b6000611f1582611e3e565b611f1f8185611e49565b935083602082028501611f3185611e5a565b8060005b85811015611f6d5784840389528151611f4e8582611ee9565b9450611f5983611efd565b925060208a01995050600181019050611f35565b50829750879550505050505092915050565b60006020820190508181036000830152611f998184611f0a565b905092915050565b6000819050919050565b6000611fc6611fc1611fbc84611a20565b611fa1565b611a20565b9050919050565b6000611fd882611fab565b9050919050565b6000611fea82611fcd565b9050919050565b611ffa81611fdf565b82525050565b60006020820190506120156000830184611ff1565b92915050565b600082825260208201905092915050565b7f496e76616c6964207369676e6174757265000000000000000000000000000000600082015250565b600061206260118361201b565b915061206d8261202c565b602082019050919050565b6000602082019050818103600083015261209181612055565b9050919050565b7f546f6b656e20616c726561647920697373756564000000000000000000000000600082015250565b60006120ce60148361201b565b91506120d982612098565b602082019050919050565b600060208201905081810360008301526120fd816120c1565b9050919050565b60006040820190506121196000830185611abe565b6121266020830184611abe565b9392505050565b60008151905061213c81611af2565b92915050565b60006020828403121561215857612157611849565b5b60006121668482850161212d565b91505092915050565b7f496e73756666696369656e7420616c6c6f77616e636500000000000000000000600082015250565b60006121a560168361201b565b91506121b08261216f565b602082019050919050565b600060208201905081810360008301526121d481612198565b9050919050565b7f4e487b7100000000000000000000000000000000000000000000000000000000600052601160045260246000fd5b600061221582611ae8565b91507fffffffffffffffffffffffffffffffffffffffffffffffffffffffffffffffff8203612247576122466121db565b5b600182019050919050565b60006060820190506122676000830186611abe565b6122746020830185611abe565b6122816040830184611d00565b949350505050565b612292816118d8565b811461229d57600080fd5b50565b6000815190506122af81612289565b92915050565b6000602082840312156122cb576122ca611849565b5b60006122d9848285016122a0565b91505092915050565b7f4661696c656420746f2073656e6420546f6b656e000000000000000000000000600082015250565b600061231860148361201b565b9150612323826122e2565b602082019050919050565b600060208201905081810360008301526123478161230b565b9050919050565b6000819050919050565b6123696123648261190e565b61234e565b82525050565b60008160601b9050919050565b60006123878261236f565b9050919050565b60006123998261237c565b9050919050565b6123b16123ac82611a40565b61238e565b82525050565b6000819050919050565b6123d26123cd82611ae8565b6123b7565b82525050565b60006123e48289612358565b6010820191506123f482886123a0565b60148201915061240482876123c1565b60208201915061241482866123c1565b60208201915061242482856123a0565b60148201915061243482846123c1565b602082019150819050979650505050505050565b600061245382611ae8565b915061245e83611ae8565b9250828203905081811115612476576124756121db565b5b92915050565b600080fd5b600080fd5b6000808585111561249a5761249961247c565b5b838611156124ab576124aa612481565b5b6001850283019150848603905094509492505050565b7f4e487b7100000000000000000000000000000000000000000000000000000000600052603260045260246000fd5b600080fd5b600080fd5b600080fd5b6000808335600160200384360303811261251c5761251b6124f0565b5b80840192508235915067ffffffffffffffff82111561253e5761253d6124f5565b5b60208301925060018202360383131561255a576125596124fa565b5b509250929050565b600081905092915050565b60006125798385612562565b9350612586838584611be5565b82840190509392505050565b600061259d82611e6a565b6125a78185612562565b93506125b7818560208601611e86565b80840191505092915050565b60006125d082858761256d565b91506125dc8284612592565b9150819050949350505050565b7f496e76616c696420747265617375727920616464726573730000000000000000600082015250565b600061261f60188361201b565b915061262a826125e9565b602082019050919050565b6000602082019050818103600083015261264e81612612565b9050919050565b600081519050919050565b600061266b82612655565b612675818561201b565b9350612685818560208601611e86565b61268e81611b28565b840191505092915050565b600060408201905081810360008301526126b38185612660565b90506126c26020830184611d00565b9392505050565b60006126d58284612592565b915081905092915050565b60006040820190506126f56000830185611abe565b61270260208301846119f6565b9392505050565b7f4e487b7100000000000000000000000000000000000000000000000000000000600052602160045260246000fd5b600060ff82169050919050565b61274e81612738565b82525050565b600060808201905061276960008301876119f6565b6127766020830186612745565b61278360408301856119f6565b61279060608301846119f6565b95945050505050565b7f4e487b7100000000000000000000000000000000000000000000000000000000600052605160045260246000fdfea26469706673582212204836eca0a3e828e6b2f4f2c89808c7b60363cc2551e1e13559f282c14e652cd164736f6c63430008180033",
  "linkReferences": {},
  "deployedLinkReferences": {}
}