{
  "contracts/TokenVesting.sol": {
    "TokenVesting": {
      "abi": [
        {
          "inputs": [
            {
              "internalType": "address",
              "name": "token_",
              "type": "address"
            }
          ],
          "stateMutability": "nonpayable",
          "type": "constructor"
        },
        {
          "anonymous": false,
          "inputs": [
            {
              "indexed": true,
              "internalType": "address",
              "name": "user",
              "type": "address"
            },
            {
              "indexed": true,
              "internalType": "address",
              "name": "newOwner",
              "type": "address"
            }
          ],
          "name": "OwnershipTransferred",
          "type": "event"
        },
        {
          "stateMutability": "payable",
          "type": "fallback"
        },
        {
          "inputs": [
            {
              "internalType": "address",
              "name": "holder",
              "type": "address"
            }
          ],
          "name": "computeNextVestingScheduleIdForHolder",
          "outputs": [
            {
              "internalType": "bytes32",
              "name": "",
              "type": "bytes32"
            }
          ],
          "stateMutability": "view",
          "type": "function"
        },
        {
          "inputs": [
            {
              "internalType": "bytes32",
              "name": "vestingScheduleId",
              "type": "bytes32"
            }
          ],
          "name": "computeReleasableAmount",
          "outputs": [
            {
              "internalType": "uint256",
              "name": "",
              "type": "uint256"
            }
          ],
          "stateMutability": "view",
          "type": "function"
        },
        {
          "inputs": [
            {
              "internalType": "address",
              "name": "holder",
              "type": "address"
            },
            {
              "internalType": "uint256",
              "name": "index",
              "type": "uint256"
            }
          ],
          "name": "computeVestingScheduleIdForAddressAndIndex",
          "outputs": [
            {
              "internalType": "bytes32",
              "name": "",
              "type": "bytes32"
            }
          ],
          "stateMutability": "pure",
          "type": "function"
        },
        {
          "inputs": [
            {
              "internalType": "address",
              "name": "_beneficiary",
              "type": "address"
            },
            {
              "internalType": "uint256",
              "name": "_start",
              "type": "uint256"
            },
            {
              "internalType": "uint256",
              "name": "_cliff",
              "type": "uint256"
            },
            {
              "internalType": "uint256",
              "name": "_duration",
              "type": "uint256"
            },
            {
              "internalType": "uint256",
              "name": "_slicePeriodSeconds",
              "type": "uint256"
            },
            {
              "internalType": "bool",
              "name": "_revocable",
              "type": "bool"
            },
            {
              "internalType": "uint256",
              "name": "_amount",
              "type": "uint256"
            }
          ],
          "name": "createVestingSchedule",
          "outputs": [],
          "stateMutability": "nonpayable",
          "type": "function"
        },
        {
          "inputs": [
            {
              "internalType": "address",
              "name": "holder",
              "type": "address"
            }
          ],
          "name": "getLastVestingScheduleForHolder",
          "outputs": [
            {
              "components": [
                {
                  "internalType": "address",
                  "name": "beneficiary",
                  "type": "address"
                },
                {
                  "internalType": "uint256",
                  "name": "cliff",
                  "type": "uint256"
                },
                {
                  "internalType": "uint256",
                  "name": "start",
                  "type": "uint256"
                },
                {
                  "internalType": "uint256",
                  "name": "duration",
                  "type": "uint256"
                },
                {
                  "internalType": "uint256",
                  "name": "slicePeriodSeconds",
                  "type": "uint256"
                },
                {
                  "internalType": "bool",
                  "name": "revocable",
                  "type": "bool"
                },
                {
                  "internalType": "uint256",
                  "name": "amountTotal",
                  "type": "uint256"
                },
                {
                  "internalType": "uint256",
                  "name": "released",
                  "type": "uint256"
                },
                {
                  "internalType": "bool",
                  "name": "revoked",
                  "type": "bool"
                }
              ],
              "internalType": "struct TokenVesting.VestingSchedule",
              "name": "",
              "type": "tuple"
            }
          ],
          "stateMutability": "view",
          "type": "function"
        },
        {
          "inputs": [],
          "name": "getToken",
          "outputs": [
            {
              "internalType": "address",
              "name": "",
              "type": "address"
            }
          ],
          "stateMutability": "view",
          "type": "function"
        },
        {
          "inputs": [
            {
              "internalType": "uint256",
              "name": "index",
              "type": "uint256"
            }
          ],
          "name": "getVestingIdAtIndex",
          "outputs": [
            {
              "internalType": "bytes32",
              "name": "",
              "type": "bytes32"
            }
          ],
          "stateMutability": "view",
          "type": "function"
        },
        {
          "inputs": [
            {
              "internalType": "bytes32",
              "name": "vestingScheduleId",
              "type": "bytes32"
            }
          ],
          "name": "getVestingSchedule",
          "outputs": [
            {
              "components": [
                {
                  "internalType": "address",
                  "name": "beneficiary",
                  "type": "address"
                },
                {
                  "internalType": "uint256",
                  "name": "cliff",
                  "type": "uint256"
                },
                {
                  "internalType": "uint256",
                  "name": "start",
                  "type": "uint256"
                },
                {
                  "internalType": "uint256",
                  "name": "duration",
                  "type": "uint256"
                },
                {
                  "internalType": "uint256",
                  "name": "slicePeriodSeconds",
                  "type": "uint256"
                },
                {
                  "internalType": "bool",
                  "name": "revocable",
                  "type": "bool"
                },
                {
                  "internalType": "uint256",
                  "name": "amountTotal",
                  "type": "uint256"
                },
                {
                  "internalType": "uint256",
                  "name": "released",
                  "type": "uint256"
                },
                {
                  "internalType": "bool",
                  "name": "revoked",
                  "type": "bool"
                }
              ],
              "internalType": "struct TokenVesting.VestingSchedule",
              "name": "",
              "type": "tuple"
            }
          ],
          "stateMutability": "view",
          "type": "function"
        },
        {
          "inputs": [
            {
              "internalType": "address",
              "name": "holder",
              "type": "address"
            },
            {
              "internalType": "uint256",
              "name": "index",
              "type": "uint256"
            }
          ],
          "name": "getVestingScheduleByAddressAndIndex",
          "outputs": [
            {
              "components": [
                {
                  "internalType": "address",
                  "name": "beneficiary",
                  "type": "address"
                },
                {
                  "internalType": "uint256",
                  "name": "cliff",
                  "type": "uint256"
                },
                {
                  "internalType": "uint256",
                  "name": "start",
                  "type": "uint256"
                },
                {
                  "internalType": "uint256",
                  "name": "duration",
                  "type": "uint256"
                },
                {
                  "internalType": "uint256",
                  "name": "slicePeriodSeconds",
                  "type": "uint256"
                },
                {
                  "internalType": "bool",
                  "name": "revocable",
                  "type": "bool"
                },
                {
                  "internalType": "uint256",
                  "name": "amountTotal",
                  "type": "uint256"
                },
                {
                  "internalType": "uint256",
                  "name": "released",
                  "type": "uint256"
                },
                {
                  "internalType": "bool",
                  "name": "revoked",
                  "type": "bool"
                }
              ],
              "internalType": "struct TokenVesting.VestingSchedule",
              "name": "",
              "type": "tuple"
            }
          ],
          "stateMutability": "view",
          "type": "function"
        },
        {
          "inputs": [],
          "name": "getVestingSchedulesCount",
          "outputs": [
            {
              "internalType": "uint256",
              "name": "",
              "type": "uint256"
            }
          ],
          "stateMutability": "view",
          "type": "function"
        },
        {
          "inputs": [
            {
              "internalType": "address",
              "name": "_beneficiary",
              "type": "address"
            }
          ],
          "name": "getVestingSchedulesCountByBeneficiary",
          "outputs": [
            {
              "internalType": "uint256",
              "name": "",
              "type": "uint256"
            }
          ],
          "stateMutability": "view",
          "type": "function"
        },
        {
          "inputs": [],
          "name": "getVestingSchedulesTotalAmount",
          "outputs": [
            {
              "internalType": "uint256",
              "name": "",
              "type": "uint256"
            }
          ],
          "stateMutability": "view",
          "type": "function"
        },
        {
          "inputs": [],
          "name": "getWithdrawableAmount",
          "outputs": [
            {
              "internalType": "uint256",
              "name": "",
              "type": "uint256"
            }
          ],
          "stateMutability": "view",
          "type": "function"
        },
        {
          "inputs": [],
          "name": "owner",
          "outputs": [
            {
              "internalType": "address",
              "name": "",
              "type": "address"
            }
          ],
          "stateMutability": "view",
          "type": "function"
        },
        {
          "inputs": [
            {
              "internalType": "bytes32",
              "name": "vestingScheduleId",
              "type": "bytes32"
            },
            {
              "internalType": "uint256",
              "name": "amount",
              "type": "uint256"
            }
          ],
          "name": "release",
          "outputs": [],
          "stateMutability": "nonpayable",
          "type": "function"
        },
        {
          "inputs": [
            {
              "internalType": "bytes32",
              "name": "vestingScheduleId",
              "type": "bytes32"
            }
          ],
          "name": "revoke",
          "outputs": [],
          "stateMutability": "nonpayable",
          "type": "function"
        },
        {
          "inputs": [
            {
              "internalType": "address",
              "name": "newOwner",
              "type": "address"
            }
          ],
          "name": "transferOwnership",
          "outputs": [],
          "stateMutability": "nonpayable",
          "type": "function"
        },
        {
          "inputs": [
            {
              "internalType": "uint256",
              "name": "amount",
              "type": "uint256"
            }
          ],
          "name": "withdraw",
          "outputs": [],
          "stateMutability": "nonpayable",
          "type": "function"
        },
        {
          "stateMutability": "payable",
          "type": "receive"
        }
      ],
      "evm": {
        "bytecode": {
          "linkReferences": {},
          "object": "60a06040526001805534801561001457600080fd5b5060405161159638038061159683398101604081905261003391610098565b600080546001600160a01b031916339081178255604051909182917f8be0079c531659141344cd1fd0a4f28419497f9722a3daafe3b4186f6b6457e0908290a3506001600160a01b03811661008757600080fd5b6001600160a01b03166080526100c8565b6000602082840312156100aa57600080fd5b81516001600160a01b03811681146100c157600080fd5b9392505050565b60805161149e6100f86000396000818161015d0152818161081301528181610a840152610be4015261149e6000f3fe6080604052600436106101015760003560e01c80638da5cb5b1161008f578063ea1bb3d511610061578063ea1bb3d5146102e2578063f2fde38b14610302578063f51321d714610322578063f7c469f014610342578063f9079b371461036257005b80638da5cb5b1461026d57806390be10cc1461028d5780639ef346b4146102a2578063b75c7dc6146102c257005b806348deb471116100d357806348deb471146101b55780635a7bb69a146101ca57806366afd8ef146102005780637e913dc6146102205780638af104da1461024d57005b8063130836171461010a57806317e289e91461012e57806321df0da71461014e5780632e1a7d4d1461019557005b3661010857005b005b34801561011657600080fd5b506002545b6040519081526020015b60405180910390f35b34801561013a57600080fd5b50610108610149366004611239565b610382565b34801561015a57600080fd5b507f00000000000000000000000000000000000000000000000000000000000000005b6040516001600160a01b039091168152602001610125565b3480156101a157600080fd5b506101086101b03660046112a5565b610735565b3480156101c157600080fd5b5060045461011b565b3480156101d657600080fd5b5061011b6101e53660046112be565b6001600160a01b031660009081526005602052604090205490565b34801561020c57600080fd5b5061010861021b3660046112d9565b610840565b34801561022c57600080fd5b5061024061023b3660046112be565b610ab8565b60405161012591906112fb565b34801561025957600080fd5b5061011b610268366004611374565b610b7e565b34801561027957600080fd5b5060005461017d906001600160a01b031681565b34801561029957600080fd5b5061011b610bc6565b3480156102ae57600080fd5b506102406102bd3660046112a5565b610c66565b3480156102ce57600080fd5b506101086102dd3660046112a5565b610cfb565b3480156102ee57600080fd5b5061011b6102fd3660046112a5565b610e87565b34801561030e57600080fd5b5061010861031d3660046112be565b610f3f565b34801561032e57600080fd5b5061024061033d366004611374565b610fb4565b34801561034e57600080fd5b5061011b61035d3660046112be565b610fd0565b34801561036e57600080fd5b5061011b61037d3660046112a5565b610ff4565b6000546001600160a01b031633146103b55760405162461bcd60e51b81526004016103ac9061139e565b60405180910390fd5b806103be610bc6565b10156104455760405162461bcd60e51b815260206004820152604a60248201527f546f6b656e56657374696e673a2063616e6e6f7420637265617465207665737460448201527f696e67207363686564756c652062656361757365206e6f742073756666696369606482015269656e7420746f6b656e7360b01b608482015260a4016103ac565b600084116104a05760405162461bcd60e51b815260206004820152602260248201527f546f6b656e56657374696e673a206475726174696f6e206d757374206265203e604482015261020360f41b60648201526084016103ac565b600081116104f05760405162461bcd60e51b815260206004820181905260248201527f546f6b656e56657374696e673a20616d6f756e74206d757374206265203e203060448201526064016103ac565b60018310156105575760405162461bcd60e51b815260206004820152602d60248201527f546f6b656e56657374696e673a20736c696365506572696f645365636f6e647360448201526c206d757374206265203e3d203160981b60648201526084016103ac565b848410156105b75760405162461bcd60e51b815260206004820152602760248201527f546f6b656e56657374696e673a206475726174696f6e206d757374206265203e6044820152661e9031b634b33360c91b60648201526084016103ac565b60006105c288610fd0565b905060006105d087896113da565b60408051610120810182526001600160a01b03808d16825260208083018581528385018e8152606085018d8152608086018d81528c151560a0880190815260c088018d8152600060e08a018181526101008b018281528f83526003998a90529b90912099518a5499166001600160a01b031990991698909817895594516001890155925160028801559051938601939093559151600480860191909155915160058501805491151560ff19928316179055905160068501559151600784015592516008909201805492151592909116919091179055549091506106b49084906113da565b6004556002805460018181019092557f405787fa12a823e0f2b7631cc41b3ba8828b3321ca811111fa75cd3aa3bb5ace018390556001600160a01b038a166000908152600560205260409020549061070d9082906113da565b6001600160a01b03909a16600090815260056020526040902099909955505050505050505050565b6001546001146107745760405162461bcd60e51b815260206004820152600a6024820152695245454e5452414e435960b01b60448201526064016103ac565b60026001556000546001600160a01b031633146107a35760405162461bcd60e51b81526004016103ac9061139e565b806107ac610bc6565b101561080e5760405162461bcd60e51b815260206004820152602b60248201527f546f6b656e56657374696e673a206e6f7420656e6f756768207769746864726160448201526a7761626c652066756e647360a81b60648201526084016103ac565b6108397f0000000000000000000000000000000000000000000000000000000000000000338361107c565b5060018055565b60015460011461087f5760405162461bcd60e51b815260206004820152600a6024820152695245454e5452414e435960b01b60448201526064016103ac565b6002600155600082815260036020526040902060080154829060ff16156108a557600080fd5b6000838152600360205260408120805491549091336001600160a01b039182168114929091161481806108d55750805b6109525760405162461bcd60e51b815260206004820152604260248201527f546f6b656e56657374696e673a206f6e6c792062656e6566696369617279206160448201527f6e64206f776e65722063616e2072656c656173652076657374656420746f6b656064820152616e7360f01b608482015260a4016103ac565b604080516101208101825284546001600160a01b03168152600185015460208201526002850154918101919091526003840154606082015260048401546080820152600584015460ff908116151560a0830152600685015460c0830152600785015460e083015260088501541615156101008201526000906109d3906110fa565b905085811015610a4b5760405162461bcd60e51b815260206004820152603d60248201527f546f6b656e56657374696e673a2063616e6e6f742072656c6561736520746f6b60448201527f656e732c206e6f7420656e6f7567682076657374656420746f6b656e7300000060648201526084016103ac565b858460070154610a5b91906113da565b600785015583546004546001600160a01b0390911690610a7c9088906113ed565b600455610aaa7f0000000000000000000000000000000000000000000000000000000000000000828961107c565b505060018055505050505050565b610ac06111c4565b6001600160a01b03821660009081526005602052604081205460039190610aef908590610268906001906113ed565b8152602080820192909252604090810160002081516101208101835281546001600160a01b031681526001820154938101939093526002810154918301919091526003810154606083015260048101546080830152600581015460ff908116151560a0840152600682015460c0840152600782015460e084015260089091015416151561010082015292915050565b6040516bffffffffffffffffffffffff19606084901b166020820152603481018290526000906054016040516020818303038152906040528051906020012090505b92915050565b600480546040516370a0823160e01b815230928101929092526000917f00000000000000000000000000000000000000000000000000000000000000006001600160a01b0316906370a0823190602401602060405180830381865afa158015610c33573d6000803e3d6000fd5b505050506040513d601f19601f82011682018060405250810190610c579190611400565b610c6191906113ed565b905090565b610c6e6111c4565b5060009081526003602081815260409283902083516101208101855281546001600160a01b0316815260018201549281019290925260028101549382019390935290820154606082015260048201546080820152600582015460ff908116151560a0830152600683015460c0830152600783015460e0830152600890920154909116151561010082015290565b6000546001600160a01b03163314610d255760405162461bcd60e51b81526004016103ac9061139e565b600081815260036020526040902060080154819060ff1615610d4657600080fd5b6000828152600360205260409020600581015460ff16610db75760405162461bcd60e51b815260206004820152602660248201527f546f6b656e56657374696e673a2076657374696e67206973206e6f74207265766044820152656f6361626c6560d01b60648201526084016103ac565b604080516101208101825282546001600160a01b03168152600183015460208201526002830154918101919091526003820154606082015260048201546080820152600582015460ff908116151560a0830152600683015460c0830152600783015460e08301526008830154161515610100820152600090610e38906110fa565b90508015610e4a57610e4a8482610840565b600082600701548360060154610e6091906113ed565b905080600454610e7091906113ed565b6004555050600801805460ff191660011790555050565b600081815260036020526040812060080154829060ff1615610ea857600080fd5b60008381526003602081815260409283902083516101208101855281546001600160a01b0316815260018201549281019290925260028101549382019390935290820154606082015260048201546080820152600582015460ff908116151560a0830152600683015460c0830152600783015460e08301526008830154161515610100820152610f37906110fa565b949350505050565b6000546001600160a01b03163314610f695760405162461bcd60e51b81526004016103ac9061139e565b600080546001600160a01b0319166001600160a01b0383169081178255604051909133917f8be0079c531659141344cd1fd0a4f28419497f9722a3daafe3b4186f6b6457e09190a350565b610fbc6111c4565b610fc96102bd8484610b7e565b9392505050565b6001600160a01b038116600090815260056020526040812054610bc0908390610b7e565b6000610fff60025490565b82106110575760405162461bcd60e51b815260206004820152602160248201527f546f6b656e56657374696e673a20696e646578206f7574206f6620626f756e646044820152607360f81b60648201526084016103ac565b6002828154811061106a5761106a611419565b90600052602060002001549050919050565b600060405163a9059cbb60e01b8152836004820152826024820152602060006044836000895af13d15601f3d11600160005114161716915050806110f45760405162461bcd60e51b815260206004820152600f60248201526e1514905394d1915497d19052531151608a1b60448201526064016103ac565b50505050565b6020810151600090429081108061111357508261010001515b156111215750600092915050565b8260600151836020015161113591906113da565b811061114f578260e001518360c00151610fc991906113ed565b600083602001518261116191906113ed565b60808501519091506000611175828461142f565b905060006111838383611451565b905060008760600151828960c0015161119c9190611451565b6111a6919061142f565b90508760e00151816111b891906113ed565b98975050505050505050565b60405180610120016040528060006001600160a01b031681526020016000815260200160008152602001600081526020016000815260200160001515815260200160008152602001600081526020016000151581525090565b80356001600160a01b038116811461123457600080fd5b919050565b600080600080600080600060e0888a03121561125457600080fd5b61125d8861121d565b96506020880135955060408801359450606088013593506080880135925060a0880135801515811461128e57600080fd5b8092505060c0880135905092959891949750929550565b6000602082840312156112b757600080fd5b5035919050565b6000602082840312156112d057600080fd5b610fc98261121d565b600080604083850312156112ec57600080fd5b50508035926020909101359150565b60006101208201905060018060a01b0383511682526020830151602083015260408301516040830152606083015160608301526080830151608083015260a0830151151560a083015260c083015160c083015260e083015160e08301526101008084015161136c8285018215159052565b505092915050565b6000806040838503121561138757600080fd5b6113908361121d565b946020939093013593505050565b6020808252600c908201526b15539055551213d49256915160a21b604082015260600190565b634e487b7160e01b600052601160045260246000fd5b80820180821115610bc057610bc06113c4565b81810381811115610bc057610bc06113c4565b60006020828403121561141257600080fd5b5051919050565b634e487b7160e01b600052603260045260246000fd5b60008261144c57634e487b7160e01b600052601260045260246000fd5b500490565b8082028115828204841417610bc057610bc06113c456fea2646970667358221220cf49a02c831bfd9c1e7b5053b69194047c5b45e2b6b6c3fa6cadf2c25bc701f564736f6c63430008140033",
          "opcodes": "PUSH1 0xA0 PUSH1 0x40 MSTORE PUSH1 0x1 DUP1 SSTORE CALLVALUE DUP1 ISZERO PUSH2 0x14 JUMPI PUSH1 0x0 DUP1 REVERT JUMPDEST POP PUSH1 0x40 MLOAD PUSH2 0x1596 CODESIZE SUB DUP1 PUSH2 0x1596 DUP4 CODECOPY DUP2 ADD PUSH1 0x40 DUP2 SWAP1 MSTORE PUSH2 0x33 SWAP2 PUSH2 0x98 JUMP JUMPDEST PUSH1 0x0 DUP1 SLOAD PUSH1 0x1 PUSH1 0x1 PUSH1 0xA0 SHL SUB NOT AND CALLER SWAP1 DUP2 OR DUP3 SSTORE PUSH1 0x40 MLOAD SWAP1 SWAP2 DUP3 SWAP2 PUSH32 0x8BE0079C531659141344CD1FD0A4F28419497F9722A3DAAFE3B4186F6B6457E0 SWAP1 DUP3 SWAP1 LOG3 POP PUSH1 0x1 PUSH1 0x1 PUSH1 0xA0 SHL SUB DUP2 AND PUSH2 0x87 JUMPI PUSH1 0x0 DUP1 REVERT JUMPDEST PUSH1 0x1 PUSH1 0x1 PUSH1 0xA0 SHL SUB AND PUSH1 0x80 MSTORE PUSH2 0xC8 JUMP JUMPDEST PUSH1 0x0 PUSH1 0x20 DUP3 DUP5 SUB SLT ISZERO PUSH2 0xAA JUMPI PUSH1 0x0 DUP1 REVERT JUMPDEST DUP2 MLOAD PUSH1 0x1 PUSH1 0x1 PUSH1 0xA0 SHL SUB DUP2 AND DUP2 EQ PUSH2 0xC1 JUMPI PUSH1 0x0 DUP1 REVERT JUMPDEST SWAP4 SWAP3 POP POP POP JUMP JUMPDEST PUSH1 0x80 MLOAD PUSH2 0x149E PUSH2 0xF8 PUSH1 0x0 CODECOPY PUSH1 0x0 DUP2 DUP2 PUSH2 0x15D ADD MSTORE DUP2 DUP2 PUSH2 0x813 ADD MSTORE DUP2 DUP2 PUSH2 0xA84 ADD MSTORE PUSH2 0xBE4 ADD MSTORE PUSH2 0x149E PUSH1 0x0 RETURN INVALID PUSH1 0x80 PUSH1 0x40 MSTORE PUSH1 0x4 CALLDATASIZE LT PUSH2 0x101 JUMPI PUSH1 0x0 CALLDATALOAD PUSH1 0xE0 SHR DUP1 PUSH4 0x8DA5CB5B GT PUSH2 0x8F JUMPI DUP1 PUSH4 0xEA1BB3D5 GT PUSH2 0x61 JUMPI DUP1 PUSH4 0xEA1BB3D5 EQ PUSH2 0x2E2 JUMPI DUP1 PUSH4 0xF2FDE38B EQ PUSH2 0x302 JUMPI DUP1 PUSH4 0xF51321D7 EQ PUSH2 0x322 JUMPI DUP1 PUSH4 0xF7C469F0 EQ PUSH2 0x342 JUMPI DUP1 PUSH4 0xF9079B37 EQ PUSH2 0x362 JUMPI STOP JUMPDEST DUP1 PUSH4 0x8DA5CB5B EQ PUSH2 0x26D JUMPI DUP1 PUSH4 0x90BE10CC EQ PUSH2 0x28D JUMPI DUP1 PUSH4 0x9EF346B4 EQ PUSH2 0x2A2 JUMPI DUP1 PUSH4 0xB75C7DC6 EQ PUSH2 0x2C2 JUMPI STOP JUMPDEST DUP1 PUSH4 0x48DEB471 GT PUSH2 0xD3 JUMPI DUP1 PUSH4 0x48DEB471 EQ PUSH2 0x1B5 JUMPI DUP1 PUSH4 0x5A7BB69A EQ PUSH2 0x1CA JUMPI DUP1 PUSH4 0x66AFD8EF EQ PUSH2 0x200 JUMPI DUP1 PUSH4 0x7E913DC6 EQ PUSH2 0x220 JUMPI DUP1 PUSH4 0x8AF104DA EQ PUSH2 0x24D JUMPI STOP JUMPDEST DUP1 PUSH4 0x13083617 EQ PUSH2 0x10A JUMPI DUP1 PUSH4 0x17E289E9 EQ PUSH2 0x12E JUMPI DUP1 PUSH4 0x21DF0DA7 EQ PUSH2 0x14E JUMPI DUP1 PUSH4 0x2E1A7D4D EQ PUSH2 0x195 JUMPI STOP JUMPDEST CALLDATASIZE PUSH2 0x108 JUMPI STOP JUMPDEST STOP JUMPDEST CALLVALUE DUP1 ISZERO PUSH2 0x116 JUMPI PUSH1 0x0 DUP1 REVERT JUMPDEST POP PUSH1 0x2 SLOAD JUMPDEST PUSH1 0x40 MLOAD SWAP1 DUP2 MSTORE PUSH1 0x20 ADD JUMPDEST PUSH1 0x40 MLOAD DUP1 SWAP2 SUB SWAP1 RETURN JUMPDEST CALLVALUE DUP1 ISZERO PUSH2 0x13A JUMPI PUSH1 0x0 DUP1 REVERT JUMPDEST POP PUSH2 0x108 PUSH2 0x149 CALLDATASIZE PUSH1 0x4 PUSH2 0x1239 JUMP JUMPDEST PUSH2 0x382 JUMP JUMPDEST CALLVALUE DUP1 ISZERO PUSH2 0x15A JUMPI PUSH1 0x0 DUP1 REVERT JUMPDEST POP PUSH32 0x0 JUMPDEST PUSH1 0x40 MLOAD PUSH1 0x1 PUSH1 0x1 PUSH1 0xA0 SHL SUB SWAP1 SWAP2 AND DUP2 MSTORE PUSH1 0x20 ADD PUSH2 0x125 JUMP JUMPDEST CALLVALUE DUP1 ISZERO PUSH2 0x1A1 JUMPI PUSH1 0x0 DUP1 REVERT JUMPDEST POP PUSH2 0x108 PUSH2 0x1B0 CALLDATASIZE PUSH1 0x4 PUSH2 0x12A5 JUMP JUMPDEST PUSH2 0x735 JUMP JUMPDEST CALLVALUE DUP1 ISZERO PUSH2 0x1C1 JUMPI PUSH1 0x0 DUP1 REVERT JUMPDEST POP PUSH1 0x4 SLOAD PUSH2 0x11B JUMP JUMPDEST CALLVALUE DUP1 ISZERO PUSH2 0x1D6 JUMPI PUSH1 0x0 DUP1 REVERT JUMPDEST POP PUSH2 0x11B PUSH2 0x1E5 CALLDATASIZE PUSH1 0x4 PUSH2 0x12BE JUMP JUMPDEST PUSH1 0x1 PUSH1 0x1 PUSH1 0xA0 SHL SUB AND PUSH1 0x0 SWAP1 DUP2 MSTORE PUSH1 0x5 PUSH1 0x20 MSTORE PUSH1 0x40 SWAP1 KECCAK256 SLOAD SWAP1 JUMP JUMPDEST CALLVALUE DUP1 ISZERO PUSH2 0x20C JUMPI PUSH1 0x0 DUP1 REVERT JUMPDEST POP PUSH2 0x108 PUSH2 0x21B CALLDATASIZE PUSH1 0x4 PUSH2 0x12D9 JUMP JUMPDEST PUSH2 0x840 JUMP JUMPDEST CALLVALUE DUP1 ISZERO PUSH2 0x22C JUMPI PUSH1 0x0 DUP1 REVERT JUMPDEST POP PUSH2 0x240 PUSH2 0x23B CALLDATASIZE PUSH1 0x4 PUSH2 0x12BE JUMP JUMPDEST PUSH2 0xAB8 JUMP JUMPDEST PUSH1 0x40 MLOAD PUSH2 0x125 SWAP2 SWAP1 PUSH2 0x12FB JUMP JUMPDEST CALLVALUE DUP1 ISZERO PUSH2 0x259 JUMPI PUSH1 0x0 DUP1 REVERT JUMPDEST POP PUSH2 0x11B PUSH2 0x268 CALLDATASIZE PUSH1 0x4 PUSH2 0x1374 JUMP JUMPDEST PUSH2 0xB7E JUMP JUMPDEST CALLVALUE DUP1 ISZERO PUSH2 0x279 JUMPI PUSH1 0x0 DUP1 REVERT JUMPDEST POP PUSH1 0x0 SLOAD PUSH2 0x17D SWAP1 PUSH1 0x1 PUSH1 0x1 PUSH1 0xA0 SHL SUB AND DUP2 JUMP JUMPDEST CALLVALUE DUP1 ISZERO PUSH2 0x299 JUMPI PUSH1 0x0 DUP1 REVERT JUMPDEST POP PUSH2 0x11B PUSH2 0xBC6 JUMP JUMPDEST CALLVALUE DUP1 ISZERO PUSH2 0x2AE JUMPI PUSH1 0x0 DUP1 REVERT JUMPDEST POP PUSH2 0x240 PUSH2 0x2BD CALLDATASIZE PUSH1 0x4 PUSH2 0x12A5 JUMP JUMPDEST PUSH2 0xC66 JUMP JUMPDEST CALLVALUE DUP1 ISZERO PUSH2 0x2CE JUMPI PUSH1 0x0 DUP1 REVERT JUMPDEST POP PUSH2 0x108 PUSH2 0x2DD CALLDATASIZE PUSH1 0x4 PUSH2 0x12A5 JUMP JUMPDEST PUSH2 0xCFB JUMP JUMPDEST CALLVALUE DUP1 ISZERO PUSH2 0x2EE JUMPI PUSH1 0x0 DUP1 REVERT JUMPDEST POP PUSH2 0x11B PUSH2 0x2FD CALLDATASIZE PUSH1 0x4 PUSH2 0x12A5 JUMP JUMPDEST PUSH2 0xE87 JUMP JUMPDEST CALLVALUE DUP1 ISZERO PUSH2 0x30E JUMPI PUSH1 0x0 DUP1 REVERT JUMPDEST POP PUSH2 0x108 PUSH2 0x31D CALLDATASIZE PUSH1 0x4 PUSH2 0x12BE JUMP JUMPDEST PUSH2 0xF3F JUMP JUMPDEST CALLVALUE DUP1 ISZERO PUSH2 0x32E JUMPI PUSH1 0x0 DUP1 REVERT JUMPDEST POP PUSH2 0x240 PUSH2 0x33D CALLDATASIZE PUSH1 0x4 PUSH2 0x1374 JUMP JUMPDEST PUSH2 0xFB4 JUMP JUMPDEST CALLVALUE DUP1 ISZERO PUSH2 0x34E JUMPI PUSH1 0x0 DUP1 REVERT JUMPDEST POP PUSH2 0x11B PUSH2 0x35D CALLDATASIZE PUSH1 0x4 PUSH2 0x12BE JUMP JUMPDEST PUSH2 0xFD0 JUMP JUMPDEST CALLVALUE DUP1 ISZERO PUSH2 0x36E JUMPI PUSH1 0x0 DUP1 REVERT JUMPDEST POP PUSH2 0x11B PUSH2 0x37D CALLDATASIZE PUSH1 0x4 PUSH2 0x12A5 JUMP JUMPDEST PUSH2 0xFF4 JUMP JUMPDEST PUSH1 0x0 SLOAD PUSH1 0x1 PUSH1 0x1 PUSH1 0xA0 SHL SUB AND CALLER EQ PUSH2 0x3B5 JUMPI PUSH1 0x40 MLOAD PUSH3 0x461BCD PUSH1 0xE5 SHL DUP2 MSTORE PUSH1 0x4 ADD PUSH2 0x3AC SWAP1 PUSH2 0x139E JUMP JUMPDEST PUSH1 0x40 MLOAD DUP1 SWAP2 SUB SWAP1 REVERT JUMPDEST DUP1 PUSH2 0x3BE PUSH2 0xBC6 JUMP JUMPDEST LT ISZERO PUSH2 0x445 JUMPI PUSH1 0x40 MLOAD PUSH3 0x461BCD PUSH1 0xE5 SHL DUP2 MSTORE PUSH1 0x20 PUSH1 0x4 DUP3 ADD MSTORE PUSH1 0x4A PUSH1 0x24 DUP3 ADD MSTORE PUSH32 0x546F6B656E56657374696E673A2063616E6E6F74206372656174652076657374 PUSH1 0x44 DUP3 ADD MSTORE PUSH32 0x696E67207363686564756C652062656361757365206E6F742073756666696369 PUSH1 0x64 DUP3 ADD MSTORE PUSH10 0x656E7420746F6B656E73 PUSH1 0xB0 SHL PUSH1 0x84 DUP3 ADD MSTORE PUSH1 0xA4 ADD PUSH2 0x3AC JUMP JUMPDEST PUSH1 0x0 DUP5 GT PUSH2 0x4A0 JUMPI PUSH1 0x40 MLOAD PUSH3 0x461BCD PUSH1 0xE5 SHL DUP2 MSTORE PUSH1 0x20 PUSH1 0x4 DUP3 ADD MSTORE PUSH1 0x22 PUSH1 0x24 DUP3 ADD MSTORE PUSH32 0x546F6B656E56657374696E673A206475726174696F6E206D757374206265203E PUSH1 0x44 DUP3 ADD MSTORE PUSH2 0x203 PUSH1 0xF4 SHL PUSH1 0x64 DUP3 ADD MSTORE PUSH1 0x84 ADD PUSH2 0x3AC JUMP JUMPDEST PUSH1 0x0 DUP2 GT PUSH2 0x4F0 JUMPI PUSH1 0x40 MLOAD PUSH3 0x461BCD PUSH1 0xE5 SHL DUP2 MSTORE PUSH1 0x20 PUSH1 0x4 DUP3 ADD DUP2 SWAP1 MSTORE PUSH1 0x24 DUP3 ADD MSTORE PUSH32 0x546F6B656E56657374696E673A20616D6F756E74206D757374206265203E2030 PUSH1 0x44 DUP3 ADD MSTORE PUSH1 0x64 ADD PUSH2 0x3AC JUMP JUMPDEST PUSH1 0x1 DUP4 LT ISZERO PUSH2 0x557 JUMPI PUSH1 0x40 MLOAD PUSH3 0x461BCD PUSH1 0xE5 SHL DUP2 MSTORE PUSH1 0x20 PUSH1 0x4 DUP3 ADD MSTORE PUSH1 0x2D PUSH1 0x24 DUP3 ADD MSTORE PUSH32 0x546F6B656E56657374696E673A20736C696365506572696F645365636F6E6473 PUSH1 0x44 DUP3 ADD MSTORE PUSH13 0x206D757374206265203E3D2031 PUSH1 0x98 SHL PUSH1 0x64 DUP3 ADD MSTORE PUSH1 0x84 ADD PUSH2 0x3AC JUMP JUMPDEST DUP5 DUP5 LT ISZERO PUSH2 0x5B7 JUMPI PUSH1 0x40 MLOAD PUSH3 0x461BCD PUSH1 0xE5 SHL DUP2 MSTORE PUSH1 0x20 PUSH1 0x4 DUP3 ADD MSTORE PUSH1 0x27 PUSH1 0x24 DUP3 ADD MSTORE PUSH32 0x546F6B656E56657374696E673A206475726174696F6E206D757374206265203E PUSH1 0x44 DUP3 ADD MSTORE PUSH7 0x1E9031B634B333 PUSH1 0xC9 SHL PUSH1 0x64 DUP3 ADD MSTORE PUSH1 0x84 ADD PUSH2 0x3AC JUMP JUMPDEST PUSH1 0x0 PUSH2 0x5C2 DUP9 PUSH2 0xFD0 JUMP JUMPDEST SWAP1 POP PUSH1 0x0 PUSH2 0x5D0 DUP8 DUP10 PUSH2 0x13DA JUMP JUMPDEST PUSH1 0x40 DUP1 MLOAD PUSH2 0x120 DUP2 ADD DUP3 MSTORE PUSH1 0x1 PUSH1 0x1 PUSH1 0xA0 SHL SUB DUP1 DUP14 AND DUP3 MSTORE PUSH1 0x20 DUP1 DUP4 ADD DUP6 DUP2 MSTORE DUP4 DUP6 ADD DUP15 DUP2 MSTORE PUSH1 0x60 DUP6 ADD DUP14 DUP2 MSTORE PUSH1 0x80 DUP7 ADD DUP14 DUP2 MSTORE DUP13 ISZERO ISZERO PUSH1 0xA0 DUP9 ADD SWAP1 DUP2 MSTORE PUSH1 0xC0 DUP9 ADD DUP14 DUP2 MSTORE PUSH1 0x0 PUSH1 0xE0 DUP11 ADD DUP2 DUP2 MSTORE PUSH2 0x100 DUP12 ADD DUP3 DUP2 MSTORE DUP16 DUP4 MSTORE PUSH1 0x3 SWAP10 DUP11 SWAP1 MSTORE SWAP12 SWAP1 SWAP2 KECCAK256 SWAP10 MLOAD DUP11 SLOAD SWAP10 AND PUSH1 0x1 PUSH1 0x1 PUSH1 0xA0 SHL SUB NOT SWAP1 SWAP10 AND SWAP9 SWAP1 SWAP9 OR DUP10 SSTORE SWAP5 MLOAD PUSH1 0x1 DUP10 ADD SSTORE SWAP3 MLOAD PUSH1 0x2 DUP9 ADD SSTORE SWAP1 MLOAD SWAP4 DUP7 ADD SWAP4 SWAP1 SWAP4 SSTORE SWAP2 MLOAD PUSH1 0x4 DUP1 DUP7 ADD SWAP2 SWAP1 SWAP2 SSTORE SWAP2 MLOAD PUSH1 0x5 DUP6 ADD DUP1 SLOAD SWAP2 ISZERO ISZERO PUSH1 0xFF NOT SWAP3 DUP4 AND OR SWAP1 SSTORE SWAP1 MLOAD PUSH1 0x6 DUP6 ADD SSTORE SWAP2 MLOAD PUSH1 0x7 DUP5 ADD SSTORE SWAP3 MLOAD PUSH1 0x8 SWAP1 SWAP3 ADD DUP1 SLOAD SWAP3 ISZERO ISZERO SWAP3 SWAP1 SWAP2 AND SWAP2 SWAP1 SWAP2 OR SWAP1 SSTORE SLOAD SWAP1 SWAP2 POP PUSH2 0x6B4 SWAP1 DUP5 SWAP1 PUSH2 0x13DA JUMP JUMPDEST PUSH1 0x4 SSTORE PUSH1 0x2 DUP1 SLOAD PUSH1 0x1 DUP2 DUP2 ADD SWAP1 SWAP3 SSTORE PUSH32 0x405787FA12A823E0F2B7631CC41B3BA8828B3321CA811111FA75CD3AA3BB5ACE ADD DUP4 SWAP1 SSTORE PUSH1 0x1 PUSH1 0x1 PUSH1 0xA0 SHL SUB DUP11 AND PUSH1 0x0 SWAP1 DUP2 MSTORE PUSH1 0x5 PUSH1 0x20 MSTORE PUSH1 0x40 SWAP1 KECCAK256 SLOAD SWAP1 PUSH2 0x70D SWAP1 DUP3 SWAP1 PUSH2 0x13DA JUMP JUMPDEST PUSH1 0x1 PUSH1 0x1 PUSH1 0xA0 SHL SUB SWAP1 SWAP11 AND PUSH1 0x0 SWAP1 DUP2 MSTORE PUSH1 0x5 PUSH1 0x20 MSTORE PUSH1 0x40 SWAP1 KECCAK256 SWAP10 SWAP1 SWAP10 SSTORE POP POP POP POP POP POP POP POP POP JUMP JUMPDEST PUSH1 0x1 SLOAD PUSH1 0x1 EQ PUSH2 0x774 JUMPI PUSH1 0x40 MLOAD PUSH3 0x461BCD PUSH1 0xE5 SHL DUP2 MSTORE PUSH1 0x20 PUSH1 0x4 DUP3 ADD MSTORE PUSH1 0xA PUSH1 0x24 DUP3 ADD MSTORE PUSH10 0x5245454E5452414E4359 PUSH1 0xB0 SHL PUSH1 0x44 DUP3 ADD MSTORE PUSH1 0x64 ADD PUSH2 0x3AC JUMP JUMPDEST PUSH1 0x2 PUSH1 0x1 SSTORE PUSH1 0x0 SLOAD PUSH1 0x1 PUSH1 0x1 PUSH1 0xA0 SHL SUB AND CALLER EQ PUSH2 0x7A3 JUMPI PUSH1 0x40 MLOAD PUSH3 0x461BCD PUSH1 0xE5 SHL DUP2 MSTORE PUSH1 0x4 ADD PUSH2 0x3AC SWAP1 PUSH2 0x139E JUMP JUMPDEST DUP1 PUSH2 0x7AC PUSH2 0xBC6 JUMP JUMPDEST LT ISZERO PUSH2 0x80E JUMPI PUSH1 0x40 MLOAD PUSH3 0x461BCD PUSH1 0xE5 SHL DUP2 MSTORE PUSH1 0x20 PUSH1 0x4 DUP3 ADD MSTORE PUSH1 0x2B PUSH1 0x24 DUP3 ADD MSTORE PUSH32 0x546F6B656E56657374696E673A206E6F7420656E6F7567682077697468647261 PUSH1 0x44 DUP3 ADD MSTORE PUSH11 0x7761626C652066756E6473 PUSH1 0xA8 SHL PUSH1 0x64 DUP3 ADD MSTORE PUSH1 0x84 ADD PUSH2 0x3AC JUMP JUMPDEST PUSH2 0x839 PUSH32 0x0 CALLER DUP4 PUSH2 0x107C JUMP JUMPDEST POP PUSH1 0x1 DUP1 SSTORE JUMP JUMPDEST PUSH1 0x1 SLOAD PUSH1 0x1 EQ PUSH2 0x87F JUMPI PUSH1 0x40 MLOAD PUSH3 0x461BCD PUSH1 0xE5 SHL DUP2 MSTORE PUSH1 0x20 PUSH1 0x4 DUP3 ADD MSTORE PUSH1 0xA PUSH1 0x24 DUP3 ADD MSTORE PUSH10 0x5245454E5452414E4359 PUSH1 0xB0 SHL PUSH1 0x44 DUP3 ADD MSTORE PUSH1 0x64 ADD PUSH2 0x3AC JUMP JUMPDEST PUSH1 0x2 PUSH1 0x1 SSTORE PUSH1 0x0 DUP3 DUP2 MSTORE PUSH1 0x3 PUSH1 0x20 MSTORE PUSH1 0x40 SWAP1 KECCAK256 PUSH1 0x8 ADD SLOAD DUP3 SWAP1 PUSH1 0xFF AND ISZERO PUSH2 0x8A5 JUMPI PUSH1 0x0 DUP1 REVERT JUMPDEST PUSH1 0x0 DUP4 DUP2 MSTORE PUSH1 0x3 PUSH1 0x20 MSTORE PUSH1 0x40 DUP2 KECCAK256 DUP1 SLOAD SWAP2 SLOAD SWAP1 SWAP2 CALLER PUSH1 0x1 PUSH1 0x1 PUSH1 0xA0 SHL SUB SWAP2 DUP3 AND DUP2 EQ SWAP3 SWAP1 SWAP2 AND EQ DUP2 DUP1 PUSH2 0x8D5 JUMPI POP DUP1 JUMPDEST PUSH2 0x952 JUMPI PUSH1 0x40 MLOAD PUSH3 0x461BCD PUSH1 0xE5 SHL DUP2 MSTORE PUSH1 0x20 PUSH1 0x4 DUP3 ADD MSTORE PUSH1 0x42 PUSH1 0x24 DUP3 ADD MSTORE PUSH32 0x546F6B656E56657374696E673A206F6E6C792062656E65666963696172792061 PUSH1 0x44 DUP3 ADD MSTORE PUSH32 0x6E64206F776E65722063616E2072656C656173652076657374656420746F6B65 PUSH1 0x64 DUP3 ADD MSTORE PUSH2 0x6E73 PUSH1 0xF0 SHL PUSH1 0x84 DUP3 ADD MSTORE PUSH1 0xA4 ADD PUSH2 0x3AC JUMP JUMPDEST PUSH1 0x40 DUP1 MLOAD PUSH2 0x120 DUP2 ADD DUP3 MSTORE DUP5 SLOAD PUSH1 0x1 PUSH1 0x1 PUSH1 0xA0 SHL SUB AND DUP2 MSTORE PUSH1 0x1 DUP6 ADD SLOAD PUSH1 0x20 DUP3 ADD MSTORE PUSH1 0x2 DUP6 ADD SLOAD SWAP2 DUP2 ADD SWAP2 SWAP1 SWAP2 MSTORE PUSH1 0x3 DUP5 ADD SLOAD PUSH1 0x60 DUP3 ADD MSTORE PUSH1 0x4 DUP5 ADD SLOAD PUSH1 0x80 DUP3 ADD MSTORE PUSH1 0x5 DUP5 ADD SLOAD PUSH1 0xFF SWAP1 DUP2 AND ISZERO ISZERO PUSH1 0xA0 DUP4 ADD MSTORE PUSH1 0x6 DUP6 ADD SLOAD PUSH1 0xC0 DUP4 ADD MSTORE PUSH1 0x7 DUP6 ADD SLOAD PUSH1 0xE0 DUP4 ADD MSTORE PUSH1 0x8 DUP6 ADD SLOAD AND ISZERO ISZERO PUSH2 0x100 DUP3 ADD MSTORE PUSH1 0x0 SWAP1 PUSH2 0x9D3 SWAP1 PUSH2 0x10FA JUMP JUMPDEST SWAP1 POP DUP6 DUP2 LT ISZERO PUSH2 0xA4B JUMPI PUSH1 0x40 MLOAD PUSH3 0x461BCD PUSH1 0xE5 SHL DUP2 MSTORE PUSH1 0x20 PUSH1 0x4 DUP3 ADD MSTORE PUSH1 0x3D PUSH1 0x24 DUP3 ADD MSTORE PUSH32 0x546F6B656E56657374696E673A2063616E6E6F742072656C6561736520746F6B PUSH1 0x44 DUP3 ADD MSTORE PUSH32 0x656E732C206E6F7420656E6F7567682076657374656420746F6B656E73000000 PUSH1 0x64 DUP3 ADD MSTORE PUSH1 0x84 ADD PUSH2 0x3AC JUMP JUMPDEST DUP6 DUP5 PUSH1 0x7 ADD SLOAD PUSH2 0xA5B SWAP2 SWAP1 PUSH2 0x13DA JUMP JUMPDEST PUSH1 0x7 DUP6 ADD SSTORE DUP4 SLOAD PUSH1 0x4 SLOAD PUSH1 0x1 PUSH1 0x1 PUSH1 0xA0 SHL SUB SWAP1 SWAP2 AND SWAP1 PUSH2 0xA7C SWAP1 DUP9 SWAP1 PUSH2 0x13ED JUMP JUMPDEST PUSH1 0x4 SSTORE PUSH2 0xAAA PUSH32 0x0 DUP3 DUP10 PUSH2 0x107C JUMP JUMPDEST POP POP PUSH1 0x1 DUP1 SSTORE POP POP POP POP POP POP JUMP JUMPDEST PUSH2 0xAC0 PUSH2 0x11C4 JUMP JUMPDEST PUSH1 0x1 PUSH1 0x1 PUSH1 0xA0 SHL SUB DUP3 AND PUSH1 0x0 SWAP1 DUP2 MSTORE PUSH1 0x5 PUSH1 0x20 MSTORE PUSH1 0x40 DUP2 KECCAK256 SLOAD PUSH1 0x3 SWAP2 SWAP1 PUSH2 0xAEF SWAP1 DUP6 SWAP1 PUSH2 0x268 SWAP1 PUSH1 0x1 SWAP1 PUSH2 0x13ED JUMP JUMPDEST DUP2 MSTORE PUSH1 0x20 DUP1 DUP3 ADD SWAP3 SWAP1 SWAP3 MSTORE PUSH1 0x40 SWAP1 DUP2 ADD PUSH1 0x0 KECCAK256 DUP2 MLOAD PUSH2 0x120 DUP2 ADD DUP4 MSTORE DUP2 SLOAD PUSH1 0x1 PUSH1 0x1 PUSH1 0xA0 SHL SUB AND DUP2 MSTORE PUSH1 0x1 DUP3 ADD SLOAD SWAP4 DUP2 ADD SWAP4 SWAP1 SWAP4 MSTORE PUSH1 0x2 DUP2 ADD SLOAD SWAP2 DUP4 ADD SWAP2 SWAP1 SWAP2 MSTORE PUSH1 0x3 DUP2 ADD SLOAD PUSH1 0x60 DUP4 ADD MSTORE PUSH1 0x4 DUP2 ADD SLOAD PUSH1 0x80 DUP4 ADD MSTORE PUSH1 0x5 DUP2 ADD SLOAD PUSH1 0xFF SWAP1 DUP2 AND ISZERO ISZERO PUSH1 0xA0 DUP5 ADD MSTORE PUSH1 0x6 DUP3 ADD SLOAD PUSH1 0xC0 DUP5 ADD MSTORE PUSH1 0x7 DUP3 ADD SLOAD PUSH1 0xE0 DUP5 ADD MSTORE PUSH1 0x8 SWAP1 SWAP2 ADD SLOAD AND ISZERO ISZERO PUSH2 0x100 DUP3 ADD MSTORE SWAP3 SWAP2 POP POP JUMP JUMPDEST PUSH1 0x40 MLOAD PUSH12 0xFFFFFFFFFFFFFFFFFFFFFFFF NOT PUSH1 0x60 DUP5 SWAP1 SHL AND PUSH1 0x20 DUP3 ADD MSTORE PUSH1 0x34 DUP2 ADD DUP3 SWAP1 MSTORE PUSH1 0x0 SWAP1 PUSH1 0x54 ADD PUSH1 0x40 MLOAD PUSH1 0x20 DUP2 DUP4 SUB SUB DUP2 MSTORE SWAP1 PUSH1 0x40 MSTORE DUP1 MLOAD SWAP1 PUSH1 0x20 ADD KECCAK256 SWAP1 POP JUMPDEST SWAP3 SWAP2 POP POP JUMP JUMPDEST PUSH1 0x4 DUP1 SLOAD PUSH1 0x40 MLOAD PUSH4 0x70A08231 PUSH1 0xE0 SHL DUP2 MSTORE ADDRESS SWAP3 DUP2 ADD SWAP3 SWAP1 SWAP3 MSTORE PUSH1 0x0 SWAP2 PUSH32 0x0 PUSH1 0x1 PUSH1 0x1 PUSH1 0xA0 SHL SUB AND SWAP1 PUSH4 0x70A08231 SWAP1 PUSH1 0x24 ADD PUSH1 0x20 PUSH1 0x40 MLOAD DUP1 DUP4 SUB DUP2 DUP7 GAS STATICCALL ISZERO DUP1 ISZERO PUSH2 0xC33 JUMPI RETURNDATASIZE PUSH1 0x0 DUP1 RETURNDATACOPY RETURNDATASIZE PUSH1 0x0 REVERT JUMPDEST POP POP POP POP PUSH1 0x40 MLOAD RETURNDATASIZE PUSH1 0x1F NOT PUSH1 0x1F DUP3 ADD AND DUP3 ADD DUP1 PUSH1 0x40 MSTORE POP DUP2 ADD SWAP1 PUSH2 0xC57 SWAP2 SWAP1 PUSH2 0x1400 JUMP JUMPDEST PUSH2 0xC61 SWAP2 SWAP1 PUSH2 0x13ED JUMP JUMPDEST SWAP1 POP SWAP1 JUMP JUMPDEST PUSH2 0xC6E PUSH2 0x11C4 JUMP JUMPDEST POP PUSH1 0x0 SWAP1 DUP2 MSTORE PUSH1 0x3 PUSH1 0x20 DUP2 DUP2 MSTORE PUSH1 0x40 SWAP3 DUP4 SWAP1 KECCAK256 DUP4 MLOAD PUSH2 0x120 DUP2 ADD DUP6 MSTORE DUP2 SLOAD PUSH1 0x1 PUSH1 0x1 PUSH1 0xA0 SHL SUB AND DUP2 MSTORE PUSH1 0x1 DUP3 ADD SLOAD SWAP3 DUP2 ADD SWAP3 SWAP1 SWAP3 MSTORE PUSH1 0x2 DUP2 ADD SLOAD SWAP4 DUP3 ADD SWAP4 SWAP1 SWAP4 MSTORE SWAP1 DUP3 ADD SLOAD PUSH1 0x60 DUP3 ADD MSTORE PUSH1 0x4 DUP3 ADD SLOAD PUSH1 0x80 DUP3 ADD MSTORE PUSH1 0x5 DUP3 ADD SLOAD PUSH1 0xFF SWAP1 DUP2 AND ISZERO ISZERO PUSH1 0xA0 DUP4 ADD MSTORE PUSH1 0x6 DUP4 ADD SLOAD PUSH1 0xC0 DUP4 ADD MSTORE PUSH1 0x7 DUP4 ADD SLOAD PUSH1 0xE0 DUP4 ADD MSTORE PUSH1 0x8 SWAP1 SWAP3 ADD SLOAD SWAP1 SWAP2 AND ISZERO ISZERO PUSH2 0x100 DUP3 ADD MSTORE SWAP1 JUMP JUMPDEST PUSH1 0x0 SLOAD PUSH1 0x1 PUSH1 0x1 PUSH1 0xA0 SHL SUB AND CALLER EQ PUSH2 0xD25 JUMPI PUSH1 0x40 MLOAD PUSH3 0x461BCD PUSH1 0xE5 SHL DUP2 MSTORE PUSH1 0x4 ADD PUSH2 0x3AC SWAP1 PUSH2 0x139E JUMP JUMPDEST PUSH1 0x0 DUP2 DUP2 MSTORE PUSH1 0x3 PUSH1 0x20 MSTORE PUSH1 0x40 SWAP1 KECCAK256 PUSH1 0x8 ADD SLOAD DUP2 SWAP1 PUSH1 0xFF AND ISZERO PUSH2 0xD46 JUMPI PUSH1 0x0 DUP1 REVERT JUMPDEST PUSH1 0x0 DUP3 DUP2 MSTORE PUSH1 0x3 PUSH1 0x20 MSTORE PUSH1 0x40 SWAP1 KECCAK256 PUSH1 0x5 DUP2 ADD SLOAD PUSH1 0xFF AND PUSH2 0xDB7 JUMPI PUSH1 0x40 MLOAD PUSH3 0x461BCD PUSH1 0xE5 SHL DUP2 MSTORE PUSH1 0x20 PUSH1 0x4 DUP3 ADD MSTORE PUSH1 0x26 PUSH1 0x24 DUP3 ADD MSTORE PUSH32 0x546F6B656E56657374696E673A2076657374696E67206973206E6F7420726576 PUSH1 0x44 DUP3 ADD MSTORE PUSH6 0x6F6361626C65 PUSH1 0xD0 SHL PUSH1 0x64 DUP3 ADD MSTORE PUSH1 0x84 ADD PUSH2 0x3AC JUMP JUMPDEST PUSH1 0x40 DUP1 MLOAD PUSH2 0x120 DUP2 ADD DUP3 MSTORE DUP3 SLOAD PUSH1 0x1 PUSH1 0x1 PUSH1 0xA0 SHL SUB AND DUP2 MSTORE PUSH1 0x1 DUP4 ADD SLOAD PUSH1 0x20 DUP3 ADD MSTORE PUSH1 0x2 DUP4 ADD SLOAD SWAP2 DUP2 ADD SWAP2 SWAP1 SWAP2 MSTORE PUSH1 0x3 DUP3 ADD SLOAD PUSH1 0x60 DUP3 ADD MSTORE PUSH1 0x4 DUP3 ADD SLOAD PUSH1 0x80 DUP3 ADD MSTORE PUSH1 0x5 DUP3 ADD SLOAD PUSH1 0xFF SWAP1 DUP2 AND ISZERO ISZERO PUSH1 0xA0 DUP4 ADD MSTORE PUSH1 0x6 DUP4 ADD SLOAD PUSH1 0xC0 DUP4 ADD MSTORE PUSH1 0x7 DUP4 ADD SLOAD PUSH1 0xE0 DUP4 ADD MSTORE PUSH1 0x8 DUP4 ADD SLOAD AND ISZERO ISZERO PUSH2 0x100 DUP3 ADD MSTORE PUSH1 0x0 SWAP1 PUSH2 0xE38 SWAP1 PUSH2 0x10FA JUMP JUMPDEST SWAP1 POP DUP1 ISZERO PUSH2 0xE4A JUMPI PUSH2 0xE4A DUP5 DUP3 PUSH2 0x840 JUMP JUMPDEST PUSH1 0x0 DUP3 PUSH1 0x7 ADD SLOAD DUP4 PUSH1 0x6 ADD SLOAD PUSH2 0xE60 SWAP2 SWAP1 PUSH2 0x13ED JUMP JUMPDEST SWAP1 POP DUP1 PUSH1 0x4 SLOAD PUSH2 0xE70 SWAP2 SWAP1 PUSH2 0x13ED JUMP JUMPDEST PUSH1 0x4 SSTORE POP POP PUSH1 0x8 ADD DUP1 SLOAD PUSH1 0xFF NOT AND PUSH1 0x1 OR SWAP1 SSTORE POP POP JUMP JUMPDEST PUSH1 0x0 DUP2 DUP2 MSTORE PUSH1 0x3 PUSH1 0x20 MSTORE PUSH1 0x40 DUP2 KECCAK256 PUSH1 0x8 ADD SLOAD DUP3 SWAP1 PUSH1 0xFF AND ISZERO PUSH2 0xEA8 JUMPI PUSH1 0x0 DUP1 REVERT JUMPDEST PUSH1 0x0 DUP4 DUP2 MSTORE PUSH1 0x3 PUSH1 0x20 DUP2 DUP2 MSTORE PUSH1 0x40 SWAP3 DUP4 SWAP1 KECCAK256 DUP4 MLOAD PUSH2 0x120 DUP2 ADD DUP6 MSTORE DUP2 SLOAD PUSH1 0x1 PUSH1 0x1 PUSH1 0xA0 SHL SUB AND DUP2 MSTORE PUSH1 0x1 DUP3 ADD SLOAD SWAP3 DUP2 ADD SWAP3 SWAP1 SWAP3 MSTORE PUSH1 0x2 DUP2 ADD SLOAD SWAP4 DUP3 ADD SWAP4 SWAP1 SWAP4 MSTORE SWAP1 DUP3 ADD SLOAD PUSH1 0x60 DUP3 ADD MSTORE PUSH1 0x4 DUP3 ADD SLOAD PUSH1 0x80 DUP3 ADD MSTORE PUSH1 0x5 DUP3 ADD SLOAD PUSH1 0xFF SWAP1 DUP2 AND ISZERO ISZERO PUSH1 0xA0 DUP4 ADD MSTORE PUSH1 0x6 DUP4 ADD SLOAD PUSH1 0xC0 DUP4 ADD MSTORE PUSH1 0x7 DUP4 ADD SLOAD PUSH1 0xE0 DUP4 ADD MSTORE PUSH1 0x8 DUP4 ADD SLOAD AND ISZERO ISZERO PUSH2 0x100 DUP3 ADD MSTORE PUSH2 0xF37 SWAP1 PUSH2 0x10FA JUMP JUMPDEST SWAP5 SWAP4 POP POP POP POP JUMP JUMPDEST PUSH1 0x0 SLOAD PUSH1 0x1 PUSH1 0x1 PUSH1 0xA0 SHL SUB AND CALLER EQ PUSH2 0xF69 JUMPI PUSH1 0x40 MLOAD PUSH3 0x461BCD PUSH1 0xE5 SHL DUP2 MSTORE PUSH1 0x4 ADD PUSH2 0x3AC SWAP1 PUSH2 0x139E JUMP JUMPDEST PUSH1 0x0 DUP1 SLOAD PUSH1 0x1 PUSH1 0x1 PUSH1 0xA0 SHL SUB NOT AND PUSH1 0x1 PUSH1 0x1 PUSH1 0xA0 SHL SUB DUP4 AND SWAP1 DUP2 OR DUP3 SSTORE PUSH1 0x40 MLOAD SWAP1 SWAP2 CALLER SWAP2 PUSH32 0x8BE0079C531659141344CD1FD0A4F28419497F9722A3DAAFE3B4186F6B6457E0 SWAP2 SWAP1 LOG3 POP JUMP JUMPDEST PUSH2 0xFBC PUSH2 0x11C4 JUMP JUMPDEST PUSH2 0xFC9 PUSH2 0x2BD DUP5 DUP5 PUSH2 0xB7E JUMP JUMPDEST SWAP4 SWAP3 POP POP POP JUMP JUMPDEST PUSH1 0x1 PUSH1 0x1 PUSH1 0xA0 SHL SUB DUP2 AND PUSH1 0x0 SWAP1 DUP2 MSTORE PUSH1 0x5 PUSH1 0x20 MSTORE PUSH1 0x40 DUP2 KECCAK256 SLOAD PUSH2 0xBC0 SWAP1 DUP4 SWAP1 PUSH2 0xB7E JUMP JUMPDEST PUSH1 0x0 PUSH2 0xFFF PUSH1 0x2 SLOAD SWAP1 JUMP JUMPDEST DUP3 LT PUSH2 0x1057 JUMPI PUSH1 0x40 MLOAD PUSH3 0x461BCD PUSH1 0xE5 SHL DUP2 MSTORE PUSH1 0x20 PUSH1 0x4 DUP3 ADD MSTORE PUSH1 0x21 PUSH1 0x24 DUP3 ADD MSTORE PUSH32 0x546F6B656E56657374696E673A20696E646578206F7574206F6620626F756E64 PUSH1 0x44 DUP3 ADD MSTORE PUSH1 0x73 PUSH1 0xF8 SHL PUSH1 0x64 DUP3 ADD MSTORE PUSH1 0x84 ADD PUSH2 0x3AC JUMP JUMPDEST PUSH1 0x2 DUP3 DUP2 SLOAD DUP2 LT PUSH2 0x106A JUMPI PUSH2 0x106A PUSH2 0x1419 JUMP JUMPDEST SWAP1 PUSH1 0x0 MSTORE PUSH1 0x20 PUSH1 0x0 KECCAK256 ADD SLOAD SWAP1 POP SWAP2 SWAP1 POP JUMP JUMPDEST PUSH1 0x0 PUSH1 0x40 MLOAD PUSH4 0xA9059CBB PUSH1 0xE0 SHL DUP2 MSTORE DUP4 PUSH1 0x4 DUP3 ADD MSTORE DUP3 PUSH1 0x24 DUP3 ADD MSTORE PUSH1 0x20 PUSH1 0x0 PUSH1 0x44 DUP4 PUSH1 0x0 DUP10 GAS CALL RETURNDATASIZE ISZERO PUSH1 0x1F RETURNDATASIZE GT PUSH1 0x1 PUSH1 0x0 MLOAD EQ AND OR AND SWAP2 POP POP DUP1 PUSH2 0x10F4 JUMPI PUSH1 0x40 MLOAD PUSH3 0x461BCD PUSH1 0xE5 SHL DUP2 MSTORE PUSH1 0x20 PUSH1 0x4 DUP3 ADD MSTORE PUSH1 0xF PUSH1 0x24 DUP3 ADD MSTORE PUSH15 0x1514905394D1915497D19052531151 PUSH1 0x8A SHL PUSH1 0x44 DUP3 ADD MSTORE PUSH1 0x64 ADD PUSH2 0x3AC JUMP JUMPDEST POP POP POP POP JUMP JUMPDEST PUSH1 0x20 DUP2 ADD MLOAD PUSH1 0x0 SWAP1 TIMESTAMP SWAP1 DUP2 LT DUP1 PUSH2 0x1113 JUMPI POP DUP3 PUSH2 0x100 ADD MLOAD JUMPDEST ISZERO PUSH2 0x1121 JUMPI POP PUSH1 0x0 SWAP3 SWAP2 POP POP JUMP JUMPDEST DUP3 PUSH1 0x60 ADD MLOAD DUP4 PUSH1 0x20 ADD MLOAD PUSH2 0x1135 SWAP2 SWAP1 PUSH2 0x13DA JUMP JUMPDEST DUP2 LT PUSH2 0x114F JUMPI DUP3 PUSH1 0xE0 ADD MLOAD DUP4 PUSH1 0xC0 ADD MLOAD PUSH2 0xFC9 SWAP2 SWAP1 PUSH2 0x13ED JUMP JUMPDEST PUSH1 0x0 DUP4 PUSH1 0x20 ADD MLOAD DUP3 PUSH2 0x1161 SWAP2 SWAP1 PUSH2 0x13ED JUMP JUMPDEST PUSH1 0x80 DUP6 ADD MLOAD SWAP1 SWAP2 POP PUSH1 0x0 PUSH2 0x1175 DUP3 DUP5 PUSH2 0x142F JUMP JUMPDEST SWAP1 POP PUSH1 0x0 PUSH2 0x1183 DUP4 DUP4 PUSH2 0x1451 JUMP JUMPDEST SWAP1 POP PUSH1 0x0 DUP8 PUSH1 0x60 ADD MLOAD DUP3 DUP10 PUSH1 0xC0 ADD MLOAD PUSH2 0x119C SWAP2 SWAP1 PUSH2 0x1451 JUMP JUMPDEST PUSH2 0x11A6 SWAP2 SWAP1 PUSH2 0x142F JUMP JUMPDEST SWAP1 POP DUP8 PUSH1 0xE0 ADD MLOAD DUP2 PUSH2 0x11B8 SWAP2 SWAP1 PUSH2 0x13ED JUMP JUMPDEST SWAP9 SWAP8 POP POP POP POP POP POP POP POP JUMP JUMPDEST PUSH1 0x40 MLOAD DUP1 PUSH2 0x120 ADD PUSH1 0x40 MSTORE DUP1 PUSH1 0x0 PUSH1 0x1 PUSH1 0x1 PUSH1 0xA0 SHL SUB AND DUP2 MSTORE PUSH1 0x20 ADD PUSH1 0x0 DUP2 MSTORE PUSH1 0x20 ADD PUSH1 0x0 DUP2 MSTORE PUSH1 0x20 ADD PUSH1 0x0 DUP2 MSTORE PUSH1 0x20 ADD PUSH1 0x0 DUP2 MSTORE PUSH1 0x20 ADD PUSH1 0x0 ISZERO ISZERO DUP2 MSTORE PUSH1 0x20 ADD PUSH1 0x0 DUP2 MSTORE PUSH1 0x20 ADD PUSH1 0x0 DUP2 MSTORE PUSH1 0x20 ADD PUSH1 0x0 ISZERO ISZERO DUP2 MSTORE POP SWAP1 JUMP JUMPDEST DUP1 CALLDATALOAD PUSH1 0x1 PUSH1 0x1 PUSH1 0xA0 SHL SUB DUP2 AND DUP2 EQ PUSH2 0x1234 JUMPI PUSH1 0x0 DUP1 REVERT JUMPDEST SWAP2 SWAP1 POP JUMP JUMPDEST PUSH1 0x0 DUP1 PUSH1 0x0 DUP1 PUSH1 0x0 DUP1 PUSH1 0x0 PUSH1 0xE0 DUP9 DUP11 SUB SLT ISZERO PUSH2 0x1254 JUMPI PUSH1 0x0 DUP1 REVERT JUMPDEST PUSH2 0x125D DUP9 PUSH2 0x121D JUMP JUMPDEST SWAP7 POP PUSH1 0x20 DUP9 ADD CALLDATALOAD SWAP6 POP PUSH1 0x40 DUP9 ADD CALLDATALOAD SWAP5 POP PUSH1 0x60 DUP9 ADD CALLDATALOAD SWAP4 POP PUSH1 0x80 DUP9 ADD CALLDATALOAD SWAP3 POP PUSH1 0xA0 DUP9 ADD CALLDATALOAD DUP1 ISZERO ISZERO DUP2 EQ PUSH2 0x128E JUMPI PUSH1 0x0 DUP1 REVERT JUMPDEST DUP1 SWAP3 POP POP PUSH1 0xC0 DUP9 ADD CALLDATALOAD SWAP1 POP SWAP3 SWAP6 SWAP9 SWAP2 SWAP5 SWAP8 POP SWAP3 SWAP6 POP JUMP JUMPDEST PUSH1 0x0 PUSH1 0x20 DUP3 DUP5 SUB SLT ISZERO PUSH2 0x12B7 JUMPI PUSH1 0x0 DUP1 REVERT JUMPDEST POP CALLDATALOAD SWAP2 SWAP1 POP JUMP JUMPDEST PUSH1 0x0 PUSH1 0x20 DUP3 DUP5 SUB SLT ISZERO PUSH2 0x12D0 JUMPI PUSH1 0x0 DUP1 REVERT JUMPDEST PUSH2 0xFC9 DUP3 PUSH2 0x121D JUMP JUMPDEST PUSH1 0x0 DUP1 PUSH1 0x40 DUP4 DUP6 SUB SLT ISZERO PUSH2 0x12EC JUMPI PUSH1 0x0 DUP1 REVERT JUMPDEST POP POP DUP1 CALLDATALOAD SWAP3 PUSH1 0x20 SWAP1 SWAP2 ADD CALLDATALOAD SWAP2 POP JUMP JUMPDEST PUSH1 0x0 PUSH2 0x120 DUP3 ADD SWAP1 POP PUSH1 0x1 DUP1 PUSH1 0xA0 SHL SUB DUP4 MLOAD AND DUP3 MSTORE PUSH1 0x20 DUP4 ADD MLOAD PUSH1 0x20 DUP4 ADD MSTORE PUSH1 0x40 DUP4 ADD MLOAD PUSH1 0x40 DUP4 ADD MSTORE PUSH1 0x60 DUP4 ADD MLOAD PUSH1 0x60 DUP4 ADD MSTORE PUSH1 0x80 DUP4 ADD MLOAD PUSH1 0x80 DUP4 ADD MSTORE PUSH1 0xA0 DUP4 ADD MLOAD ISZERO ISZERO PUSH1 0xA0 DUP4 ADD MSTORE PUSH1 0xC0 DUP4 ADD MLOAD PUSH1 0xC0 DUP4 ADD MSTORE PUSH1 0xE0 DUP4 ADD MLOAD PUSH1 0xE0 DUP4 ADD MSTORE PUSH2 0x100 DUP1 DUP5 ADD MLOAD PUSH2 0x136C DUP3 DUP6 ADD DUP3 ISZERO ISZERO SWAP1 MSTORE JUMP JUMPDEST POP POP SWAP3 SWAP2 POP POP JUMP JUMPDEST PUSH1 0x0 DUP1 PUSH1 0x40 DUP4 DUP6 SUB SLT ISZERO PUSH2 0x1387 JUMPI PUSH1 0x0 DUP1 REVERT JUMPDEST PUSH2 0x1390 DUP4 PUSH2 0x121D JUMP JUMPDEST SWAP5 PUSH1 0x20 SWAP4 SWAP1 SWAP4 ADD CALLDATALOAD SWAP4 POP POP POP JUMP JUMPDEST PUSH1 0x20 DUP1 DUP3 MSTORE PUSH1 0xC SWAP1 DUP3 ADD MSTORE PUSH12 0x15539055551213D492569151 PUSH1 0xA2 SHL PUSH1 0x40 DUP3 ADD MSTORE PUSH1 0x60 ADD SWAP1 JUMP JUMPDEST PUSH4 0x4E487B71 PUSH1 0xE0 SHL PUSH1 0x0 MSTORE PUSH1 0x11 PUSH1 0x4 MSTORE PUSH1 0x24 PUSH1 0x0 REVERT JUMPDEST DUP1 DUP3 ADD DUP1 DUP3 GT ISZERO PUSH2 0xBC0 JUMPI PUSH2 0xBC0 PUSH2 0x13C4 JUMP JUMPDEST DUP2 DUP2 SUB DUP2 DUP2 GT ISZERO PUSH2 0xBC0 JUMPI PUSH2 0xBC0 PUSH2 0x13C4 JUMP JUMPDEST PUSH1 0x0 PUSH1 0x20 DUP3 DUP5 SUB SLT ISZERO PUSH2 0x1412 JUMPI PUSH1 0x0 DUP1 REVERT JUMPDEST POP MLOAD SWAP2 SWAP1 POP JUMP JUMPDEST PUSH4 0x4E487B71 PUSH1 0xE0 SHL PUSH1 0x0 MSTORE PUSH1 0x32 PUSH1 0x4 MSTORE PUSH1 0x24 PUSH1 0x0 REVERT JUMPDEST PUSH1 0x0 DUP3 PUSH2 0x144C JUMPI PUSH4 0x4E487B71 PUSH1 0xE0 SHL PUSH1 0x0 MSTORE PUSH1 0x12 PUSH1 0x4 MSTORE PUSH1 0x24 PUSH1 0x0 REVERT JUMPDEST POP DIV SWAP1 JUMP JUMPDEST DUP1 DUP3 MUL DUP2 ISZERO DUP3 DUP3 DIV DUP5 EQ OR PUSH2 0xBC0 JUMPI PUSH2 0xBC0 PUSH2 0x13C4 JUMP INVALID LOG2 PUSH5 0x6970667358 0x22 SLT KECCAK256 0xCF 0x49 LOG0 0x2C DUP4 SHL REVERT SWAP13 0x1E PUSH28 0x5053B69194047C5B45E2B6B6C3FA6CADF2C25BC701F564736F6C6343 STOP ADDMOD EQ STOP CALLER "
        },
        "methodIdentifiers": {
          "computeNextVestingScheduleIdForHolder(address)": "f7c469f0",
          "computeReleasableAmount(bytes32)": "ea1bb3d5",
          "computeVestingScheduleIdForAddressAndIndex(address,uint256)": "8af104da",
          "createVestingSchedule(address,uint256,uint256,uint256,uint256,bool,uint256)": "17e289e9",
          "getLastVestingScheduleForHolder(address)": "7e913dc6",
          "getToken()": "21df0da7",
          "getVestingIdAtIndex(uint256)": "f9079b37",
          "getVestingSchedule(bytes32)": "9ef346b4",
          "getVestingScheduleByAddressAndIndex(address,uint256)": "f51321d7",
          "getVestingSchedulesCount()": "13083617",
          "getVestingSchedulesCountByBeneficiary(address)": "5a7bb69a",
          "getVestingSchedulesTotalAmount()": "48deb471",
          "getWithdrawableAmount()": "90be10cc",
          "owner()": "8da5cb5b",
          "release(bytes32,uint256)": "66afd8ef",
          "revoke(bytes32)": "b75c7dc6",
          "transferOwnership(address)": "f2fde38b",
          "withdraw(uint256)": "2e1a7d4d"
        }
      }
    }
  }
}