{
  "_format": "hh-sol-artifact-1",
  "contractName": "TokenVesting",
  "sourceName": "contracts/TokenVesting.sol",
  "abi": [
    {
      "inputs": [
        {
          "internalType": "address",
          "name": "token_",
          "type": "address"
        }
      ],
      "stateMutability": "nonpayable",
      "type": "constructor"
    },
    {
      "anonymous": false,
      "inputs": [
        {
          "indexed": true,
          "internalType": "address",
          "name": "user",
          "type": "address"
        },
        {
          "indexed": true,
          "internalType": "address",
          "name": "newOwner",
          "type": "address"
        }
      ],
      "name": "OwnershipTransferred",
      "type": "event"
    },
    {
      "stateMutability": "payable",
      "type": "fallback"
    },
    {
      "inputs": [
        {
          "internalType": "address",
          "name": "holder",
          "type": "address"
        }
      ],
      "name": "computeNextVestingScheduleIdForHolder",
      "outputs": [
        {
          "internalType": "bytes32",
          "name": "",
          "type": "bytes32"
        }
      ],
      "stateMutability": "view",
      "type": "function"
    },
    {
      "inputs": [
        {
          "internalType": "bytes32",
          "name": "vestingScheduleId",
          "type": "bytes32"
        }
      ],
      "name": "computeReleasableAmount",
      "outputs": [
        {
          "internalType": "uint256",
          "name": "",
          "type": "uint256"
        }
      ],
      "stateMutability": "view",
      "type": "function"
    },
    {
      "inputs": [
        {
          "internalType": "address",
          "name": "holder",
          "type": "address"
        },
        {
          "internalType": "uint256",
          "name": "index",
          "type": "uint256"
        }
      ],
      "name": "computeVestingScheduleIdForAddressAndIndex",
      "outputs": [
        {
          "internalType": "bytes32",
          "name": "",
          "type": "bytes32"
        }
      ],
      "stateMutability": "pure",
      "type": "function"
    },
    {
      "inputs": [
        {
          "internalType": "address",
          "name": "_beneficiary",
          "type": "address"
        },
        {
          "internalType": "uint256",
          "name": "_start",
          "type": "uint256"
        },
        {
          "internalType": "uint256",
          "name": "_cliff",
          "type": "uint256"
        },
        {
          "internalType": "uint256",
          "name": "_duration",
          "type": "uint256"
        },
        {
          "internalType": "uint256",
          "name": "_slicePeriodSeconds",
          "type": "uint256"
        },
        {
          "internalType": "bool",
          "name": "_revocable",
          "type": "bool"
        },
        {
          "internalType": "uint256",
          "name": "_amount",
          "type": "uint256"
        }
      ],
      "name": "createVestingSchedule",
      "outputs": [],
      "stateMutability": "nonpayable",
      "type": "function"
    },
    {
      "inputs": [
        {
          "internalType": "address",
          "name": "holder",
          "type": "address"
        }
      ],
      "name": "getLastVestingScheduleForHolder",
      "outputs": [
        {
          "components": [
            {
              "internalType": "address",
              "name": "beneficiary",
              "type": "address"
            },
            {
              "internalType": "uint256",
              "name": "cliff",
              "type": "uint256"
            },
            {
              "internalType": "uint256",
              "name": "start",
              "type": "uint256"
            },
            {
              "internalType": "uint256",
              "name": "duration",
              "type": "uint256"
            },
            {
              "internalType": "uint256",
              "name": "slicePeriodSeconds",
              "type": "uint256"
            },
            {
              "internalType": "bool",
              "name": "revocable",
              "type": "bool"
            },
            {
              "internalType": "uint256",
              "name": "amountTotal",
              "type": "uint256"
            },
            {
              "internalType": "uint256",
              "name": "released",
              "type": "uint256"
            },
            {
              "internalType": "bool",
              "name": "revoked",
              "type": "bool"
            }
          ],
          "internalType": "struct TokenVesting.VestingSchedule",
          "name": "",
          "type": "tuple"
        }
      ],
      "stateMutability": "view",
      "type": "function"
    },
    {
      "inputs": [],
      "name": "getToken",
      "outputs": [
        {
          "internalType": "address",
          "name": "",
          "type": "address"
        }
      ],
      "stateMutability": "view",
      "type": "function"
    },
    {
      "inputs": [
        {
          "internalType": "uint256",
          "name": "index",
          "type": "uint256"
        }
      ],
      "name": "getVestingIdAtIndex",
      "outputs": [
        {
          "internalType": "bytes32",
          "name": "",
          "type": "bytes32"
        }
      ],
      "stateMutability": "view",
      "type": "function"
    },
    {
      "inputs": [
        {
          "internalType": "bytes32",
          "name": "vestingScheduleId",
          "type": "bytes32"
        }
      ],
      "name": "getVestingSchedule",
      "outputs": [
        {
          "components": [
            {
              "internalType": "address",
              "name": "beneficiary",
              "type": "address"
            },
            {
              "internalType": "uint256",
              "name": "cliff",
              "type": "uint256"
            },
            {
              "internalType": "uint256",
              "name": "start",
              "type": "uint256"
            },
            {
              "internalType": "uint256",
              "name": "duration",
              "type": "uint256"
            },
            {
              "internalType": "uint256",
              "name": "slicePeriodSeconds",
              "type": "uint256"
            },
            {
              "internalType": "bool",
              "name": "revocable",
              "type": "bool"
            },
            {
              "internalType": "uint256",
              "name": "amountTotal",
              "type": "uint256"
            },
            {
              "internalType": "uint256",
              "name": "released",
              "type": "uint256"
            },
            {
              "internalType": "bool",
              "name": "revoked",
              "type": "bool"
            }
          ],
          "internalType": "struct TokenVesting.VestingSchedule",
          "name": "",
          "type": "tuple"
        }
      ],
      "stateMutability": "view",
      "type": "function"
    },
    {
      "inputs": [
        {
          "internalType": "address",
          "name": "holder",
          "type": "address"
        },
        {
          "internalType": "uint256",
          "name": "index",
          "type": "uint256"
        }
      ],
      "name": "getVestingScheduleByAddressAndIndex",
      "outputs": [
        {
          "components": [
            {
              "internalType": "address",
              "name": "beneficiary",
              "type": "address"
            },
            {
              "internalType": "uint256",
              "name": "cliff",
              "type": "uint256"
            },
            {
              "internalType": "uint256",
              "name": "start",
              "type": "uint256"
            },
            {
              "internalType": "uint256",
              "name": "duration",
              "type": "uint256"
            },
            {
              "internalType": "uint256",
              "name": "slicePeriodSeconds",
              "type": "uint256"
            },
            {
              "internalType": "bool",
              "name": "revocable",
              "type": "bool"
            },
            {
              "internalType": "uint256",
              "name": "amountTotal",
              "type": "uint256"
            },
            {
              "internalType": "uint256",
              "name": "released",
              "type": "uint256"
            },
            {
              "internalType": "bool",
              "name": "revoked",
              "type": "bool"
            }
          ],
          "internalType": "struct TokenVesting.VestingSchedule",
          "name": "",
          "type": "tuple"
        }
      ],
      "stateMutability": "view",
      "type": "function"
    },
    {
      "inputs": [],
      "name": "getVestingSchedulesCount",
      "outputs": [
        {
          "internalType": "uint256",
          "name": "",
          "type": "uint256"
        }
      ],
      "stateMutability": "view",
      "type": "function"
    },
    {
      "inputs": [
        {
          "internalType": "address",
          "name": "_beneficiary",
          "type": "address"
        }
      ],
      "name": "getVestingSchedulesCountByBeneficiary",
      "outputs": [
        {
          "internalType": "uint256",
          "name": "",
          "type": "uint256"
        }
      ],
      "stateMutability": "view",
      "type": "function"
    },
    {
      "inputs": [],
      "name": "getVestingSchedulesTotalAmount",
      "outputs": [
        {
          "internalType": "uint256",
          "name": "",
          "type": "uint256"
        }
      ],
      "stateMutability": "view",
      "type": "function"
    },
    {
      "inputs": [],
      "name": "getWithdrawableAmount",
      "outputs": [
        {
          "internalType": "uint256",
          "name": "",
          "type": "uint256"
        }
      ],
      "stateMutability": "view",
      "type": "function"
    },
    {
      "inputs": [],
      "name": "owner",
      "outputs": [
        {
          "internalType": "address",
          "name": "",
          "type": "address"
        }
      ],
      "stateMutability": "view",
      "type": "function"
    },
    {
      "inputs": [
        {
          "internalType": "bytes32",
          "name": "vestingScheduleId",
          "type": "bytes32"
        },
        {
          "internalType": "uint256",
          "name": "amount",
          "type": "uint256"
        }
      ],
      "name": "release",
      "outputs": [],
      "stateMutability": "nonpayable",
      "type": "function"
    },
    {
      "inputs": [
        {
          "internalType": "bytes32",
          "name": "vestingScheduleId",
          "type": "bytes32"
        }
      ],
      "name": "revoke",
      "outputs": [],
      "stateMutability": "nonpayable",
      "type": "function"
    },
    {
      "inputs": [
        {
          "internalType": "address",
          "name": "newOwner",
          "type": "address"
        }
      ],
      "name": "transferOwnership",
      "outputs": [],
      "stateMutability": "nonpayable",
      "type": "function"
    },
    {
      "inputs": [
        {
          "internalType": "uint256",
          "name": "amount",
          "type": "uint256"
        }
      ],
      "name": "withdraw",
      "outputs": [],
      "stateMutability": "nonpayable",
      "type": "function"
    },
    {
      "stateMutability": "payable",
      "type": "receive"
    }
  ],
  "bytecode": "0x60a06040526001805534801561001457600080fd5b5060405161159638038061159683398101604081905261003391610098565b600080546001600160a01b031916339081178255604051909182917f8be0079c531659141344cd1fd0a4f28419497f9722a3daafe3b4186f6b6457e0908290a3506001600160a01b03811661008757600080fd5b6001600160a01b03166080526100c8565b6000602082840312156100aa57600080fd5b81516001600160a01b03811681146100c157600080fd5b9392505050565b60805161149e6100f86000396000818161015d0152818161081301528181610a840152610be4015261149e6000f3fe6080604052600436106101015760003560e01c80638da5cb5b1161008f578063ea1bb3d511610061578063ea1bb3d5146102e2578063f2fde38b14610302578063f51321d714610322578063f7c469f014610342578063f9079b371461036257005b80638da5cb5b1461026d57806390be10cc1461028d5780639ef346b4146102a2578063b75c7dc6146102c257005b806348deb471116100d357806348deb471146101b55780635a7bb69a146101ca57806366afd8ef146102005780637e913dc6146102205780638af104da1461024d57005b8063130836171461010a57806317e289e91461012e57806321df0da71461014e5780632e1a7d4d1461019557005b3661010857005b005b34801561011657600080fd5b506002545b6040519081526020015b60405180910390f35b34801561013a57600080fd5b50610108610149366004611239565b610382565b34801561015a57600080fd5b507f00000000000000000000000000000000000000000000000000000000000000005b6040516001600160a01b039091168152602001610125565b3480156101a157600080fd5b506101086101b03660046112a5565b610735565b3480156101c157600080fd5b5060045461011b565b3480156101d657600080fd5b5061011b6101e53660046112be565b6001600160a01b031660009081526005602052604090205490565b34801561020c57600080fd5b5061010861021b3660046112d9565b610840565b34801561022c57600080fd5b5061024061023b3660046112be565b610ab8565b60405161012591906112fb565b34801561025957600080fd5b5061011b610268366004611374565b610b7e565b34801561027957600080fd5b5060005461017d906001600160a01b031681565b34801561029957600080fd5b5061011b610bc6565b3480156102ae57600080fd5b506102406102bd3660046112a5565b610c66565b3480156102ce57600080fd5b506101086102dd3660046112a5565b610cfb565b3480156102ee57600080fd5b5061011b6102fd3660046112a5565b610e87565b34801561030e57600080fd5b5061010861031d3660046112be565b610f3f565b34801561032e57600080fd5b5061024061033d366004611374565b610fb4565b34801561034e57600080fd5b5061011b61035d3660046112be565b610fd0565b34801561036e57600080fd5b5061011b61037d3660046112a5565b610ff4565b6000546001600160a01b031633146103b55760405162461bcd60e51b81526004016103ac9061139e565b60405180910390fd5b806103be610bc6565b10156104455760405162461bcd60e51b815260206004820152604a60248201527f546f6b656e56657374696e673a2063616e6e6f7420637265617465207665737460448201527f696e67207363686564756c652062656361757365206e6f742073756666696369606482015269656e7420746f6b656e7360b01b608482015260a4016103ac565b600084116104a05760405162461bcd60e51b815260206004820152602260248201527f546f6b656e56657374696e673a206475726174696f6e206d757374206265203e604482015261020360f41b60648201526084016103ac565b600081116104f05760405162461bcd60e51b815260206004820181905260248201527f546f6b656e56657374696e673a20616d6f756e74206d757374206265203e203060448201526064016103ac565b60018310156105575760405162461bcd60e51b815260206004820152602d60248201527f546f6b656e56657374696e673a20736c696365506572696f645365636f6e647360448201526c206d757374206265203e3d203160981b60648201526084016103ac565b848410156105b75760405162461bcd60e51b815260206004820152602760248201527f546f6b656e56657374696e673a206475726174696f6e206d757374206265203e6044820152661e9031b634b33360c91b60648201526084016103ac565b60006105c288610fd0565b905060006105d087896113da565b60408051610120810182526001600160a01b03808d16825260208083018581528385018e8152606085018d8152608086018d81528c151560a0880190815260c088018d8152600060e08a018181526101008b018281528f83526003998a90529b90912099518a5499166001600160a01b031990991698909817895594516001890155925160028801559051938601939093559151600480860191909155915160058501805491151560ff19928316179055905160068501559151600784015592516008909201805492151592909116919091179055549091506106b49084906113da565b6004556002805460018181019092557f405787fa12a823e0f2b7631cc41b3ba8828b3321ca811111fa75cd3aa3bb5ace018390556001600160a01b038a166000908152600560205260409020549061070d9082906113da565b6001600160a01b03909a16600090815260056020526040902099909955505050505050505050565b6001546001146107745760405162461bcd60e51b815260206004820152600a6024820152695245454e5452414e435960b01b60448201526064016103ac565b60026001556000546001600160a01b031633146107a35760405162461bcd60e51b81526004016103ac9061139e565b806107ac610bc6565b101561080e5760405162461bcd60e51b815260206004820152602b60248201527f546f6b656e56657374696e673a206e6f7420656e6f756768207769746864726160448201526a7761626c652066756e647360a81b60648201526084016103ac565b6108397f0000000000000000000000000000000000000000000000000000000000000000338361107c565b5060018055565b60015460011461087f5760405162461bcd60e51b815260206004820152600a6024820152695245454e5452414e435960b01b60448201526064016103ac565b6002600155600082815260036020526040902060080154829060ff16156108a557600080fd5b6000838152600360205260408120805491549091336001600160a01b039182168114929091161481806108d55750805b6109525760405162461bcd60e51b815260206004820152604260248201527f546f6b656e56657374696e673a206f6e6c792062656e6566696369617279206160448201527f6e64206f776e65722063616e2072656c656173652076657374656420746f6b656064820152616e7360f01b608482015260a4016103ac565b604080516101208101825284546001600160a01b03168152600185015460208201526002850154918101919091526003840154606082015260048401546080820152600584015460ff908116151560a0830152600685015460c0830152600785015460e083015260088501541615156101008201526000906109d3906110fa565b905085811015610a4b5760405162461bcd60e51b815260206004820152603d60248201527f546f6b656e56657374696e673a2063616e6e6f742072656c6561736520746f6b60448201527f656e732c206e6f7420656e6f7567682076657374656420746f6b656e7300000060648201526084016103ac565b858460070154610a5b91906113da565b600785015583546004546001600160a01b0390911690610a7c9088906113ed565b600455610aaa7f0000000000000000000000000000000000000000000000000000000000000000828961107c565b505060018055505050505050565b610ac06111c4565b6001600160a01b03821660009081526005602052604081205460039190610aef908590610268906001906113ed565b8152602080820192909252604090810160002081516101208101835281546001600160a01b031681526001820154938101939093526002810154918301919091526003810154606083015260048101546080830152600581015460ff908116151560a0840152600682015460c0840152600782015460e084015260089091015416151561010082015292915050565b6040516bffffffffffffffffffffffff19606084901b166020820152603481018290526000906054016040516020818303038152906040528051906020012090505b92915050565b600480546040516370a0823160e01b815230928101929092526000917f00000000000000000000000000000000000000000000000000000000000000006001600160a01b0316906370a0823190602401602060405180830381865afa158015610c33573d6000803e3d6000fd5b505050506040513d601f19601f82011682018060405250810190610c579190611400565b610c6191906113ed565b905090565b610c6e6111c4565b5060009081526003602081815260409283902083516101208101855281546001600160a01b0316815260018201549281019290925260028101549382019390935290820154606082015260048201546080820152600582015460ff908116151560a0830152600683015460c0830152600783015460e0830152600890920154909116151561010082015290565b6000546001600160a01b03163314610d255760405162461bcd60e51b81526004016103ac9061139e565b600081815260036020526040902060080154819060ff1615610d4657600080fd5b6000828152600360205260409020600581015460ff16610db75760405162461bcd60e51b815260206004820152602660248201527f546f6b656e56657374696e673a2076657374696e67206973206e6f74207265766044820152656f6361626c6560d01b60648201526084016103ac565b604080516101208101825282546001600160a01b03168152600183015460208201526002830154918101919091526003820154606082015260048201546080820152600582015460ff908116151560a0830152600683015460c0830152600783015460e08301526008830154161515610100820152600090610e38906110fa565b90508015610e4a57610e4a8482610840565b600082600701548360060154610e6091906113ed565b905080600454610e7091906113ed565b6004555050600801805460ff191660011790555050565b600081815260036020526040812060080154829060ff1615610ea857600080fd5b60008381526003602081815260409283902083516101208101855281546001600160a01b0316815260018201549281019290925260028101549382019390935290820154606082015260048201546080820152600582015460ff908116151560a0830152600683015460c0830152600783015460e08301526008830154161515610100820152610f37906110fa565b949350505050565b6000546001600160a01b03163314610f695760405162461bcd60e51b81526004016103ac9061139e565b600080546001600160a01b0319166001600160a01b0383169081178255604051909133917f8be0079c531659141344cd1fd0a4f28419497f9722a3daafe3b4186f6b6457e09190a350565b610fbc6111c4565b610fc96102bd8484610b7e565b9392505050565b6001600160a01b038116600090815260056020526040812054610bc0908390610b7e565b6000610fff60025490565b82106110575760405162461bcd60e51b815260206004820152602160248201527f546f6b656e56657374696e673a20696e646578206f7574206f6620626f756e646044820152607360f81b60648201526084016103ac565b6002828154811061106a5761106a611419565b90600052602060002001549050919050565b600060405163a9059cbb60e01b8152836004820152826024820152602060006044836000895af13d15601f3d11600160005114161716915050806110f45760405162461bcd60e51b815260206004820152600f60248201526e1514905394d1915497d19052531151608a1b60448201526064016103ac565b50505050565b6020810151600090429081108061111357508261010001515b156111215750600092915050565b8260600151836020015161113591906113da565b811061114f578260e001518360c00151610fc991906113ed565b600083602001518261116191906113ed565b60808501519091506000611175828461142f565b905060006111838383611451565b905060008760600151828960c0015161119c9190611451565b6111a6919061142f565b90508760e00151816111b891906113ed565b98975050505050505050565b60405180610120016040528060006001600160a01b031681526020016000815260200160008152602001600081526020016000815260200160001515815260200160008152602001600081526020016000151581525090565b80356001600160a01b038116811461123457600080fd5b919050565b600080600080600080600060e0888a03121561125457600080fd5b61125d8861121d565b96506020880135955060408801359450606088013593506080880135925060a0880135801515811461128e57600080fd5b8092505060c0880135905092959891949750929550565b6000602082840312156112b757600080fd5b5035919050565b6000602082840312156112d057600080fd5b610fc98261121d565b600080604083850312156112ec57600080fd5b50508035926020909101359150565b60006101208201905060018060a01b0383511682526020830151602083015260408301516040830152606083015160608301526080830151608083015260a0830151151560a083015260c083015160c083015260e083015160e08301526101008084015161136c8285018215159052565b505092915050565b6000806040838503121561138757600080fd5b6113908361121d565b946020939093013593505050565b6020808252600c908201526b15539055551213d49256915160a21b604082015260600190565b634e487b7160e01b600052601160045260246000fd5b80820180821115610bc057610bc06113c4565b81810381811115610bc057610bc06113c4565b60006020828403121561141257600080fd5b5051919050565b634e487b7160e01b600052603260045260246000fd5b60008261144c57634e487b7160e01b600052601260045260246000fd5b500490565b8082028115828204841417610bc057610bc06113c456fea2646970667358221220cf49a02c831bfd9c1e7b5053b69194047c5b45e2b6b6c3fa6cadf2c25bc701f564736f6c63430008140033",
  "linkReferences": {},
  "deployedLinkReferences": {}
}